:10000000C8C40000DAC40000D8C40000D6C4000090
:10001000D4C40000D2C40000D0C40000CEC400008C
:10002000CCC400000C941D12C8C400000C9472379C
:10003000C4C40000C2C40000C0C40000BEC40000AC
:10004000BCC400000C94262EB8C40000B6C4000046
:10005000B4C40000B2C40000B0C400000C943D3031
:10006000ACC400000C943B280C94FC27A6C40000F0
:10007000A4C40000A2C40000A0C400009EC40000EC
:100080009CC400009AC4000098C400000C943E2C4C
:1000900094C4000092C4000090C400008EC400000C
:1000A0008CC400008AC4000088C4000086C400001C
:1000B00084C4000082C4000080C4000029C5000080
:1000C0007CC400007AC4000078C4000076C400003C
:1000D00074C4000072C4000070C400006EC400004C
:1000E0006CC400003E099611961148095509620931
:1000F0006F09961173099611810996118B0995095B
:10010000C6099611961196119F09AC09B9090A10F2
:100110001B1048101B104C105F1052105810741018
:1001200082109810BB10EC10FE10121124114D23F8
:100130005023542357235A235D23602363236623CC
:1001400069236C236F2372237523812381238123E9
:10015000812381237B2378237E23C123C423C723C8
:10016000CA23CD23D023D323D623D923212B272B36
:100170002A2B2D2B312B392B432BC22BC22BC22BDD
:100180004B2B4E2B572B602BC22BC22BC22BC22BBF
:10019000C22BC22B682B722B7E2B862B892B922B8A
:1001A0009B2BA12BC22BC22BAA2BB32B084AD73BCC
:1001B0003BCE016E84BCBFFDC12F3D6C74319ABD36
:1001C00056833DDA3D00C77F11BED9E4BB4C3E915A
:1001D0006BAAAABE000000803F05A84CCDB2D44E49
:1001E000B93836A9020C50B9918688083CA6AAAA4B
:1001F0002ABE000000803F007D0D0A002C50726274
:100200003A002C4C696D3A0043746C3A007B53778A
:100210003A003E0D0A007C00310030007C002C507A
:10022000696E3A002C52583A002C4275663A002CFE
:10023000002C57506F733A002C002C4D506F733ABE
:10024000003C536C656570003C486F6C64003C4436
:100250006F6F72003C446F6F72003C436865636B64
:10026000003C416C61726D003C486F6D65003C481C
:100270006F6C64003C52756E003C49646C65005DB7
:100280000D0A005B312E322E302E323031363034B2
:1002900030333A000D0A003D00244E005D0D0A0087
:1002A000205300204600205400204D3700204D38B8
:1002B00000204D3900204D3500204D3400204D33B5
:1002C00000204D3200204D3100204D3000204739B4
:1002D0003400204739330020473931002047393076
:1002E00000204732300020473231002047313900AA
:1002F0002047313800204731370020470047333846
:100300002E0047383000473300473200473100475E
:1003100030005B005D0D0A005B544C4F3A005D0DF0
:100320000A002C005B4739323A005D0D0A002C00B0
:100330003A003330003238005B47005D0D0A003A66
:10034000002C005B5052423A00290D0A00206D61DA
:10035000782074726176656C2C206D6D002061636D
:1003600063656C2C206D6D2F7365635E3200206DAC
:10037000617820726174652C206D6D2F6D696E003F
:100380002C20737465702F6D6D007A0079007800F1
:100390002028003D002400202872706D206D696EB9
:1003A000290D0A00202872706D206D6178290D0AD0
:1003B0002433313D002028686F6D696E67207075A9
:1003C0006C6C2D6F66662C206D6D290D0A24333000
:1003D0003D002028686F6D696E67206465626F75E7
:1003E0006E63652C206D736563290D0A2432373DD9
:1003F000002028686F6D696E67207365656B2C201F
:100400006D6D2F6D696E290D0A2432363D0020284E
:10041000686F6D696E6720666565642C206D6D2F51
:100420006D696E290D0A2432353D00290D0A2432EA
:10043000343D002028686F6D696E67206469722002
:10044000696E76657274206D61736B3A002028685E
:100450006F6D696E67206379636C652C20626F6FC6
:100460006C290D0A2432333D002028686172642013
:100470006C696D6974732C20626F6F6C290D0A248E
:1004800032323D002028736F6674206C696D697488
:10049000732C20626F6F6C290D0A2432313D0020CD
:1004A000287265706F727420696E636865732C20A2
:1004B000626F6F6C290D0A2432303D002028617272
:1004C0006320746F6C6572616E63652C206D6D299D
:1004D0000D0A2431333D0020286A756E6374696FFC
:1004E0006E20646576696174696F6E2C206D6D296C
:1004F0000D0A2431323D00290D0A2431313D0020FE
:1005000028737461747573207265706F7274206DD6
:1005100061736B3A00202870726F62652070696E9B
:1005200020696E766572742C20626F6F6C290D0ADB
:100530002431303D0020286C696D69742070696E2B
:100540007320696E766572742C20626F6F6C290D52
:100550000A24363D0020287374657020656E616240
:100560006C6520696E766572742C20626F6F6C29E1
:100570000D0A24353D00290D0A24343D002028644D
:10058000697220706F727420696E76657274206D66
:1005900061736B3A00290D0A24333D0020287374DF
:1005A000657020706F727420696E76657274206D4C
:1005B00061736B3A002028737465702069646C6500
:1005C0002064656C61792C206D736563290D0A24A4
:1005D000323D002028737465702070756C73652C33
:1005E0002075736563290D0A24313D0024303D00D8
:1005F0002424202876696577204772626C20736511
:100600007474696E6773290D0A242320287669653E
:1006100077202320706172616D6574657273290D96
:100620000A244720287669657720706172736572A5
:10063000207374617465290D0A2449202876696540
:1006400077206275696C6420696E666F290D0A24D3
:100650004E202876696577207374617274757020F6
:10066000626C6F636B73290D0A24783D76616C753B
:1006700065202873617665204772626C207365740B
:1006800074696E67290D0A244E783D6C696E652089
:100690002873617665207374617274757020626C62
:1006A0006F636B290D0A24432028636865636B2000
:1006B00067636F6465206D6F6465290D0A24582097
:1006C000286B696C6C20616C61726D206C6F636B60
:1006D000290D0A2448202872756E20686F6D696E96
:1006E00067206379636C65290D0A7E20286379632E
:1006F0006C65207374617274290D0A212028666567
:10070000656420686F6C64290D0A3F202863757248
:1007100072656E7420737461747573290D0A637445
:10072000726C2D7820287265736574204772626C34
:10073000290D0A000D0A6743617276696E20312E19
:10074000322E30205B27242720666F722068656C6C
:10075000705D0D0A005D0D0A00536C656570204DDB
:100760006F646500526573746F72696E67206465AB
:100770006661756C74730050676D20456E6400434C
:100780006865636B20446F6F720044697361626CCB
:10079000656400456E61626C6564004361757469EF
:1007A0006F6E3A20556E6C6F636B6564002724484A
:1007B000277C2724582720746F20756E6C6F636B1D
:1007C00000526573657420746F20636F6E74696E78
:1007D0007565005B000D0A00486F6D696E672066E5
:1007E00061696C0050726F6265206661696C0041DE
:1007F000626F727420647572696E67206379636CCE
:100800006500536F6674206C696D6974004861728D
:1008100064206C696D697400414C41524D3A20006E
:100820000D0A00496E76616C69642067636F6465C8
:100830002049443A00556E646566696E65642066B9
:10084000656564207261746500556E737570706FB4
:100850007274656420636F6D6D616E64004D6F64CA
:10086000616C2067726F75702076696F6C61746956
:100870006F6E004C696E65206C656E6774682065EC
:100880007863656564656400436865636B20446FE5
:100890006F7200537465702072617465203E20335E
:1008A000306B487A004C696E65206F766572666CB5
:1008B0006F7700486F6D696E67206E6F7420656E8C
:1008C00061626C656400416C61726D206C6F636B7A
:1008D000004E6F742069646C6500454550524F4D61
:1008E0002072656164206661696C2E205573696EA3
:1008F000672064656661756C74730056616C75651C
:10090000203C203320757365630053657474696EF1
:10091000672064697361626C65640056616C75651B
:10092000203C203000496E76616C696420737461EC
:1009300074656D656E7400426164206E756D6265EC
:100940007220666F726D61740045787065637465BE
:100950006420636F6D6D616E64206C657474657284
:10096000006572726F723A20006F6B0D0A00205D95
:100970000D0A0020536C65657020466561747572C0
:100980006520005B446F6F72204665617475726507
:10099000200011241FBECFEFD1E2DEBFCDBF00E0AB
:1009A0000CBF2DE0A0E0B2E001C01D92A134B2075F
:1009B000E1F70E9480140C94393F22CBFC01118294
:1009C00012821382148215821082089581E090E0D1
:1009D00090931B0280931A0290931902809318023D
:1009E000E1E0F1E0808188608083808180618083A4
:1009F0008081806280830E94213A8BEA8093A000EC
:100A0000E1EAF0E08081887F826080831092A90013
:100A10001092A8001092AD001092AC0083EA80936F
:100A20009000E1E9F0E08081887F8260808310920D
:100A3000AB001092AA0010922001E1E2F1E01082D6
:100A400080818860808380818460808388E790E0F3
:100A50009093290180932801E3E7F0E08081826090
:100A6000808382E192E0AADF8CE092E0A7DF86E05B
:100A700092E0A4DF80E092E0A1DF93E09093140283
:100A8000109216028FEF8093120290930E02109232
:100A9000100280930C0281E090E00C94C93AFC01B2
:100AA0004283148260830895FC011182428381E0B5
:100AB00084838FEF808365830895FC019081818119
:100AC000981719F12281211102C091831BC0338133
:100AD000323018F03150338318C03481891740F414
:100AE0008F5F8183332369F08F3F59F4858108C07C
:100AF00081508183332329F09581981710F08FEF6F
:100B00008083238381E090E0089580E090E0089561
:100B10001F920F920FB60F9211240BB60F922F93C4
:100B20003F934F935F936F937F938F939F93AF9375
:100B3000BF93EF93FF9382E192E0BFDF892B39F0FF
:100B40008091130290E09093A9008093A8008CE01C
:100B500092E0B3DF892B39F080910D0290E0909301
:100B6000AB008093AA0086E092E0A7DF892B39F0E2
:100B70008091070290E09093AD008093AC0080E0FC
:100B800092E09BDF892B21F0809101028093B400D9
:100B900080911F0290912002181619064CF40197BB
:100BA0009093200280931F02892B11F40E948637B4
:100BB000FF91EF91BF91AF919F918F917F916F9135
:100BC0005F914F913F912F910F900BBE0F900FBEF1
:100BD0000F901F90189528E088E190E00FB6F894E8
:100BE000A895809360000FBE20936000FFCFCF9345
:100BF000DF938DE092E00E94011F88E092E00E9466
:100C0000011FC6E0D1E0888186700E944F1F82E0FC
:100C100092E00E94011F83B180770E944F1F8CEFEA
:100C200091E00E94011F888188700E944F1F88EF09
:100C300091E0DF91CF910C94011FA598E5E0F1E0E0
:100C400080818D7F808308959D9AE4E0F1E080812A
:100C500082608083F2CF90914B0B91110DC0823056
:100C600011F4A59A0895813031F4809105018260D4
:100C7000809305010895E1CF0895CF93DF931F92EC
:100C8000CDB7DEB790914C0B923041F089830E9432
:100C90002A2389810F90DF91CF91DDCF0F90DF91D3
:100CA000CF910895F999FECF92BD81BD81E08FBBB0
:100CB00080B50895F894F999FECF92BD81BD81E089
:100CC0008FBB40B54627842F992787FD9095262F07
:100CD00030E082239323892B39F06F3F19F060BDF8
:100CE00084E006C084E104C0442321F060BD84E2B6
:100CF0008FBBF99A789408959F92AF92BF92CF924A
:100D0000DF92EF92FF920F931F93CF93DF938C01AB
:100D10007A016B01C40ED51EEB01912C5C01A61A61
:100D2000B70ACE018A0D9B1DCC15DD0589F0911007
:100D300009C0692D772767FD7095272F221F22276D
:100D4000221F01C021E06991922E960EB3DFE9CFF8
:100D5000692DC8018E0D9F1DDF91CF911F910F91BD
:100D6000FF90EF90DF90CF90BF90AF909F90A2CF79
:100D70009F92AF92BF92CF92DF92EF92FF920F932A
:100D80001F93CF93DF938B017A016C01C40ED51EA4
:100D9000EC01912C5B01A81AB90AC5018C0F9D1FAB
:100DA000CC15DD0589F07EDF911009C0292D332790
:100DB00027FD3095232F221F2227221F01C021E06B
:100DC000922E980E8993E9CFC8018E0D9F1D6ADF80
:100DD00021E030E0981611F020E030E0C901DF9109
:100DE000CF911F910F91FF90EF90DF90CF90BF9028
:100DF000AF909F9008958FE3E3EDFAE0DF011D923D
:100E00008A95E9F766EF7AE080E00E944F2A811127
:100E100003C087E00C943823089560E57BE08AEEF8
:100E20009AE00C94E2392F923F924F925F926F9228
:100E30007F928F929F92AF92BF92CF92DF92EF926A
:100E4000FF920F931F93CF93DF93CDB7DEB7AB978E
:100E50000FB6F894DEBF0FBECDBF9F8F8E8F89E394
:100E6000E2E1FBE0DF011D928A95E9F78AE0E3ED1C
:100E7000FAE0A3E1BBE001900D928A95E1F71D8EA7
:100E8000212C312CA12CB12C19A2512C18A2662492
:100E90006394712C08E0402E9924939485E0882E69
:100EA0008D8DEE8DFF8DE80FF11D0081002309F47B
:100EB00090C29FEB900F9A3110F00C9488118F5FC5
:100EC0008D8FAE01475E5F4FBE01635E7F4F8E8D9B
:100ED0009F8D0E942519882311F40C948A11C98CC6
:100EE000DA8CEB8CFC8CC701B6010E94CD3E0E94CF
:100EF000353C162F70E080E090E00E94633C9B013F
:100F0000AC01C701B6010E94E73A20E030E048ECAE
:100F100052E40E94FF3D0E94623E0E94353C07342D
:100F200021F00D3409F450C197C1183209F432C1CF
:100F3000E8F4143160F4113108F0D7C0143009F42A
:100F40005AC008F48EC01A30D9F10C9496111C3195
:100F5000B9F128F4163108F4F7C00C9496111E313B
:100F600079F1163209F47DC00C9496111D3309F401
:100F70000BC1A8F4153309F461C040F41B3209F425
:100F8000ECC0113309F4E9C00C9496111C3310F035
:100F90000C94961116531093190B89E000C11C355F
:100FA00040F41A3508F0B0C0103509F49BC00C9419
:100FB00096111C3529F01F3508F4BDC00C9496110C
:100FC0006115710531F4B8A1B1110C948C11E1E0F7
:100FD000E8A31C3199F038F4143069F01A3009F0A4
:100FE000DBC082E02CC0153349F11C3559F11E31AC
:100FF00009F0D2C013C09092120BCEC061157105DA
:1010000049F06A30710511F00C94961124E0209398
:10101000120B09C0F3E0F093120B05C061157105C6
:1010200021F48092120B80E0BFC06A30710511F08C
:101030000C94961136E03093120BF5CF87E0809335
:10104000120BAAC06115710549F06A30710511F0E3
:101050000C94961199E09093120BE5CF4092120BED
:10106000E2CFA8A1A1110C948C11B2E0B8A3123068
:1010700089F028F4112359F0113081F08FC0163215
:1010800081F0103579F1133009F088C007C0109253
:10109000130B84C0E8A1E093130B80C01093130BD3
:1010A0007DC06E317105B1F048F46431710511F005
:1010B0000C949611F4E0F093130B12C06832710592
:1010C00061F06233710511F00C94961137E03093A2
:1010D000130B06C08092130B03C026E02093130B62
:1010E00081E062C04092130B59C0123129F01331D4
:1010F00039F01092170B02C09092170B82E04FC08C
:1011000082E08093170B4BC06115710549F41A35C5
:1011100019F41092160B02C09092160B83E044C093
:101120006A30710511F00C9496111A3511F40C9473
:10113000961184E039C01D3519F49092140B02C049
:101140001092140B85E02BC0143119F49092150BFA
:1011500002C01092150B86E022C088A181110C9468
:101160008C11113331F41092180B88E093E098A39E
:101170001BC06A30710511F00C9496119092180BF7
:1011800088E0A3E0A8A310C0672B11F00C9496117F
:101190008AE00AC087E003C080E001C081E0672BDD
:1011A00019F087E10C94A911F30102C0EE0FFF1FA3
:1011B0008A95E2F7CF019F012A213B21232B09F4D5
:1011C00048C085E10C94A911672B59F7163018F423
:1011D000133058F017C0173010F40C9496111A30D1
:1011E00000F11E3159F00C949611123039F01E3175
:1011F00029F0111125C090921A0B22C082E0809331
:101200001A0B1EC0143029F0153039F090921C0BC7
:1012100006C082E080931C0B02C010921C0B8CE075
:1012200010C0183029F0193039F090921B0B06C00D
:1012300082E080931B0B02C010921B0B8DE001C05B
:101240008BE0930102C0220F331F8A95E2F7C90198
:10125000B3CFA82AB92A24CE802F992787FD90954D
:10126000A92FB92FFC01E654F109E531F10510F081
:101270000C949611EE58FF4F0C941A3FC0921D0B20
:10128000D0921E0BE0921F0BF092200B80E07FC0EB
:10129000C092210BD092220BE092230BF092240BF0
:1012A00039A1316039A381E072C0C092250BD09280
:1012B000260BE092270BF092280B89A1826089A36C
:1012C00082E065C0C092290BD0922A0BE0922B0BD2
:1012D000F0922C0B99A1946099A383E058C01093CD
:1012E0002D0B84E054C0C701B6010E94303C6093CE
:1012F0002E0B70932F0B8093300B9093310B85E066
:1013000046C0C092320BD092330BE092340BF09275
:10131000350B86E03CC0C092360BD092370BE09282
:10132000380BF092390B87E032C0C0923A0BD09262
:101330003B0BE0923C0BF0923D0B88E028C0C09242
:101340003F0BD092400BE092410BF092420BA52D47
:10135000A1605A2E8AE01BC0C092430BD092440B6E
:10136000E092450BF092460BB52DB2605B2E8BE000
:101370000EC0C092470BD092480BE092490BF092FE
:101380004A0BE52DE4605E2E8CE001C089E083010C
:10139000082E02C0000F111F0A94E2F798012221C3
:1013A0003321232B09F0BAC721E633E002C035957B
:1013B00027958A95E2F720FF09C020E030E0A901D7
:1013C000C701B6010E94C13B87FDAAC7202A312A66
:1013D00067CD552029F038A1311102C082E088A3E1
:1013E00025FE0EC080912E0B90912F0BA091300BFB
:1013F000B091310B80389649A849B1050CF092C7DD
:101400008091140B813031F4F8A1F230A1F520FE67
:1014100093C731C08091D40A81112DC020FE1BC01A
:101420008091150B813039F523E333E34BEC51E424
:1014300060911D0B70911E0B80911F0B9091200BE2
:101440000E94FF3D60931D0B70931E0B80931F0B3A
:101450009093200B10C08091E10A9091E20AA09134
:10146000E30AB091E40A80931D0B90931E0BA093A6
:101470001F0BB093200B30FC10C08091DD0A9091BF
:10148000DE0AA091DF0AB091E00A80933A0B9093B4
:101490003B0BA0933C0BB0933D0B8091120B813022
:1014A00031F426FC02C08CE154C7E89426F8809100
:1014B000170B882341F0813061F019A682E088A7DC
:1014C00091E09FA30BC022E029A731E038A71FA21B
:1014D00005C0A1E0A9A718A6B2E0BFA38091150B93
:1014E000813021F0E8A1E33091F52AC0BFE3EB2E73
:1014F000BBE0FB2E00E010E0C52CD12CC601002E75
:1015000002C0959587950A94E2F780FF10C023E307
:1015100033E34BEC51E4D7016D917D918D919C911A
:101520000E94FF3DF70160837183828393830F5F85
:101530001F4FF4E0EF0EF11C03301105F9F6D2CF86
:101540008091180B813019F424E05212EDC68CE022
:10155000E6EFFAE0DE011D9601900D928A95E1F723
:10156000B1FC09C03091120B3E8F3230B9F03830E7
:1015700009F4B0C015C18091190B873010F08DE1CE
:10158000E8C69091D90A981769F3BE01635F7F4F4F
:101590000E944F2A882309F4D9C6E4CF511002C013
:1015A0008AE1D7C6C10180759927892B09F47BCFC1
:1015B0006091320B7091330B8091340B9091350B0D
:1015C0000E94CD3E0E94353C6730C8F680912D0BBD
:1015D000843129F0823009F0A9C627FCA7C68FEA1A
:1015E0002822662319F061506E8F03C09091190B69
:1015F0009E8FBE016F5F7F4F8E8D0E944F2A882382
:1016000009F4A4C640902D0B60900E0B70900F0B48
:101610008090100B9090110BDE0111967D01FFE37D
:10162000AF2EFBE0BF2EAAEECA2EAAE0DA2E00E013
:1016300010E0E52DF0E0FEA3EDA38DA19EA1002E0C
:1016400002C0959587950A94E2F780FF33C0F4E1D4
:101650004F1226C0D60158962D913D914D915C9127
:101660005B976D917D918D919C910E94E73AF50178
:1016700020813181428153810E94E73AD7016D93E5
:101680007D938D939C9313970230A1F4A401930151
:101690000E94E73AF70160837183828393830AC0D3
:1016A000F50180819181A281B381F70180839183CB
:1016B000A283B3830F5F1F4FF4E0EF0EF11C24E011
:1016C000A20EB11C34E0C30ED11C0330110509F089
:1016D000B4CF33C1552009F463CF60900E0B7090E6
:1016E0000F0B8090100B9090110B0FE31BE0EAEEB4
:1016F000CE2EEAE0DE2E5E018DE0A80EB11CE12CBC
:10170000F12CA52DB0E0BF8FAE8F8E8D9F8D0E2C4E
:1017100002C0959587950A94E2F780FF26C0F501EF
:101720002081318142815381D6016D917D918D91CE
:101730009C910E94E73AF8012081318142815381D6
:101740000E94E73AD8016D937D938D939C931397F4
:10175000B2E0EB1214C0A40193010E94E73AF80131
:1017600060837183828393830AC0F601808D918D9B
:10177000A28DB38DF80180839183A283B383FFEFA1
:10178000EF1AFF0A0C5F1F4F24E0C20ED11C34E099
:10179000A30EB11C83E0E816F10409F0B6CFCCC06B
:1017A00098A1933079F4AE8DA53009F48BC0A730A1
:1017B00009F4BDC0A33009F0BFC0BE016F5F7F4F09
:1017C00086E084C0552079F34090160B60900E0B94
:1017D00070900F0B8090100B9090110B7AEEC72E2B
:1017E0007AE0D72E0FE31BE05E01BDE0AB0EB11C2B
:1017F000E12CF12CE52DF0E0FEA3EDA38DA19EA13F
:101800000E2C02C0959587950A94E2F780FD0BC0D7
:10181000F60180819181A281B381F8018083918357
:10182000A283B3833EC0FE8DF730D9F1411028C0AA
:10183000D60158962D913D914D915C915B97F501A4
:1018400060817181828193810E94E83AD8012D9153
:101850003D914D915C910E94E83AF801608371835B
:1018600082839383F2E0EF121CC0A40193010E94D3
:10187000E83AD8016D937D938D939C93139711C093
:10188000F6012081318142815381D8016D917D9192
:101890008D919C910E94E83AF80160837183828364
:1018A0009383FFEFEF1AFF0A24E0C20ED11C0C5FF6
:1018B0001F4F34E0A30EB11C83E0E816F10409F0D9
:1018C0009DCF71CFBE016F5F7F4F87E00E944F2A8F
:1018D000882309F43BC5511003C01E8E18A22DC0E9
:1018E00020E030E080E090E0452D50E0BA01082E85
:1018F00002C0759567950A94E2F760FD11C0F90181
:10190000ED52F54FC788D08CE18CF28CE1E0F0E02D
:10191000EC0FFD1FE20FF31FC082D182E282F3823F
:1019200001962C5F3F4F8330910501F705C08091F0
:10193000130B823008F0FCC41E8E1091130B18306C
:1019400041F4552009F4B3C198A1913009F0F2C4D3
:101950008BC2A8A1A23009F0AAC11123D9F020E0BE
:1019600030E0A90160911D0B70911E0B80911F0B3F
:101970009091200B0E94C13B882309F4DDC41430F0
:1019800028F4123058F4113029F06EC2183008F4DF
:101990004DC16AC2511068C218A28CC1552009F409
:1019A000FFCDFFA1EF2FF0E0FEA3EDA338A5232F7D
:1019B00030E03BA72AA781E090E03C0108A402C0E8
:1019C000660C771C0A94E2F70FA002C0880F991FDB
:1019D0000A94E2F7682A792A852D90E086219721DA
:1019E000892B09F4ABC4CF01880F991F880F991F69
:1019F000FC01EE5EF44FDC01AD52B54F57962D91D0
:101A00003D914D915C915A9765A576A587A590A9C2
:101A10000E94E73A6B017C018AA59BA5880F991F5C
:101A2000880F991FFC01EE5EF44FDC01AD52B54FFB
:101A300057962D913D914D915C915A9765A576A54C
:101A400087A590A90E94E73A4B015C0127FE40C0A0
:101A5000E89427F820913F0B3091400B4091410BC7
:101A60005091420B6091EA0A7091EB0A8091EC0A66
:101A70009091ED0A0E94C13B811120C12091430B3E
:101A80003091440B4091450B5091460B6091EE0A0A
:101A90007091EF0A8091F00A9091F10A0E94C13B87
:101AA00081110CC12091470B3091480B4091490B9B
:101AB00050914A0B6091F20A7091F30A8091F40AF6
:101AC0009091F50A0E94C13B8111F8C081E241C4A6
:101AD000F9A14F2E512C64207520672809F430C4D9
:101AE00021EF22228091150B813009F45AC00AA5FA
:101AF0001BA5000F111F000F111F0A5E144FD80104
:101B00001B962D913D914D915C911E97C501B4019D
:101B10000E94E73A2B013C01ADA0BEA0AA0CBB1C61
:101B2000AA0CBB1CF501EA5EF44F5F0123853485E6
:101B300045855685C701B6010E94E73AA301920187
:101B40000E94111A6B017C01D8011B962D913D91C9
:101B50004D915C911E97F501638574858585968509
:101B60000E94111A4B015C016093360B7093370B86
:101B70008093380B9093390B9B01AC01C701B601E0
:101B80000E94E73A6B017C01E894F7F82AE037ED10
:101B900043EA5BE3C701B6010E94C43D18164CF14D
:101BA00063C181E2682E8BE0782E00E010E0C20174
:101BB000002E02C0959587950A94E2F780FF10C029
:101BC00023E333E34BEC51E4D3016D917D918D918F
:101BD0009C910E94FF3DF301608371838283938314
:101BE0000F5F1F4FF4E06F0E711C03301105F9F603
:101BF0007ECF20E030E040E05FE3C701B6010E9405
:101C0000C43D18160CF462CF2FE632E143E85AE3E4
:101C1000C501B4010E94FF3D9B01AC01C701B601A3
:101C20000E94C43D18160CF451CF1EC1552009F472
:101C3000B7CC20913F0B3091400B4091410B50911C
:101C4000420B6091EA0A7091EB0A8091EC0A909144
:101C5000ED0A0E94C13B811107C12091430B3091D5
:101C6000440B4091450B5091460B6091EE0A7091E8
:101C7000EF0A8091F00A9091F10A0E94C13B811114
:101C8000F3C02091470B3091480B4091490B509184
:101C90004A0B6091F20A7091F30A8091F40A9091D4
:101CA000F50A0E94C13B882309F410CFDDC028A1AA
:101CB0002111DAC0C1018E7D9C7FD9C08091150BA6
:101CC0008130B1F423E333E34BEC51E46091360B04
:101CD0007091370B8091380B9091390B0E94FF3D2A
:101CE0006093360B7093370B8093380B9093390BBE
:101CF0004090360B5090370B6090380B7090390B3A
:101D000020E030E040E850E4C301B2010E94FF3D12
:101D1000A30192010E94FF3D2B013C01A701960106
:101D2000C701B6010E94FF3D9B01AC01C301B20196
:101D30000E94E73A2B013C01A5019401C501B401C1
:101D40000E94FF3D9B01AC01C301B2010E94E73A32
:101D50002B013C0120E030E0A9010E94C13B87FD3E
:101D6000F7C2C301B2010E948C3E2B013C01A501C8
:101D70009401C701B6010E94111A9B01AC01C30175
:101D8000B20190580E94C83B2B013C018091130B7B
:101D9000833021F477FA709477F870948091360B41
:101DA0009091370BA091380BB091390B89A39AA36E
:101DB000ABA3BCA320E030E0A901BC01CD010E948F
:101DC000C13B87FF11C077FA709477F8709489A1AE
:101DD0009AA1ABA1BCA1B0588093360B9093370B5E
:101DE000A093380BB093390B0DA11EA1000F111F4A
:101DF000000F111F0A5E144FA3019201C501B40127
:101E00000E94FF3D9B01AC01C701B6010E94E73A69
:101E100020E030E040E05FE30E94FF3DD8011B96E8
:101E20006D937D938D939C931E970AA51BA5000F20
:101E3000111F000F111F0A5E144FA3019201C70169
:101E4000B6010E94FF3D9B01AC01C501B4010E9497
:101E5000E83A20E030E040E05FE30E94FF3DF80117
:101E60006387748785879687C1018E7D907E892BD5
:101E700009F068C280912E0B90912F0BA091300B2E
:101E8000B091310B8093E60A9093E70AA093E80A99
:101E9000B093E90A8091140B8093D40A80911D0BB2
:101EA00090911E0BA0911F0BB091200B8093E10A23
:101EB0009093E20AA093E30AB093E40AC0903A0B2D
:101EC000D0903B0BE0903C0BF0903D0BA7019601AE
:101ED0006091DD0A7091DE0A8091DF0A9091E00A3C
:101EE0000E94C13B8823C1F08091DC0A882321F045
:101EF000B701A6010E94B02D80913A0B90913B0B47
:101F0000A0913C0BB0913D0B8093DD0A9093DE0ACB
:101F1000A093DF0AB093E00A80913E0B8093E50A1C
:101F200080911C0B9091DC0A981771F04091DD0AAA
:101F30005091DE0A6091DF0A7091E00A0E94B02D94
:101F400080911C0B8093DC0A80911B0B9091DB0A23
:101F5000981731F00E943D0680911B0B8093DB0A9D
:101F60008091120B813051F46091320B7091330BE0
:101F70008091340B9091350B0E94F9178091170BCB
:101F80008093D70A8091150B8093D50A38A13330FE
:101F9000F9F48091180B8093D80A813089F48091EC
:101FA000470B9091480BA091490BB0914A0B80933D
:101FB0000E0B90930F0BA093100BB093110B08C056
:101FC00010920E0B10920F0B1092100B1092110B1F
:101FD0008091190B9091D90A981759F08093D90ADA
:101FE0008CE0FE013D96A6EFBAE001900D928A9535
:101FF000E1F78091160B8093D60A8091120B90E046
:10200000FC013297E830F10508F059C0E957FF4F5D
:102010000C941A3FBE016F5F7F4F8E8D0E949E28E9
:102020008091D90A9E8D89134AC08CE0FE013196B9
:10203000A6EFBAE028C0A8A1AA2381F0E090E60AA2
:10204000F090E70A0091E80A1091E90A20E040E0E8
:1020500050E060E87FEB8FE39BE08FD4E090E60AEE
:10206000F090E70A0091E80A1091E90A20E040E0C8
:1020700050E060E87FEBCE0101967FD48CE0FE015A
:102080003196AAEEBAE001900D928A95E1F717C059
:102090006AEE7AE086E003C06AEE7AE087E00E94AA
:1020A0009E280DC08CE0EFE3FBE0A2E0BBE0EBCFAD
:1020B0008CE0E2E0FBE0DF011D928A95E9F7809178
:1020C000130B8093D30A883009F4DFC0B8A1B23073
:1020D00009F0DBC090E08830910508F0CDC0FC012C
:1020E000E157FF4F0C941A3FE090E60AF090E70AA0
:1020F0000091E80A1091E90A20E040E050E060E831
:102100007FEB12C0E090E60AF090E70A0091E80A3F
:102110001091E90A4091E10A5091E20A6091E30AC4
:102120007091E40A2091D40A8FE39BE026D4A4C0E6
:10213000C090E10AD090E20AE090E30AF090E40A4D
:102140000091360B1091370B2091380B3091390BE1
:102150008091E90A8F938091E80A8F938091E70A32
:102160008F938091E60A8F9381E08F93E9A5EF9397
:10217000F8A5FF9321C0C090E10AD090E20AE09058
:10218000E30AF090E40A0091360B1091370B20918E
:10219000380B3091390B8091E90A8F938091E80ACE
:1021A0008F938091E70A8F938091E60A8F931F9215
:1021B00089A58F9398A59F938FA0A090D40A41E200
:1021C0005BE06FE37BE08AEE9AE028D40FB6F894E8
:1021D000DEBF0FBECDBF50C0A090E60AB090E70AA8
:1021E000C090E80AD090E90A4091E10A5091E20AD1
:1021F0006091E30A7091E40AE12C12C0A090E60A13
:10220000B090E70AC090E80AD090E90A4091E10A4C
:102210005091E20A6091E30A7091E40AEE24E3949B
:1022200000E025C0A090E60AB090E70AC090E80A56
:10223000D090E90A4091E10A5091E20A6091E30AE4
:102240007091E40AE12C12C0A090E60AB090E70A6F
:10225000C090E80AD090E90A4091E10A5091E20A60
:102260006091E30A7091E40AEE24E39401E0209186
:10227000D40A8FE39BE0EFD68CE0EFE3FBE0AAEE1D
:10228000BAE001900D928A95E1F780911A0B809344
:10229000DA0A882309F458C00E942A239091DA0AA6
:1022A00080914C0B913041F4823079F188E00E94AA
:1022B000FB390E94712129C091E09093D30A1092BA
:1022C000D70A1092D60A1092D40A1092D90A109204
:1022D000DC0A1092DB0A8230A9F0BE01635F7F4FF7
:1022E00080E00E944F2A882389F18CE0FE013D9610
:1022F000A6EFBAE001900D928A95E1F70E94E02CDA
:102300000E941D0687E00E94B1231092DA0A1CC0C9
:1023100081E01FC082E01DC088E11BC089E119C0B7
:1023200084E017C08BE115C085E213C084E111C0C1
:102330008EE10FC08FE10DC086E10BC080E209C0C5
:1023400083E207C084E205C080E003C087E001C0EB
:1023500082E2AB960FB6F894DEBF0FBECDBFDF9121
:10236000CF911F910F91FF90EF90DF90CF90BF9092
:10237000AF909F908F907F906F905F904F903F9025
:102380002F900895EBE6F0E080818F788083E8E677
:10239000F0E080818E7F8083089584B18F7884B946
:1023A00085B1806785B98091300D83FF0BC0809126
:1023B0006B00806780936B008091680081608093E0
:1023C00068000895DFCFCF92DF92FF920F931F93A3
:1023D000CF93DF931F92CDB7DEB793B19077809103
:1023E000300D86FD02C080E798279923D9F0C12CD3
:1023F000D12CF12C01E010E08C2D99830E94EC2B64
:102400009981892339F098010C2C01C0220F0A947C
:10241000EAF7F22A8FEFC81AD80AE3E0CE16D10401
:1024200059F701C0F12C8F2D0F90DF91CF911F91A3
:102430000F91FF90DF90CF9008951F920F920FB6EB
:102440000F9211240BB60F922F933F934F935F93EC
:102450006F937F938F939F93AF93BF93EF93FF936C
:1024600080914C0B813041F080911C02811104C09D
:10247000CED683E00E940E3AFF91EF91BF91AF91CB
:102480009F918F917F916F915F914F913F912F918C
:102490000F900BBE0F900FBE0F901F9018952F92AC
:1024A0003F924F925F926F927F928F929F92AF92E4
:1024B000BF92CF92DF92EF92FF920F931F93CF9331
:1024C000DF93CDB7DEB767970FB6F894DEBF0FBEC8
:1024D000CDBF482E80914B0B81119CC12FE0A22EC5
:1024E0002DE0B22E9E01235F3F4F190100E010E066
:1024F000C12CD12C7601642C712C802F0E94D82BFA
:10250000D1018D931D01C301002E02C095958795C1
:102510000A94E2F780FF1AC02DEC3CEC4CE85FEB2C
:10252000F50160817181828193810E94FF3D688BFA
:10253000572E4C01262F372FAC01C701B6010E9440
:10254000C43D18161CF0C888D52C74010F5F1F4FAE
:10255000F4E0AF0EB11C0330110579F68090360D12
:102560009090370DA090380DB090390D24E0288B55
:102570005524539460E57BE0CE0101960E94E23938
:102580002090310D312CFE01319680E59BE09F8B30
:102590008E8B80E090E000E010E0B701A60170585B
:1025A0009301082E02C0359527950A94E2F720FF83
:1025B00028C00F5FAE89BF891D921D921D921C928B
:1025C00013979101082E02C0359527950A94E2F7DA
:1025D00020FF03C0552019F007C0552029F0C08204
:1025E000D182E282F38204C0408351836283738389
:1025F0002DE030E02C0F3D1F280F391FD9012C9101
:10260000122B019634962E893F892C5F3F4F3F8BCA
:102610002E8B8330910521F6602F70E080E090E0F2
:102620000E94613C0E948C3E9B01AC01C501B4013B
:102630000E94FF3DAB01BC011093690B4A8B5B8B81
:102640006C8B7D8B0E94B41ECC24CA94DC2C76014A
:1026500000E020E04A895B896C897D89CE01019682
:102660000E94B21B0E949E310E94D72D5520E1F09E
:10267000AADEFE013D9620E030E090E06191462F19
:10268000412359F0AC01022E02C0559547950A949A
:10269000E2F740FF02C0609516232F5F3F4F2330C3
:1026A000310561F71093690B0E949E3180911D02E4
:1026B000847389F080911D02807321F0A8D50E9457
:1026C0007121A8C05110A1C07EDE8421B9F784E039
:1026D0000E94043A04C0812F807E09F0C7CF0E9477
:1026E0008D30E0D780913A0D90913B0D8FD631E03F
:1026F0005326C9F020E030E040E251E460913C0D07
:1027000070913D0D80913E0D90913F0D0E94FF3DD7
:102710006B017C018090320D9090330DA090340DB0
:10272000B090350D10C0C0903C0DD0903D0DE090A4
:102730003E0DF0903F0D8090360D9090370DA0909B
:10274000380DB090390D88898150888B811112CF56
:102750008091310DA82FB0E0B98BA88BC0903C0DB3
:10276000D0903D0DE0903E0DF0903F0D16012701F9
:1027700057FA509457F850940BEE1CE080E5882EE1
:102780008BE0982EA12CB12CC3010A2C02C0959588
:1027900087950A94E2F780FF29C0888999890A2CD5
:1027A00002C0959587950A94E2F7F80180FF0EC064
:1027B00024A135A146A157A1C701B6010E94E83A5C
:1027C000D8012D913D914D915C9106C020813181C0
:1027D00042815381C201B1010E94FF3D0E94CF3D61
:1027E000D4016D937D938D939C931397BFEFAB1A98
:1027F000BB0AE4E08E0E911C0C5F1F4FF3E0AF1696
:10280000B10411F60E94B41E05C080911D0282FF22
:102810005ECF54CF67960FB6F894DEBF0FBECDBF24
:10282000DF91CF911F910F91FF90EF90DF90CF90AC
:10283000BF90AF909F908F907F906F905F904F90E0
:102840003F902F900895BF92CF92DF92EF92FF9228
:102850000F931F93CF93DF938C01CFE0DDE0BB2478
:10286000B394F801C190D190E190F1908F0120E0F4
:1028700030E0A901C701B6010E94C43D18164CF012
:10288000288139814A815B81C701B6010E94C13B21
:1028900087FDB0924E0B80914E0B882309F18091F9
:1028A0004C0B803179F0B3D485E00E940E3ADF9171
:1028B000CF911F910F91FF90EF90DF90CF90BF903D
:1028C0000C94712188E00E94FB390E947121809153
:1028D0004B0B81110BC080914C0B8111F6CFE3CFD4
:1028E0002496FDE0CB31DF0709F0BBCFDF91CF911C
:1028F0001F910F91FF90EF90DF90CF90BF900895C0
:102900000E94CA270E94CE2B0E94E6040E94B73084
:102910000E944C378FE1EBE4FBE0DF011D928A95CA
:10292000E9F781E080934B0B78948091300D84FF20
:1029300003C081E080934C0B0E9489280E94FB0613
:102940000E94CC2C0E94240628DD0E9437200E9481
:102950002C2CA8D60E948D300E94B41E0E940D0718
:1029600010924B0B10921D0210921C0210924D0BF4
:1029700010924E0B0E94B222DFCF8F929F92BF9295
:10298000CF92DF92EF92FF920F931F93CF93DF933B
:1029900000D01F92CDB7DEB74C01B22E670178018F
:1029A0008091300D85FF0AC0C40149835A836B832F
:1029B0007C8349DF7C816B815A81498180914C0BFA
:1029C0008230E1F049835A836B837C830E947121BA
:1029D00080914B0B811112C0BDD649815A816B8108
:1029E0007C81882339F00E94622049815A816B8161
:1029F0007C81E8CF00E02B2DC401B4D60F900F905E
:102A00000F900F90DF91CF911F910F91FF90EF905A
:102A1000DF90CF90BF909F908F9008952F923F921C
:102A20004F925F926F927F928F929F92AF92BF92DE
:102A3000CF92DF92EF92FF920F931F93CF93DF938A
:102A4000CDB7DEB7E7970FB6F894DEBF0FBECDBFA8
:102A50009A8B898B1B013A0109871A872B873C8740
:102A6000CB8ADC8AED8AFE8AA98E24E0829E200130
:102A70001124840D951D9B8F8A8FCA01840D951D8D
:102A80009D8F8C8FDC018D909D90AD90BC90EA8DD8
:102A9000FB8D2081318142815381C501B4010E94A7
:102AA000E83A6E8F7F8F88A399A32E960FAD2E974D
:102AB000F4E00F9F8001112429893A89200F311FEA
:102AC0003BA32AA3C301800F911F9DA38CA3DC010C
:102AD000CD90DD90ED90FC90F90120813181428113
:102AE0005381C701B6010E94E83A6EA37FA388A76D
:102AF00099A7D501C401B0588D839E83AF83B88751
:102B0000D701C601B05889839A83AB83BC83F10196
:102B1000E40DF51D2E8D3F8D48A159A16081718175
:102B2000828193810E94E73A6B017C01F101E00F01
:102B3000F11F2EA13FA148A559A560817181828115
:102B400093810E94E73A4B015C01A70196016D81D8
:102B50007E818F8198850E94FF3D2B013C01A5015C
:102B6000940169817A818B819C810E94FF3D9B0148
:102B7000AC01C301B2010E94E83A2B013C01A5015E
:102B800094016D817E818F8198850E94FF3D4B016C
:102B90005C01A701960169817A818B819C810E94E9
:102BA000FF3D9B01AC01C501B4010E94E73AA301BE
:102BB00092010E945B3B6B017C0160968FAD609738
:102BC000882399F02DEB37E346E055EBC701B601BA
:102BD0000E94C43D87FD1DC02BED3FE049EC50E451
:102BE000C701B6010E94E73A12C02DEB37E346E079
:102BF00055E3C701B6010E94C13B181654F02BEDF6
:102C00003FE049EC50E4C701B6010E94E83A6B018D
:102C10007C018090240D9090250DA090260DB09001
:102C2000270D29853A854B855C85CA01B9010E942B
:102C3000E83AA50194010E94E73A9B01AC01C50165
:102C4000B4010E94FF3D0E948C3E4B015C0120E0DC
:102C500030E040E05FE3C701B6010E94FF3D2985F7
:102C60003A854B855C850E94FF3D9F77A5019401C5
:102C70000E94C83B0E949E3C0E94353C7BA76AA7ED
:102C8000DB01AB2B09F48FC14B01A12CB12CB98D09
:102C9000BB2381F0C501B4010E94613C9B01AC01E2
:102CA0006B897C898D899E890E94FF3D6B8B7C8B13
:102CB0008D8B9E8BC501B4010E94613C4B015C0170
:102CC0009B01AC01C701B6010E94C83B2B013C012E
:102CD0002F968FAD2F97E4E08E9FC0011124298994
:102CE0003A89280F391F388F2F8BF101E80FF91F10
:102CF000D9012D913D914D915C91608171818281CD
:102D000093810E94E73AA50194010E94C83B6CABF5
:102D10007DAB8EAB9FABA3019201C301B2010E94B8
:102D2000FF3D9B01AC0160E070E080E090E40E9418
:102D3000E73A6B017C012BEA3AEA4AE25EE3C3011F
:102D4000B2010E94FF3D4B015C0120E030E040E811
:102D500050E4C701B6010E94E83A9B01AC01C501ED
:102D6000B4010E94FF3D6CA77DA78EA79FA720E01E
:102D700030E040E05FE3C701B6010E94FF3D68AB71
:102D800079AB8AAB9BAB1D86E1E0F0E0FA87E9877F
:102D900029853A858AA59BA52817390709F403C117
:102DA000FD85FC3008F04AC028A939A94AA95BA9C9
:102DB00069817A818B819C810E94FF3D6B017C013E
:102DC0002CA53DA54EA55FA56D817E818F8198853F
:102DD0000E94FF3DA70196010E94E83AB62EA72E59
:102DE000982E892E28A939A94AA95BA96D817E81CF
:102DF0008F8198850E94FF3D6B017C012CA53DA52C
:102E00004EA55FA569817A818B819C810E94FF3DDF
:102E10009B01AC01C701B6010E94E73A6D837E8336
:102E20008F8398872D852F5F2D878B2D9A2DA92D28
:102E3000B82D89839A83AB83BC836BC0A985BA857F
:102E4000BD0180E090E00E94613CA30192010E94DC
:102E5000FF3D6B017C010E94C53B69837A838B83B4
:102E60009C83C701B6010E94823E4B015C01EC8D40
:102E7000FD8DC080D180E280F380F7FAF094F7F8FE
:102E8000F094ACA1BDA18D919D910D90BC91A02D10
:102E90008D879E87AF87B88B29813A814B815C8172
:102EA000C701B6010E94FF3D6D837E838F839887A3
:102EB000A50194016D857E858F8598890E94FF3DCF
:102EC0009B01AC016D817E818F8198850E94E83ADB
:102ED0006D837E838F839887A5019401C701B60116
:102EE0000E94FF3D6B017C0129813A814B815C810D
:102EF0006D857E858F8598890E94FF3D9B01AC0181
:102F0000C701B6010E94E73A69837A838B839C8369
:102F10001D862D813E814F8158856E8D7F8D88A1C4
:102F200099A10E94E83AEA8DFB8D608371838283C8
:102F3000938329813A814B815C816EA17FA188A511
:102F400099A50E94E83AAAA1BBA16D937D938D93A8
:102F50009C9313972CA93DA94EA95FA9EF89F88DE1
:102F600060817181828193810E94E83AAF89B88D36
:102F70006D937D938D939C9313976496ECACFDAC0D
:102F80000EAD1FAD6497298D4B895C896D897E8953
:102F900089899A89F2DC80914B0B811111C0E985F6
:102FA000FA853196F3CE6496ECACFDAC0EAD1FAD58
:102FB0006497298D4B895C896D897E89C101DDDC2F
:102FC000E7960FB6F894DEBF0FBECDBFDF91CF916D
:102FD0001F910F91FF90EF90DF90CF90BF90AF9037
:102FE0009F908F907F906F905F904F903F902F9029
:102FF0000895CF93DF9300D01F92CDB7DEB7209115
:103000004C0B223091F069837A838B839C830E94DE
:103010002A2340E069817A818B819C810F900F90F7
:103020000F900F90DF91CF91C2C10F900F900F9032
:103030000F90DF91CF910895A5D984E030DA83E035
:103040002EDA0E94712180914B0B811103C00E94E6
:103050000D07A3C908956F927F929F92AF92BF927E
:10306000CF92DF92EF92FF920F931F93CF93DF9354
:1030700000D01F921F92CDB7DEB73C019E2C8091ED
:103080004C0B823009F471C02D8349835A836B83C2
:103090007C830E942A231092680B802FD6D7F3D707
:1030A0002D8149815A816B817C81882351F080E197
:1030B0000E940E3A0E9471217C816B815A81498164
:1030C0002D8180914B0B811150C086017501C30188
:1030D00054DC81E080931E0282E00E94FB390E9452
:1030E000712180914B0B811140C080914C0B81115B
:1030F000F6CF80911E02813081F4992051F08CE04E
:10310000E0E5FBE0ACE5BBE001900D928A95E1F7CC
:1031100007C080E10E940E3A03C081E08093680BF3
:1031200010921E020E94712180914B0B81111DC0D3
:103130000E948D30B7D218D660E57BE0C3010E94B3
:10314000E2390F900F900F900F900F90DF91CF9179
:103150001F910F91FF90EF90DF90CF90BF90AF90B5
:103160009F907F906F900C9428250F900F900F9058
:103170000F900F90DF91CF911F910F91FF90EF90E3
:10318000DF90CF90BF90AF909F907F906F90089509
:10319000CF92DF92EF92FF920F9320914B0B211170
:1031A00030C03EEFC32EDD24DA94ED2CFD2C01E07F
:1031B000D9D290914F0B8823D9F0892F8D7F8860C9
:1031C00080934F0B0E9401310E949E310E94D72DA7
:1031D00080D780914B0B811114C080914F0B83FDE0
:1031E000F7CF0F91FF90EF90DF90CF900C94433189
:1031F000977F90934F0B0F91FF90EF90DF90CF90C0
:1032000068C70F91FF90EF90DF90CF900895809165
:103210001D0284FD19C080E10E94FB390E94E02C50
:103220000E941D0690914C0B892F887121F480918A
:103230004F0B8C7049F0983011F480E201C088E0A7
:103240000E940E3A0C94FC2D08956F927F928F92FB
:103250009F92AF92BF92CF92DF92EF92FF920F9325
:103260001F93CF93DF937C018B016A01FB01808167
:10327000F701E80FF11D2081EF012D3229F422968C
:1032800021816624639407C02B3211F0219602C07D
:1032900022962181612CA12CB12C712C60E070E070
:1032A000CB01FE0130ED932E920E29E02915C8F0D6
:1032B000B39428E02B1588F0A1107A94A5E0B0E033
:1032C0009B01AC010E94203F660F771F881F991F4A
:1032D000690D711D811D911D0BC0A11009C0739452
:1032E00007C02EEF921207C0A11005C0AA24A39414
:1032F00021962081D6CFBB2009F449C00E94613CB1
:103300004B015C0120E030E0A9010E94C13B882311
:1033100061F18FEF78166CF42AE037ED43E25CE35D
:10332000C501B4010E94FF3D4B015C01739473948D
:10333000F0CF78120BC02DEC3CEC4CEC5DE3C501FA
:10334000B4010E94FF3D4B015C010FC0772069F082
:1033500020E030E040E251E4C501B4010E94FF3DAD
:103360004B015C017A9417149CF3662021F0B7FAA4
:10337000B094B7F8B094F60180829182A282B382B1
:10338000CE19DF09C150F801C08381E001C080E09F
:10339000DF91CF911F910F91FF90EF90DF90CF9031
:1033A000BF90AF909F908F907F906F9008950F93F4
:1033B0001F93CF93C42F20E030E040EA51E40E94F5
:1033C000FF3D0E94AE3B0E94353C8B01011511056B
:1033D000C9F080914B0B811115C0C11102C081D77A
:1033E00005C077D680914D0B81FD0CC02FEF80E793
:1033F00092E0215080409040E1F700C00000015071
:103400001109E4CFCF911F910F910895009741F0DA
:10341000EFE9FFE03197F1F700C000000197F6CF28
:1034200008958F929F92AF92BF92CF92DF92EF92C8
:10343000FF9269017A019B01AC010E94FF3D4B01A3
:103440005C01A7019601C701B6010E94FF3D9B01E7
:10345000AC01C501B4010E94E83AFF90EF90DF9003
:10346000CF90BF90AF909F908F900C948C3E4F92D6
:103470005F926F927F928F929F92AF92BF92CF9204
:10348000DF92EF92FF920F931F93CF93DF931091F0
:103490003F02111101C014E2115000913D021017BA
:1034A00009F4EFC08DE2189FE0011124CF5BDD4FDE
:1034B0008D889E88AF88B88C69A17AA18BA19CA1C8
:1034C0009B01AC010E94E83A2DA13EA14FA158A555
:1034D0000E94FF3D6B017C019B01AC01B401C50161
:1034E0000E94C13B87FF02C064017501A601B701BC
:1034F000498B5A8B6B8B7C8B111101C014E27724A2
:103500007A94710E701619F02DE2622E27C0809108
:103510004002081351C00E94DD304EC0679C8001FC
:1035200011240F5B1D4F711002C094E2792E7A9422
:1035300080914002781202C00E94DD30F801C588F7
:10354000D688E788F08CA701960161897289838902
:1035500094890E94C13B811106C0E80180913D021F
:103560007812DCCF29C0F80161A172A183A194A1D6
:103570009B01AC010E94E83AF80125A136A147A1C0
:1035800050A50E94FF3D29893A894B895C890E9498
:10359000E83A4B015C01A70196010E94C13BF8018A
:1035A00087FF05C0818A928AA38AB48AD6CFC18A4E
:1035B000D28AE38AF48AD1CF60903D02FDE26F9E09
:1035C000800111240F5B1D4F77247394760C84E2E5
:1035D000781201C0712C50903F028DE2482E751474
:1035E00009F44DC0479CE0011124CF5BDD4FF80189
:1035F00081889288A388B488C988DA88EB88FC8897
:10360000A7019601C501B4010E94C13B87FF23C0F9
:10361000F80161A172A183A194A19B01AC010E9458
:10362000E83AF80125A136A147A150A50E94FF3D27
:103630009B01AC01C501B4010E94E83A4B015C0159
:10364000A70196010E94C13B87FF05C0898A9A8A1B
:10365000AB8ABC8A672C2D893E894F89588D698930
:103660007A898B899C890E94C13B811101C0672C9A
:103670007394F4E27F1201C0712C8E01B0CF60927E
:103680003D02DF91CF911F910F91FF90EF90DF905E
:10369000CF90BF90AF909F908F907F906F905F90F2
:1036A0004F9008958CE1E1E2F2E0DF011D928A95EE
:1036B000E9F71092400210923F0281E080933E02AF
:1036C00010923D0208959091400280913F02891727
:1036D00069F081E0890F843209F480E020913D0295
:1036E000921302C080933D0280934002089580911E
:1036F0003F022DE2829FC00111248F5B9D4F0895F0
:103700008091400290913F02981739F02DE2829FFC
:10371000C00111248F5B9D4F089580E090E00895D3
:10372000E0914002EF5FE43209F4E0E080913F0273
:10373000E81761F08DE2E89FF0011124EF5BFD4F87
:1037400061897289838994890C948C3E60E070E071
:10375000CB01089581E02091400290913E0229130F
:1037600080E008952F923F924F925F926F927F92E6
:103770008F929F92AF92BF92CF92DF92EF92FF9281
:103780000F931F93CF93DF93CDB7DEB7E9970FB6B3
:10379000F894DEBF0FBECDBF142F5FA368A779A733
:1037A000922E08AB20913F023DE2239F100111248D
:1037B000F101EF5BFD4F1F01158616861786108AF3
:1037C00015A216A217A210A6108249E956E766E9CB
:1037D0007EE741A352A363A374A3C1A6D2A6E3A626
:1037E000F4A62CE0002319F0E0E5FBE002C0E1E2E2
:1037F000F2E0DE011D9601900D922A95E1F76C0131
:103800004BEEE42E4CE0F42E9E01275E3F4F3FA787
:103810002EA7CE010D969DA78CA75101FE013196D2
:10382000FBA7EAA700E0F601619171918191919166
:103830006F01F70120813181428153810E94FF3D58
:103840000E94CF3DEEA5FFA5619371938193919363
:10385000FFA7EEA7ECA5FDA5419051906190719056
:10386000FDA7ECA764197509860997092B013C018E
:1038700097FF07C0442455243201461A570A680AA4
:10388000790AF5014182528263827482F1012585B1
:10389000368547855089421653066406750610F42E
:1038A00029013A01F101458656866786708A0E9491
:1038B000633CF70120813181428153810E94C83BE2
:1038C0002B013C01EAA5FBA5619371938193919330
:1038D000FBA7EAA720E030E0A9010E94C13B87FFD7
:1038E00008C0F1018080802F0E94E22B8829F1011D
:1038F0008083A3019201C301B2010E94FF3DF10147
:1039000025A136A147A150A50E94E83AF10165A37F
:1039100076A387A390A70F5FF4E0EF0EF11C24E0DD
:10392000A20EB11C033009F07ECF0E948C3E6B01C9
:103930007C01F10165A376A387A390A78585968571
:10394000A785B089892B8A2B8B2B09F4F1C120E044
:1039500030E0A901612F7FA188A599A50E94C13BF4
:1039600087FD21C0992061F0A7019601612F7FA1F9
:1039700088A599A50E94FF3D162F7FA388A799A728
:1039800020E030E040E85FE3612F7FA188A599A5A2
:103990000E94C13B87FF0EC010E01FA280E888A7ED
:1039A0009FE399A707C019E9F6E7FFA326E928A72F
:1039B0003EE739A7A701960160E070E080E89FE349
:1039C0000E94C83B6EAB7FAB88AF99AFEDE2F2E0EF
:1039D000FFA7EEA727EF3CE03DA72CA7CE010D9651
:1039E0009EA38DA3FE013196FBA7EAA7C12CD12C83
:1039F0007601EAA5FBA580809180A280B38020E0BB
:103A000030E0A901C501B4010E94C13B882309F43B
:103A100081C02EA93FA948AD59ADC501B4010E948E
:103A2000FF3D4B015C01EAA5FBA5608371838283A6
:103A300093839B01AC0160E070E080E89FE30E940B
:103A4000C83B2B013C01E89477F8ECA5FDA520814B
:103A5000318142815381C301B2010E94FF3D69ABB4
:103A60007AAB8BAB9CAB9B01AC01612F7FA188A58E
:103A700099A50E94C13B87FF07C019ABFFA1FAAB14
:103A800028A52BAB39A53CABF101F1A1FFA3F101B6
:103A9000F2A1F8A7F101F3A1F9A7F101F4A1FDAB9F
:103AA000ECA5FDA52485358546855785C301B20162
:103AB0000E94FF3D3B018C019B01AC016FA178A5E9
:103AC00089A59DA90E94C13B87FF04C06FA078A46F
:103AD00009A51DA9C301D801F10181A392A3A3A344
:103AE000B4A3EEA5FFA52081318142815381C50198
:103AF000B4010E94FF3D9B01AC01C701B6010E94C9
:103B0000E73A6B017C0119A9FAA9FFA32BA928A701
:103B10003CA939A78AA59BA504969BA78AA7EEA5D1
:103B2000FFA53496FFA7EEA72CA53DA52C5F3F4F20
:103B30003DA72CA7EDA1FEA18E179F0709F059CF35
:103B400090913F0280914002981719F0F8A9FF2345
:103B500031F0F101118A128A138A148A0BC02FEEF8
:103B60003FEF4FE75FE3C701B6010E94C43D18165F
:103B700034F4F101118E128E138E148E5FC02FEE6D
:103B80003FEF4FE75FEBC701B6010E94C43D181637
:103B900044F03FEEC32EDD24DA943FE7E32E3FEB03
:103BA000F32EA701960160E070E080E89FE30E9499
:103BB000E73A20E030E040E05FE30E94FF3D0E94F2
:103BC0008C3E6B017C012091200D3091210D4091A4
:103BD000220D5091230DF10161A172A183A194A145
:103BE0000E94FF3DA70196010E94FF3D4B015C0131
:103BF000A701960160E070E080E89FE30E94E73A49
:103C00009B01AC01C501B4010E94C83BD62EE72E32
:103C1000F82E092F20E030E0A9010E94C13B87FF68
:103C200004C0D12CE12CF12C00E04D2D5E2D6F2D28
:103C3000702FF101418F528F638F748F212F3FA11D
:103C400048A559A5612F7FA188A599A50E94FF3D90
:103C5000162F072FF82EE92E862F902FAF2DBE2D71
:103C6000F101858F968FA78FB0A3A18CB28CC38CE6
:103C7000D48C6090390270903A0280903B02909010
:103C80003C029301A401612F702F8F2D9E2D0E9465
:103C9000C13B87FD0BC09301A401B501C6010E9481
:103CA000C13B87FD11C0530164010EC0212F302F8D
:103CB0004F2D5E2DB501C6010E94C13B87FD04C09A
:103CC000A12EB02ECF2CDE2CC501D601F101858BA3
:103CD000968BA78BB08FF8A9F1112CC08CE0FE0158
:103CE0003196ADE2B2E001900D928A95E1F7812F15
:103CF000902FAF2DBE2D8093390290933A02A0935E
:103D00003B02B0933C028CE0FE017996A1E2B2E066
:103D100001900D928A95E1F780913E0280933F02D7
:103D20008F5F843209F480E080933E02A0DB02C002
:103D300080E001C081E0E9960FB6F894DEBF0FBEC7
:103D4000CDBFDF91CF911F910F91FF90EF90DF904A
:103D5000CF90BF90AF909F908F907F906F905F902B
:103D60004F903F902F9008958091500B9091510B60
:103D7000A091520BB091530B809321029093220299
:103D8000A0932302B09324028091540B9091550B81
:103D9000A091560BB091570B809325029093260269
:103DA000A0932702B09328028091580B9091590B51
:103DB000A0915A0BB0915B0B8093290290932A0239
:103DC000A0932B02B0932C02089580913F02909112
:103DD0004002891708F48C5D891B08950E94DD302C
:103DE0008091400280933D0242CBCF93DF93EC0160
:103DF0008991882319F00E94E027FACFDF91CF91B3
:103E00000895CF93DF93FC018491EF0121968823DD
:103E100021F00E94E027FE01F7CFDF91CF910895B6
:103E2000EF92FF920F931F93CF93DF931F92CDB723
:103E3000DEB7262FEDB6FEB66DB77EB7641B7109EF
:103E40000FB6F8947EBF0FBE6DBF0DB71EB70F5FE4
:103E50001F4F302FF8019E2F931B941728F4622FC9
:103E60000E94EC3E9193F7CF442361F0F801E40FF8
:103E7000F11D31978081805D49830E94E02749814F
:103E80004150F2CF0FB6F894FEBE0FBEEDBE0F90BC
:103E9000DF91CF911F910F91FF90EF90089548E02F
:103EA00062E0BECF8A3020F0843620F442E003C0C6
:103EB00041E001C043E06AE0B3CF8F929F92AF929E
:103EC000BF92CF92DF92EF92FF920F931F93CF9307
:103ED000DF93CDB7DEB72A970FB6F894DEBF0FBEDB
:103EE000CDBF6B017C01142F20E030E0A9010E94BE
:103EF000C13B87FF07C08DE20E94E027F7FAF094EC
:103F0000F7F8F094012F023060F020E030E048EC48
:103F100052E4C701B6010E94FF3D6B017C010250D3
:103F2000F2CF10FF0AC020E030E040E251E4C701C8
:103F3000B6010E94FF3D6B017C0120E030E040E0D3
:103F40005FE3C701B6010E94E83A0E94303CE1E01D
:103F5000F0E0EC0FFD1FE10FF11D2EE22083D12CCC
:103F60005AE0852E912CA12CB12C6115710581058B
:103F70009105A9F0D11201C0D394EE24E394F12C61
:103F8000EC0EFD1EED0CF11CA50194010E94F83E03
:103F9000605DF7016083B901CA01D394E6CF80E385
:103FA000D11648F4E1E0F0E0EC0FFD1FED0DF11D3E
:103FB0008083D394F5CF8D2DD1120BC0D394D3949D
:103FC0008F5FE1E0F0E0EC0FFD1FE80FF11D80E3F3
:103FD0008083DD2039F0FE01ED0DF11D8081F0D7E9
:103FE000DA94F7CF2A960FB6F894DEBF0FBECDBF96
:103FF000DF91CF911F910F91FF90EF90DF90CF90C5
:10400000BF90AF909F908F9008952091300D20FF2A
:1040100008C02BE832E441E25DE30E94FF3D44E04A
:1040200001C043E04ACF2091300D20FF08C02BE8AB
:1040300032E441E25DE30E94FF3D41E001C040E027
:104040003CCF43E03ACF40E038CF10926A0B9091DA
:10405000300D97FD03C098E090936A0B882331F0F0
:1040600080916A0B98E0892780936A0B0895E7E0B6
:10407000F1E08081877F8083E8E0F1E080818860E3
:10408000808380E0E2CF80910601887090916A0B76
:104090008927089580911E02813099F4F4DF8823E6
:1040A00081F010921E028CE0E0E5FBE0ACE5BBE0A5
:1040B00001900D928A95E1F780911D0280648093B2
:1040C0001D0208951DDB892B19F082E00C94FB3949
:1040D0000895CF93C0911C02CC2329F181E08093F5
:1040E0004C0BC1FD0FC0C2FF02C082E00BC0C3FF7A
:1040F00002C083E007C0C4FF02C084E003C0C5FF64
:1041000002C085E007D3C0FD04C08FEF0E94173ABC
:104110000AC081E026D380E10E94043A80911D020A
:1041200084FFFCCFF2CFC0911D02CC2309F4D0C094
:10413000C4FF04C081E080934B0BD1C0C0FF04C01A
:10414000F5D581E00E94043A8C2F887E09F460C086
:1041500080914C0B982F937009F057C0803129F44F
:104160000E94DD3084E080934F0B80914C0B8111D5
:1041700006C091E090934D0B92E090934F0BC6FFD9
:104180000AC0803119F484E080934C0B80914D0B70
:10419000806480934D0BC3FF07C080914C0B807CE3
:1041A00019F480E280934C0BC5FF2AC086E0D9D277
:1041B00080914C0B8034C1F480914D0B83FF14C06F
:1041C00080914F0B83FF0AC00E94DD308CE080930A
:1041D0004F0B80914D0B8E7F80934D0B80914D0B3B
:1041E000837E826080934D0B80914D0B8062809323
:1041F0004D0B80914C0B803819F080E480934C0B70
:10420000C7FF03C080E880934C0B88EE0E94043AFD
:10421000C1FF3FC08C2F8876C9F580914C0B80344C
:1042200071F480914D0B85FD0AC084FF03C010928C
:104230004C0B05C082FF03C0886080934D0B8091BA
:104240004C0B882331F0847209F180914D0B80FF73
:104250001DC010924F0B54DA892B71F080914D0BD9
:1042600086FD0AC010924D0B80E180934C0B0E949A
:104270009E310E94D72D04C010924D0B10924C0B12
:1042800043E06FEF82E192E00E944F0582E00E94DE
:10429000043AC2FF1DC080914C0B807E91F080914A
:1042A0004E0B81110EC09ADD90914F0B92FF05C00D
:1042B00080914D0B816080934D0B937F90934F0BBA
:1042C00004C010924D0B10924C0B84E00E94043AF3
:1042D00080914C0B8C7F19F0CF910C949E31CF9133
:1042E00008958F929F92AF92BF92CF92DF92EF92FA
:1042F000FF921F93CF93DF93CDB7DEB768970FB6CA
:10430000F894DEBF0FBECDBFE4DE80914D0B882355
:1043100009F416C1C12CD12C90EAE92E90E4F92EB3
:104320001CE080914D0B882309F40AC190914B0B3E
:10433000911106C190914C0B292F207C09F4FCC0EF
:1043400080FFFAC082FD7DC060E57BE0CE01019672
:104350000E94E23980914D0B81FD21C0FE01319612
:10436000DE011D96812F01900D928A95E1F72D892E
:104370003E894F89588DC701B6010E94E83A6B010A
:104380007C0120E030E040EA50EC0E94C13B87FD18
:1043900006C0C12CD12C80EAE82E80ECF82E80914A
:1043A000300D84FF43C089849A84AB84BC8420E0B0
:1043B00030E040EA50ECC501B4010E94C13B87FFE8
:1043C00035C0A7019601C501B4010E94C13B87FF1A
:1043D0000CC0C986DA86EB86FC8640E050E06AEFC6
:1043E00073E4CE0101960E94C8180E94E02C0E943E
:1043F0001D0620E030E040EA50EC69857A858B8527
:104400009C850E94C13B87FF15C080E090E0A0EA38
:10441000B0EC89879A87AB87BC8740E050E060E8C2
:104420007FEBCE0101960E94C81804C00E94E02CC8
:104430000E941D0680914D0B8D7F846080934D0BF3
:104440007BC09034A9F40E949D37811111C08091E6
:104450004D0B85FF08C041E050E068E270E082E16A
:1044600092E00E94540580914D0B8F7D80934D0BFF
:1044700080914D0B83FF60C08091300D84FF18C088
:1044800020E030E040EA50EC69857A858B859C8598
:104490000E94C13B181664F0C986DA86EB86FC865A
:1044A00040E050E060E87FEBCE0101960E94C81822
:1044B0008091DC0A8823A9F090914D0B91FD11C0E9
:1044C0004091DD0A5091DE0A6091DF0A7091E00AA6
:1044D0000E94FE2C41E060E070E080E89FE30E94D3
:1044E000D7198091DB0A882369F090914D0B91FDDB
:1044F00009C00E942B0641E060E070E080E89FE385
:104500000E94D7198091300D84FF0CC080914D0B13
:1045100081FD08C040E050E06AEF73E4CE010D96E3
:104520000E94C81880914D0B81FD06C08061809368
:104530004D0B82E00E94FB390E944F2CCADDF1CE68
:1045400068960FB6F894DEBF0FBECDBFDF91CF9156
:104550001F91FF90EF90DF90CF90BF90AF909F9012
:104560008F900895CF93DF932BD180914C0B8130A6
:1045700019F482E0F6D02CC010924C0B0E949D37AB
:10458000882331F080911D02806280931D02A9DE94
:1045900085E998E00E94A8371BC08D3059F0CC23E4
:1045A00081F1893209F4CD7F55D58F3F09F446C09A
:1045B0008A3099F796DE80914B0B811148C0ED2F20
:1045C000F0E0EB56F74F1082C0FF05C08BE050D0F3
:1045D000D0E0C0E0E9CF809195088823C1F3843210
:1045E00029F485E998E00E94C737F1CF80914C0B00
:1045F000813011F489E0EBCF85E998E00E94130740
:10460000E6CF813288F28F3279F2883289F08B33AB
:1046100089F0DF3F89F02D2F30E0DF5F9FE9980FB1
:10462000F901EB56F74F9A3108F480528083BCCFE2
:10463000C2E0BACFC4E0B8CFC1E0B6CF43DD51DEAF
:1046400080914B0B811103C00E944F2CADCFDF91A5
:10465000CF91089537DD45DE80914B0B811107C066
:104660004FD8892BC1F780914C0B8031A1F308956D
:10467000CF93C82F811103C089E699E049C081E634
:1046800099E0BFDB4C2F50E0FA013197E631F1059C
:10469000C0F5E956FF4F0C941A3F89E499E002C037
:1046A00087E399E0AEDB32C085E299E0FBCF8BE196
:1046B00099E0F8CF8AE099E0F5CF8BEF98E0F2CF60
:1046C0008AED98E0EFCF81ED98E0ECCF86EC98E0B2
:1046D000E9CF83EB98E0E6CF85EA98E0E3CF83E982
:1046E00098E0E0CF88E898E0DDCF83E798E0DACF84
:1046F0008DE598E0D7CF89E498E0D4CF85E398E0C2
:10470000D1CF83E298E07DDB8C2FCCDB80E298E098
:10471000CF9177CBCF93C82F88E198E072DBC3307D
:1047200091F03CF4C13061F0C23099F482E098E03D
:104730000FC0C43059F0C53061F488ED97E008C06F
:104740008DE098E005C08FEE97E002C084EE97E020
:1047500058DB85ED97E055DB84EF91E0CF910C9429
:10476000061ACF93C82F83ED97E04BDB8C2F90E098
:10477000FC013197E930F105F8F4E355FF4F0C9453
:104780001A3F81EC97E017C08DEA97E014C08BE9DF
:1047900097E011C083E997E00EC08AE897E00BC06C
:1047A0008FE797E008C087E797E005C084E697E0C9
:1047B00002C089E597E025DB85E597E0CF9121CB25
:1047C00084E397E01ECB80EF95E01BCBFF920F9325
:1047D0001F93CF93DF938CEE95E013DB80911B0D3D
:1047E00061DB83ED95E00DDB80911E0D5BDB85EBDE
:1047F00095E007DB80911C0D55DB8CE995E001DB32
:1048000080911C0D4CDB85E995E0FBDA80911D0D54
:1048100049DB8DE795E0F5DA80911D0D40DB86E7F9
:1048200095E0EFDA8091300D82FB882780F93ADB42
:1048300085E595E0E6DA8091300D86FB882780F9E2
:1048400031DB85E395E0DDDA8091300D881F882724
:10485000881F28DB85E195E0D4DA80911F0D22DBEB
:104860008FEF94E0CEDA80911F0D19DB87EF94E093
:10487000C8DA6091200D7091210D8091220D9091E8
:10488000230DDFDB87ED94E0BCDA6091240D70919D
:10489000250D8091260D9091270DD3DB8CEB94E0B4
:1048A000B0DA8091300D8170FDDA8FE994E0A9DAF9
:1048B0008091300D85FB882780F9F4DA84E894E054
:1048C000A0DA8091300D83FB882780F9EBDA89E646
:1048D00094E097DA8091300D82958170E3DA8DE46F
:1048E00094E08FDA8091310DDDDA83E394E089DAA8
:1048F0008091310DD4DA8BE294E083DA6091320D4D
:104900007091330D8091340D9091350D9ADB8EE0CE
:1049100094E077DA6091360D7091370D8091380D03
:104920009091390D8EDB81EF93E06BDA80913A0D37
:10493000B9DA82ED93E065DA60913C0D70913D0D3E
:1049400080913E0D90913F0D7CDB85EB93E059DA31
:104950006091280D7091290D80912A0D90912B0D59
:1049600072DB84EA93E04DDA60912C0D70912D0D8D
:1049700080912E0D90912F0D66DB87E993E041DA4F
:1049800084E6F82E10E0CBEEDCE000E085E993E071
:1049900038DA802F8F0D86DA83E993E032DA12302D
:1049A00071F01330B9F0113029F0688179818A8172
:1049B0009B8117C06C857D858E859F8512C020E008
:1049C00030E041E655E4688D798D8A8D9B8D0E949B
:1049D000C83B07C08CA19DA1AEA1BFA1BC01CD0168
:1049E00090582FDB80E993E00CDA013029F0023097
:1049F00031F08EE893E005C08CE893E002C08AE8CD
:104A000093E0FFD9123051F0133059F0113019F002
:104A100080E893E008C08EE693E005C08DE593E062
:104A200002C08DE493E0EDD989E493E0EAD90F5F09
:104A30002496033009F0AACF8AE0F80E1F5F8CE8B5
:104A4000F812A1CFDF91CF911F910F91FF900895A0
:104A5000CF9383E493E0D5D9C0E06C2F8CE59BE045
:104A60000E94CA39D2DAC23019F081E493E0C9D980
:104A7000CF5FC33091F78FE393E0C3D98091680B88
:104A800011DA8BE393E0CF91BCC9EF92FF920F93C1
:104A90001F93CF93DF93CDB7DEB72C970FB6F89463
:104AA000DEBF0FBECDBFF12CBE016F5F7F4F8F2DDC
:104AB000F6D4811103C087E0DBDD5CC088E393E0BE
:104AC000A0D986E0F81631F0E7E0FE1207C082E3D5
:104AD00093E002C085E393E094D903C086E38F0D91
:104AE000E1D980E393E08DD98E010F5F1F4FE12C58
:104AF000F80161917191819191918F0186DAF2E0D3
:104B0000EF1619F08EE293E002C08AE293E079D9C1
:104B1000E39483E0E812ECCFF394E8E0FE12C4CF14
:104B200084E293E06ED902E01BE0F12CF801619180
:104B30007191819191918F0168DAF2E0FF1619F07D
:104B400082E293E002C08EE193E05BD9F39483E0CC
:104B5000F812ECCF88E193E054D960910E0B70917C
:104B60000F0B8091100B9091110B4FDA84E193E0C1
:104B700048D96EDF2C960FB6F894DEBF0FBECDBFBE
:104B8000DF91CF911F910F91FF90EF90089582E1F7
:104B900093E037D98091D30A823091F038F488239A
:104BA00061F08130A1F48CE093E00CC0833061F0BF
:104BB000883069F482E093E005C08FE093E002C0A2
:104BC00089E093E01ED90AC086E093E0FBCF8DEF29
:104BD00092E017D98091D30A825064D98AEF92E08B
:104BE00010D98091D90A8A5C5DD98091D70A813029
:104BF00049F028F0823049F48BEE92E005C085EF51
:104C000092E002C080EF92E0FCD88091D50A811139
:104C100003C086EE92E002C081EE92E0F2D880916D
:104C2000D60A811103C08CED92E002C087ED92E0BC
:104C3000E8D88091D40A813019F482ED92E002C064
:104C40008DEC92E0DED88091DA0A813049F028F0CC
:104C5000823049F481EC92E005C089EC92E002C018
:104C600085EC92E0CED88091DC0A813031F040F0C2
:104C7000823049F489EB92E005C08DEB92E002C0EE
:104C800085EB92E0BED88091DB0A813049F028F0B4
:104C9000823049F48DEA92E005C081EB92E002C0D7
:104CA00089EA92E0AED886EA92E0ABD88091E50A34
:104CB000F9D883EA92E0A5D86091E10A7091E20AFE
:104CC0008091E30A9091E40AAED980EA92E099D803
:104CD0006091DD0A7091DE0A8091DF0A9091E00A0E
:104CE000B2D98CE992E08DC81F93CF93DF93182F30
:104CF000EB0189E992E085D8812FD4D887E992E049
:104D000080D8CE0172D884E992E0DF91CF911F91D3
:104D100078C8CF93DF93EC0183E892E072D8CE019C
:104D200064D88FE792E0DF91CF916BC8BF92CF92AA
:104D3000DF92EF92FF920F931F93CF93DF93CDB744
:104D4000DEB768970FB6F894DEBF0FBECDBF8CE01C
:104D5000E0E5FBE0DE011D9601900D928A95E1F7FA
:104D600080914C0B8830F9F040F48130F9F090F0EC
:104D70008230F9F0843089F02EC0803289F018F446
:104D8000803159F028C08034B9F0803821F581E4B1
:104D900092E020C089E792E01DC084E792E01AC04B
:104DA0008EE692E017C088E692E014C081E692E0B9
:104DB00011C08AE592E00EC080914D0B82FD03C0C8
:104DC00084E592E007C085FF03C08EE492E002C054
:104DD00088E492E016D880911F0D837039F0BE01EF
:104DE000635F7F4FCE0101960E94E23980911F0DD3
:104DF00080FD05C080911F0D81FF69C01CC08AE342
:104E000092E00E94011F69817A818B819C81FDD88B
:104E100088E392E00E94011F6D817E818F819885D9
:104E2000F4D888E392E00E94011F69857A858B851A
:104E30009C85EBD8DFCF81E392E00E94011F96EFC3
:104E4000E92E9AE0F92E8E010F5F1F4FB12C6801F9
:104E5000F70161917191819191917F012085318557
:104E6000428553850E94E83A9B01AC01F8016081BC
:104E70007181828193810E94E73AF8016083718396
:104E800082839383F2E0BF120FC020910E0B30910A
:104E90000F0B4091100B5091110B0E94E73AF80153
:104EA00060837183828393830C5F1F4FF60160815F
:104EB000718182819381A9D8F2E0BF1621F08FE23F
:104EC00092E00E94011FB39423E0B212C0CF809100
:104ED0001F0D82FF08C089E292E00E94011F0E941C
:104EE000E51E0E94521F80911F0D83FF07C084E2C0
:104EF00092E00E94011F48D00E94521F80911F0D16
:104F0000807771F18EE192E00E94011F80911F0D68
:104F100084FF06C00E94E31143E062E00E94101F7C
:104F20008CE192E00E94011F80911F0D85FF0AC055
:104F3000AAD8882319F08AE192E002C088E192E0C1
:104F40000E94011F86E192E00E94011F80911F0DC7
:104F500086FF06C00E94613744E062E00E94101F95
:104F600082E192E00E94011F68960FB6F894DEBFBE
:104F70000FBECDBFDF91CF911F910F91FF90EF90AA
:104F8000DF90CF90BF9008959091970980919809F4
:104F9000891B0895E0ECF0E08081826080831092AC
:104FA000C50080E18093C400E1ECF0E08081806185
:104FB0008083808188608083808180688083089579
:104FC000E091960991E09E0F903809F490E02091CD
:104FD0009509921305C020911D0224FFF8CF089572
:104FE000F0E0E559F44F8083909396098091C100D9
:104FF00080628093C10008951F920F920FB60F92A6
:1050000011240BB60F928F939F93EF93FF93809190
:105010009509E82FF0E0E559F44F90819093C60090
:105020008F5F803809F480E080939509909196090C
:10503000891305C08091C1008F7D8093C100FF91CD
:10504000EF919F918F910F900BBE0F900FBE0F901D
:105050001F9018959091970980919809891749F0A8
:10506000E92FF0E0E551F44F80819F5F909397091D
:1050700008958FEF08951F920F920FB60F9211248B
:105080000BB60F922F933F934F935F936F937F9342
:105090008F939F93AF93BF93EF93FF938091C6003D
:1050A0008F3369F030F4883181F0813289F488E0FF
:1050B00009C0803431F08E3759F482E003C081E0BA
:1050C00001C080E20E94FB3911C00E9407190EC086
:1050D000E091980991E09E0F20919709921731F085
:1050E000F0E0E551F44F808390939809FF91EF91A0
:1050F000BF91AF919F918F917F916F915F914F91F0
:105100003F912F910F900BBE0F900FBE0F901F90ED
:1051100018958091980980939709089521E5829FB9
:10512000C001112440E550E09D5F0C947C0640E5F1
:1051300050E0BC018EEA93E00C947C062DE0829F47
:10514000C00111244CE050E09E5F0C947C066AE0A4
:1051500080E090E00E945A0645E550E06BEE7CE06E
:1051600081E090E00C947C06AF92BF92CF92DF92E8
:10517000EF92FF920F931F93CF93DF93CDB7DEB7DC
:105180002C970FB6F894DEBF0FBECDBF182F80FF4F
:10519000EDC08AE080931B0D8FEF80931E0D10925F
:1051A0001C0D10921D0D23E020931F0D8AE097ED3A
:1051B000A3EABCE38093200D9093210DA093220DD0
:1051C000B093230D8FE692E1A3E0BBE38093240D1F
:1051D0009093250DA093260DB093270D80E090E8C5
:1051E000ABE3B6E48093280D9093290DA0932A0D8C
:1051F000B0932B0D10922C0D10922D0D10922E0DA0
:1052000010922F0D2093310D80E090E0A6E9B2E4DA
:105210008093320D9093330DA093340DB093350DE0
:1052200080E090E8ABEBB4E48093360D9093370DBB
:10523000A093380DB093390D8AEF90E090933B0D19
:1052400080933A0D80E090E0A0E8B0E480933C0DBC
:1052500090933D0DA0933E0DB0933F0D80E1809360
:10526000300D8BE297ECA1EBB2E48093EB0C9093C2
:10527000EC0CA093ED0CB093EE0C8093EF0C90939C
:10528000F00CA093F10CB093F20C8EE492EFACEB27
:10529000B3E48093F30C9093F40CA093F50CB093CB
:1052A000F60C40E050E46CE975E44093F70C509341
:1052B000F80C6093F90C7093FA0C4093FB0C50932C
:1052C000FC0C6093FD0C7093FE0C80E090E0A8E471
:1052D000B4E48093FF0C9093000DA093010DB09364
:1052E000020D40E05AEB6BED79E44093030D5093CF
:1052F000040D6093050D7093060D4093070D5093B8
:10530000080D6093090D70930A0D80E090EFA2E5FF
:10531000B8E480930B0D90930C0DA0930D0DB093FA
:105320000E0D80E090E0A6E9B3EC80930F0D909312
:10533000100DA093110DB093120D83E393E3ABE432
:10534000B3EC8093130D9093140DA093150DB093AF
:10535000160D80E090E0A0EAB2EC8093170D9093D8
:10536000180DA093190DB0931A0DF1DE11FF43C073
:10537000CE0101965C018CE0F50111928A95E9F766
:1053800000E0B501802FDADE0F5F0830D1F780E052
:1053900090E4ADE8B3EC89839A83AB83BC8380E06F
:1053A00090E8A7E4B3EC8D839E83AF83B887C12CCC
:1053B000D12C80E8E82E8FEBF82EC986DA86EB86B2
:1053C000FC86B50186E0BADE80E090E0A6E1B3ECB1
:1053D00089839A83AB83BC8380E090E0A0E2B1EC48
:1053E0008D839E83AF83B887C986DA86EB86FC8679
:1053F000B50187E0A3DE12FF0AC060E080E093E021
:105400000E945A0660E081E593E00E945A0613FF6D
:1054100005C060E08EEA93E00E945A062C960FB613
:10542000F894DEBF0FBECDBFDF91CF911F910F91DA
:10543000FF90EF90DF90CF90BF90AF9008951F93B3
:10544000CF93DF93182FEB0181E5189FB001112452
:105450007D5F40E550E0CE010E94B806892B31F413
:105460001882BE01812F5ADE80E001C081E0DF9109
:10547000CF911F910895CF93DF93EC0140E550E069
:105480006EEA73E00E94B806892B29F41882CE01D7
:105490004EDE80E001C081E0DF91CF9108951F933F
:1054A000CF93DF93182FEB018DE0189FB0011124EB
:1054B0007E5F4CE050E0CE010E94B806892B51F48B
:1054C0008CE0FE0111928A95E9F7BE01812F36DE4C
:1054D00080E001C081E0DF91CF911F91089580E0CD
:1054E00090E00E9452068A3059F445E550E061E0B0
:1054F00070E08BEE9CE00E94B80621E0892B09F455
:1055000020E0822F0895CF92DF92EF92FF92CF9307
:10551000DF93C82F6A017B0120E030E0A901C701B9
:10552000B6010E94C13B87FD29C1C43608F478C08A
:10553000C45680E0C33008F06AC0D0E0823009F47D
:105540003EC0833009F454C0FE01EE0FFF1FEE0F82
:10555000FF1F8130D1F0E950F34F2081318142812A
:105560005381C701B6010E94FF3D20E03AEB4BEDAD
:1055700059E40E94C43D18160CF402C1CC0FDD1F83
:10558000CC0FDD1FC551D34F3DC0E551F34F2081F6
:10559000318142815381C701B6010E94FF3D20E065
:1055A0003AEB4BED59E40E94C43D18160CF4E8C0E8
:1055B000CC0FDD1FCC0FDD1FC950D34F23C0CC0F44
:1055C000DD1FCC0FDD1FCD5FD24F20E030E040E784
:1055D00052E4C701B6010E94FF3D20E030E040E701
:1055E00052E40E94FF3D688379838A839B83C3C012
:1055F000CC0FDD1FCC0FDD1FC15FD24FF7FAF09447
:10560000F7F8F094C882D982EA82FB82B4C08F5F37
:10561000CA3008F4B7C0843009F4B4C0CA508ACF85
:10562000C701B6010E94CD3E0E94353C8C2F90E010
:105630008032910508F0A6C0FC01EA54FF4F0C949B
:105640001A3F633008F4A0C060931B0D94C06093B0
:105650001E0D91C060931C0D02C060931D0D23D5DB
:105660008AC08091300D662311F0846007C08B7F63
:1056700005C08091300D662321F080648093300D49
:105680007AC08F7BFBCF8091300D662311F080684C
:10569000F5CF8F77F3CF60931F0D6DC0C092200DB3
:1056A000D092210DE092220DF092230D64C0C092A1
:1056B000240DD092250DE092260DF092270D5BC0AF
:1056C0008091300D662311F08160D8CF8E7FD6CFC8
:1056D0008091300D662321F084FF58C08062CECFC8
:1056E0008F7DCCCF8091300D662311F0886001C092
:1056F000877F8093300D0E94CD113DC08091300D89
:10570000662311F08061BACF8F7CB8CF6093310DE2
:1057100032C0C092320DD092330DE092340DF0922F
:10572000350D29C0C092360DD092370DE092380D5C
:10573000F092390D20C070E070933B0D60933A0DEC
:105740001AC0C0923C0DD0923D0DE0923E0DF092F9
:105750003F0D11C0C092280DD092290DE0922A0D64
:10576000F0922B0D08C0C0922C0DD0922D0DE0921E
:105770002E0DF0922F0DEBDC80E009C084E007C015
:105780008CE005C083E003C086E001C08AE0DF91C1
:10579000CF91FF90EF90DF90CF900895A0DE811120
:1057A00006C087E00E9438238FEFDEDC0FC8089523
:1057B000882321F0813021F480E4089580E2089567
:1057C00080E80895882321F0813021F488E008954D
:1057D00084E0089580E10895882321F0813021F448
:1057E00080E2089580E1089580E40895CF93CCDBB2
:1057F000C82F1092400D1092950010929400909135
:105800007100916090937100BFDBC81740F08091E8
:105810001D02811104C080911C02882339F08091FF
:1058200071008E7F80937100CF9108956091400D3B
:1058300070E080E090E00E94633C24EF34E244EFAB
:1058400050E40E94C13B1816FCF689E00E94B12387
:1058500080E8CF910C94FB39E1E9F0E010821092DE
:1058600090008081887F81608083808183608083D5
:10587000E1E7F0E080818E7F808308951F920F9290
:105880000FB60F9211248F938091400D8F5F8093FC
:10589000400D8F910F900FBE0F901F901895809123
:1058A000180290911902892BC9F08091DC0A8111AC
:1058B00004C08091DB0A882389F080914C0B811110
:1058C00001C094CF85FF04C090914D0B90FDF9CF9E
:1058D000803421F480914D0B82FDF3CF089584B183
:1058E000807F84B984B1876084B98DE58CBD81E007
:1058F0008DBD08958EBD0DB407FEFDCF8EB5089504
:105900008F929F92AF92BF92CF92DF92EF92FF92CF
:105910000F931F93CF93DF936B017C01EA01988172
:1059200001E010E001C0000F2A95EAF7802F809572
:10593000892388832FE0E222FF248E2DDBDF882E4F
:10594000912CA12CB12CBA2CA92C982C88248D2D0B
:10595000D1DF882ABA2CA92C982C88248C2DCADF58
:10596000A5019401282BCA01B9012881202B288385
:1059700024E096958795779567952A95D1F7DF91DD
:10598000CF911F910F91FF90EF90DF90CF90BF903C
:10599000AF909F908F900895E1E0F1E08081806466
:1059A000808383E28093B000E1EBF0E08081887F28
:1059B0008260808340E060E080E092E00C944F05DC
:1059C00043E060E080E092E00E944F0545E060E047
:1059D00086E092E00E944F0580914C0B87FF08C043
:1059E00044E050E065E070E08CE092E00C945405F7
:1059F00045E06FEF8CE092E00C944F058F929F9200
:105A0000AF92BF92CF92DF92EF92FF920F931F93CC
:105A1000CF93DF936A017B0190914B0B911193C05F
:105A200081110DC0DF91CF911F910F91FF90EF90E9
:105A3000DF90CF90BF90AF909F908F90C1CF81307B
:105A400011F4739801C0739A20E030E0A901B60107
:105A5000C7010E94C13B18162CF70091280D109128
:105A6000290DD0912A0DC0912B0D80902C0D909076
:105A70002D0DA0902E0DB0902F0D9401A501B80111
:105A80008D2F9C2F0E94C13B18160CF03EC0980130
:105A90004D2F5C2FB601C7010E94C43D18161CF49F
:105AA0006801ED2EFC2E9401A501B601C7010E94EC
:105AB000C13B87FF02C0640175019401A501B601D5
:105AC000C7010E94E73A6B017C019401A501B8016E
:105AD0008D2F9C2F0E94E73A9B01AC0160E070E0A3
