:10000000F6C1000015C2000013C2000011C20000BA
:100010000FC200000DC200000BC2000009C20000A8
:1000200007C200000C94E12F03C200000C944E1193
:10003000FFC10000FDC10000FBC10000F9C10000CC
:10004000F7C100000C942C1AF3C10000F1C10000AC
:10005000EFC10000EDC10000EBC100000C945A1983
:10006000E7C100000C94CC2C0C94582DE1C1000089
:10007000DFC10000DDC10000DBC10000D9C100000C
:10008000D7C10000D5C10000D3C100000C94032BE0
:10009000CFC10000CDC10000CBC10000C9C100002C
:1000A000C7C10000C5C10000C3C10000C1C100003C
:1000B000BFC10000BDC10000BBC100000C943031C5
:1000C000B7C10000B5C10000B3C10000B1C100005C
:1000D000AFC10000ADC10000ABC10000A9C100006C
:1000E000A7C10000AD3AB33AB63AB93ABE3AC63AF9
:1000F000CE3A8D3B8D3B8D3BDB3ADE3AE73AF03A28
:100100008D3B8D3B8D3B8D3B8D3B8D3BFB3A053BCA
:10011000113B193B1C3B253B2E3B343B8D3B8D3B20
:100120003D3B463B513BF0039C0F9C0FFA030704F9
:10013000140421049C0F25049C0F33049C0F3D04E0
:10014000470451049C0F9C0F9C0F61046E047B04B8
:100150000A2D0C2D452D452D452D452D452D452D83
:10016000452D452D452D452D122D142D162D182DBF
:100170001A2D1C2D1E2D202D452D242D262D282DEC
:100180002A2D2C2D2E2D452D302D084AD73B3BCE28
:10019000016E84BCBFFDC12F3D6C74319ABD568386
:1001A0003DDA3D00C77F11BED9E4BB4C3E916BAA3E
:1001B000AABE000000803F05A84CCDB2D44EB9388D
:1001C00036A9020C50B9918688083CA6AAAA2ABE74
:1001D000000000803F000D0A6743617276696E205F
:1001E000322E302E30205B27242720666F72206845
:1001F000656C705D0D0A00244E005B4F50543A0050
:100200003A4354524C005B5645523A322E302E300F
:100210002E32303137303430363A007D0D0A002C22
:100220005072623A002C4C696D3A0043746C3A008B
:100230007B53773A005B544C4F3A005B4739323A74
:10024000003330003238005B4700204700204D006B
:1002500020530020460020540033382E005B4743D3
:100260003A47005B484C503A24242024232024475A
:1002700020244920244E2024783D76616C20244E91
:10028000783D6C696E6520244A3D6C696E6520245A
:10029000534C50202443202458202448207E2021E1
:1002A000203F206374726C2D785D0D0A00205D0D77
:1002B0000A0020536C65657020466561747572652F
:1002C0002000536C656570696E6700526573746FCA
:1002D00072696E67207370696E646C650052657335
:1002E000746F72696E672064656661756C74730003
:1002F00050676D20456E6400436865636B204C69F0
:100300006D69747300436865636B20446F6F72009E
:1003100044697361626C656400456E61626C65641A
:100320000043617574696F6E3A20556E6C6F636B34
:10033000656400272448277C2724582720746F20D1
:10034000756E6C6F636B00526573657420746F20FB
:10035000636F6E74696E7565005B4D53473A006F4D
:100360006B0D0A00414C41524D3A007C413A007CF1
:100370004F763A007C57434F3A007C506E3A007CEF
:10038000493A007C42663A007C57506F733A007CD1
:100390004D506F733A00536C65657000446F6F7217
:1003A0003A00436865636B00416C61726D00486F91
:1003B0006D65004A6F6700486F6C643A0052756E55
:1003C0000049646C65000D0A00243830303D005B44
:1003D0005052423A006572726F723A005D0D0A0027
:1003E0005B4F76657243757272656E743A001124C4
:1003F0001FBECFEFD1E2DEBFCDBF00E00CBF12E0E9
:10040000A0E0B2E0E6E0F9E800E00BBF02C0079030
:100410000D92A033B107D9F728E0A0E3B2E001C004
:100420001D92AC3CB207E1F70E9477330C948144F3
:10043000E7CD2F923F924F925F926F927F928F9271
:100440009F92AF92BF92CF92DF92EF92FF920F9363
:100450001F93CF93DF93CDB7DEB7CE54D1090FB63C
:10046000F894DEBF0FBECDBF89E3E0E0F3E0DF012B
:100470001D928A95E9F78AE0E1ECF2E0A1E0B3E0B1
:1004800001900D928A95E1F780917608843211F0FF
:100490000C94C00F81E0809301031092020383E06B
:1004A0008A8FB1E0BBA3212C312C18AA1FA6C12C26
:1004B0001B8E1F8EDD24D3941AE0A12EB12C0EE5E5
:1004C00081E6882E83E0982E8A8DE82FF0E0EA58A6
:1004D000F74FE080EE2009F440C29FEB9E0D9A3169
:1004E00010F00C948C0F8F5F8A8FBE016A5E7F4F75
:1004F000CE014A960E94C632882311F40C948E0FC6
:100500004E885F88688C798CC301B2010E941F43BA
:100510000E948740162F70E080E090E00E94B54076
:100520009B01AC01C301B2010E94393F20E030E0E1
:1005300048EC52E40E9451420E94B4420E9487401B
:10054000CB01E7E4EE1629F0FDE4EF1609F4EAC06A
:1005500034C1183209F4C5C020F5143168F41131E2
:1005600008F08AC0143009F452C008F464C01A308C
:1005700009F445C00C949C0F1C3109F440C050F4A0
:10058000163110F00C949C0F25E1211B20930303DE
:1005900026E0ACC01E3199F1163209F44CC00C941F
:1005A0009C0F1D3309F497C0A8F4153381F140F472
:1005B0001B3209F47AC0113309F477C00C949C0FF4
:1005C0001C3310F00C949C0F6AEC610F60930703CE
:1005D00029E08CC01C3538F41A3508F053C01035AA
:1005E00081F10C949C0F1C3551F01F3510F00C94C8
:1005F0009C0F202F211B2093020325E077C000973A
:1006000031F42F8D21110C94900F31E03F8F109316
:100610000003212F2D7F2C3119F01C3509F063C008
:10062000009721F00A9711F00C949C0F610F6093D2
:10063000000320E060C06F8D61110C94900FA2E068
:10064000AF8F10930103163209F04FC0843191052A
:1006500059F08E31910541F08832910529F08233AD
:10066000910511F00C949C0FB5010E94E23E665773
:100670006093010321E03FC06FEE610F60930503BB
:1006800022E034C0892B31F466EA610F60930403E1
:1006900023E031C06A30710511F00C949C0F1A35BB
:1006A00011F40C949C0F24E026C0BF8DB1110C9462
:1006B000900F113331F41092060328E0E3E0EF8F3E
:1006C0001AC00A9711F00C949C0FD092060328E0F0
:1006D000F3E0FF8F10C0892B11F00C949C0F2AE0DF
:1006E0000AC027E003C020E001C021E0892B19F0F7
:1006F00087E10C94C40F81E090E002C0880F991F3D
:100700002A95E2F72FA538A928233923232B19F09E
:1007100085E10C94C40F2FA538A9282B392B38ABB1
:100720002FA7D2CE892B21F7163018F4133058F0AA
:1007300016C0183010F40C949C0F1A30F0F01E31D3
:1007400059F00C949C0F112319F0113001F104C0E1
:1007500033E0309308031BC01093080318C0143013
:1007600021F0153031F080E101C080E280930A036E
:1007700002C010920A038CE00BC0193021F080E413
:100780008093090302C0109209038DE001C08BE041
:10079000A1E0B0E002C0AA0FBB1F8A95E2F72FA527
:1007A00038A92A233B23232B09F0B2CFEFA5F8A9C0
:1007B000EA2BFB2BF8ABEFA787CE8E2DEE0C990B17
:1007C000AA0BBB0BFC01E654F109E531F10510F071
:1007D0000C949C0F8827ED56FF4F8F4F0C94183FB9
:1007E00040920B0350920C0360920D0370920E0323
:1007F00080E08DC040920F0350921003609211036D
:1008000070921203FC2DF160CF2E81E080C04092E7
:1008100013035092140360921503709216032C2D4B
:100820002260C22E82E073C04092170350921803D8
:100830006092190370921A033C2D3460C32E83E03A
:1008400066C010931B0384E062C0C301B2010E9422
:10085000824060931C0370931D0380931E0390934A
:100860001F0385E054C04092200350922103609200
:1008700022037092230386E04AC0409224035092E0
:100880002503609226037092270387E040C04092C0
:1008900028035092290360922A0370922B0388E068
:1008A00036C020E030E04FE753E4C301B2010E94BC
:1008B0001642181614F40C94920F10932C0389E02E
:1008C00026C040922D0350922E0360922F03709207
:1008D00030036B8D61606B8F8AE019C040923103E9
:1008E0005092320360923303709234038B8D826096
:1008F0008B8F8BE00CC04092350350923603609290
:100900003703709238039B8D94609B8F8CE0EE24AC
:10091000E394F12C082E02C0EE0CFF1C0A94E2F7BF
:10092000970122213321232B11F00C94940FD40131
:1009300002C0B595A7958A95E2F7A0FF0BC020E00D
:1009400030E0A901C301B2010E94134087FF02C039
:100950000C94960F2E283F28B7CDBB8DBB2329F0D2
:10096000EF8DE11102C0F2E0FF8F25FE0FC08091F4
:100970001C0390911D03A0911E03B0911F038138A9
:100980009649A849B10514F00C94980F3BA1332364
:10099000F9F020FC02C00C94A20F80910303813077
:1009A000C9F523E333E34BEC51E460910B03709101
:1009B0000C0380910D0390910E030E9451426093AD
:1009C0000B0370930C0380930D0390930E0322C0CE
:1009D00080910203813041F46F8D6230D9F420FCA4
:1009E00002C00C94A20F16C08091C202811112C0E5
:1009F00020FCD3CF8091CF029091D002A091D10260
:100A0000B091D20280930B0390930C03A0930D033B
:100A1000B0930E0330FC10C08091CB029091CC02B9
:100A2000A091CD02B091CE02809328039093290328
:100A3000A0932A03B0932B0380910003843039F4F0
:100A400026FC03C08CE10C94C40FE89426F8809136
:100A50000503882369F0813029F48FAF1DAA92E045
:100A60009BAB0BC01FAEA2E0ADABB1E0BBAB05C012
:100A7000E2E0EFAFF1E0FDAB1BAA80910303813010
:100A800021F02F8D2330A9F52BC0ADE2EA2EA3E093
:100A9000FA2E00E010E03B8DA32EB12CC501002EF4
:100AA00002C0959587950A94E2F780FF10C023E372
:100AB00033E34BEC51E4D7016D917D918D919C9185
:100AC0000E945142F70160837183828393830F5F99
:100AD0001F4FF4E0EF0EF11C03301105F9F6D1CFF2
:100AE00080910603813029F42B8D243011F00C9471
:100AF0009A0F8CE0E4EEF2E0DE01119601900D9287
:100B00008A95E1F78FA598A991FD09C090910003FE
:100B10009FA39A30C9F09C3509F4AFC010C18091F1
:100B20000703873018F08DE10C94C40F9091C70231
:100B3000981761F3BE016F5F7F4F0E94382B8823A7
:100B400011F40C94B00FE2CFAB8DA11103C08AE178
:100B50000C94C40FC10180759927892B09F472CFB9
:100B600060912003709121038091220390912303CF
:100B70000E941F430E9487406730A8F680911B03A4
:100B8000843141F0823011F00C949C0F27FE02C09A
:100B90000C949C0FBFEA2B22662319F0615069A7C1
:100BA00003C0E0910703E9A76FE073E089A50E9405
:100BB000382B882311F40C94B00FD0901B03409075
:100BC000FC025090FD026090FE027090FF020FE068
:100BD00013E0F8EDAF2EF2E0BF2EE12CF12CFB8DEF
:100BE0008F2E912CC4010E2C02C0959587950A94E6
:100BF000E2F780FF34C024E1D21228C0D501589614
:100C00002D913D914D915C915B976D917D918D9171
:100C10009C910E94393FF801268D378D40A151A14A
:100C20000E94393FD8016D937D938D939C931397C8
:100C3000B2E0EB16F10499F4A30192010E94393F4E
:100C4000F801608371838283938309C0F801868DE4
:100C5000978DA0A1B1A180839183A283B383FFEF7D
:100C6000EF1AFF0A0C5F1F4F24E0A20EB11C33E005
:100C7000E316F10409F0B6CF2FC16B8D662309F49A
:100C800066CF4090FC025090FD026090FE02709092
:100C9000FF020DE213E0A12CB12CE12CF12C862EE9
:100CA000912CF501EF53FD4FC4010E2C02C0959518
:100CB00087950A94E2F780FF2BC0A1E0B0E0AC0F6B
:100CC000BD1FAA0DBB1D2D913D914D915C91678972
:100CD000708D818D928D0E94393FD8012D913D916B
:100CE0004D915C910E94393FF8016083718382834A
:100CF0009383F2E0EF16F104A1F4A30192010E94A4
:100D0000393FD8016D937D938D939C93139709C0C0
:100D100087A590A9A1A9B2A9F80180839183A28394
:100D2000B383FFEFEF1AFF0A24E0A20EB11C0C5FA1
:100D30001F4F33E0E316F10409F0B3CFCCC06F8D41
:100D4000633071F48FA18E3109F48BC0853309F4BF
:100D5000BCC08C3109F0BFC06FE073E086E084C096
:100D60009B8D992379F3D09004034090FC0250901E
:100D7000FD026090FE027090FF02E8EDAE2EE2E010
:100D8000BE2E0DE213E0DE0111964D01E12CF12C97
:100D9000E92FF0E0FAA7E9A789A59AA50E2C02C0D1
:100DA000959587950A94E2F780FD0BC0F501808147
:100DB0009181A281B381F80180839183A283B3835F
:100DC0003FC0FFA1F533E1F1D11029C0D5015896FC
:100DD0002D913D914D915C915B97F4016081718102
:100DE000828193810E943A3FD8012D913D914D918E
:100DF0005C910E943A3FF801608371838283938300
:100E0000F2E0EF16F104E1F4A30192010E943A3FEF
:100E1000D8016D937D938D939C93139711C0F50129
:100E20002081318142815381D8016D917D918D91D5
:100E30009C910E943A3FF80160837183828393837F
:100E4000FFEFEF1AFF0A24E0A20EB11C0C5F1F4F48
:100E500034E0830E911C63E0E616F10409F09CCFA8
:100E600071CF6FE073E087E00E94382B882311F484
:100E70000C94B00F8B8D811103C019A61F8E2CC04E
:100E800020E030E080E090E0AB8D4A2F50E0BA01E6
:100E9000082E02C0759567950A94E2F760FD0EC0B2
:100EA000F901EF53FD4F8788908CA18CB28CF9012A
:100EB000E050FD4F8786908AA18AB28A01962C5F06
:100EC0003F4F8330910519F706C0809101038230AE
:100ED00010F00C949E0F19A6B0910103BFA3B0357A
:100EE00029F4EB8DE1110C94A00F75C2FF8DF23047
:100EF00009F071C22FA1211104C03B8D31116BC2C9
:100F00002BC020E030E0A90160910B0370910C032D
:100F100080910D0390910E030E941340882311F4D9
:100F20000C94A20F6FA16C3809F43FC240F46230F8
:100F3000A9F06330B1F0613009F04DC20AC08FA151
:100F40008E3809F432C208F42DC28F3809F42AC24F
:100F500042C29B8D91113FC21F8E3DC2ABA1A460C6
:100F6000ABA3BB8DBB2309F4F2CDFBA9EF2FF0E0BF
:100F7000FCA7EBA73DA9232F30E03CAF2BAF81E0CE
:100F800090E07C010DA802C0EE0CFF1C0A94E2F771
:100F90000BA802C0880F991F0A94E2F7E82AF92AE1
:100FA0008B2F90E08E219F21892B09F4CDC7CF0193
:100FB000880F991F880F991FFC01E050FD4FDC013D
:100FC000AF53BD4F57962D913D914D915C915A97DE
:100FD00065A576A587A590A90E94393F4B015C01C4
:100FE0008BAD9CAD880F991F880F991FFC01E050B5
:100FF000FD4FDC01AF53BD4F57962D913D914D9163
:101000005C915A9765A576A587A590A90E94393F5E
:101010006FAB78AF89AF9AAF81010078112727FEB7
:10102000F2C0E89427F84CE050E06DE273E088ED00
:1010300092E00E946B44892B11F481E2A5C7809154
:1010400003038130B1F423E333E34BEC51E46091CB
:1010500024037091250380912603909127030E9419
:101060005142609324037093250380932603909349
:10107000270340902403509025036090260370902E
:101080002703A5019401C501B4010E94514227968E
:101090006CAF7DAF8EAF9FAF27972FA938AD49AD0D
:1010A0005AADCA01B9010E9451422B966CAF7DAF77
:1010B0008EAF9FAF2B9720E030E040E850E4C301B3
:1010C000B2010E945142A30192010E94514227960F
:1010D0002CAD3DAD4EAD5FAD27970E94393F2B96AD
:1010E0002CAD3DAD4EAD5FAD2B970E94393F6B01EE
:1010F0007C0120E030E0A9010E94134087FD26C753
:10110000C701B6010E94DE426B017C012B962CAD1B
:101110003DAD4EAD5FAD2B9727966CAD7DAD8EADE1
:101120009FAD27970E943A3F0E94DE429B01AC018F
:10113000C701B60190580E941A406B017C016FA153
:10114000633021F4F7FAF094F7F8F09420E030E0FF
:10115000A901C301B2010E94134087FF0FC0F7FA33
:10116000F094F7F8F094D301C201B05880932403AF
:1011700090932503A0932603B09327030BA51CA5EA
:10118000000F111F000F111F0C5F1C4FA7019601CC
:101190006FA978AD89AD9AAD0E9451429B01AC0117
:1011A000C501B4010E94393F20E030E040E05FE338
:1011B0000E945142D8011B966D937D938D939C9311
:1011C0001E970BAD1CAD000F111F000F111F0C5F00
:1011D0001C4FA7019601C501B4010E9451429B0119
:1011E000AC016FA978AD89AD9AAD0E943A3F20E07D
:1011F00030E040E05FE30E945142F801638774876A
:1012000085879687E8C0D12CEC20FD20EF2809F4D3
:101210009FC6F1EF2F2280910303813009F47DC036
:10122000EBA5FCA5EE0FFF1FEE0FFF1FEC5FFC4FC1
:10123000C384D484E584F684A7019601C501B40172
:101240000E94393F2B013C01EBADFCADEE0FFF1FBF
:10125000EE0FFF1FEC5FFC4F83859485A585B68557
:101260008BA79CA7ADA7BEA79C01AD016FA978ADC8
:1012700089AD9AAD0E94393F4B015C01A3019201F7
:10128000C301B2010E9451422B013C01A50194010E
:10129000C501B4010E9451429B01AC01C301B201DE
:1012A0000E943A3F0E94DE424B015C01A701960179
:1012B000C701B6010E9451426B017C012BA53CA5E0
:1012C0004DA55EA5CA01B9010E9451429B01AC0126
:1012D000C701B6010E943A3F0E94DE426B017C01C9
:1012E0006093240370932503809326039093270330
:1012F0009B01AC01C501B4010E94393F4B015C0167
:10130000E894B7F82AE037ED43EA5BE3C501B4019E
:101310000E94164218164CF15EC090E0E92E93E050
:10132000F92EC601002E02C0959587950A94E2F722
:1013300080FF12C023E333E34BEC51E4D7011F9647
:101340006D917D918D919C9152970E945142F70130
:101350006787708B818B928B0F5F1F4FF4E0EF0ECE
:10136000F11C03301105E9F65BCF20E030E040E0EE
:101370005FE3C501B4010E94164218160CF45DCE5D
:101380002FE632E143E85AE3C701B6010E94514219
:101390009B01AC01C501B4010E94164218160CF461
:1013A0004CCE19C02BA120612BA38FA18E58823067
:1013B00018F43BA138603BA36B8D662309F4C7CBBF
:1013C0004CE050E06DE273E088ED92E00E946B44E7
:1013D000892B09F432CE2BA121708BA180FF03C091
:1013E000C1018E7D03C0C1018E7D9C7FAF8DA11197
:1013F000937E892B09F0AEC58E01035F1F4F89E0F4
:10140000F80111928A95E9F7222309F44AC08FA5C1
:1014100098A9867B892B09F09FC5809100038533AD
:1014200011F0811199C58091CB029091CC02A091CD
:10143000CD02B091CE02898B9A8BAB8BBC8B9091F5
:10144000CA028091C902892B40910B0350910C0371
:1014500060910D0370910E034D875E876F87788BC7
:1014600084608D8B8091B10285FF06C08DE293E090
:101470000E94D93B811172C5B8018DE293E00E94B0
:101480003F3C80915B0281116DC50E94291F892B11
:1014900009F468C580E280935B0222D70E94CE19CE
:1014A00061C58091B102F090CA0281FF26C09FA160
:1014B0009150933018F0FBA1F064FBA32B8D2223F5
:1014C00039F03F8D323021F46BA160686BA315C0F9
:1014D00080E1F81212C09091C10291508BA18074EA
:1014E000933030F4882349F09BA190629BA305C000
:1014F000811103C0ABA1A062ABA380911C039091AA
:101500001D03A0911E03B0911F038093D4029093FA
:10151000D502A093D602B093D702809102038093A4
:10152000C202882311F088E08D8B80910B0390918B
:101530000C03A0910D03B0910E038093CF02909302
:10154000D002A093D102B093D2028D879E87AF873D
:10155000B88B8090280390902903A0902A03B09024
:101560002B03A50194016091CB027091CC02809174
:10157000CD029091CE020E941340BBA1B074EB2E1D
:10158000811103C0EBA1E5FF20C0FF2071F0FBA19A
:10159000F7FD0BC0EE2021F040E050E0BA0102C0A0
:1015A000B501A4018F2D0E94173C809128039091D2
:1015B0002903A0912A03B0912B038093CB0290932F
:1015C000CC02A093CD02B093CE02E1100CC080916A
:1015D000CB029091CC02A091CD02B091CE02898B2A
:1015E0009A8BAB8BBC8B80912C038093D302809120
:1015F0000A039091CA02981751F049895A896B8958
:101600007C890E94173C80910A038093CA029D89BD
:101610008091CA02892B8D8B809109039091C90218
:101620009817D1F090915B02923051F02F968FAFC6
:101630002F970E9478262F968FAD2F970E94FB3010
:1016400080910903811103C01092C90205C09091D5
:10165000C902892B8093C9029D898091C902892B77
:101660008D8B80910003843049F560912003709147
:101670002103809122039091230320915B02223069
:10168000E9F02C966FAF2C972D967FAF2D972F9664
:101690008FAF2F972E969FAF2E970E94782640E00F
:1016A0002C966FAD2C972D967FAD2D972F968FADE5
:1016B0002F972E969FAD2E970E943224809105037E
:1016C0008093C502809103038093C3022F8D233042
:1016D00071F5809106038093C602811108C01092B3
:1016E0003503109236031092370310923803C090DE
:1016F0003503D0903603E0903703F0903803A7010C
:1017000096016091FC027091FD028091FE02909121
:10171000FF020E941340882351F0C092FC02D09235
:10172000FD02E092FE02F092FF020E94123C8091C4
:1017300007039091C702981769F08093C7028CE065
:10174000FE013196A4EEB2E001900D928A95E1F788
:101750000E94123C809104038093C4028091000394
:101760008632F1F138F48C3109F18E31F9F08A309A
:1017700069F04FC08C35D1F1863609F441C088320A
:1017800009F047C068ED72E087E02DC06FE073E0BC
:1017900089A50E941F2B8091C70239A5831339C0E8
:1017A0008CE0EFE0F3E0A4EEB2E025C08D8981602B
:1017B0008D8B6F8D662329F0B8018DE293E00E9436
:1017C0003F3CB8018FE093E00E943F3C8CE0EFE0AB
:1017D000F3E0A8EDB2E001900D928A95E1F719C00F
:1017E00068ED72E086E00E941F2B13C08CE0EDE2F2
:1017F000F3E0A0EFB2E001900D928A95E1F707C007
:101800008CE0E0EFF2E0DF011D928A95E9F70E949B
:10181000123C809101038093C102803509F42FC3EB
:10182000BF8DB23009F02BC3813021F4BE01635F5C
:101830007F4F06C0811109C08D8981608D8BB801F1
:101840008DE293E00E943F3C11C38250823008F049
:1018500095C28091240390912503A0912603B09115
:1018600027038F8F98A3A9A3BAA3ABA994E0A99F3C
:1018700070011124F701E852FD4FF8A7EFA397017B
:10188000215F3C4F3AA729A7D9014D905D906D90FB
:101890007C902081318142815381C301B2010E9439
:1018A0003A3F6FA778AB89AB9AABEDA9B4E0EB9F59
:1018B00080011124980128523D4F3CAB2BABC8014D
:1018C000815F9C4F9EAB8DABDC018D909D90AD9068
:1018D000BC90F9012081318142815381C501B4015D
:1018E0000E943A3F6FAB78AF89AF9AAF77FA7094A6
:1018F00077F87094D501C401B0588B8F9C8FAD8F51
:10190000BE8FF701E35DFC4F2FA538A949A95AA95D
:1019100060817181828193810E94393F6B017C01DA
:10192000F801E35DFC4F2FA938AD49AD5AAD608198
:101930007181828193810E94393F4B015C01A70133
:101940009601C301B2010E9451426BA77CA78DA7EB
:101950009EA7A50194016B8D7C8D8D8D9E8D0E941F
:1019600051429B01AC016BA57CA58DA59EA50E9453
:101970003A3F6BA77CA78DA79EA7A5019401C30141
:10198000B2010E9451424B015C01A70196016B8D8F
:101990007C8D8D8D9E8D0E9451429B01AC01C501B5
:1019A000B4010E94393F2BA53CA54DA55EA50E9420
:1019B000AD3F6B017C019BA192FF13C02DEB37E380
:1019C00046E055EBC701B6010E94164287FD1DC0D7
:1019D0002BED3FE049EC50E4C701B6010E94393FCE
:1019E00012C02DEB37E346E055E3C701B6010E9474
:1019F0001340181654F02BED3FE049EC50E4C701BA
:101A0000B6010E943A3F6B017C018090A502909044
:101A1000A602A090A702B090A8022F8D38A149A1DC
:101A20005AA1CA01B9010E943A3FA50194010E943E
:101A3000393F9B01AC01C501B4010E9451420E9493
:101A4000DE424B015C0120E030E040E05FE3C70193
:101A5000B6010E9451422F8D38A149A15AA10E947E
:101A600051429F77A50194010E941A400E94F040C4
:101A70000E9487407CA76BA7DB01AB2B09F4D6CE75
:101A80001D894B01A12CB12C13FF12C0C501B4015B
:101A90000E94B3409B01AC016D857E858F8598893E
:101AA0000E9451426D877E878F87988B177F1D8B91
:101AB000C501B4010E94B3404B015C019B01AC0124
:101AC000C701B6010E941A406BA37CA38DA39EA3FD
:101AD000EFADB4E0EB9FC00111248C0108521D4F03
:101AE000FC01E35DFC4FD8012D913D914D915C913E
:101AF00060817181828193810E94393FA5019401A7
:101B00000E941A4027966CAF7DAF8EAF9FAF27978C
:101B10002BA13CA14DA15EA1CA01B9010E94514275
:101B20009B01AC0160E070E080E090E40E94393FEE
:101B30006B017C012BEA3AEA4AE25EE36BA17CA1ED
:101B40008DA19EA10E9451424B015C0120E030E03A
:101B500040E850E4C701B6010E943A3F9B01AC0146
:101B6000C501B4010E9451426BAF7CAF8DAF9EAFF7
:101B700020E030E040E05FE3C701B6010E9451423F
:101B800023966CAF7DAF8EAF9FAF23971F8E22241D
:101B90002394312CEBA5FCA52E163F0609F446CE66
:101BA000BF8DBC3008F044C023962CAD3DAD4EAD8A
:101BB0005FAD23976B8D7C8D8D8D9E8D0E945142E4
:101BC0006B017C012BAD3CAD4DAD5EADC301B201EF
:101BD0000E945142A70196010E943A3F7B016C018D
:101BE00023962CAD3DAD4EAD5FAD2397C301B20141
:101BF0000E9451424B015C012BAD3CAD4DAD5EAD41
:101C00006B8D7C8D8D8D9E8D0E9451429B01AC0110
:101C1000C501B4010E94393F2B013C01EF8DEF5FFC
:101C2000EF8F470156018B8E9C8EAD8EBE8E65C0A8
:101C3000B10180E090E00E94B3402BA13CA14DA1F6
:101C40005EA10E9451426B017C010E9417406B8F84
:101C50007C8F8D8F9E8FC701B6010E94D4424B01AD
:101C60005C01A9A5BAA5CD90DD90ED90FC90F7FAA6
:101C7000F094F7F8F094ADA9BEA98D919D910D90C7
:101C8000BC91A02D8F8F98A3A9A3BAA32B8D3C8DB7
:101C90004D8D5E8DC701B6010E9451422B013C0162
:101CA000A50194016F8D78A189A19AA10E9451424A
:101CB0009B01AC01C301B2010E943A3F2B013C01E0
:101CC000A5019401C701B6010E9451426B017C013C
:101CD0002B8D3C8D4D8D5E8D6F8D78A189A19AA144
:101CE0000E9451429B01AC01C701B6010E94393FDD
:101CF0006B8F7C8F8D8F9E8F1F8EA30192016FA59E
:101D000078A989A99AA90E943A3FEFA1F8A5608312
:101D10007183828393832B8D3C8D4D8D5E8D6FA956
:101D200078AD89AD9AAD0E943A3FABA9BCA96D933D
:101D30007D938D939C93139727962CAD3DAD4EAD1F
:101D40005FAD2797F80160817181828193810E9444
:101D50003A3FD8016D937D938D939C931397BE0169
:101D6000635F7F4F88ED92E00E943F3C80915C0270
:101D700081117CC0BFEF2B1A3B0A0CCF8D89846088
:101D80008D8B80915B02823009F470C00E947826AE
:101D900080915C02811173C0FBA1F071FF2E109243
:101DA00060022BA123FB882780F90E94A11D80914E
:101DB0000601887090913B02891741F084E00DD2B2
:101DC0000E94612480E00E94A11D59C0B8018DE2EB
:101DD00093E00E943F3C81E080935A0210925502AA
:101DE00093E090935602809358028FEF80935402B1
:101DF0008CE38093590282E000D20E94612480919A
:101E00005C0281113CC080915B028111F6CF81E0C0
:101E100080935602109258021092540290915A02E6
:101E2000913079F4FF2051F08CE0ECE3F2E0A8E48B
:101E3000B2E001900D928A95E1F705C085E0CDD121
:101E400002C08093600210925A0280E00E94A11D9D
:101E50000E9461240E949D190E94401F0E94941EAE
:101E60000E948F3C80916002811187C08CE0EDE27E
:101E7000F3E0A8EDB2E001900D928A95E1F7809130
:101E800008038093C802882309F47EC00E94782644
:101E90008091C80290915B02833039F49230C9F18D
:101EA00088E0ABD10E94612434C081E08093C102FC
:101EB0001092C5021092C4021092C2021092C70280
:101EC0001092CA021092C90284E680936202809343
:101ED000630280936402923091F064EE72E080E0DD
:101EE0000E94382B8823E1F10E94123C40E050E030
:101EF000BA0180E00E94731C80E00E94FB3089E5FB
:101F000093E00E94851E80EF92E00E94851E0E9451
:101F10002C2F1092C8022FC081E036C082E034C05E
:101F200088E132C086E230C089E12EC084E02CC056
:101F30008BE12AC085E228C084E126C08EE124C05E
:101F40008FE122C086E120C080E21EC082E21CC078
:101F500083E21AC084E218C080E116C08FE014C08A
:101F600087E012C08CE0EDE2F3E0A8EDB2E0019072
:101F70000D928A95E1F780E007C00E944A307FCF3A
:101F80001A8E1BA20C945302C25BDF4F0FB6F8945B
:101F9000DEBF0FBECDBFDF91CF911F910F91FF909C
:101FA000EF90DF90CF90BF90AF909F908F907F90F9
:101FB0006F905F904F903F902F9008954F925F9257
:101FC0006F927F928F929F92AF92BF92CF92DF9249
:101FD000EF92FF92CF936B017C01C09164028090DD
:101FE000AD029090AE02A090AF02B090B0024090CF
:101FF000A9025090AA026090AB027090AC02A301BB
:102000009201C501B4010E94164287FF1AC06C2FCD
:1020100070E080E090E00E94B5402AE037ED43E2B6
:102020005CE30E9451429B01AC01C701B6010E94D2
:1020300051426B017C01A30192010E94164287FD6F
:102040000AC0409268025092690260926A027092DD
:102050006B028FEF47C0A5019401C701B6010E9432
:1020600013401816E4F020E030E0A901C701B601E2
:102070000E941340811109C01092680210926902F7
:1020800010926A0210926B022DC0809268029092A8
:102090006902A0926A02B0926B0281E023C0C092F2
:1020A0006802D0926902E0926A02F0926B02A50186
:1020B0009401C701B6010E94393F20910907309170
:1020C0000A0740910B0750910C070E9451420E9451
:1020D000F04020E030E040E85FE30E943A3F0E9499
:1020E0008740862FCF91FF90EF90DF90CF90BF90E9
:1020F000AF909F908F907F906F905F904F900895DA
:10210000CF93DF93C6E7D8E08991882319F00E9426
:10211000862DFACFDF91CF910895CF93DF9321E5FC
:10212000829FC0011124EC01DD5F40E550E0BE015B
:1021300086E798E00E94B730892B69F41092760800
:102140000E94782640E550E066E778E0CE010E94E4
:10215000723080E001C081E0DF91CF910895CF938C
:10216000DF93C0E08C2FD9DF81110DC0109276086B
:102170008EE30E94862DC4DF8AE30E94862D87E0CD
:102180000E94C12D11C080917608882369F00E94B9
:102190001902D82F8EE30E94862DB2DF8AE30E94B7
:1021A000862D8D2F0E94CC2DC13011F0C1E0DACFE9
:1021B000DF91CF9108952FB7F89490910807892B5C
:1021C000809308072FBF08952FB7F89490910707C1
:1021D000892B809307072FBF08959FB7F8948093AA
:1021E00006079FBF08952FB7F89490910507809533
:1021F0008923809305072FBF08952FB7F8949091F6
:102200000507892B809305072FBF0895AF92BF92D2
:10221000CF92DF92EF92FF920F931F93CF93DF93B2
:1022200000D01F92CDB7DEB75B012CE6E22E22E094
:10223000F22E8C016B018CE0C80ED11CF50161916E
:102240007191819191915F01F701219131914191BA
:1022500051917F0129833A834B835C830E94B5406F
:1022600029813A814B815C810E941A40F801619377
:102270007193819391938F01AC14BD04F9F60F9083
:102280000F900F900F90DF91CF911F910F91FF90C2
:10229000EF90DF90CF90BF90AF9008951F920F9274
:1022A0000FB60F9211248F939F9388E090E0909344
:1022B0000407809303079F918F910F900FBE0F909B
:1022C0001F90189590910601967083E0982791FFD2
:1022D00002C080E001C085E0947009F48860089530
:1022E0002F923F924F925F926F927F928F929F9226
:1022F000AF92BF92CF92DF92EF92FF920F931F9314
:10230000CF93DF93CDB7DEB7E6970FB6F894DEBF75
:102310000FBECDBF80915F0280FD75C790913307DE
:1023200080913407981709F46EC780910107909146
:102330000207892B09F04EC310915F0212FF09C0FA
:102340008091670622E3289FC0011124895B9C4F7E
:1023500002C00E94291F90930207809301072090DA
:102360000107309002072114310409F44CC7009191
:10237000C506902F917000FF09C002FF04C00E7FB8
:102380000093C50601C11092C506FEC08091C40627
:102390008F5F853009F0982F9093C406E92EF12CB9
:1023A00032E13E9DF0013F9DF00D1124E659F94FB9
:1023B000F0936906E0936806D10150968C9150978E
:1023C000808B4D915D916D917C91DB01CA0123E081
:1023D000880F991FAA1FBB1F2A95D1F7808391836D
:1023E000A283B383D10114964D915D916D917C913F
:1023F0001797DB01CA0133E0880F991FAA1FBB1F83
:102400003A95D1F784839583A683B783D101189633
:102410004D915D916D917C911B97DB01CA0143E069
:10242000880F991FAA1FBB1F4A95D1F780879187F4
:10243000A287B387D1011C964D915D916D917C91DE
:102440001F97DB01CA0153E0880F991FAA1FBB1F0A
:102450005A95D1F784879587A687B787F101648558
:102460007585868597850E94B3406093CA067093F0
:10247000CB068093CC069093CD06D1015E962D912C
:102480003D914D915C9191970E941A409B01AC0146
:102490006093CE067093CF068093D0069093D106BA
:1024A00060E070E080EA9FE30E941A406093D206E9
:1024B0007093D3068093D4069093D5061092C606E7
:1024C0001092C7061092C8061092C90611FD02C0EC
:1024D00003FF1DC06091F0067091F1068091F20635
:1024E0009091F3066093E8067093E9068093EA06FC
:1024F0009093EB069B01AC010E945142F101628B6B
:10250000738B848B958B077F0093C50611C0D10117
:1025100052966D917D918D919C9155970E94DE42CE
:102520006093E8067093E9068093EA069093EB06C1
:10253000B2E1BE9DC001BF9D900D1124FC01E65982
:10254000F94F7F01118A8091B10281FF1DC0D10135
:1025500051968C91519785FF17C09A962D913D9178
:102560004D915C919D9760E070E080E89FE30E9450
:102570001A406093FC067093FD068093FE069093CC
:10258000FF0621E0F701218B1092E4061092E50688
:102590001092E6061092E706D1015A962D913D91D0
:1025A0004D915C915D9760E070E080E09FE30E9458
:1025B0001A404B015C0111FF50C0B2E0B093E3063A
:1025C000F101468C578C60A071A0C288D388E48842
:1025D000F588A70196010E9451429B01AC01C301FD
:1025E000B2010E94393F4B015C0120E030E0A901BB
:1025F0000E94134087FF20C0D1015A966D917D91B2
:102600008D919C915D979B01AC010E943A3FA30183
:1026100092010E9451429B01AC01C701B6010E9488
:10262000393F0E94DE426093F0067093F10680937A
:10263000F2069093F306CBC18092E4069092E506F1
:10264000A092E606B092E7061092F0061092F1060C
:102650001092F2061092F306BAC11092E306D1016D
:102660005E962D913D914D915C91919729833A838E
:102670004B835C832093F4063093F5064093F60673
:102680005093F70612FF0CC01092F0061092F1065C
:102690001092F2061092F306C12CD12C760124C0C0
:1026A000E0914603EF5FE03109F4E0E080916706D6
:1026B000E81759F0B2E3BE9FF0011124E95BFC4F2B
:1026C000C288D388E488F58803C0C12CD12C760158
:1026D000C701B6010E94DE426093F0067093F106D6
:1026E0008093F2069093F306C1010E94B61E6D8797
:1026F0007E878F87988B9B01AC010E9451422B01F2
:102700003C01D10152962D913D914D915C9155978F
:1027100029873A874B875C879B01AC0169857A855D
:102720008B859C850E94164218160CF077C0A30179
:10273000920169857A858B859C850E94393F9B0132
:10274000AC01C501B4010E9451429B01AC016981F9
:102750007A818B819C810E94393F6093F40670934B
:10276000F5068093F6069093F70620E030E0A90185
:102770000E941340181674F1B2E0B093E306F10121
:10278000628D738D848D958D9B01AC010E943A3FC3
:10279000D1015E962D913D914D915C9191970E9452
:1027A00051429B01AC01F101628973898489958949
:1027B0000E94393F0E94DE426093F0067093F1065A
:1027C0008093F2069093F3068091C506886080930B
:1027D000C506FDC0A7019601C301B2010E94393FA1
:1027E0009B01AC01C501B4010E9451426093F806FF
:1027F0007093F9068093FA069093FB062D853E852B
:102800004F8558892093EC063093ED064093EE06F1
:102810005093EF0633E03093E306D9C0A701960149
:1028200069857A858B859C850E94393F9B01AC0127
:10283000C501B4010E9451429B01AC0169817A81BA
:102840008B819C810E943A3F20E030E040E05FE3D2
:102850000E9451426D837E838F83988720E030E011
:10286000A9010E94164218160CF099C029813A81DC
:102870004B815C816D817E818F8198850E941340A0
:1028800087FF89C0A7019601C301B2010E94393FA9
:102890009B01AC01C501B4010E9451426093F8064E
:1028A0007093F9068093FA069093FB062D813E8182
:1028B0004F8158850E94134087FF39C08D859E85C2
:1028C000AF85B8898093EC069093ED06A093EE0651
:1028D000B093EF06A301920169857A858B859C856B
:1028E0000E941340811104C091E09093E3066FC0F1
:1028F00029853A854B855C85C301B2010E94393F29
:102900009B01AC01C501B4010E9451429B01AC0185
:1029100069817A818B819C810E94393F6093F406A2
:102920007093F5068093F6069093F70650C02D81BC
:102930003E814F8158852093F4063093F5064093ED
:10294000F6065093F7062093F8063093F906409365
:10295000FA065093FB06D1015A966D917D918D91A7
:102960009C915D979B01AC010E943A3F2D813E8175
:102970004F8158850E945142A70196010E943A3F1B
:102980000E94DE426093EC067093ED068093EE06A3
:102990009093EF061CC0B2E0B093E30618C010920B
:1029A000F4061092F5061092F6061092F706809142
:1029B000F0069091F106A091F206B091F306809393
:1029C000EC069093ED06A093EE06B093EF06186028
:1029D00010935F0280915F07E82FF0E0FE83ED83A4
:1029E00047E09F01429FF001439FF00D1124EB5CF3
:1029F000F84F8091C406848380910107909102076B
:102A00009EAB8DABDC015E963C905E975F962C9002
:102A10005F9790960C91909791961C912091D20679
:102A20003091D3064091D4065091D506632D722D76
:102A3000C8010E94393F6AA77BA78CA79DA720E009
:102A400030E0A9010E94134087FF04C01AA61BA60C
:102A50001CA61DA6B091F406B983E091F506E9879E
:102A6000F091F606FD872091F706298B3091EC0650
:102A70003E8B4091ED064F8B5091EE06588F809122
:102A8000EF06898F6090E8067090E9064090EA06AC
:102A90005090EB069091F8069AA3A091F906ABA38B
:102AA000B091FA06BCA3E091FB06EDA3F091E40619
:102AB000FEA32091E5062FA33091E60638A74091AA
:102AC000E70649A75091F0065EA78091F1068FA70F
:102AD0009091F20698ABA091F306A9AB8EE3C82EB5
:102AE00083ECD82E8EE2E82E89E3F82E1A8A1B8A10
:102AF0001C8A1D8ACA8EDB8EEC8EFD8E8091E306C9
:102B0000813009F4E3C0ADA9BEA95A962D913D913B
:102B10004D915C915D97813008F467C0833009F076
:102B200007C1C701B6010E9451424B015C0120E080
:102B300030E040E05FE30E9451429B01AC01B301F1
:102B4000C2010E94393F9B01AC01C701B6010E943E
:102B500051426E8F7F8F88A399A39B01AC01632D97
:102B6000722DC8010E94393F362E272E8C012981F3
:102B700039854D8559890E94134087FD0BC020E09F
:102B800030E0A9016E8D7F8D88A199A10E9413402C
:102B9000181624F1298139854D855989EDA9FEA999
:102BA000668D778D80A191A10E94393F9B01AC0178
:102BB0000E943A3F6B017C012E893F89488D598DD7
:102BC000B301C2010E943A3F9B01AC01C701B601AB
:102BD0000E941A406B017C01F1E060C0A5019401E4
:102BE000B301C2010E94393F6EC0C701B6010E9405
:102BF00051424B015C0120E030E040E05FE30E9485
:102C000051429B01AC01B301C2010E943A3F9B01BA
:102C1000AC01C701B6010E9451429B01AC01632D7A
:102C2000722DC8010E94393F362E272E8C01298132
:102C300039854D8559890E94134087FF3EC02981FF
:102C400039854D855989EDA9FEA9668D778D80A1BD
:102C500091A10E94393F9B01AC010E943A3F6B0158
:102C60007C012E893F89488D598DB301C2010E9494
:102C70003A3F9B01AC01C701B6010E941A406B01AB
:102C80007C012AA13BA14CA15DA1698179858D853B
:102C900099890E941340811104C0F2E0F093E30689
:102CA00003C021E02093E3066E887F88488C598C0E
:102CB000398029840D851989A8C0A5019401B30123
:102CC000C2010E943A3F3B012C019FC0A70196011F
:102CD0006E897F89888D998D0E9451429B01AC013C
:102CE000632D722DC8010E94393F5B014C012AA15E
:102CF0003BA14CA15DA10E94134087FF83C02AA184
:102D00003BA14CA15DA1632D722DC8010E94393FEA
:102D10002E893F89488D598D0E941A406B017C0194
:102D200032E03093E3063AA02BA00CA11DA16DC0A8
:102D3000C701B6010E9451424B015C019B01AC01ED
:102D4000B301C2010E9416421816A4F520E030E03B
:102D500040E05FE3C501B4010E9451429B01AC0118
:102D6000B301C2010E94393F9B01AC01C701B6010A
:102D70000E9451429B01AC01632D722DC8010E943B
:102D8000393F6E8F7AAB8BAB9CAB2EA13FA148A590
:102D900059A50E94164218166CF4A5019401B301BE
:102DA000C2010E94393F3B012C013E8C2AA80BA98D
:102DB0001CA92BC02EA13FA148A559A5632D722D9A
:102DC000C8010E94393F9B01AC010E943A3F6B0150
:102DD0007C012EA53FA548A959A9B301C2010E94B3
:102DE0003A3F9B01AC01C701B6010E941A406B013A
:102DF0007C016EA47FA448A859A83EA02FA008A5D6
:102E000019A503C03A2C2B2C8401A70196016A89CD
:102E10007B898C899D890E943A3F6A8B7B8B8C8B46
:102E20009D8B2A8D3B8D4C8D5D8D0E94134087FFBD
:102E300009C02A893B894C895D896A8D7B8D8C8D7F
:102E40009D8D2FC02AA53BA54CA55DA5632D722D98
:102E5000C8010E941642181694F0C301D201809353
:102E6000E8069093E906A093EA06B093EB06E0919A
:102E70006806F09169069189911128C023C02EE35C
:102E800033EC4EE259E36A8D7B8D8C8D9D8D0E94D3
:102E90003A3F6A8F7B8F8C8F9D8F2A893B894C8923
:102EA0005D890E94393F6B017C012EA13FA148A59D
:102EB00059A5632D722DC8010E94164218160CF4F4
:102EC0001DCECBCF80915F0283FF3AC0EDA9FEA952
:102ED0008189807331F1C6A4D7A4E0A8F1A8992311
:102EE000D1F02091FC063091FD064091FE065091F4
:102EF000FF066091E8067091E9068091EA069091DC
:102F0000EB060E9451429B01AC01C701B6010E9431
:102F100051426B017C01C701B60150D88093000774
:102F20000AC0109268021092690210926A0210920E
:102F30006B021092000780915F02877F80935F028F
:102F400087E02D813E81829FA001839F500D112437
:102F5000DA01AB5CB84FBA87A98780910007169653
:102F60008C932091CE063091CF064091D00650919F
:102F7000D106632D722DC8010E9451422B013C01E4
:102F80000E9400406B017C016091CA067091CB06E3
:102F90008091CC069091CD060E9400404B015C01CF
:102FA000A70196010E94393F0E94874069837A8376
:102FB0008B839C8329813A81E985FA85318320833B
:102FC000232B41F480915F0281FF04C081608093D4
:102FD0005F02F2C02091C6063091C7064091C80634
:102FE0005091C9066A897B898C899D890E943A3FE4
:102FF00069877A878B879C87A3019201C501B401F9
:103000000E94393F9B01AC0169857A858B859C853F
:103010000E941A404B015C0120EC31EE44E65EE474
:103020000E9451420E9400400E948740603D57E04C
:1030300075078105910560F427E0AD81BE812A9F67
:10304000F0012B9FF00D1124EB5CF84F158254C05A
:10305000603A3FE073078105910568F4A7E04D8170
:103060005E81A49FF001A59FF00D1124EB5CF84F49
:10307000B1E0B5831FC06034EFE17E0781059105A3
:1030800068F447E02D813E81429FF001439FF00D9F
:103090001124EB5CF84F52E055830CC027E0AD8162
:1030A000BE812A9FF0012B9FF00D1124EB5CF84F9D
:1030B00033E03583A7E04D815E81A49FF001A59F99
:1030C000F00D1124EB5CF84F2581022E04C096957B
:1030D0008795779567950A94D2F749815A8102C0FE
:1030E000440F551F2A95E2F75183408361157105FE
:1030F00051E08507910568F427E0AD81BE812A9FE4
:10310000F0012B9FF00D1124EB5CF84F7383628369
:1031100004C04FEF5FEF5383428380913407809365
:103120005F078F5F863019F08093340702C01092DA
:103130003407E0910107F0910207832D922DD80109
:10314000868F978FA0A3B1A3C092CA06D092CB0658
:10315000E092CC06F092CD06A3019201C701B60120
:103160000E94393FA50194010E9451426093C60616
:103170007093C7068093C8069093C9062091E40611
:103180003091E5064091E6065091E706632D722DD9
:10319000C8010E9413408111C1C820E030E0A9019C
:1031A000632D722DC8010E94164290915F0218167D
:1031B0005CF4916090935F028091C50682FD23C00C
:1031C00082608093C5061FC092FF04C091609093F7
:1031D0005F0219C0109202071092010790914603F6
:1031E00080916706891709F499C881E0890F8031B9
:1031F00009F480E020914503921302C080934503B7
:10320000809346038BC8E6960FB6F894DEBF0FBED8
:10321000CDBFDF91CF911F910F91FF90EF90DF9085
:10322000CF90BF90AF909F908F907F906F905F9066
:103230004F903F902F900895CF93DF93C091010757
:10324000D09102072097C9F08091C50681608093D4
:10325000C5066091E8067091E9068091EA069091B2
:10326000EB069B01AC010E9451426A8B7B8B8C8BDD
:103270009D8B1092020710920107DF91CF91089564
:1032800080919D02682F90E020919E02422F80FD48
:1032900090E2822F817020FD84E061FD906441FD09
:1032A000886062FD906842FD806190930D07809375
:1032B0000E0708951F920F920FB60F9211248F934D
:1032C0009F9382B190910D07907E8F71892B82B967
:1032D00015BC9F918F910F900FBE0F901F90189566
:1032E00080916F008D7F80936F0080918100887F37
:1032F00081608093810010920F0780919F029091CE
:103300005B028F3F39F420910607211103C09038EA
:1033100031F402C0943019F090E00E94272480918B
:103320005B02813021F480910201806803C08091AA
:1033300002018F77809302010895CF93DF93D0DF4E
:103340008DE3E4ECF6E0DF011D928A95E9F7C0E138
:10335000D7E083E2FE0111928A95E9F71092020705
:10336000109201071092330710925F0781E080935B
:10337000340710920F0784DF80910E078F8782B188
:103380008F7190910D07892B82B982B1837E9091C4
:103390000E07892B82B9DF91CF910895E2E0F1E029
:1033A00080818F778083E0E1F7E080910D07868749
:1033B00080919C02880F8450819585870E945132AC
:1033C000EFE6F0E0808182608083089583E080935F
:1033D00041031092430310923F0385E0809356020D
:1033E000109258021092540290915B0297FF0EC007
:1033F00010923A0394E090933B0391E090933D0345
:103400009FEF9093390380933E03089580933B038D
:1034100010923D038FEF809339030895811101C00D
:10342000D5CF90913F038917B1F092E0909341037B
:103430001092430380933F0384E0809356021092DE
:1034400058029FEF9093540280933B0310923D03E8
:1034500084E68093390308951F920F920FB60F925E
:1034600011240BB60F922F933F934F935F936F935B
:103470007F938F939F93AF93BF93EF93FF9380912D
:103480000F0781111DC282B190911F079C71837E2D
:10349000892B82B982B18F7190911E07892B82B9D5
:1034A00080911D0786BD82E085BD81E080930F0776
:1034B00078948091310790913207892B09F0B6C03A
:1034C0008091330790915F07981709F4A3C0E091AA
:1034D00033072E2F30E087E0E89FF0011124EB5CEA
:1034E000F84FF0933207E0933107828193819093F4
:1034F0008900809388008081918190932D0780932B
:103500002C07E48180912E078E1761F1E0932E073E
:1035100082E1E89FF0011124E659F94FF09330075A
:10352000E0932F0784859585A685B785B695A795E1
:10353000979587958093180790931907A0931A077A
:10354000B0931B078093140790931507A093160759
:10355000B09317078093100790931107A093120759
:10356000B0931307A0912F07B091300790910E07E9
:1035700050968C915097892780931F0787E0829FF0
:10358000F001839FF00D1124EB5CF84F25814D91E4
:103590005D916D917C911397022E04C0769567958D
:1035A000579547950A94D2F74093200750932107E7
:1035B000609322077093230714964D915D916D914E
:1035C0007C911797022E04C076956795579547957D
:1035D0000A94D2F740932407509325076093260757
:1035E0007093270718968D919D910D90BC91A02DF9
:1035F00004C0B695A795979587952A95D2F780939D
:10360000280790932907A0932A07B0932B07868158
:1036100005DF0CC065DEE0912F07F091300781894E
:103620008111D4DE84E00E94FD104AC190915A02BB
:103630009130D1F480910601887020913B0282176D
:1036400089F010925A028CE0ECE3F2E0A8E4B2E0D8
:1036500001900D928A95E1F780910507806480932F
:10366000050702C09093580210921E074091200750
:1036700050912107609122077091230780911007D4
:1036800090911107A0911207B0911307840F951F15
:10369000A61FB71F8093100790931107A0931207DE
:1036A000B0931307E0912F07F091300744855585BB
:1036B00066857785481759076A077B0768F520E212
:1036C00020931E074485558566857785841B950B59
:1036D000A60BB70B8093100790931107A0931207C6
:1036E000B0931307208980913C0290913D02A091F4
:1036F0003E02B0913F0222FF04C00197A109B10927
:1037000003C00196A11DB11D80933C0290933D0220
:10371000A0933E02B0933F024091240750912507A9
:1037200060912607709127078091140790911507E3
:10373000A0911607B0911707840F951FA61FB71FFA
:103740008093140790931507A0931607B09317075B
:103750004485558566857785481759076A077B072D
:1037600078F520911E07206420931E074485558517
:1037700066857785841B950BA60BB70B8093140782
:1037800090931507A0931607B0931707208980918F
:10379000400290914102A0914202B091430223FF66
:1037A00004C00197A109B10903C00196A11DB11D73
:1037B0008093400290934102A0934202B09343024F
:1037C000409128075091290760912A0770912B0793
:1037D0008091180790911907A0911A07B0911B07C3
:1037E000840F951FA61FB71F809318079093190782
:1037F000A0931A07B0931B07448555856685778586
:10380000481759076A077B0778F520911E0720683B
:1038100020931E074485558566857785841B950B07
:10382000A60BB70B8093180790931907A0931A075C
:10383000B0931B0720898091440290914502A0918A
:103840004602B091470224FF04C00197A109B109C3
:1038500003C00196A11DB11D8093440290934502BF
:10386000A0934602B093470280915B02843039F402
:103870009091610280911E07892380931E07809199
:103880002C0790912D07019790932D0780932C077B
:10389000892B69F410923207109231078091330717
:1038A0008F5F80933307863011F410923307909125
:1038B0000D0780911E07892780931E0710920F071E
:1038C000FF91EF91BF91AF919F918F917F916F91F8
:1038D0005F914F913F912F910F900BBE0F900FBEB4
:1038E0000F901F90189590915C02911121C0811149
:1038F0000AC0109268021092690210926A02109235
:103900006B0264DD13C0803111F4739801C0739AA7
:103910009091B10291FF05C0803219F440E050E06F
:10392000BA01CB01BA010E94DE0F78DD1092660267
:103930000895E1E0F1E080818064808383E08093FA
:10394000B000E1EBF0E08081887F8260808320918D
:10395000AD023091AE024091AF025091B002609141
:10396000A9027091AA028091AB029091AC020E94D0
:10397000393F9B01AC0160E070E08EE793E40E9468
:103980001A406093090770930A0780930B0790937E
:103990000C07EFE3F3E012821482108208956F9215
:1039A0007F928F929F92AF92BF92CF92DF92EF92CF
:1039B000FF920F931F93CF93DF93EB018C015B0179
:1039C0008CE0A80EB11C89E9682E96E7792E26E9CD
:1039D000822E3EE7932EC990D990E990F99020E08D
:1039E00030E0A901C701B6010E9413408823B9F055
:1039F000A7019601F80160817181828193810E9403
:103A00001A406B017C01E894F7F8A7019601B30115
:103A1000C4010E94134087FD02C0360147010C5FBC
:103A20001F4FCA15DB05B9F6B301C401DF91CF9171
:103A30001F910F91FF90EF90DF90CF90BF90AF90CC
:103A40009F908F907F906F9008954F925F926F92AA
:103A50007F92AF92BF92CF92DF92EF92FF920F933D
:103A60001F93CF93DF93EC018C015C018CE0A80ED7
:103A7000B11CC12CD12C7601F8014190519061907C
:103A800071908F0120E030E0A901C301B2010E94D2
:103A90001340882371F0A3019201C301B2010E9477
:103AA00051429B01AC01C701B6010E943A3F6B0134
:103AB0007C010A151B0501F7C701B6010E94DE4211
:103AC0002B013C019B01AC0160E070E080E89FE3CA
:103AD0000E941A406B017C019B01AC0168817981D5
:103AE0008A819B810E945142688379838A839B8368
:103AF000A70196016C817D818E819F810E94514238
:103B00006C837D838E839F83A70196016885798569
:103B10008A859B850E945142688779878A879B871F
:103B2000C301B201DF91CF911F910F91FF90EF90F0
:103B3000DF90CF90BF90AF907F906F905F904F904D
:103B4000089510923B029091B10297FD03C098E056
:103B500090933B02882331F090913B0288E08927C3
:103B600080933B0208958F929F92AF92BF92CF9223
:103B7000DF92EF92FF920F931F93CF93DF93CDB716
:103B8000DEB72D970FB6F894DEBF0FBECDBF6B0129
:103B90007C01042F20E030E0A9010E94134087FF40
:103BA00007C08DE20E94862DF7FAF094F7F8F094A2
:103BB000102F123060F020E030E048EC52E4C701F2
:103BC000B6010E9451426B017C011250F2CF00FFFE
:103BD0000AC020E030E040E251E4C701B6010E9493
:103BE00051426B017C0120E030E040E05FE3C7011F
:103BF000B6010E943A3F0E94824010E03AE0832ED4
:103C0000912CA12CB12C611571058105910591F0C4
:103C1000EE24E394F12CEC0EFD1EE10EF11CA50147
:103C200094010E94F63E605DF7016083B901CA010C
:103C30001F5FE9CF80E3101748F4E1E0F0E0EC0FFC
:103C4000FD1FE10FF11D80831F5FF5CF101314C01E
:103C500011E0100F80E3FE01E00FF11D81830CC025
:103C6000101303C08EE20E94862DFE01E10FF11DAC
:103C700080810E94862D11501111F2CF2D960FB622
:103C8000F894DEBF0FBECDBFDF91CF911F910F9192
:103C9000FF90EF90DF90CF90BF90AF909F908F906C
:103CA00008952091B10220FF08C02BE832E441E2E0
:103CB0005DE30E94514244E001C043E054CFCF9302
:103CC000DF93843630F06AE00E94D63EC0E3C90F2D
:103CD00003C0C0E08A3030F06AE00E94D63ED0E3F4
:103CE000D90F01C0D0E0805D0E94862DDD2319F040
:103CF0008D2F0E94862DCC2329F08C2FDF91CF9120
:103D00000C94862DDF91CF910895CF93DF93FC0122
:103D10008491EF012196882321F00E94862DFE01D7
:103D2000F7CFDF91CF910895E4E6F7E0ACE3B2E09E
:103D30004D915D916D917C91139740835183628386
:103D4000738314964D915D916D917C911797448387
:103D500055836683778318968D919D910D90BC91C4
:103D6000A02D80879187A287B3870895BF92CF92B5
:103D7000DF92EF92FF920F931F93CF93DF937C011B
:103D8000FC0102A513A5D4A5C5A5818980FF18C093
:103D90006091630270E080E090E00E94B5402AE00C
:103DA00037ED43E25CE30E9451429B01AC01B80154
:103DB0008D2F9C2F0E9451428B01D82FC92F2DC0CF
:103DC00082FD17C06091620270E080E090E00E9486
:103DD000B5402AE037ED43E25CE30E9451429B018B
:103DE000AC01B8018D2F9C2F0E9451428B01D82F1E
:103DF000C92FF701B6A0C7A0D0A4F1A42B2D3C2D4C
:103E00004D2D5F2DB8018D2F9C2F0E941642181644
:103E100024F40B2D1C2DDD2DCF2D20E030E040E8CB
:103E20005FE3B8018D2F9C2F0E941642181624F0D4
:103E300000E010E0D0E8CFE3B8018D2F9C2FDF9198
:103E4000CF911F910F91FF90EF90DF90CF90BF9097
:103E500008958091460390916706981739F022E300
:103E6000829FC0011124895B9C4F089580E090E0FF
:103E70000895EFDF892B19F082E00C94FD1008956E
:103E80008CE1E4E6F7E0DF011D928A95E9F71092F4
:103E900046031092670681E0809360071092450305
:103EA00008952F923F924F925F926F927F928F92DE
:103EB0009F92AF92BF92CF92DF92EF92FF920F93B9
:103EC0001F93CF93DF93C0916706C11101C0C0E17A
:103ED000C150D0914503CD1709F419C1EC2EF12C36
:103EE00022E3C29F80011124095B1C4FF801A688C0
:103EF000B788C08CD18C628D738D848D958D9B011C
:103F0000AC010E943A3FF801268D378D40A151A1A6
:103F10000E9451424B018C019B01AC01B501C601CD
:103F20000E94134087FD02C05401680182E38E9D08
:103F3000F0018F9DF00D1124E95BFC4FC501D60106
:103F4000828B938BA48BB58BC11101C0C0E1C15092
:103F5000CD1761F022E32E9DC0012F9D900D1124FD
:103F60009C01295B3C4F7901D2E331C0809146032B
:103F7000D8135CC061D95AC0AC2EB12CDA9DC001F7
:103F8000DB9D900D1124FC01E95BFC4F6F01C11119
:103F900001C0C0E1C15080914603C81301C04CD993
:103FA000DA9D8001DB9D100D1124095B1C4FF80187
:103FB00086889788A08CB18CA50194016289738949
:103FC000848995890E941340811106C076018091F1
:103FD0004503C813D1CF2AC0F801628D738D848D3B
:103FE000958D9B01AC010E943A3FF801268D378DDB
:103FF00040A151A10E945142F7012289338944898D
:1040000055890E943A3F2B013C01A50194010E9471
:104010001340F80187FF05C0428A538A648A758A73
:10402000D5CF828A938AA48AB58AD0CFD09145030E
:10403000F2E3DF9F80011124095B1C4FC1E0CD0F2B
:10404000C03109F4C0E02090670682E3382EC21523
:1040500009F45BC0CC2ED12C3C9CC0013D9C900D42
:1040600011249C01295B3C4F7901F8014288538857
:1040700064887588F90182889388A488B588A50129
:104080009401C301B2010E94134087FF24C0F801CC
:10409000628D738D848D958D9B01AC010E943A3F9A
:1040A000F801268D378D40A151A10E9451429B01FC
:1040B000AC01C301B2010E943A3F2B013C01A501B2
:1040C00094010E94134087FF06C0F701428A538A79
:1040D000648A758ADC2F3C9CF0013D9CF00D112414
:1040E000E95BFC4F26893789408D518D6289738940
:1040F000848995890E941340811101C0DC2FCF5F14
:10410000C03109F4C0E08701A2CFD0934503DF910D
:10411000CF911F910F91FF90EF90DF90CF90BF90C4
:10412000AF909F908F907F906F905F904F903F9057
:104130002F9008952F923F924F925F926F927F92AD
:104140008F929F92AF92BF92CF92DF92EF92FF92A7
:104150000F931F93CF93DF93CDB7DEB7CA54D10926
:104160000FB6F894DEBF0FBECDBF4B01309167068E
:10417000232E312C22E3229DA001239D500D1124DA
:10418000BA01695B7C4F7AAF69AFFB0111922A9546
:10419000E9F7F4012085FB01218BF401448155816D
:1041A00066817781E9ADFAAD46A757A760AB71ABE1
:1041B00021FF43C02CE0ECE3F2E0DE0159960190D0
:1041C0000D922A95E1F78BAB9CAB6CE672E02196E1
:1041D0007FAF6EAF2197CE0185969EAF8DAFFE016A
:1041E0007996F8AFEFABBE01635F7F4F7CAF6BAFEB
:1041F000E2E33E9FC001112427969FAF8EAF279721
:104200007EAB6DAB00E010E0B12C82E3829D9001AB
:10421000839D300D1124C901895B9C4F9C01245F53
:104220003F4F23963FAF2EAF2397BC01605F7F4F78
:1042300025967FAF6EAF259743C02CE0E4E6F7E00C
:10424000BCCF2796EEADFFAD2797E00FF11FE95BDE
:10425000FC4FC082D182E282F3822396EEADFFADA5
:1042600023972081318142815381C216D306E4060F
:10427000F50610F469017A012396EEADFFAD2397A0
:10428000C082D182E282F3820E94B540A3019201F2
:104290000E941A40EDA9FEA96193719381939193B5
:1042A000FEABEDAB20E030E0A9010E94134087FD9A
:1042B00041C0B3940C5F1F4F0C30110509F44CC082
:1042C000EBA9FCA96191719181919191FCABEBAB50
:1042D0002196EEADFFAD2197419051906190719084
:1042E0002196FFAFEEAF2197A30192010E945142A8
:1042F0000E942142EDADFEAD619371938193919344
:10430000FEAFEDAFEFA9F8ADC190D190E190F19083
:10431000F8AFEFAB6C197D098E099F096B017C0129
:1043200097FF8FCFCC24DD247601C61AD70AE80A7E
:10433000F90A87CFBB2029F0F1E0BF1621F090E108
:1043400003C094E001C098E02596EEADFFAD25973F
:104350008081892B8083ADCFCD28CE28CF2809F44A
:104360009EC1CE010D9671DB9B01AC0182E3829D63
:104370008001839D100D1124095B1C4FF801268FCD
:10438000378F40A351A3BE01635F7F4F84E892E063
:1043900028962FAF289729963FAF29972A964FAF97
:1043A0002A972B965FAF2B97FADAF801628F738FFB
:1043B000848F958FBE01635F7F4F88E792E0EFDACD
:1043C000F80166A377A380A791A7F18828962FAD5F
:1043D000289729963FAD29972A964FAD2A972B9675
:1043E0005FAD2B97F0FC09C0F4016081718182817F
:1043F0009381F3FC0E945142F80162A773A784A73E
:1044000095A79091670680914603981711F0F1FEE9
:104410000DC082E3829DF001839DF00D1124E95BC4
:10442000FC4F128A138A148A158A54C020E737E099
:104430003CAB2BAB8E010F5F1F4FBE01675E7F4F02
:104440007AAB69ABC12CD12C76010DAB1FABEBA9BC
:10445000FCA981909190A190B190FCABEBABEBAD3E
:10446000FCAD4190519061907190FCAFEBAFA30116
:104470009201C501B4010E9451429B01AC01C701E8
:10448000B6010E94393F6B017C01A5019401C30173
:10449000B2010E94393FF801619371938193919326
:1044A0008F012BAD3CAD69A97AA92617370779F69C
:1044B0002FEE3FEF4FE75FE3C701B6010E941642C0
:1044C00018166CF482E3829DF001839DF00D112497
:1044D000E95BFC4F12A213A214A215A26FC02FEE2B
:1044E0003FEF4FE75FEBC701B6010E94134087FF24
:1044F00011C082E3829DF001839DF00D1124E95BE0
:10450000FC4F89E996E7A6E9BEE782A393A3A4A39B
:10451000B5A354C08DA99FA998DA6DA97FA984E895
:1045200092E03DDA4B015C01A701960160E070E08A
:1045300080E89FE30E94393F20E030E040E05FE305
:104540000E9451420E94DE426B017C012091A10237
:104550003091A2024091A3025091A402C501B4017E
:104560000E945142A70196010E9451424B015C01F9
:10457000A701960160E070E080E89FE30E94393F68
:104580009B01AC01C501B4010E941A406B017C0182
:1045900020E030E0A9010E94134087FF03C0C12C36
:1045A000D12C760182E3829DF001839DF00D1124D0
:1045B000E95BFC4FC2A2D3A2E4A2F5A282E3829DF2
:1045C0008001839D100D1124095B1C4FF801818926
:1045D00081FD67C089AD9AADC9DB6B017C0180901C
:1045E0007C0790907D07A0907E07B0907F07A50183
:1045F00094010E94164218162CF4A5019401C501DD
:10460000B40104C0A7019601C701B6010E9451423E
:10461000F801668B778B808F918F82E3829D80017A
:10462000839D100D1124095B1C4FF80182A093A0FB
:10463000A4A0B5A0A501940166897789808D918D8C
:104640000E94164218162CF4F801868A978AA08ECA
:10465000B18EC0927C07D0927D07E0927E07F092E7
:104660007F078CE0FE013D96A0E7B7E001900D9238
:104670008A95E1F78CE0FE01B596A4E6B7E00190DB
:104680000D928A95E1F780916007809367068F5FAE
:10469000803109F480E08093600703DC02C080E091
:1046A00001C081E0C65BDF4F0FB6F894DEBF0FBEDE
:1046B000CDBFDF91CF911F910F91FF90EF90DF90D1
:1046C000CF90BF90AF909F908F907F906F905F90B2
:1046D0004F903F902F90089520915C022111B6C019
:1046E00029DD90915F02882309F4ACC09E7F94601D
:1046F00090935F028091C50681FF34C09091C406FB
:104700009093D6064091CA065091CB066091CC0694
:104710007091CD064093D7065093D8066093D90682
:104720007093DA064091C6065091C7066091C8069C
:104730007091C9064093DF065093E0066093E1064E
:104740007093E2064091CE065091CF066091D0065C
:104750007091D1064093DB065093DC066093DD0632
:104760007093DE068E7F84608093C50610920207E8
:10477000109201070E9470110E94CE191FD38091E0
:104780005C02811163C080915F0282FDF7CF80914E
:10479000C50681FF50C02091D60632E1239FC0019B
:1047A00011248659994F9093690680936806209347
:1047B000C4068091D7069091D806A091D906B091F1
:1047C000DA068093CA069093CB06A093CC06B093EA
:1047D000CD068091DF069091E006A091E106B091B0
:1047E000E2068093C6069093C706A093C806B093CE
:1047F000C9062091DB063091DC064091DD06509120
:10480000DE062093CE063093CF064093D006509319
:10481000D10683E08093C50660E070E080EA9FE304
:104820000E941A406093D2067093D3068093D406F8
:104830009093D50602C01092C506109202071092FE
:10484000010708959B7F90935F02B8C20895009777
:1048500041F0EFE9FFE03197F1F700C00000019768
:10486000F6CF08950F931F93CF93C42F20E030E02D
:1048700040EA51E40E9451420E9400400E94874059
:104880008B0101151105C9F080915C02811115C0E1
:10489000C11102C016D005C091D280915D0281FD88
:1048A0000CC02FEF80E792E0215080409040E1F76C
:1048B00000C0000001501109E4CFCF911F910F916A
:1048C00008952F923F924F925F926F927F928F92B4
:1048D0009F92AF92BF92CF92DF92EF92FF920F938F
:1048E0001F93CF93DF93CDB7DEB7A3970FB6F8949E
:1048F000DEBF0FBECDBF62D280915D02882309F476
:10490000DEC11E0189E1280E311C89E0D1011D9212
:104910008A95E9F786E089A39CDAFC01892BD1F41A
:104920009091C9028091CA02982B8090CB029090FE
:10493000CC02A090CD02B090CE02C12CD12C20E4AC
:10494000E22EFE2C192F1073B92FB07FBAA39074EA
:104950009BA30FC0918986A497A4A0A8B1A8EDCF6E
:1049600090915C029111ABC180FD08C00E94832F21
:1049700025D280915D028111F3CFA1C190915B029C
:10498000292F207C09F449C182FDA1C01092650243
:104990006CE372E0CE0101960E94061180915D02E7
:1049A00081FD21C0FE013196DE011D968CE0019053
:1049B0000D928A95E1F72D893E894F89588DC7015F
:1049C000B6010E943A3F6B017C0120E030E040EAF2
:1049D00050EC0E94134087FD06C0C12CD12C80EA08
:1049E000E82E80ECF82E0091B10204FF60C04984EB
:1049F0005A846B847C8420E030E040EA50ECC301B0
:104A0000B2010E94134087FF52C001FD50C0A701B0
:104A10009601C301B2010E94134087FF18C0C986E6
:104A2000DA86EB86FC8680E090E0A8E4B3E4898F28
:104A30009A8FAB8FBC8F89A19AA1892B89A38D8E68
:104A40009E8EAF8EB8A2B101CE01019645DEA6E0E2
:104A5000A9A31D8E1E8E1F8E18A240E050E0BA0141
:104A600080E00E94731C80E00E94FB3020E030E078
:104A700040EA50EC69857A858B859C850E941340BD
:104A800087FF1EC080E090E0A0EAB0EC89879A879B
:104A9000AB87BC8780E090E0A8E4B4E4898F9A8F6C
:104AA000AB8FBC8FB101CE01019616DE09C040E08C
:104AB00050E0BA0180E00E94731C80E00E94FB304D
:104AC00080915D028D7F846080935D024FCF90382E
:104AD000C9F489E593E019D982EC92E016D90E94D5
:104AE0002C2F40E050E0BA0180E00E94731C80E06F
:104AF0000E94FB300E94701980915C028111DFC01E
:104B00005DD1FACF903471F40E94621180FD0AC029
:104B100080915D0285FD0E94133180915D028F7D41
:104B200080935D0280915D0283FF20CF8091B1026E
:104B300082718031E1F420E030E040EA50EC698598
:104B40007A858B859C850E941340181684F0C9864F
:104B5000DA86EB86FC8680E090E0A8E4B4E4898FF6
:104B60009A8FAB8FBC8FB101CE010196B5DD8091DC
:104B7000CA028823C9F080915D0281FD15C0809131
:104B8000B10281FF06C080915F02886080935F025E
:104B90000BC0B501A401812F0E94731C41E060E0AD
:104BA00070E080E490E45EDE8091C902882369F0C1
:104BB00080915D0281FD09C08BA10E94FB3041E024
:104BC00060E070E080E89FE34DDE8091B102827189
:104BD0008031C1F480915D0281FD14C080E090E0DD
:104BE000A8E4B3E4898F9A8FAB8FBC8F89A19AA177
:104BF000892B89A38D8E9E8EAF8EB8A2B101CE0176
:104C00000D966ADD80915D0281FDB0CE806180935A
:104C10005D0282E00E94FD10A9CE8091650288238A
:104C200009F43EC081FF0EC08091CA028823A9F119
:104C300040E050E0BA0180E00E94731C81E0809364
:104C4000650294CE8C7009F491CE8091CA028823BB
:104C5000E9F089E593E059D88BEC92E056D80E94B0
:104C60002C2F8091B10281FF06C080915F02886085
:104C700080935F020BC0B501A401812F0E94731CB9
:104C800041E060E070E080E490E4ECDD809165025A
:104C900083FF03C082E00E94FD101092650266CE81
:104CA00080915F0283FF62CEB501A401812F0E9433
:104CB000731C80915F02877F80935F0257CEA3961B
:104CC0000FB6F894DEBF0FBECDBFDF91CF911F911D
:104CD0000F91FF90EF90DF90CF90BF90AF909F909B
:104CE0008F907F906F905F904F903F902F9008959E
:104CF000C0D8E7DD80915C02811107C0AAD8892B5A
:104D0000C1F780915B028830A1F308958091050777
:104D100084FD24C080E10E94FD100E94E619A59840
:104D200090915B02892F8C7221F480915F028670D2
:104D300069F0943031F480910607811105C086E056
:104D400001C083E00E94ED100E94701983E08093FF
:104D50003B0310923D038FEF8093390308950F9327
:104D60001F93CF93DF93C0E1D2E080E098E0699198
:104D70008C010F5F1F4F0E945030C8010E31184048
:104D8000B1F761E08EE198E00E945030C091860753
:104D90006C2F8FE198E00E9450308091C60890916E
:104DA000C7080E94A82F6C2F8091C6089091C70851
:104DB000DF91CF911F910F910C949D2F3F924F92B5
:104DC0005F926F927F928F929F92AF92BF92CF929B
:104DD000DF92EF92FF920F931F93CF93DF93CDB7A4
:104DE000DEB7A4970FB6F894DEBF0FBECDBF10910B
:104DF0000607112349F181E080935B0284E693E08A
:104E00000E94851E812F0E945F1EB7D684EF91E01D
:104E10001EDD1150123030F08FB7F8941092060753
:104E20008FBF12C089E593E00E94851E87E493E05E
:104E30000E94851E0E942C2F80E10E94F310809119
:104E4000050784FFFCCFE8CF10910507112309F473
:104E5000C0C214FF04C081E080935C02BCC310FF99
:104E6000A8C18CE0ECE3F2E0DE01599601900D92CE
:104E70008A95E1F7BE01675E7F4FCE010D960E94D5
:104E800006118CE343D680915B028830E1F058F440
:104E9000813099F1A8F0823099F1843009F042C054
:104EA0008EEA93E03DC0803229F118F4803171F030
:104EB00039C0803441F18038A9F586E993E030C0EB
:104EC00081EC93E02DC08DEB93E02AC080915D02D0
:104ED00087FD10C087EB93E00E94851E80915D02E4
:104EE00080FF06C080E31AC082FF17C085FFFACF9B
:104EF00081E314C083EB93E013C088EA93E010C011
:104F000082EA93E00DC08CE993E00E94851E8091B7
:104F10005D0283FFE9CF83E301C082E3F7D502C0DE
:104F20000E94851E8091A002282F2170B22E80FD44
:104F300014C04090FC025090FD026090FE02709000
:104F4000FF0244EE842E42E0942ECE0101967C01B5
:104F5000FE013D966F0100E02CC08091670288231E
:104F600041F38FE893E03FC0A30192010E943A3FD2
:104F7000F7016083718382839383B110F2CFF701CD
:104F80002081318142815381F6016081718182816A
:104F900093810E94393FF6016083718382839383FA
:104FA0000F5FF4E0EF0EF11C24E0C20ED11C0330C1
:104FB000B1F0F40161917191819191914F0120853E
:104FC0003185428553850E943A3FF70160837183A2
:104FD00082839383023041F2BB2089F2E1CFB1108A
:104FE000C0CF88E893E00E94851ECE010D96AAD519
:104FF0008091A00281FF1EC083E893E00E94851E7D
:105000009091670680914603981710F0815F01C068
:105010008150891B0E945F1E8CE278D5809109081F
:1050200090910808981710F0805801C08150891B92
:105030000E945F1E809161078823A9F08FE793E0AB
:105040000E94851E609162077091630780E090E086
:105050000E94B3402AE030E044E25BE30E94514208
:1050600042E00E94B31DE0D7F82E0E946211082F83
:1050700080910601982F987080913B02E92EE826D6
:105080008F2D802B8E2941F18AE793E00E94851EA7
:10509000EE2011F080E53AD5FF2061F0F0FE02C06D
:1050A00088E534D5F1FE02C089E530D5F2FE02C0B4
:1050B0008AE52CD5002381F000FF02C084E426D5C8
:1050C00001FF02C082E522D502FF02C088E41ED59E
:1050D00003FF02C083E51AD580916702882321F07F
:1050E00081508093670217C080915B028C7711F02A
:1050F0008DE101C089E08093670280916602811191
:1051000003C081E08093660284E793E00E94851EDD
:10511000CE01019617D580916602882321F0815037
:105120008093660240C080915B028C7711F083E12E
:1051300001C089E0809366028FE693E00E94851E9D
:10514000809162020E945F1E8CE2E0D48091630233
:105150000E945F1E8CE2DAD4809164020E945F1E7E
:105160008091B000082F007285FF05C0739902C0BE
:1051700001E001C002E0A59B03C0FF24F39403C03B
:10518000002389F0F12C8BE693E00E94851E00231A
:1051900031F0013011F483E501C083E4B7D4FF207E
:1051A00011F086E4B3D48EE3B1D4E7D481E00E9459
:1051B000F310812F887E09F47BC080915B02982FC9
:1051C000937009F064C08872A1F080915D02807CC8
:1051D00081F40E941C1982E080935F0280915B023F
:1051E000803239F417FD05C080915D02806880939C
:1051F0005D0280915B02811103C091E090935D029A
:1052000016FF07C085FD05C090915D0290649093E4
:105210005D0213FF07C0807E19F480E180935B027A
:105220000E94133115FF33C089E593E00E94851E6B
:1052300085E093E00E94851E0FD680915D0287FD78
:1052400021C090915B029034B1F483FF14C080912F
:105250005F0282FF0AC00E941C1986E080935F02F1
:1052600080915D028E7F80935D0280915D02837EDE
:10527000826080935D0280915B02803819F080E447
:1052800080935B0280915D02806280935D0217FFD4
:105290000CC080915B02813029F480915D028560B1
:1052A00080935D0280E880935B0288EE0E94F31099
:1052B00011FF4DC0812F887609F046C080915B02B6
:1052C000803471F480915D0285FD0AC084FF03C0C3
:1052D00010925B0205C082FF03C0886080935D026C
:1052E00080915B02882381F084FF2EC090915D0243
:1052F00090FF2AC0803141F480916502882321F01B
:1053000088608093650220C010925F020E94291F6E
:10531000892B71F080915D0286FD0AC010925D02BA
:1053200088E080935B020E9470110E94CE1904C035
:1053300010925D0210925B0283E0809382071092CC
:1053400084078FEF8093800782E00E94F31012FFA2
:1053500040C080915B02807D90915D028823D9F0EE
:1053600080915E02811117C097FD15C00E941C1923
:1053700080914603809345030E94511F80915F02F4
:1053800081FF05C090915D02916090935D02897FDD
:1053900080935F021BC097FF09C010925F020E94BA
:1053A000401F0E949D1976D60E94941E80915D0236
:1053B00085FF08C08F77816080935D0280E48093D1
:1053C0005B0204C010925D0210925B0284E00E94B6
:1053D000F31090910707992309F4ABC08FB7F894A5
:1053E000109207078FBF4091620290FF02C084E6CF
:1053F00001C0842F91FD865F92FD8A5093FD8F5FDF
:1054000094FD8150893C08F088EC8A3008F48AE0E9
:105410003091630295FF02C024E601C0232F96FD60
:1054200022E397FD29E1841303C0231709F481C007
:1054300080936202209363021092660210914603E9
:105440003090670689E9D82E96E7E92E26E9F22EF4
:105450000EE732E3432E131509F457C0812E912C29
:10546000489CC001499C900D1124FC01E95BFC4F54
:105470005F01CF010E94B61E562E672E782EC92ED0
:105480002D2D3E2D4F2D502F0E94164218164CF4F4
:105490002D2D3E2D4F2D502F6D2D7E2D8F2D902F8C
:1054A00008C0252D362D472D5C2D652D762D872D99
:1054B0009C2D0E945142F501668B778B808F918FD6
:1054C000489CC001499C900D11249C01295B3C4FD4
:1054D0007901F90182A093A0A4A0B5A0A50194012F
:1054E00066897789808D918D0E94164218162CF45A
:1054F000F701868A978AA08EB18E1F5F103109F45A
:1055000010E0D52C73010C2DA6CF8D2D9E2DAF2D27
:10551000B02F80937C0790937D07A0937E07B09374
:105520007F070E941C1980914603809345030E94C7
:10553000511F90910807992309F447C08FB7F89439
:10554000109208078FBF2091640290FF02C084E68A
:1055500001C0822F91FD865F92FD8A5093FD8F5F7F
:1055600094FD8150893C08F088EC823308F482E392
:10557000821749F020915F02286020935F02809398
:1055800064021092660280915B0295FF0DC080312B
:1055900059F420916502211102C022E003C020FFCE
:1055A00003C0246020936502907C79F0882311F079
:1055B000887159F01091C90216FF02C01F7B01C00B
:1055C0001064812F18D61093C90280915B028C7FE2
:1055D00011F00E947011A4960FB6F894DEBF0FBEB2
:1055E000CDBFDF91CF911F910F91FF90EF90DF9092
:1055F000CF90BF90AF909F908F907F906F905F9073
:105600004F903F9008951F920F920FB60F92112462
:105610008F93809175088F5F809375088F910F909D
:105620000FBE0F901F9018956AE080E090E038D58B
:1056300045E550E06CE672E081E090E053C5CF9321
:10564000DF9300D0CDB7DEB76A837B83898350DBDD
:1056500089812DE0829FC00111244CE050E06A81D5
:105660007B819E5F0F900F900F90DF91CF913AC595
:105670001F93CF93DF93182FEB018DE0189FB0019C
:1056800011247E5F4CE050E0CE0171D5892B51F49E
:105690008CE0FE0111928A95E9F7BE01812FCFDFE0
:1056A00080E001C081E0DF91CF911F9108958F923A
:1056B0009F92AF92BF92EF92FF920F931F93CF935F
:1056C000DF93CDB7DEB72C970FB6F894DEBF0FBED1
:1056D000CDBF182F80FFEEC08AE080939C028FEF31
:1056E00080939F0210929D0210929E0283E080930D
:1056F000A0024AE057ED63EA7CE34093A102509395
:10570000A2026093A3027093A4024FE652E163E009
:105710007BE34093A5025093A6026093A702709387
:10572000A80240E050E86BE376E44093A90250936E
:10573000AA026093AB027093AC021092AD02109279
:10574000AE021092AF021092B0028093B20280E0DB
:1057500090E0A6E9B2E48093B3029093B402A093E0
:10576000B502B093B60280E090E8ABEBB4E480936E
:10577000B7029093B802A093B902B093BA028AEF2D
:1057800090E09093BC028093BB0280E090E0A0E8A0
:10579000B0E48093BD029093BE02A093BF02B09389
:1057A000C00280E18093B1028BE297ECA1EBB2E4FE
:1057B00080936C0290936D02A0936E02B0936F027F
:1057C0008093700290937102A0937202B09373025F
:1057D0008EE492EFACEBB3E4809374029093750285
:1057E000A0937602B093770280E090E4ACE9B5E450
:1057F0008093780290937902A0937A02B0937B020F
:1058000080937C0290937D02A0937E02B0937F02EE
:1058100080E090E0A8E4B4E4809380029093810259
:10582000A0938202B093830280E09AEBABEDB9E4DF
:105830008093840290938502A0938602B09387029E
:105840008093880290938902A0938A02B0938B027E
:1058500080E090EFA2E5B8E480938C0290938D02F3
:10586000A0938E02B0938F0280E090E0A6E9B3ECA3
:105870008093900290939102A0939202B09393022E
:1058800083E393E3ABE4B3EC8093940290939502AB
:10589000A0939602B093970280E090E0A0EAB2EC69
:1058A0008093980290939902A0939A02B0939B02DE
:1058B000BBDE55DA11FF43C0CE0101967C018CE0BE
:1058C000F70111928A95E9F700E0B701802FB7DE62
:1058D0000F5F0830D1F780E090E4ADE8B3EC898346
:1058E0009A83AB83BC8380E090E8A7E4B3EC8D831C
:1058F0009E83AF83B887812C912C80E8A82E8FEBF4
:10590000B82E89869A86AB86BC86B70186E097DE7C
:1059100080E090E0A6E1B3EC89839A83AB83BC83FB
:1059200080E090E0A0E2B1EC8D839E83AF83B887E6
:1059300089869A86AB86BC86B70187E080DE12FF37
:1059400010C060E080E093E0ABD360E081E093E0E2
:10595000A7D360E081E593E0A3D360E082E593E024
:105960009FD313FF08C060E08EEA93E099D360E014
:105970008FEA93E095D32C960FB6F894DEBF0FBE56
:10598000CDBFDF91CF911F910F91FF90EF90BF900E
:10599000AF909F908F9008951F920F920FB60F9225
:1059A00011240BB60F922F933F934F935F936F93F6
:1059B0007F938F939F93AF93BF93EF93FF93E09168
:1059C000C600E132A1F028F4E83159F0E93189F458
:1059D0001FD4E034F9F0EE3731F0EF3351F481E0C9
:1059E00003C094D952C082E00E94FD104EC088E0EE
:1059F000FBCFE7FF39C08E2F90E0FC01E458F1099E
:105A0000ED31F10508F041C08827E855FF4F8F4F71
:105A10000C94183F80E2E8CF80915B0285FF35C08F
:105A200080E4E2CF81E00DC082E00BC084E009C0D9
:105A300088E007C080E105C080E203C080E401C0C7
:105A400080E80E94E41021C081E00BC082E009C020
:105A500084E007C088E005C080E103C080E201C0A7
:105A600080E40E94DB1011C0A091080881E08A0F39
:105A7000813809F480E090910908891731F0B0E08D
:105A8000A957B84FEC9380930808FF91EF91BF910D
:105A9000AF919F918F917F916F915F914F913F91C6
:105AA0002F910F900BBE0F900FBE0F901F90189567
:105AB0001F920F920FB60F9211240BB60F928F9375
:105AC0009F93EF93FF9380917408E82FF0E0E55FD8
:105AD000F74F90819093C6008F5F893609F480E07C
