:10000000E6C40000F8C40000F6C40000F4C4000018
:10001000F2C40000F0C40000EEC40000ECC4000014
:10002000EAC400000C947E24E6C400000C94BA16C6
:10003000E2C40000E0C40000DEC40000DCC4000034
:10004000DAC400000C945A1ED6C40000D4C40000C8
:10005000D2C40000D0C40000CEC400000C94F01D37
:10006000CAC400000C9459230C94A723C4C40000F4
:10007000C2C40000C0C40000BEC40000BCC4000074
:10008000BAC40000B8C40000B6C400000C949C219F
:10009000B2C40000B0C40000AEC40000ACC4000094
:1000A000AAC40000A8C40000A6C40000A4C40000A4
:1000B000A2C40000A0C400009EC400000C94D1257E
:1000C0009AC4000098C4000096C4000094C40000C4
:1000D00092C4000090C400008EC400008CC40000D4
:1000E0008AC400003037363739373C3741374B3711
:1000F00053370238023802385B375E37673770375C
:10010000023802380238023802380238783782372B
:100110008E3796379937A237AB37B1370238023866
:10012000BA37C33702380238023802380238023888
:1001300002380238023802380238023802380238EF
:100140000238023802380238CC370F07C60FC60F04
:100150001907260733074007C60F4407C60F520783
:10016000C60F5C0766079107C60FC60FC60F70075C
:100170007B0786073C0E4D0E7C0E4D0E800E930EB7
:10018000860E8C0EAA0EB80ECF0EEE0E170F290F8C
:100190003C0F4E0FA410A710AC10AF10B210B5104A
:1001A000B810BB10BE10C110C410C710CA10CD10BB
:1001B000D910D910D910D910D910D310D010D61009
:1001C000084AD73B3BCE016E84BCBFFDC12F3D6CBE
:1001D00074319ABD56833DDA3D00C77F11BED9E424
:1001E000BB4C3E916BAAAABE000000803F05A84C04
:1001F000CDB2D44EB93836A9020C50B991868808D0
:100200003CA6AAAA2ABE000000803F000D0A674350
:10021000617276696E20312E322E3130205B2724B8
:100220002720666F722068656C705D0D0A000D0AEC
:10023000003D00244E007D0D0A002C5072623A00F1
:100240002C4C696D3A0043746C3A007B53773A004A
:100250005D0D0A003A4354524C005B312E322E3170
:10026000302E32303136303932323A005D0D0A00EC
:100270005B544C4F3A005D0D0A002C005B4739324D
:100280003A005D0D0A002C003A003330003238008D
:100290005B47005D0D0A00205300204600205400FB
:1002A000204D3700204D3800204D3900204D3500BD
:1002B000204D3400204D3300204D3200204D3100C0
:1002C000204D300020473934002047393300204783
:1002D0003931002047393000204732300020473282
:1002E000310020473139002047313800204731376D
:1002F000002047004733382E00473830004733008E
:100300004732004731004730005B00242420287624
:10031000696577204772626C2073657474696E67D3
:1003200073290D0A242320287669657720232070FD
:100330006172616D6574657273290D0A2447202806
:100340007669657720706172736572207374617469
:1003500065290D0A24492028766965772062756928
:100360006C6420696E666F290D0A244E2028766918
:100370006577207374617274757020626C6F636B43
:1003800073290D0A24783D76616C756520287361A8
:100390007665204772626C2073657474696E672994
:1003A0000D0A244E783D6C696E6520287361766570
:1003B000207374617274757020626C6F636B290DA9
:1003C0000A24432028636865636B2067636F646554
:1003D000206D6F6465290D0A245820286B696C6CA8
:1003E00020616C61726D206C6F636B290D0A24486B
:1003F000202872756E20686F6D696E67206379635F
:100400006C65290D0A7E20286379636C65207374FE
:10041000617274290D0A2120286665656420686F61
:100420006C64290D0A3F202863757272656E742012
:10043000737461747573290D0A6374726C2D78205E
:10044000287265736574204772626C290D0A00205A
:100450005D0D0A0020536C656570204665617475FA
:10046000726520006F6B0D0A005D0D0A00536C650C
:100470006570204D6F646500526573746F72696EAC
:10048000672064656661756C74730050676D204504
:100490006E6400436865636B20446F6F720044694B
:1004A0007361626C656400456E61626C65640043F3
:1004B000617574696F6E3A20556E6C6F636B65641D
:1004C00000272448277C2724582720746F20756E26
:1004D0006C6F636B00526573657420746F20636F7B
:1004E0006E74696E7565005B000D0A00486F6D697A
:1004F0006E67206661696C0050726F62652066618C
:10050000696C0041626F727420647572696E672055
:100510006379636C6500536F6674206C696D6974F0
:100520000048617264206C696D697400414C4152ED
:100530004D3A20003E0D0A002C493A007C00310063
:1005400030007C002C50696E3A002C52583A002C36
:100550004275663A002C002C57506F733A002C00FD
:100560002C4D506F733A003C536C656570003C48ED
:100570006F6C64003C446F6F72003C446F6F72009C
:100580003C436865636B003C416C61726D003C48A4
:100590006F6D65003C486F6C64003C52756E003CAA
:1005A00049646C6500290D0A00206D617820747221
:1005B0006176656C2C206D6D0020616363656C2C29
:1005C000206D6D2F7365635E3200206D617820723F
:1005D0006174652C206D6D2F6D696E002C20737415
:1005E00065702F6D6D007A00790078002028003D3D
:1005F00000240020285370696E646C652049206DCA
:100600006178290D0A002435303D00202872706D74
:10061000206D696E290D0A00202872706D206D61B1
:1006200078290D0A2433313D002028686F6D696EEA
:10063000672070756C6C2D6F66662C206D6D290DB2
:100640000A2433303D002028686F6D696E6720648E
:1006500065626F756E63652C206D736563290D0A85
:100660002432373D002028686F6D696E67207365FE
:10067000656B2C206D6D2F6D696E290D0A24323645
:100680003D002028686F6D696E6720666565642C83
:10069000206D6D2F6D696E290D0A2432353D0029BC
:1006A0000D0A2432343D002028686F6D696E672082
:1006B00064697220696E76657274206D61736B3A3D
:1006C000002028686F6D696E67206379636C652C04
:1006D00020626F6F6C290D0A2432333D0020286898
:1006E000617264206C696D6974732C20626F6F6C29
:1006F000290D0A2432323D002028736F6674206C65
:10070000696D6974732C20626F6F6C290D0A243235
:10071000313D0020287265706F727420696E6368C5
:1007200065732C20626F6F6C290D0A2432303D00F6
:10073000202861726320746F6C6572616E63652C32
:10074000206D6D290D0A2431333D0020286A756E15
:100750006374696F6E20646576696174696F6E2C6D
:10076000206D6D290D0A2431323D00290D0A2431F6
:10077000313D002028737461747573207265706F49
:100780007274206D61736B3A00202870726F62651D
:100790002070696E20696E766572742C20626F6FAE
:1007A0006C290D0A2431303D0020286C696D697474
:1007B0002070696E7320696E766572742C20626F8A
:1007C0006F6C290D0A24363D002028737465702053
:1007D000656E61626C6520696E766572742C20624C
:1007E0006F6F6C290D0A24353D00290D0A24343D14
:1007F00000202864697220706F727420696E7665BB
:100800007274206D61736B3A00290D0A24333D0028
:1008100020287374657020706F727420696E76651D
:100820007274206D61736B3A0020287374657020B8
:1008300069646C652064656C61792C206D736563F7
:10084000290D0A24323D00202873746570207075CC
:100850006C73652C2075736563290D0A24313D0086
:1008600024303D005D0D0A003A002C005B505242DE
:100870003A000D0A00496E76616C69642067636F07
:1008800064652049443A00556E646566696E656426
:100890002066656564207261746500556E737570BD
:1008A000706F7274656420636F6D6D616E64004D6E
:1008B0006F64616C2067726F75702076696F6C6110
:1008C00074696F6E004C696E65206C656E67746844
:1008D00020657863656564656400436865636B20C3
:1008E000446F6F7200537465702072617465203EAE
:1008F0002033306B487A004C696E65206F766572E4
:10090000666C6F7700486F6D696E67206E6F74203C
:10091000656E61626C656400416C61726D206C6F24
:10092000636B004E6F742069646C650045455052DE
:100930004F4D2072656164206661696C2E2055738D
:10094000696E672064656661756C74730056616CCE
:100950007565203C2033207573656300536574749E
:10096000696E672064697361626C65640056616CCE
:100970007565203C203000496E76616C6964207397
:10098000746174656D656E7400426164206E756D8E
:1009900062657220666F726D617400457870656380
:1009A00074656420636F6D6D616E64206C65747432
:1009B0006572006572726F723A20005D0D0A005B0D
:1009C0004F76657243757272656E743A0000112439
:1009D0001FBECFEFD1E2DEBFCDBF00E00CBF2DE0E8
:1009E000A0E0B2E001C01D92AA34B207E1F70E9474
:1009F000DD300C94D34204CB2F923F924F925F9202
:100A00006F927F928F929F92AF92BF92CF92DF921E
:100A1000EF92FF920F931F93CF93DF93CDB7DEB783
:100A2000E7970FB6F894DEBF0FBECDBF89E3E2EFC4
:100A3000FCE0DF011D928A95E9F78AE0E2E5FCE03F
:100A4000A3EFBCE001900D928A95E1F71D8E212C59
:100A5000312CE12CF12C1F8E10E01E8E6624639445
:100A6000712CB5E05B2E06E0402E8D8DE82FF0E076
:100A7000EE5AF44FC080CC2009F479C29FEB9C0D54
:100A80009A3110F00C94B80F8F5F8D8FBE01675EA6
:100A90007F4FCE014D960E942C30882311F40C9488
:100AA000BA0F898C9A8CAB8CBC8CC501B4010E94A6
:100AB000B4420E941C40062F70E080E090E00E944B
:100AC0004A409B01AC01C501B4010E94CE3E20E02A
:100AD00030E048EC52E40E94E6410E9449420E9404
:100AE0001C40B7E4CB1629F0EDE4CE1609F437C16B
:100AF00083C1083209F40DC1E8F4043160F4013116
:100B000008F0ADC0043009F44CC008F464C00A30E9
:100B1000E1F10C94C60F0C31C1F128F4063108F450
:100B2000D0C00C94C60F0E3181F1063209F453C0C7
:100B30000C94C60F0D3309F4E6C0B0F4053309F484
:100B400046C040F40B3209F4C6C0013309F4C3C0F7
:100B50000C94C60F0C3310F00C94C60F8AEC800F67
:100B60008093F90C89E0D8C00C3540F40A3508F0C0
:100B700086C0003509F46FC00C94C60F0C3529F0FF
:100B80000F3508F494C00C94C60F6115710511F06F
:100B90000C94D60FFE8DFF2311F40C94E50F0C94EA
:100BA000BC0F21E02093F20C0AC00F3150F40A3040
:100BB00009F0B6C031E03E8F82E08093F20C80E015
:100BC000ABC0053311F00C941C10E1E0EE8FF7E0A0
:100BD000F093F20CF4CF9E8D91110C94BC0FA2E017
:100BE000AE8F023089F028F4002359F0013081F0F3
:100BF00092C0063281F0003571F1033009F08BC0EC
:100C000007C01092F30C87C0BE8DB093F30C83C065
:100C10000093F30C80C06E317105B1F048F464317B
:100C2000710511F00C94C60FE4E0E093F30C11C0D1
:100C30006832710561F06233710511F00C94C60FD2
:100C4000F7E0F093F30C05C05092F30C02C0409211
:100C5000F30C81E074C028E02093F30C5CC00231F7
:100C600029F0033141F01092F70C03C031E03093CA
:100C7000F70C82E051C082E08093F70C4DC0611503
:100C8000710551F40A3519F41092F60C03C081E095
:100C90008093F60C83E053C06A30710511F00C9418
:100CA000C60F0A3511F40C94C60F84E048C00D3508
:100CB00021F491E09093F40C02C01092F40C85E0C2
:100CC0002BC0043121F4A1E0A093F50C02C01092D6
:100CD000F50C86E021C0BE8DB1110C94BC0F013320
:100CE00031F41092F80C88E0E3E0EE8F28C06A300F
:100CF000710511F00C94C60FF1E0F093F80C88E048
:100D000023E02E8F1CC0672B11F00C94C60F8AE0D5
:100D100016C087E001C081E0672B89F00C94E10FD9
:100D20000C3111F00C94181081E08E8F6115710553
:100D300011F00C94F90F93E09093F20C80E0D30142
:100D400002C0AA0FBB1F8A95E2F7CD019D012E219B
:100D50003F21232B09F44DC085E10C942110672B12
:100D600011F00C94E10F063018F4033058F018C05D
:100D7000073010F40C94C60F0A3010F10E3161F0F8
:100D80000C94C60F023041F00E3131F0011128C031
:100D9000B1E0B093FA0C24C082E08093FA0C20C03A
:100DA000043031F0053041F0E1E0E093FC0C06C086
:100DB00082E08093FC0C02C01092FC0C8CE011C00D
:100DC000083031F0093041F0F1E0F093FB0C06C03F
:100DD00082E08093FB0C02C01092FB0C8DE001C0FE
:100DE0008BE0930102C0220F331F8A95E2F7C901FD
:100DF000AECFE82AF92A39CE8C2DCC0C990BAA0B50
:100E0000BB0BFC01E654F109E531F10510F00C943F
:100E1000C60F8827EB55FF4F8F4F0C94AD3E809245
:100E2000FD0C9092FE0CA092FF0CB092000D80E0A1
:100E300079C08092010D9092020DA092030DB092A4
:100E4000040D3F8D31603F8F81E06CC08092050DB5
:100E50009092060DA092070DB092080D8F8D8260C2
:100E60008F8F82E05FC08092090D90920A0DA09250
:100E70000B0DB0920C0D9F8D94609F8F83E052C03C
:100E800000930D0D84E04EC0C501B4010E941740CF
:100E900060930E0D70930F0D8093100D9093110DB4
:100EA00085E040C08092120D9092130DA092140D17
:100EB000B092150D86E036C08092160D9092170DF7
:100EC000A092180DB092190D87E02CC080921A0DD7
:100ED00090921B0DA0921C0DB0921D0D88E022C0B7
:100EE00080921F0D9092200DA092210DB092220DA4
:100EF00011608AE017C08092230D9092240DA09279
:100F0000250DB092260D12608BE00CC08092270D4B
:100F10009092280DA092290DB0922A0D14608CE0B9
:100F200001C089E06301082E02C0CC0CDD1C0A94CC
:100F3000E2F7960122213321232B11F00C94BE0FEE
:100F4000A1E6B3E002C0B595A7958A95E2F7A0FFA8
:100F50000BC020E030E0A901C501B4010E94A83F08
:100F600087FF02C00C94C00F2C283D287ECD112392
:100F700029F0BE8DB11102C0E2E0EE8F25FE0EC059
:100F800080910E0D90910F0DA091100DB091110D4B
:100F900080389649A849B1050CF0F4C78091F40C4B
:100FA000813039F42E8D2230A9F520FC01C0F4C720
:100FB00031C08091530C81112DC020FE1BC0809147
:100FC000F50C813039F523E333E34BEC51E46091C8
:100FD000FD0C7091FE0C8091FF0C9091000D0E9411
:100FE000E6416093FD0C7093FE0C8093FF0C909390
:100FF000000D10C08091600C9091610CA091620C6A
:10100000B091630C8093FD0C9093FE0CA093FF0CA9
:10101000B093000D30FC10C080915C0C90915D0C81
:10102000A0915E0CB0915F0C80931A0D90931B0DF4
:10103000A0931C0DB0931D0D8091F20C813031F402
:1010400026FC02C08CE1FDC7E89426F88091F70CDD
:10105000882371F0813031F431E038A71FA282E09B
:101060008EA30BC018A692E09FA3A1E0AEA305C07B
:10107000B2E0B8A7E1E0EFA31EA28091F50C8130A9
:1010800021F0FE8DF330A1F52CC0FFE1AF2EFDE085
:10109000BF2EC12CD12C812E912CC4010C2C02C04E
:1010A000959587950A94E2F780FF10C023E333E318
:1010B0004BEC51E4D5016D917D918D919C910E94F5
:1010C000E641F5016083718382839383FFEFCF1A3A
:1010D000DF0A24E0A20EB11C33E0C316D104E9F606
:1010E000D0CF8091F80C813019F4143009F04CC73E
:1010F0008CE0E5E7FCE0DE011D9601900D928A95FB
:10110000E1F7F1FC08C00091F20C0230B9F00830B0
:1011100009F4B0C013C18091F90C873010F08DE153
:1011200090C79091580C981771F3BE01635F7F4F81
:101130000E94C021882309F437C7E5CF111102C0EE
:101140008AE17FC7C10180759927892B09F47ACF7D
:101150006091120D7091130D8091140D9091150DE9
:101160000E94B4420E941C406730C8F680910D0D69
:10117000843129F0823009F009C727FC07C78FEABC
:101180002822662319F061506BA303C09091F90CDB
:101190009BA3BE016F5F7F4F8BA10E94C02188235C
:1011A00009F402C700910D0D40908D0C50908E0CEB
:1011B00060908F0C7090900CDE0111967D01A12C37
:1011C000B12CC12CD12C812E912CC4010C2C02C02D
:1011D000959587950A94E2F780FF3DC0F501EE50A2
:1011E000F34FFDA3ECA3043159F5F501EE5AF34F8B
:1011F00027A530A941A952A96789708D818D928D4B
:101200000E94CE3EACA1BDA19D962D913D914D91E8
:101210005C91D0970E94CE3EF701608371838283F8
:101220009383F2E0CF16D104B1F4A30192010E949E
:10123000CE3ED7016D937D938D939C9313970BC0F6
:10124000ECA1FDA185A596A5A7A5B0A9F70180836E
:101250009183A283B383FFEFCF1ADF0A24E0A20EAB
:10126000B11C34E0E30EF11C83E0C816D10409F090
:10127000ACCF35C1112309F463CF40908D0C509051
:101280008E0C60908F0C7090900CEFE1EE2EEDE0E4
:10129000FE2EA12CB12CC12CD12C812E912CF5012C
:1012A000EE5AF34FC4010C2C02C0959587950A9411
:1012B000E2F780FF2BC0ADE0B0E0AC0FBD1FAA0D80
:1012C000BB1D2D913D914D915C916789708D818DF4
:1012D000928D0E94CE3ED7012D913D914D915C9112
:1012E0000E94CE3EF7016083718382839383F2E094
:1012F000CF16D104A1F4A30192010E94CE3ED701E2
:101300006D937D938D939C93139709C087A590A9A6
:10131000A1A9B2A9F70180839183A283B383FFEFD0
:10132000CF1ADF0A24E0A20EB11C34E0E30EF11C58
:1013300083E0C816D10409F0B2CFD0C09E8D93309F
:1013400071F4053009F490C0073009F4C2C00330CD
:1013500009F0C4C0BE016F5F7F4F86E089C01123D2
:1013600081F3A091F60CABA340908D0C50908E0CA5
:1013700060908F0C7090900C69E6A62E6CE0B62EF3
:101380007FE1E72E7DE0F72E4E01BDE08B0E911C34
:10139000C12CD12CE12FF0E0FDA3ECA38CA19DA1E9
:1013A0000C2C02C0959587950A94E2F780FD0BC03E
:1013B000F50180819181A281B381F70180839183BE
:1013C000A283B3833FC00730E9F1FBA1F11129C02B
:1013D000D50158962D913D914D915C915B97F4010B
:1013E00060817181828193810E94CF3ED7012D91CE
:1013F0003D914D915C910E94CF3EF70160837183D6
:1014000082839383F2E0CF16D104E1F4A301920129
:101410000E94CF3ED7016D937D938D939C9313973C
:1014200011C0F5012081318142815381D7016D9135
:101430007D918D919C910E94CF3EF70160837183D5
:1014400082839383FFEFCF1ADF0A24E0A20EB11C40
:1014500034E0E30EF11C84E0880E911C93E0C91681
:10146000D10409F09BCF6DCFBE016F5F7F4F87E046
:101470000E94C021882309F497C5111103C01BA243
:101480001E8E2DC020E030E080E090E0412F50E043
:10149000BA01082E02C0759567950A94E2F760FDBF
:1014A00011C0F901EE5AF34FC788D08CE18CF28C51
:1014B000E1E0F0E0EC0FFD1FE20FF31FC082D182EC
:1014C000E282F38201962C5F3F4F8330910501F752
:1014D00005C08091F30C823008F05AC51BA2009120
:1014E000F30C083041F4112309F4DAC1AE8DA130B8
:1014F00009F050C5B9C2BE8DB23009F0D1C1002388
:10150000D9F020E030E0A9016091FD0C7091FE0C53
:101510008091FF0C9091000D0E94A83F882309F450
:101520003BC5043028F4023058F4013029F09CC245
:10153000083008F474C198C2112309F4B4C194C2EC
:10154000112309F4FDCDFEA1EF2FF0E0FDA3ECA3E4
:101550003FA1232F30E03AA729A781E090E07C014A
:101560000FA002C0EE0CFF1C0A94E2F70EA002C00E
:10157000880F991F0A94E2F7E82AF92A812F90E050
:101580008E219F21892B09F409C5CF01880F991F4E
:10159000880F991FFC01EE50F34FDC01AE5AB34F98
:1015A00057962D913D914D915C915A9765A576A5E1
:1015B00087A590A90E94CE3E2B013C0189A59AA542
:1015C000880F991F880F991FFC01EE50F34FDC0123
:1015D000AE5AB34F57962D913D914D915C915A97CC
:1015E00065A576A587A590A90E94CE3E4B015C011A
:1015F000610180E8C822DD2427FE40C0E89427F876
:1016000020911F0D3091200D4091210D5091220D00
:101610006091690C70916A0C80916B0C90916C0CCC
:101620000E94A83F811144C12091230D3091240DC7
:101630004091250D5091260D60916D0C70916E0CAE
:1016400080916F0C9091700C0E94A83F811130C165
:101650002091270D3091280D4091290D50912A0D90
:101660006091710C7091720C8091730C9091740C5C
:101670000E94A83F81111CC181E2E3C43F8D232F4A
:1016800030E038A32F8FE222F322EF2809F488C438
:1016900081EF28228091F50C813009F47BC0ECA108
:1016A000FDA1EE0FFF1FEE0FFF1FEA50F34FC384A3
:1016B000D484E584F684A7019601C301B2010E9497
:1016C000CE3E2B013C01E9A5FAA5EE0FFF1FEE0F60
:1016D000FF1FEA50F34F83859485A585B6858F8FCC
:1016E00098A3A9A3BAA39C01AD01C501B4010E94AE
:1016F000CE3E4B015C01A3019201C301B2010E94E5
:10170000E6412B013C01A5019401C501B4010E94F1
:10171000E6419B01AC01C301B2010E94CF3E0E9491
:1017200073424B015C01A7019601C701B6010E94FB
:10173000E6416B017C012F8D38A149A15AA1CA0154
:10174000B9010E94E6419B01AC01C701B6010E94AC
:10175000CF3E0E9473426B017C016093160D709323
:10176000170D8093180D9093190D9B01AC01C501C5
:10177000B4010E94CE3E4B015C01E894B7F82AE028
:1017800037ED43EA5BE3C501B4010E94AB41181693
:101790004CF16AC102EF1CE08F8D98A10C2C02C0A5
:1017A000959587950A94E2F780FF12C023E333E30F
:1017B0004BEC51E4D8011F966D917D918D919C91D8
:1017C00052970E94E641F8016787708B818B928B5C
:1017D000FFEFCF1ADF0A0C5F1F4F23E0C216D104C0
:1017E000D9F65DCF20E030E040E05FE3C501B40111
:1017F0000E94AB4118160CF43FCF2FE632E143E8CC
:101800005AE3C701B6010E94E6419B01AC01C50144
:10181000B4010E94AB4118160CF42ECF25C1112340
:1018200009F48ECC20911F0D3091200D4091210D97
:101830005091220D6091690C70916A0C80916B0C33
:1018400090916C0C0E94A83F81110EC12091230D34
:101850003091240D4091250D5091260D60916D0C15
:1018600070916E0C80916F0C9091700C0E94A83F4B
:101870008111FAC02091270D3091280D4091290D3A
:1018800050912A0D6091710C7091720C8091730CC3
:101890009091740C0E94A83F882309F4EDCEE4C017
:1018A0003E8D3111E1C0C1018E7D9C7F1E8EDFC057
:1018B0008091F50C8130B1F423E333E34BEC51E438
:1018C0006091160D7091170D8091180D9091190D62
:1018D0000E94E6416093160D7093170D8093180DCA
:1018E0009093190D8091160D9091170DA091180DE0
:1018F000B091190D8F8F98A3A9A3BAA3A301920148
:10190000C301B2010E94E6416BA77CA78DA79EA7E9
:10191000A5019401C501B4010E94E6416FA778AB0F
:1019200089AB9AAB20E030E040E850E46F8D78A1BD
:1019300089A19AA10E94E6412F8D38A149A15AA1FF
:101940000E94E6412BA53CA54DA55EA50E94CE3E7A
:101950002FA538A949A95AA90E94CE3E6B017C0146
:1019600020E030E0A9010E94A83F87FD2CC3C701F9
:10197000B6010E9473426B017C012FA538A949A9C9
:101980005AA96BA57CA58DA59EA50E94CF3E0E945D
:1019900073429B01AC01C701B60190580E94AF3F52
:1019A0006B017C01033021F4F7FAF094F7F8F0941E
:1019B00020E030E0A9016F8D78A189A19AA10E9451
:1019C000A83F87FF11C0F7FAF094F7F8F0948F8DD5
:1019D00098A1A9A1BAA1B0588093160D9093170DA4
:1019E000A093180DB093190D0CA11DA1000F111F8C
:1019F000000F111F0A50134FA7019601C501B40132
:101A00000E94E6419B01AC01C301B2010E94CE3E9F
:101A100020E030E040E05FE30E94E641D8011B9601
:101A20006D937D938D939C931E9709A51AA5000F26
:101A3000111F000F111F0A50134FA7019601C30178
:101A4000B2010E94E6419B01AC01C501B4010E94B4
:101A5000CF3E20E030E040E05FE30E94E641F80145
:101A60006387748785879687C1018E7D907E892BD9
:101A700009F098C280910E0D90910F0DA091100D5C
:101A8000B091110D8093650C9093660CA093670C38
:101A9000B093680C8091F40C8093530C8091FD0CF2
:101AA0009091FE0CA091FF0CB091000D8093600C02
:101AB0009093610CA093620CB093630CC0901A0DCC
:101AC000D0901B0DE0901C0DF0901D0DA70196010C
:101AD00060915C0C70915D0C80915E0C90915F0C3C
:101AE0000E94A83F882301F180915B0C882361F05C
:101AF00090912C0D923041F08FAB0E949638B70137
:101B0000A6018FA90E94D62080911A0D90911B0DDD
:101B1000A0911C0DB0911D0D80935C0C90935D0CF9
:101B2000A0935E0CB0935F0C80911E0D8093640CAB
:101B30008091FC0C90915B0C9817F1F040915C0C3B
:101B400050915D0C60915E0C70915F0C90912C0D2A
:101B5000923071F04BAB5CAB6DAB7EAB8FAB0E9448
:101B600096384BA95CA96DA97EA98FA90E94D620A1
:101B70008091FC0C80935B0C8091FB0C90915A0C33
:101B8000981771F090912C0D923031F08FAB0E942C
:101B900096388FA90E9499258091FB0C80935A0C4E
:101BA0008091F20C8130C9F46091120D7091130D87
:101BB0008091140D9091150D20912C0D223069F01B
:101BC0006DAB7EAB8FAB9BAB0E94963840E06DA9AE
:101BD0007EA98FA99BA90E94A52E8091F70C8093C6
:101BE000560C8091F50C8093540C8E8D8330F9F453
:101BF0008091F80C8093570C813089F48091270DE7
:101C00009091280DA091290DB0912A0D80938D0CF3
:101C100090938E0CA0938F0CB093900C08C01092F0
:101C20008D0C10928E0C10928F0C1092900C809153
:101C3000F90C9091580C981759F08093580C8CE03F
:101C4000FE013D96A5E7BCE001900D928A95E1F773
:101C50008091F60C8093550CE091F20C8E2F90E061
:101C6000FC013297E830F10508F05DC08827E654A2
:101C7000FF4F8F4F0C94AD3EBE016F5F7F4F8BA126
:101C80000E94B8218091580C9BA189134CC08CE014
:101C9000FE013196A5E7BCE02AC0AE8DAA2389F0EB
:101CA000E090650CF090660C0091670C1091680C48
:101CB00020E040E050E060E87FEB8FE19DE00E9493
:101CC0008B3AE090650CF090660C0091670C1091D7
:101CD000680C20E040E050E060E87FEBCE01019628
:101CE0000E948B3A8CE0FE013196A9E6BCE001909F
:101CF0000D928A95E1F717C069E67CE086E003C0A3
:101D000069E67CE087E00E94B8210DC08CE0EFE13D
:101D1000FDE0A1E8BCE0EBCF8CE0E1E8FCE0DF0116
:101D20001D928A95E9F78091F30C8093520C8830CC
:101D300009F4D3C0BE8DB23009F0CFC090E0883036
:101D4000910508F0C1C0FC018827EE53FF4F8F4F6B
:101D50000C94AD3EE090650CF090660C0091670C21
:101D60001091680C20E040E050E060E87FEB12C08A
:101D7000E090650CF090660C0091670C1091680C77
:101D80004091600C5091610C6091620C7091630CF9
:101D90002091530C8FE19DE00E948B3A95C02091D9
:101DA000600C3091610C4091620C5091630C609119
:101DB000160D7091170D8091180D9091190DE091ED
:101DC000680CEF93E091670CEF93E091660CEF9352
:101DD000E091650CEF93882483941DC02091600CE2
:101DE0003091610C4091620C5091630C6091160D22
:101DF0007091170D8091180D9091190DE091680C5C
:101E0000EF93E091670CEF93E091660CEF93E09114
:101E1000650CEF93812CA8A4CFA0EEA00091530CE9
:101E20000E94E23B0F900F900F900F904DC0C0901A
:101E3000650CD090660CE090670CF090680C609197
:101E4000600C7091610C8091620C9091630C00E0C9
:101E500011C0C090650CD090660CE090670CF090BB
:101E6000680C6091600C7091610C8091620C909193
:101E7000630C01E020E024C0C090650CD090660C9B
:101E8000E090670CF090680C6091600C7091610CB0
:101E90008091620C9091630C00E011C0C090650CC1
:101EA000D090660CE090670CF090680C6091600C2C
:101EB0007091610C8091620C9091630C01E021E0C3
:101EC0004091530C0E94293B8CE0EFE1FDE0A9E634
:101ED000BCE001900D928A95E1F78091FA0C809315
:101EE000590C882309F4ADC00E9496389091590C82
:101EF00080912C0D913031F48230B1F188E0E9D637
:101F0000AAD532C091E09093520C1092560C1092C8
:101F1000550C1092530C1092580C10925B0C1092AE
:101F20005A0C8230A9F0BE01635F7F4F80E00E94AF
:101F3000C0218823C9F18CE0FE013D96A5E7BCE0F5
:101F400001900D928A95E1F70E94B5200E9492259A
:101F500087EE94E00E94A5288BE894E00E94A528D3
:101F600089E694E00E94A5281092590C80E069C08F
:101F700081E067C082E065C088E163C089E161C03B
:101F800084E05FC08BE15DC085E25BC084E159C045
:101F90008EE157C08FE155C086E153C080E251C049
:101FA00083E24FC084E24DC087E04BC00E3199F010
:101FB00040F50A3011F40C94DC050C3111F40C944A
:101FC000960687E13EC082E23CC00E3111F00C94CF
:101FD000D505B1E0BE8F6115710539F06A30710524
:101FE000A9F64092F20C0C949E065092F20C0C94BE
:101FF0009E066A30710551F6A4E0A093F20C0C9491
:102000009E06053311F40C94E7050C35D1F66115E5
:10201000710549F06A30710509F0B8CF89E0809305
:10202000F20C0C949E0638E03093F20C0C949E0651
:1020300031E03E8F0C949E060C35D1F721E02E8FB7
:10204000E6CFE7960FB6F894DEBF0FBECDBFDF91A7
:10205000CF911F910F91FF90EF90DF90CF90BF90A5
:10206000AF909F908F907F906F905F904F903F9038
:102070002F900895CF93DF93C2E5DBE08991882309
:1020800019F00E94D523FACFDF91CF910895CF9315
:10209000DF9321E5829FC0011124EC01DD5F40E563
:1020A00050E0BE0182E59BE00E944E25892B59F449
:1020B0001092520B40E550E062E57BE0CE010E94B9
:1020C000092580E001C081E0DF91CF910895CF9391
:1020D000C0E08C2FDCDF811103C087E022D008C074
:1020E0008091520B882321F0C5DF0E94FC0402D2AC
:1020F000C13011F0C1E0EDCFCF9108952FB7F89422
:1021000090910402892B809304022FBF08952FB76A
:10211000F8949091030280958923809303022FBF46
:102120000895CF93C82F83EB99E00E94A5284C2FE8
:1021300050E0FA013197E631F105D8F58827E653EA
:10214000FF4F8F4F0C94AD3E8BE999E002C089E8B8
:1021500099E00E94A52834C087E799E0FACF8DE680
:1021600099E0F7CF8CE599E0F4CF8DE499E0F1CFD9
:102170008CE299E0EECF83E299E0EBCF88E199E041
:10218000E8CF85E099E0E5CF87EF98E0E2CF85EEF4
:1021900098E0DFCF8AED98E0DCCF85EC98E0D9CFEE
:1021A0008FEA98E0D6CF8BE998E0D3CF87E898E024
:1021B000D0CF85E798E00E94A5288C2F0E94972811
:1021C00082E798E0CF910C94A528FF920F931F937C
:1021D000CF93DF9380E698E00E94A5288091C80CF9
:1021E0000E94972887E498E00E94A5288091CB0C54
:1021F0000E94972889E298E00E94A5288091C90C46
:102200000E94972880E198E00E94A5288091C90C3F
:102210000E94A22889E098E00E94A5288091CA0C1B
:102220000E94972881EF97E00E94A5288091CA0C10
:102230000E94A2288AEE97E00E94A5288091DD0CDA
:1022400082FB882780F90E94972889EC97E00E94FA
:10225000A5288091DD0C86FB882780F90E949728AD
:1022600089EA97E00E94A5288091DD0C881F8827C5
:10227000881F0E94972889E897E00E94A5288091EE
:10228000CC0C0E94972883E797E00E94A5288091B4
:10229000CC0C0E94A2288BE697E00E94A5286091B2
:1022A000CD0C7091CE0C8091CF0C9091D00C0E94EF
:1022B000EB278BE497E00E94A5286091D10C7091E8
:1022C000D20C8091D30C9091D40C0E94EB2780E328
:1022D00097E00E94A5288091DD0C81700E949728CC
:1022E00083E197E00E94A5288091DD0C85FB88277B
:1022F00080F90E94972888EF96E00E94A528809197
:10230000DD0C83FB882780F90E9497288DED96E0ED
:102310000E94A5288091DD0C829581700E949728EB
:1023200081EC96E00E94A5288091DE0C0E949728FF
:1023300087EA96E00E94A5288091DE0C0E94A228E0
:102340008FE996E00E94A5286091DF0C7091E00C67
:102350008091E10C9091E20C0E94EB2782E896E0DC
:102360000E94A5286091E30C7091E40C8091E50C2B
:102370009091E60C0E94EB2785E696E00E94A52846
:102380008091E70C0E94972886E496E00E94A52899
:102390006091E90C7091EA0C8091EB0C9091EC0C3F
:1023A0000E94EB2789E296E00E94A5286091D50C57
:1023B0007091D60C8091D70C9091D80C40E00E947F
:1023C000452788E196E00E94A5286091D90C70917C
:1023D000DA0C8091DB0C9091DC0C40E00E944527E8
:1023E0008BE096E00E94A52886E096E00E94A52852
:1023F0006091ED0C7091EE0C8091EF0C9091F00CCF
:1024000042E00E94452783EF95E00E94A52884E6DC
:10241000F82EC0E008E91CE0D0E081EF95E00E94D2
:10242000A5288D2F8F0D0E9497288FEE95E00E9492
:10243000A528C23079F0F801C330C1F0C13029F0CD
:10244000608171818281938118C0648575858685DC
:10245000978513C020E030E041E655E4F801608D37
:10246000718D828D938D0E94AF3F07C084A195A18D
:10247000A6A1B7A1BC01CD0190580E94EB278CEE1C
:1024800095E00E94A528D13029F0D23031F08AEEB3
:1024900095E005C088EE95E002C086EE95E00E94CA
:1024A000A528C23051F0C33059F0C13019F08CED7D
:1024B00095E008C08AEC95E005C089EB95E002C084
:1024C00089EA95E00E94A52885EA95E00E94A52862
:1024D000DF5F0C5F1F4FD33009F09FCFFAE0FF0E94
:1024E000CF5F8CE8F81296CFDF91CF911F910F91BB
:1024F000FF900895811104C084E694E00C94A5280F
:1025000010CEAF92BF92CF92DF92EF92FF920F93D5
:102510001F93CF93DF93CDB7DEB768970FB6F894CC
:10252000DEBF0FBECDBF10910402112309F456C0C7
:1025300081E080932C0D11FF07C08CE295E00E9492
:10254000A52881E295E023C012FF07C08CE295E048
:102550000E94A52886E195E01AC013FF07C08CE20F
:1025600095E00E94A52883E095E011C014FF07C004
:102570008CE295E00E94A52888EF94E008C015FF42
:1025800010C08CE295E00E94A5288CEE94E00E9499
:10259000A52889EE94E00E94A52884EF91E00E948E
:1025A0009A2E10FD08C08FB7F894909104021092F3
:1025B00004028FBF13C087EE94E00E94A52885ED2A
:1025C00094E00E94A52889E694E00E94A52880E175
:1025D0009EDD8091030284FFFCCFE5CF10910302C2
:1025E000112309F422C214FF04C081E080932B0D53
:1025F00021C210FF3AC18CE0E0E3FDE0DE011D9650
:1026000001900D928A95E1F780912C0D8830F9F0B8
:1026100040F48130F9F090F08230F9F0843089F0A4
:102620002FC0803289F018F4803159F029C08034ED
:10263000B9F0803829F587E695E020C08FE995E06C
:102640001DC08AE995E01AC084E995E017C08EE8BC
:1026500095E014C087E895E011C080E895E00EC0D1
:1026600080912D0D82FD03C08AE795E007C085FFAC
:1026700003C084E795E002C08EE695E00E94A5289D
:102680008091CC0C837031F0BE01635F7F4FCE012F
:10269000019628D38091CC0C80FD05C08091CC0C94
:1026A00081FF6BC01FC080E695E00E94A52869816C
:1026B0007A818B819C810E94ED278EE595E00E94B6
:1026C000A5286D817E818F8198850E94ED278EE5FA
:1026D00095E00E94A52869857A858B859C850E9456
:1026E000ED27DCCF87E595E00E94A52885E7C82E79
:1026F0008CE0D82ECE0101967C0100E05701F60156
:1027000061917191819191916F012085318542850F
:1027100053850E94CF3E9B01AC01F701608171811E
:10272000828193810E94CE3EF70160837183828310
:102730009383023079F420918D0C30918E0C40916E
:102740008F0C5091900C0E94CE3EF70160837183F4
:1027500082839383F4E0EF0EF11CF50160817181B7
:10276000828193810E94ED27023021F085E595E07A
:102770000E94A5280F5F033009F68091CC0C82FFE0
:102780000EC08FE495E00E94A52880917509909174
:102790002003891708F48C5D891B0E94972880917B
:1027A000CC0C83FF08C08AE495E00E94A5280E9413
:1027B000F1230E9497288091CC0C807789F184E4E2
:1027C00095E00E94A5288091CC0C84FF06C00E9451
:1027D000B12443E062E00E94592882E495E00E941F
:1027E000A5288091CC0C85FF0EC0809106018870D1
:1027F0009091F10C891719F080E495E002C08EE306
:1028000095E00E94A5288CE395E00E94A528809180
:10281000CC0C86FF05C0C2D244E062E00E94592879
:102820008091CC0C87FF1BC088E395E00E94A5280F
:10283000609105027091060280E090E00E9448409D
:102840002AE037ED43E250E40E94E64120E030EC1C
:102850004FE754E40E94AF3F42E00E94452784E3E3
:1028600095E00E94A52881E052DC812F887E09F442
:1028700075C080912C0D982F937009F06DC0012FB9
:102880000072803169F40E94B21D84E080932F0DA4
:10289000002331F010921B0310921D0310921903B4
:1028A00080912C0D811106C091E090932D0D92E046
:1028B00090932F0D16FF0AC0803119F484E08093A5
:1028C0002C0D80912D0D806480932D0D13FF09C078
:1028D00080912C0D807C29F480E280932C0D0E9445
:1028E000AB250023A1F187EE94E00E94A52883E99F
:1028F00094E00E94A52889E694E00E94A528809192
:102900002C0D8034C1F480912D0D83FF14C0809173
:102910002F0D83FF0AC00E94B21D8CE080932F0D03
:1029200080912D0D8E7F80932D0D80912D0D837EB6
:10293000826080932D0D80912D0D806280932D0DEE
:1029400080912C0D803819F080E480932C0D17FFB6
:1029500003C080E880932C0D88EED9DB11FF40C0C6
:10296000812F8876D9F580912C0D803471F4809177
:102970002D0D85FD0AC084FF03C010922C0D05C0EB
:1029800082FF03C0886080932D0D80912C0D8823D9
:1029900031F0847219F180912D0D80FF1FC01092CB
:1029A0002F0D0E94D628892B69F080912D0D86FD70
:1029B00009C010922D0D80E180932C0DFDD10E9455
:1029C000922004C010922D0D10922C0D83E0809364
:1029D000090210920B028FEF8093070282E097DBCF
:1029E00012FF23C080912C0D807EC9F080912E0DA6
:1029F000811115C00E94B21D8091200380931F0396
:102A00000E94F72880912F0D82FF05C090912D0D17
:102A1000916090932D0D837F80932F0D04C01092B1
:102A20002D0D10922C0D84E072DB80912C0D8C7F8B
:102A300009F0C2D168960FB6F894DEBF0FBECDBFC5
:102A4000DF91CF911F910F91FF90EF90DF90CF908A
:102A5000BF90AF9008958F929F92AF92BF92CF9206
:102A6000DF92EF92FF921F93CF93DF93CDB7DEB744
:102A700068970FB6F894DEBF0FBECDBF42DD8091E0
:102A80002D0D882309F40CC1C12CD12C90EAE92E1C
:102A900090E4F92E1CE080912D0D882309F400C1EB
:102AA00090912B0D9111FCC090912C0D292F207C21
:102AB00009F4F2C080FFF0C082FD7CC060E37DE0DD
:102AC000CE0101960FD180912D0D81FD21C0FE0117
:102AD0003196DE011D96812F01900D928A95E1F7C6
:102AE0002D893E894F89588DC701B6010E94CF3E7E
:102AF0006B017C0120E030E040EA50EC0E94A83FEE
:102B000087FD06C0C12CD12C80EAE82E80ECF82E7F
:102B10008091DD0C84FF43C089849A84AB84BC849B
:102B200020E030E040EA50ECC501B4010E94A83F2B
:102B300087FF35C0A7019601C501B4010E94A83FD7
:102B400087FF0CC0C986DA86EB86FC8640E050E041
:102B50006AEF73E4CE0101960E94F42E0E94B52024
:102B60000E94922520E030E040EA50EC69857A85A9
:102B70008B859C850E94A83F87FF15C080E090E070
:102B8000A0EAB0EC89879A87AB87BC8740E050E029
:102B900060E87FEBCE0101960E94F42E04C00E94F3
:102BA000B5200E94922580912D0D8D7F84608093A9
:102BB0002D0D72C0903469F4F1D082FD0AC080916D
:102BC0002D0D85FD0E94AB2580912D0D8F7D80936D
:102BD0002D0D80912D0D83FF5FC08091DD0C84FF52
:102BE00018C020E030E040EA50EC69857A858B859A
:102BF0009C850E94A83F181664F0C986DA86EB8689
:102C0000FC8640E050E060E87FEBCE0101960E9438
:102C1000F42E80915B0C8823A9F090912D0D91FDED
:102C200011C040915C0C50915D0C60915E0C7091F4
:102C30005F0C0E94D62041E060E070E080E89FE3F6
:102C40000E94A52E80915A0C882369F090912D0D39
:102C500091FD09C00E94992541E060E070E080E8A4
:102C60009FE30E94A52E8091DD0C84FF0CC0809113
:102C70002D0D81FD08C040E050E06AEF73E4CE0105
:102C80000D960E94F42E80912D0D81FD05C080616E
:102C900080932D0D82E01DD00E94332432DCFBCEC8
:102CA00068960FB6F894DEBF0FBECDBFDF91CF910F
:102CB0001F91FF90EF90DF90CF90BF90AF909F90CB
:102CC0008F9008950E94D628892B11F082E001C0D0
:102CD00008952FB7F89490910302892B80930302F3
:102CE0002FBF0895AF92BF92CF92DF92EF92FF92E3
:102CF0000F931F93CF93DF9300D01F92CDB7DEB712
:102D00005B0128E9E22E2CE0F22E8C016B018CE0B5
:102D1000C80ED11CF50161917191819191915F0172
:102D2000F70121913191419151917F0129833A839A
:102D30004B835C830E944A4029813A814B815C81AC
:102D40000E94AF3FF80161937193819391938F013A
:102D5000AC14BD04F9F60F900F900F900F90DF9117
:102D6000CF911F910F91FF90EF90DF90CF90BF9088
:102D7000AF9008951F920F920FB60F9211248F9368
:102D80009F9388E090E090934C0A80934B0A9F9128
:102D90008F910F900FBE0F901F9018959091060184
:102DA000967084E0982731F091FF80E0947019F0DC
:102DB0008860089580E008952F923F924F925F922D
:102DC0006F927F928F929F92AF92BF92CF92DF923B
:102DD000EF92FF920F931F93CF93DF93CDB7DEB7A0
:102DE000C454D1090FB6F894DEBF0FBECDBF2091F9
:102DF0002F0D2D8B21FD9CC624702EA73D89387088
:102E00003FA74091750948AB5DE2459FC001112481
:102E1000DC01AF5DBC4F2196BFAFAEAF21972091D3
:102E2000200329AB2F5F2C8B243211F41AAA02C085
:102E30003C893AAB4DE25AA9459FC0011124DC01FF
:102E4000AE5CBC4F2396BFAFAEAF23979091F60A0E
:102E50008091F70A981709F46BC68091490A9091FE
:102E60004A0A892B09F088C2BFA5BB2349F02196E5
:102E7000EEADFFAD2197F0934A0AE093490A06C0F0
:102E80000E94D62890934A0A8093490A0091490AE1
:102E900010914A0A0115110509F44AC68091120AD7
:102EA000E82FE17080FF09C082FF04C08E7F80930D
:102EB000120ACDC01092120ACAC08091110A8F5F07
:102EC000893009F0E82FE093110A21E12E9FF001EB
:102ED0001124E858F64FF0937709E0937609D8016A
:102EE0008C91808311964D915D916D917C91149799
:102EF000DB01CA0123E0880F991FAA1FBB1F2A9577
:102F0000D1F781839283A383B483D80115964D9121
:102F10005D916D917C911897DB01CA0133E0880FB8
:102F2000991FAA1FBB1F3A95D1F785839683A78364
:102F3000B087D80119964D915D916D917C911C9748
:102F4000DB01CA0143E0880F991FAA1FBB1F4A95E6
:102F5000D1F781879287A387B487D8011D964D91B9
:102F60005D916D917C915097DB01CA0153E0880F10
:102F7000991FAA1FBB1F5A95D1F785879687A787E8
:102F8000B08BF80165857685878590890E944840D9
:102F90006093170A7093180A8093190A90931A0A7B
:102FA000D80195962D913D914D915C9198970E94F5
:102FB000AF3F9B01AC0160931B0A70931C0A809386
:102FC0001D0A90931E0A60E070E080EA9FE30E9471
:102FD000AF3F60931F0A7093200A8093210A909359
:102FE000220A1092130A1092140A1092150A1092D3
:102FF000160ABEA5BB23D1F060913D0A70913E0A2E
:1030000080913F0A9091400A6093350A7093360A86
:103010008093370A9093380A9B01AC010E94E641E5
:10302000F801618B728B838B948B11C0D801519600
:103030006D917D918D919C9154970E947342609304
:10304000350A7093360A8093370A9093380A1092A3
:10305000310A1092320A1092330A1092340AD801BF
:1030600091962D913D914D915C9194972D833E8346
:103070004F83588760E070E080E09FE30E94AF3F9D
:103080004B015C01D80195962D913D914D915C913C
:10309000989729833A834B835C83BEA5BB2309F4AD
:1030A0004FC0E2E0E093300AD8015196CD90DD9018
:1030B000ED90FC905497A70196010E94E6419B0178
:1030C000AC0169817A818B819C810E94CE3E4B014B
:1030D0005C0120E030E0A9010E94A83F87FF1FC0EB
:1030E0002D813E814F815885CA01B9010E94CF3E92
:1030F00029813A814B815C810E94E6419B01AC01B0
:10310000C701B6010E94CE3E0E94734260933D0A01
:1031100070933E0A80933F0A9093400A2DC180929B
:10312000310A9092320AA092330AB092340A109275
:103130003D0A10923E0A10923F0A1092400A1CC1AA
:103140001092300A29813A814B815C812093410A97
:103150003093420A4093430A5093440A3FA53323D5
:1031600049F010923D0A10923E0A10923F0A1092C6
:10317000400A1AC04AA958A9451759F02396AEAD7E
:10318000BFAD23976D917D918D919C910E9473426B
:1031900003C060E070E0CB0160933D0A70933E0A8B
:1031A00080933F0A9093400A40903D0A50903E0A17
:1031B00060903F0A7090400AA3019201C301B201DE
:1031C0000E94E6416D877E878F87988BD801519644
:1031D0002D913D914D915C91549729873A874B876A
:1031E0005C879B01AC0169857A858B859C850E94F3
:1031F000CE3E9B01AC01C501B4010E94E6419B019A
:10320000AC0169817A818B819C810E94CF3E20E054
:1032100030E040E05FE30E94E6416B017C0120E08A
:1032200030E0A9010E94AB4118160CF095C029812D
:103230003A814B815C81C701B6010E94A83F87FF9C
:1032400087C0F801458C568C678C70A02D853E8513
:103250004F855889C301B2010E94CE3E9B01AC014B
:10326000C501B4010E94E6416093450A7093460A85
:103270008093470A9093480AA70196010E94A83FAD
:1032800087FF39C0C301B2010E9473426093390ABB
:1032900070933A0A80933B0A90933C0AA3019201EF
:1032A00069857A858B859C850E94A83F811104C021
:1032B000F1E0F093300A60C029853A854B855C8542
:1032C000C301B2010E94CE3E9B01AC01C501B40115
:1032D0000E94E6419B01AC0169817A818B819C81CE
:1032E0000E94CE3E6093410A7093420A8093430A43
:1032F0009093440A41C0C092410AD092420AE0929F
:10330000430AF092440AC092450AD092460AE092DB
:10331000470AF092480A2D813E814F815885CA01A3
:10332000B9010E94CF3EA70196010E94E6412D857A
:103330003E854F8558890E94CF3E0E94734260931C
:10334000390A70933A0A80933B0A90933C0A14C05E
:1033500022E02093300A10C01092410A1092420AD3
:103360001092430A1092440A4092390A50923A0A43
:1033700060923B0A70923C0A8091340B082F10E057
:1033800036E0309FF001319FF00D1124E850F54FE9
:103390008091110A82834091490A50914A0A5B8BBD
:1033A0004A8BDA019596BC91BBABFA01F6A1FCAB56
:1033B000DA019796BC91BDABFA01F0A5FEAB209166
:1033C0001F0A3091200A4091210A5091220A6BA9CC
:1033D0007CA98B2F9F2F0E94CE3E6AA77BA78CA72C
:1033E0009DA720E030E0A9010E94A83F87FF04C00C
:1033F0001AA61BA61CA61DA62091410A2A8F309151
:10340000420A3B8F4091430A4C8F5091440A5D8F92
:103410008091390A8E8F90913A0A9F8FA0913B0A32
:10342000A8A3B0913C0AB9A3E091450AEAA3F091A0
:10343000460AFBA32091470A2CA33091480A3DA3DA
:103440004091300A498B5091350A59838091360A50
:103450008D839091370A9987A091380AAD87B091F2
:10346000310ABEA3E091320AEFA3F091330AF8A724
:103470002091340A29A730913D0A3FAB40913E0A82
:1034800048AF50913F0A59AF8091400A8AAF9BA93B
:1034900025969FAF25972CA8ADA92496AFAF24976A
:1034A0003EA88EE3C82E83ECD82E8EE2E82E89E368
:1034B000F82E412C512C3201CE8ADF8AE88EF98E0B
:1034C0003989332321F0313009F493C0D3C0AA895C
:1034D000BB8991962D913D914D915C919497C70137
:1034E000B6010E94E6414B015C0120E030E040E083
:1034F0005FE30E94E6419B01AC0169817D81898582
:103500009D850E94CF3E9B01AC01C701B6010E9480
:10351000E6419B01AC0125966FAD2597722D24964F
:103520008FAD2497932D0E94CE3E25966FAF2597A1
:10353000272E24968FAF2497392E2A8D3B8D4C8DC4
:103540005D8D932D0E94A83F87FF46C02A8D3B8D3D
:103550004C8D5D8D6BA97CA98DA99EA90E94CE3E44
:103560009B01AC010E94CF3E6B017C012E8D3F8DF3
:1035700048A159A169817D8189859D850E94CF3EA1
:103580009B01AC01C701B6010E94AF3F6B017C01FA
:103590002AA13BA14CA15DA16A8D7B8D8C8D9D8D57
:1035A0000E94A83F811103C0B2E0B98B02C0E1E0E4
:1035B000E98BFE8DF9832F8D2D8338A1398749A1A1
:1035C0004D875A8D25965FAF25972B8C8C8D249631
:1035D0008FAF24973D8CEBC0A501940169817D815B
:1035E00089859D850E94CF3E69837D8389879D87DC
:1035F000DEC0A70196016E8D7F8D88A199A10E94E2
:10360000E6419B01AC0125966FAD2597722D24965E
:103610008FAD2497932D0E94CE3E4B015C012AA1D1
:103620003BA14CA15DA10E94A83F87FFB8C02AA181
:103630003BA14CA15DA125966FAD2597722D2496D7
:103640008FAD2497932D0E94CE3E2E8D3F8D48A1A5
:1036500059A10E94AF3F6B017C019AA125969FAFB3
:1036600025972BA0ACA12496AFAF24973DA0B2E044
:10367000B98B9DC0EA89FB8921A132A143A154A144
:10368000C701B6010E94E6414B015C019B01AC0100
:1036900069817D8189859D850E94AB4118160CF05A
:1036A00045C020E030E040E05FE3C501B4010E9486
:1036B000E6419B01AC0169817D8189859D850E94E0
:1036C000CE3E9B01AC01C701B6010E94E6419B01C1
:1036D000AC0125966FAD2597722D24968FAD24975A
:1036E000932D0E94CE3E6BAF7CAF8DAF9EAF2EA1CF
:1036F0003FA148A559A50E94AB411816BCF4A501ED
:10370000940169817D8189859D850E94CE3E698372
:103710007D8389879D87FBAD2596FFAF25972CACD0
:103720002DAD24962FAF24973EAC41C02EA13FA1D2
:1037300048A559A525966FAD2597722D24968FAD76
:103740002497932D0E94CE3E9B01AC010E94CF3E58
:103750006B017C012FA938AD49AD5AAD69817D81DE
:1037600089859D850E94CF3E9B01AC01C701B601B2
:103770000E94AF3F6B017C013FA9398348AD4D8367
:1037800059AD59878AAD8D879EA125969FAF259704
:103790002FA0A8A52496AFAF249739A408C02596DA
:1037A0008FAE2597292C2496AFAE24973B2CA701EA
:1037B0009601C301B2010E94CF3E2B013C012E892C
:1037C0003F89488D598D0E94A83F87FF07C0A301FC
:1037D00092016E897F89888D998D70C02AA53BA53D
:1037E0004CA55DA525966FAD2597722D24968FADBE
:1037F0002497932D0E94AB4118160CF44FC0B98941
:10380000B093300A89819D81A985BD858093350A51
:103810009093360AA093370AB093380A20911B0A76
:1038200030911C0A40911D0A50911E0A25966FADD9
:103830002597722D24968FAD2497932D0E94E641F3
:1038400069837A838B839C830E94953F6B017C0103
:103850006091170A7091180A8091190A90911A0ABA
:103860000E94953F4B015C01A70196010E94CE3E4C
:103870000E941C406D837E838F83988726E0209F63
:10388000F001219FF00D1124E850F54F4D815E812C
:1038900051834083CA01892B51F12EC02EE333ECB2
:1038A0004EE259E36E897F89888D998D0E94CF3EC3
:1038B0006E8B7F8B888F998FA30192010E94CE3EE1
:1038C0006B017C012EA13FA148A559A525966FAD9E
:1038D0002597722D24968FAD2497932D0E94AB418E
:1038E00018160CF4EDCD99899093300A8BCFAEA5C4
:1038F000AA2311F08D89F0C02091130A3091140A87
:103900004091150A5091160AC301B2010E94CF3EA0
:103910002B013C0129813A814B815C81C501B401B5
:103920000E94CE3E9B01AC01C301B2010E94AF3F99
:103930004B015C0120EC31EE44E65EE40E94E6417E
:103940000E94953F0E941C40603DB7E07B078105C7
:10395000910550F426E0209FF001219FF00D1124E5
:10396000E850F54F15824CC0603A3FE0730781057F
:10397000910558F446E0409FF001419FF00D11245D
:10398000E850F54F51E055831BC06034AFE17A0732
:103990008105910558F4B6E0B09FF001B19FF00D9C
:1039A0001124E850F54F22E025830AC036E0309F0D
:1039B000F001319FF00D1124E850F54F43E04583AD
:1039C00056E0509FF001519FF00D1124E850F54F43
:1039D0002581022E04C096958795779567950A9460
:1039E000D2F7AD81BE8102C0AA0FBB1F2A95E2F7B4
:1039F000B183A08361157105B1E08B07910558F47F
:103A000026E0209FF001219FF00D1124E850F54F92
:103A10007483638304C04FEF5FEF548343838091CB
:103A2000F70A8093340B8F5F8A3019F08093F70A7E
:103A300002C01092F70AE091490AF0914A0A2596CD
:103A40008FAD2597922D2496AFAD2497B32D85A3E6
:103A500096A3A7A3B0A7C092170AD092180AE09223
:103A6000190AF0921A0A29813A814B815C81C701B7
:103A7000B6010E94CE3EA50194010E94E6416093EA
:103A8000130A7093140A8093150A9093160A2091D2
:103A9000310A3091320A4091330A5091340A259606
:103AA0006FAD2597722D24968FAD2497932D0E948C
:103AB000A83F8111CBC920E030E0A90125966FAD68
:103AC0002597722D24968FAD2497932D0E94AB419C
:103AD00018166CF480912F0D826080932F0D8091C9
:103AE000120A82FD25C082608093120A21C05FA560
:103AF000552329F08D89826080932F0D19C0109273
:103B00004A0A1092490A88A999A9891709F49EC9F5
:103B1000AC89A43209F41C8A80911F03B9A9B81397
:103B200003C0EC89E0931F03FC89F093200377C95D
:103B3000CC5BDF4F0FB6F894DEBF0FBECDBFDF9179
:103B4000CF911F910F91FF90EF90DF90CF90BF909A
:103B5000AF909F908F907F906F905F904F903F902D
:103B60002F900895CF93DF93C091490AD0914A0ACC
:103B70002097C9F08091120A81608093120A6091A7
:103B8000350A7091360A8091370A9091380A9B0164
:103B9000AC010E94E641698B7A8B8B8B9C8B1092D7
:103BA0004A0A1092490ADF91CF9108958091C90C79
:103BB000682F90E02091CA0C422F80FD90E2822F66
:103BC000817020FD84E061FD906441FD886062FDAC
:103BD000906842FD80619093D10A8093D00A089545
:103BE0001F920F920FB60F9211248F939F9382B161
:103BF0009091D10A907E8F71892B82B915BC9F91CB
:103C00008F910F900FBE0F901F90189580916F00AD
:103C10008D7F80936F0080918100887F8160809389
:103C200081001092D20A8091CB0C8F3F21F49091A9
:103C30000402992339F090912C0D983019F090E0FE
:103C40000E949A2E80912C0D813021F480910201E6
:103C5000806803C0809102018F77809302010895EC
:103C6000D5DF88E3E1E1FAE0DF011D928A95E9F70B
:103C700083E2E3EDFAE0DF011D928A95E9F7109205
:103C80004A0A1092490A1092F60A1092340B81E007
:103C90008093F70A1092D20A89DF82B18F719091D6
:103CA000D10A892B82B982B1837E9091D00A892B67
:103CB00082B908951F920F920FB60F9211240BB67E
:103CC0000F922F933F934F935F936F937F938F93B5
:103CD0009F93AF93BF93EF93FF938091D20A81118B
:103CE0000EC282B19091E20A9C71837E892B82B9C7
:103CF00082B18F719091E10A892B82B98091E00A9B
:103D000086BD82E085BD81E08093D20A789480915F
:103D1000F40A9091F50A892B09F0A7C08091F60A60
:103D20009091340B981709F49BC0E091F60A2E2F5E
:103D300030E086E0E89FF0011124E850F54FF09361
:103D4000F50AE093F40A838194819093890080932B
:103D50008800808191819093F00A8093EF0AE2813C
:103D60008091F10A8E1761F1E093F10A81E1E89FF9
:103D7000F0011124E858F64FF093F30AE093F20AA9
:103D800085859685A785B089B695A79597958795DA
:103D90008093DB0A9093DC0AA093DD0AB093DE0ADD
:103DA0008093D70A9093D80AA093D90AB093DA0ADD
:103DB0008093D30A9093D40AA093D50AB093D60ADD
:103DC000E091F20AF091F30A9091D00A808189275C
:103DD0008093E20A86E0829FD001839FB00D112478
:103DE000A850B54F15962C9181819281A381B48101
:103DF000022E04C0B695A795979587950A94D2F799
:103E00008093E30A9093E40AA093E50AB093E60A4C
:103E100085819681A781B085022E04C0B695A795AD
:103E2000979587950A94D2F78093E70A9093E80ACA
:103E3000A093E90AB093EA0A81859285A385B485A7
:103E400004C0B695A795979587952A95D2F7809344
:103E5000EB0A9093EC0AA093ED0AB093EE0A05C02A
:103E6000D5DE84E00E9469164AC19091970C91308A
:103E7000D1F48091060188702091F10C821789F0AD
:103E80001092970C8CE0E0E3FDE0ACE3BDE0019024
:103E90000D928A95E1F7809103028064809303027A
:103EA00002C09093950C1092E10A4091E30A509160
:103EB000E40A6091E50A7091E60A8091D30A909134
:103EC000D40AA091D50AB091D60A840F951FA61FD7
:103ED000B71F8093D30A9093D40AA093D50AB093C6
:103EE000D60AE091F20AF091F30A45855685678576
:103EF0007089481759076A077B0768F520E2209305
:103F0000E10A4585568567857089841B950BA60B4C
:103F1000B70B8093D30A9093D40AA093D50AB09399
:103F2000D60A20818091300D9091310DA091320DF3
:103F3000B091330D22FF04C00197A109B10903C05C
:103F40000196A11DB11D8093300D9093310DA0936A
:103F5000320DB093330D4091E70A5091E80A609119
:103F6000E90A7091EA0A8091D70A9091D80AA09143
:103F7000D90AB091DA0A840F951FA61FB71F809344
:103F8000D70A9093D80AA093D90AB093DA0A458544
:103F9000568567857089481759076A077B0778F542
:103FA0002091E10A20642093E10A458556856785C2
:103FB0007089841B950BA60BB70B8093D70A90933F
:103FC000D80AA093D90AB093DA0A20818091340DDF
:103FD0009091350DA091360DB091370D23FF04C09F
:103FE0000197A109B10903C00196A11DB11D8093DC
:103FF000340D9093350DA093360DB093370D40914D
:10400000EB0A5091EC0A6091ED0A7091EE0A8091F2
:10401000DB0A9091DC0AA091DD0AB091DE0A840FE0
:10402000951FA61FB71F8093DB0A9093DC0AA0930D
:10403000DD0AB093DE0A4585568567857089481785
:1040400059076A077B0778F52091E10A20682093D9
:10405000E10A4585568567857089841B950BA60BFB
:10406000B70B8093DB0A9093DC0AA093DD0AB09330
:10407000DE0A20818091380D9091390DA0913A0D82
:10408000B0913B0D24FF04C00197A109B10903C001
:104090000196A11DB11D8093380D9093390DA09309
:1040A0003A0DB0933B0D80912C0D883039F49091EE
:1040B000490D8091E10A89238093E10A8091EF0AFA
:1040C0009091F00A01979093F00A8093EF0A892B60
:1040D00069F41092F50A1092F40A8091F60A8F5F43
:1040E0008093F60A8A3011F41092F60A9091D10A60
:1040F0008091E10A89278093E10A1092D20AFF9108
:10410000EF91BF91AF919F918F917F916F915F914F
:104110004F913F912F910F900BBE0F900FBE0F90BC
:104120001F9018958091DD0C82FF04C080910201E0
:10413000806803C0809102018F7780930201809193
:10414000D00A8093E20A8091D10A8093E10A80919B
:10415000C80C880F845081958093E00A80916F008D
:10416000826080936F000C94173083E080931B0370
:1041700010921D031092190385E08093930C109206
:10418000950C1092910C90912C0D97FF07C044E074
:1041900050E065E070E083E193E0FAC4809315039A
:1041A000109217038FEF8093130308954F925F923D
:1041B0006F927F928F929F92AF92BF92CF92DF9237
:1041C000EF92FF920F931F93CF93DF938A01D62F25
:1041D000C72F90912B0D91119EC0811111C0DF91BD
:1041E000CF911F910F91FF90EF90DF90CF90BF90F4
:1041F000AF909F908F907F906F905F904F90B5CFD2
:10420000813011F4739801C0739A20E030E0A90165
:10421000B8018D2F9C2F0E94A83F181604F790908C
:10422000D50CA090D60CB090D70CC090D80C809034
:10423000D90CD090DA0CE090DB0CF090DC0C282D3F
:104240003D2DA701692D7A2D8B2D9C2D0E94A83F15
:1042500018160CF049C0292D3A2D4B2D5C2DB801B4
:104260008D2F9C2F0E94AB41181624F4092D1A2D76
:10427000DB2DCC2D282D3D2DA701B8018D2F9C2F96
:104280000E94A83F87FF04C0082D1D2DDE2DCF2DD5
:10429000282D3D2DA701B8018D2F9C2F0E94CE3EC9
:1042A0002B013C01282D3D2DA701692D7A2D8B2D49
:1042B0009C2D0E94CE3E9B01AC0160E070E08FE738
:1042C00093E40E94AF3F9B01AC01C301B2010E9485
:1042D000E64120E030E040E05FE30E94CF3E0E94F4
:1042E00085400E941C4001C06FEF82E080931B0359
:1042F00010921D036093190384E08093930C109235
:10430000950C9FEF9093910C8093150310921703D7
:1043100084E680931303DF91CF911F910F91FF905B
:10432000EF90DF90CF90BF90AF909F908F907F9055
:104330006F905F904F9008951F920F920FB60F925B
:1043400011248F938091CF0A8F5F8093CF0A8F9132
:104350000F900FBE0F901F9018956BE080E090E0DB
:1043600036D349E550E068E97CE081E090E051C354
:104370002DE0829FC00111244CE050E09E5F49C3B4
:104380001F93CF93DF93182FEB018DE0189FB0019F
:1043900011247E5F4CE050E0CE0180D3892B51F494
:1043A0008CE0FE0111928A95E9F7BE01812FE0DFD2
:1043B00080E001C081E0DF91CF911F9108958F923D
:1043C0009F92AF92BF92EF92FF920F931F93CF9362
:1043D000DF93CDB7DEB72C970FB6F894DEBF0FBED4
:1043E000CDBF182F80FFFFC08AE08093C80C8FEFED
:1043F0008093CB0C1092C90C1092CA0C83E080936E
:10440000CC0C4AE057ED63EA7CE34093CD0C50932B
:10441000CE0C6093CF0C7093D00C4FE652E163E06A
:104420007BE34093D10C5093D20C6093D30C7093E8
:10443000D40C40E050E86BE376E44093D50C509305
:10444000D60C6093D70C7093D80C1092D90C1092A4
:10445000DA0C1092DB0C1092DC0C8093DE0C80E006
:1044600090E0A6E9B2E48093DF0C9093E00CA09377
:10447000E10CB093E20C80E090E8ABEBB4E4809305
:10448000E30C9093E40CA093E50CB093E60C8AEF58
:1044900090E09093E80C8093E70C80E090E0A0E837
:1044A000B0E48093E90C9093EA0CA093EB0CB093EA
:1044B000EC0C80E18093DD0C8BE297ECA1EBB2E495
:1044C0008093980C9093990CA0939A0CB0939B0CAA
:1044D00080939C0C90939D0CA0939E0CB0939F0C8A
:1044E0008EE492EFACEBB3E48093A00C9093A10C1C
:1044F000A093A20CB093A30C80E090E4ACE9B5E4E7
:104500008093A40C9093A50CA093A60CB093A70C39
:104510008093A80C9093A90CA093AA0CB093AB0C19
:1045200080E090E0A8E4B4E48093AC0C9093AD0CF0
:10453000A093AE0CB093AF0C80E09AEBABEDB9E476
:104540008093B00C9093B10CA093B20CB093B30CC9
:104550008093B40C9093B50CA093B60CB093B70CA9
:1045600080E090EFA2E5B8E48093B80C9093B90C8A
:10457000A093BA0CB093BB0C80E090E0A6E9B3EC3A
:104580008093BC0C9093BD0CA093BE0CB093BF0C59
:1045900083E393E3ABE4B3EC8093C00C9093C10C42
:1045A000A093C20CB093C30C80E090E0A0EAB2EC00
:1045B0008093C40C9093C50CA093C60CB093C70C09
:1045C00080E090E0A0E4B0E48093ED0C9093EE0CDA
:1045D000A093EF0CB093F00C83E090E09093100365
:1045E00080930F03BADE11FF43C0CE0101967C0118
:1045F0008CE0F70111928A95E9F700E0B701802F6E
:10460000B7DE0F5F0830D1F780E090E4ADE8B3EC9F
:1046100089839A83AB83BC8380E090E8A7E4B3EC02
:104620008D839E83AF83B887812C912C80E8A82E40
:104630008FEBB82E89869A86AB86BC86B70186E05A
:1046400097DE80E090E0A6E1B3EC89839A83AB83A8
:10465000BC8380E090E0A0E2B1EC8D839E83AF83C9
:10466000B88789869A86AB86BC86B70187E080DEEC
:1046700012FF08C060E080E093E0A9D160E081E52E
:1046800093E0A5D113FF04C060E08EEA93E09FD1D0
:104690002C960FB6F894DEBF0FBECDBFDF91CF9141
:1046A0001F910F91FF90EF90BF90AF909F908F90D0
:1046B00008951F920F920FB60F9211240BB60F920E
:1046C0002F933F934F935F936F937F938F939F931A
:1046D000AF93BF93EF93FF938091C6008F3369F040
:1046E00030F4883181F0813289F488E009C0803467
:1046F00031F08E3759F482E003C081E001C080E2DE
:104700000E94691611C00E94D62E0EC0E0910E03C1
:1047100091E09E0F20910D03921731F0F0E0E35FDE
:10472000FD4F808390930E03FF91EF91BF91AF9166
:104730009F918F917F916F915F914F913F912F91B9
:104740000F900BBE0F900FBE0F901F9018951F92E9
:104750000F920FB60F9211240BB60F928F939F9367
:10476000EF93FF938091CE0AE82FF0E0E25BF54FE4
:1047700090819093C6008F5F803809F480E0809329
:10478000CE0A90914D0A891305C08091C1008F7D9A
:104790008093C100FF91EF919F918F910F900BBE7D
:1047A0000F900FBE0F901F901895E0914D0A91E069
:1047B0009E0F903831F490E004C02091030224FD54
:1047C0000FC02091CE0A9217C1F3F0E0E25BF54FE3
:1047D000808390934D0A8091C10080628093C100D4
:1047E000089590910D0380910E03891B0895CF9336
:1047F000F8DFC82F1092CF0A109295001092940003
:1048000090917100916090937100EBDFC81740F0B8
:1048100080910302811104C080910402882339F041
:10482000809171008E7F80937100CF910895609187
:10483000CF0A70E080E090E00E944A4024EF34E22A
:1048400044EF50E40E94A83F1816FCF687EE94E06F
:104850007CD48DE694E079D489E694E076D480E83F
:10486000CF910C9469168091110390911203892BBA
:10487000C9F080915B0C811104C080915A0C88238F
:1048800089F080912C0D811101C0B1CF85FF04C04A
:1048900090912D0D90FDF9CF803421F480912D0D54
:1048A00082FDF3CF0895FC0120818181281719F141
:1048B0003281311102C021831BC09381923018F0E4
:1048C0009150938318C09481821740F48F5F818345
:1048D000992369F08F3F59F4858108C08150818305
:1048E000992329F09581981710F08FEF80833383F7
:1048F00081E090E0089580E090E008951F920F928B
:104900000FB60F9211240BB60F922F933F934F9334
:104910005F936F937F938F939F93AF93BF93EF9327
:10492000FF9380912C0D813049F080910402811118
:1049300005C00E94D62E83E00E947E10FF91EF9169
:10494000BF91AF919F918F917F916F915F914F91A7
:104950003F912F910F900BBE0F900FBE0F901F90A5
:10496000189593B190778091DD0C86FD02C080E7A9
:104970009827992349F094FB882780F995FD826058
:10498000907419F08460089580E00895EBE6F0E0FB
:1049900080818F788083E8E6F0E080818E7F80835D
:1049A000089584B18F7884B985B1806785B9809185
:1049B000DD0C83FF0BC080916B00806780936B00E0
:1049C000809168008160809368000895DFCFF8943B
:1049D000F999FECF92BD81BD81E08FBB80B586275E
:1049E000482F082E000C550B262F30E024233523AA
:1049F000232B39F06F3F19F060BD84E006C084E1DD
:104A000004C0882321F060BD84E28FBBF99A7894BA
:104A100008958F929F92AF92BF92CF92DF92EF92C2
:104A2000FF920F931F93CF937C014A016B01C40E39
:104A3000D51E8B01C0E05C01A61AB70AC8018A0D19
:104A40009B1D0C151D0591F0C11108C02C2FCC0F1A
:104A5000330B232F221F2227221F01C021E0F80140
:104A600061918F01C22FC60FB2DFE8CF6C2FC70153
:104A7000880D991DCF911F910F91FF90EF90DF90BE
:104A8000CF90BF90AF909F908F90A1CFF999FECF1C
:104A900092BD81BD81E08FBB80B508958F929F92BA
:104AA000AF92BF92CF92DF92EF92FF920F931F933C
:104AB000CF934B017A016C01C40ED51E8C01C0E06E
:104AC0005B01A81AB90AC501800F911F0C151D05BD
:104AD00091F0DCDFC11108C02C2FCC0F330B232F3A
:104AE000221F2227221F01C021E0C22FC80FF80178
:104AF00081938F01E8CFC4018E0D9F1DC7DF21E098
:104B000030E0C81711F020E030E0C901CF911F91CB
:104B10000F91FF90EF90DF90CF90BF90AF909F905C
:104B20008F900895A598E5E0F1E080818D7F8083E6
:104B3000089590912B0D91110DC0823011F4A59A1A
:104B40000895813031F480910501826080930501E0
:104B50000895E8CF089580912C0D803211F08034B3
:104B600071F41092080281E08093090280930B0295
:104B70008FEF809307028CE380930C02089583E00B
:104B80008093090210920B028FEF80930702089521
:104B9000FC011182428381E084838FEF80836583EF
:104BA00008951F920F920FB60F9211240BB60F9219
:104BB0000F931F932F933F934F935F936F937F9325
:104BC0008F939F93AF93BF93EF93FF9387E092E010
:104BD0006ADE892B39F08091080290E09093A90059
:104BE0008093A80083E193E05EDE892B39F0809109
:104BF000140390E09093AB008093AA0081E99CE0BD
:104C000052DE892B39F08091920C90E09093AD00A8
:104C10008093AC0089E193E046DE892BA9F0909166
:104C20001A03911109C0809102018F7B80930201C8
:104C30008091B0008F7C04C08091B0008F7C806236
:104C40008093B0009093B40080914B0A90914C0AED
:104C50001816190604F5019790934C0A80934B0A95
:104C6000892BC9F40E94CE168823A9F083FF0CC0BB
:104C700080912C0D882379F0803411F0803231F44A
:104C800080910302826005C082FF05C0809103020B
:104C90008062809303028091000281114FC02091B5
:104CA000010230910202121613060CF047C09091D7
:104CB0002C0D903409F442C0509178004091790055
:104CC0002091050230910602AFE3B0E00E94B53EAC
:104CD0008B019C01050F111D211D311D842F90E0BA
:104CE000A0E0B0E0BA2FA92F982F8827800F911F3E
:104CF000A21FB31F56E0B695A795979587955A952D
:104D0000D1F7909306028093050220910F03309112
:104D100010032817390780F48FEB99E016D26091C1
:104D200005027091060280E090E065D18BEB99E07E
:104D30000CD280E20E9469168AE001C08150809303
:104D40000002FF91EF91BF91AF919F918F917F9161
:104D50006F915F914F913F912F911F910F910F9004
:104D60000BBE0F900FBE0F901F90189587B18760F4
:104D700087B9479A84B1807F84B984B1876084B948
:104D80008DE58CBD81E08DBD84E190E0D3D740E01E
:104D900050E062EF74E088E090E00E94C72F40E0AE
:104DA00050E060E070E08AE090E00E94C72F40E0B1
:104DB00050E066E17AE08DE090E00E94C72F40E08D
:104DC00050E060E570E08EE090E00E94C72F40E088
:104DD00050E064E070E080E090E00E94C72F84E142
:104DE00090E0A8D741E050E062EF74E088E090E006
:104DF0000E94C72F41E050E060E070E08AE090E060
:104E00000E94C72F41E050E064E17AE08DE090E03D
:104E10000E94C72F41E050E060E570E08EE090E036
:104E20000E94C72F41E050E064E070E080E090E035
:104E30000E94C72F84E190E07DD742E050E062EF0E
:104E400074E088E090E00E94C72F42E050E060E00C
:104E500070E08AE090E00E94C72F42E050E064E1F9
:104E60007AE08DE090E00E94C72F42E050E060E5DC
:104E700070E08EE090E00E94C72F42E050E067E0D3
:104E800070E080E090E00C94C72F8F929F92AF92D9
:104E9000BF92CF92DF92EF92FF920F931F93CF9327
:104EA000DF93CDB7DEB72A970FB6F894DEBF0FBEFB
:104EB000CDBF6B017C01042F20E030E0A9010E94EE
:104EC000A83F87FF06C08DE270DCF7FAF094F7F890
:104ED000F094102F123060F020E030E048EC52E403
:104EE000C701B6010E94E6416B017C011250F2CF6E
:104EF00000FF0AC020E030E040E251E4C701B60103
:104F00000E94E6416B017C0120E030E040E05FE37D
:104F1000C701B6010E94CF3E0E941740E1E0F0E0D9
:104F2000EC0FFD1FE00FF11D2EE2208310E03AE0B0
:104F3000832E912CA12CB12C611571058105910551
:104F4000A9F0101301C01F5FEE24E394F12CEC0EC6
:104F5000FD1EE10EF11CA50194010E948B3E605DD7
:104F6000F7016083B901CA011F5FE6CF80E3101724
:104F700048F4E1E0F0E0EC0FFD1FE10FF11D80834C
:104F80001F5FF5CF10130BC012E0100F0F5FE1E0B1
:104F9000F0E0EC0FFD1FE00FF11D80E38083112393
:104FA00039F0FE01E10FF11D8081FFDB1150F7CFD9
:104FB0002A960FB6F894DEBF0FBECDBFDF91CF911A
:104FC0001F910F91FF90EF90DF90CF90BF90AF9027
:104FD0009F908F90089543E058CF2091DD0C20FFE3
:104FE00008C02BE832E441E25DE30E94E64144E080
:104FF00001C043E04ACF8F929F92AF92BF92EF924F
:10500000FF921F93CF93DF93CDB7DEB72A970FB6EA
:10501000F894DEBF0FBECDBF611571058105910506
:1050200089F480E32A960FB6F894DEBF0FBECDBF99
:10503000DF91CF911F91FF90EF90BF90AF909F9025
:105040008F90B3CB30E04AE0842E912CA12CB12C70
:1050500011E0130FEE24E394F12CEC0EFD1EE30E91
:10506000F11CA50194010E948B3EF7016083B901F8
:10507000CA01312F611571058105910549F7112389
:1050800041F0FE01E10FF11D8081805D8EDB11504A
:10509000F6CF2A960FB6F894DEBF0FBECDBFDF91D4
:1050A000CF911F91FF90EF90BF90AF909F908F9006
:1050B0000895EF92FF920F931F93CF93DF931F9268
:1050C000CDB7DEB7362FEDB6FEB66DB77EB7641B33
:1050D00071090FB6F8947EBF0FBE6DBF0DB71EB736
:1050E0000F5F1F4F202FF8019E2F921B941728F45B
:1050F000632F0E947F3E9193F7CF442359F0F8012C
:10510000E40FF11D31978081805D49834EDB498139
:105110004150F3CF0FB6F894FEBE0FBEEDBE0F9018
:10512000DF91CF911F910F91FF90EF9008958A30FA
:1051300020F0843620F043E003C041E001C042E0AB
:105140006AE0B7CF48E062E0B4CFCF93DF93FC01D1
:105150008491EF012196882319F027DBFE01F8CF17
:10516000DF91CF910895E6E3FBE0ABE2BDE0159659
:105170004D915D916D917C9118974083518362832D
:10518000738319964D915D916D917C911C97448329
:105190005583668377831D968D919D910D90BC916B
:1051A000A02D80879187A287B387089580912003DF
:1051B00090917509981739F02DE2829FC001112452
:1051C0008F5D9C4F089580E090E008958CE1E6E3C8
:1051D000FBE0DF011D928A95E9F7109220031092FF
:1051E000750981E08093350B10921F0308952F926B
:1051F0003F924F925F926F927F928F929F92AF9267
:10520000BF92CF92DF92EF92FF920F931F93CF93B3
:10521000DF93C0917509C11101C0C4E2C150D091A2
:105220001F03CD1709F41BC1EC2EF12C2DE2C29FF8
:10523000800111240F5D1C4FF801A588B688C7882E
:10524000D08C61A172A183A194A19B01AC010E94A9
:10525000CF3EF80125A136A147A150A50E94E64105
:105260004B018C019B01AC01B501C6010E94A83F16
:1052700087FD02C0540168018DE28E9DF0018F9D73
:10528000F00D1124EF5DFC4FC501D601818B928B8F
:10529000A38BB48BC11101C0C4E2C150CD1761F022
:1052A0002DE22E9DC0012F9D900D11249C012F5D9C
:1052B0003C4F7901DDE233C080912003D8135EC0FA
:1052C0000E94B21D5BC0AC2EB12CDA9DC001DB9DEB
:1052D000900D1124FC01EF5DFC4F6F01C11101C065
:1052E000C4E2C15080912003C81302C00E94B21DC5
:1052F000DA9D8001DB9D100D11240F5D1C4FF8011C
:1053000085889688A788B08CA501940161897289E7
:10531000838994890E94A83F811106C076018091FB
:105320001F03C813D0CF2AC0F80161A172A183A1C5
:1053300094A19B01AC010E94CF3EF80125A136A1AA
:1053400047A150A50E94E641F7012189328943898E
:1053500054890E94CF3E2B013C01A50194010E947B
:10536000A83FF80187FF05C0418A528A638A748A80
:10537000D5CF818A928AA38AB48AD0CFD0911F03D5
:10538000FDE2DF9F800111240F5D1C4FC1E0CD0FB6
:10539000C43209F4C0E0209075098DE2382EC215A0
:1053A00009F45BC0CC2ED12C3C9CC0013D9C900DDF
:1053B00011249C012F5D3C4F7901F80141885288EE
:1053C00063887488F90181889288A388B488A501CC
:1053D0009401C301B2010E94A83F87FF24C0F801D5
:1053E00061A172A183A194A19B01AC010E94CF3E57
:1053F000F80125A136A147A150A50E94E6419B01D5
:10540000AC01C301B2010E94CF3E2B013C01A501BA
:1054100094010E94A83F87FF06C0F701418A528A83
:10542000638A748ADC2F3C9CF0013D9CF00D1124B2
:10543000EF5DFC4F258936894789508D61897289D6
:10544000838994890E94A83F811101C0DC2FCF5F1E
:10545000C43209F4C0E08701A2CFD0931F03DF91CB
:10546000CF911F910F91FF90EF90DF90CF90BF9061
:10547000AF909F908F907F906F905F904F903F90F4
:105480002F9008952F923F924F925F926F927F924A
:105490008F929F92AF92BF92CF92DF92EF92FF9244
:1054A0000F931F93CF93DF93CDB7DEB7C555D109C7
:1054B0000FB6F894DEBF0FBECDBF4BAB5CAB6DAB90
:1054C0007EAB2C962FAF2C9760960FAF6097009114
:1054D0007509202E312C2DE2029FF0011124EF5D81
:1054E000FC4F158616861786108A15A216A217A2DB
:1054F00010A6108249E956E766E97EE741A352A368
:1055000063A374A3C1A6D2A6E3A6F4A660963FAD9A
:1055100060972CE0332309F44CC0E0E3FDE0DE01AA
:10552000599601900D922A95E1F78FAB98AF88E9D3
:105530009CE02F969FAF8EAF2F97FE01B5962596D4
:10554000FFAFEEAF25979E01275E3F4F23963FAFFB
:105550002EAF2397CE010D969EAF8DAF2DE2029F09
:10556000F00111242B96FFAFEEAF2B9721969FAF42
:105570008EAF219788E99CE027969FAF8EAF279743
:10558000812C912C10E02DE2229DC001239D900DD5
:105590001124FC01EF5DFC4F5F019F01235F3F4F32
:1055A00029963FAF2EAF2997CF0185969CAF8BAF41
:1055B0005EC0E6E3FBE0B3CF2B96EEADFFAD2B97DD
:1055C000E80DF91DEF5DFC4FC182D282E382F482C7
:1055D0002996EEADFFAD299720813181428153811B
:1055E000C216D306E406F50610F469017A0129967D
:1055F000EEADFFAD2997C082D182E282F3820E9494
:105600004A40A30192010E94AF3F2B013C01219629
:10561000EEADFFAD219761937193819391932196A4
:10562000FFAFEEAF219720E030E0A9010E94A83F34
:1056300087FD5FC0A3019201C301B2010E94E64150
:10564000EBADFCAD20813181428153810E94CF3E80
:10565000EBADFCAD60837183828393831F5FF4E0C5
:105660008F0E911C2CE08216910409F450C0EFA912
:10567000F8AD6191719181919191F8AFEFAB27965F
:10568000EEADFFAD279741905190619071902796B4
:10569000FFAFEEAF2797A30192010E94E6410E945F
:1056A000B6412596EEADFFAD259761937193819339
:1056B00091932596FFAFEEAF25972396EEADFFAD04
:1056C0002397C190D190E190F1902396FFAFEEAF78
:1056D00023976C197D098E099F096B017C0197FF47
:1056E0006BCFCC24DD247601C61AD70AE80AF90A62
:1056F00063CF112321F0113021F090E103C094E039
:1057000001C098E0F5018081892B808393CF0E94AE
:1057100073422B013C01EBADFCAD6083718382834E
:105720009383CD28CE28CF2809F4E7C220E030E0CB
:10573000A9016BA97CA98DA99EA90E94A83F87FDFC
:1057400024C02C96FFAD2C97FF2361F0A30192019A
:105750006BA97CA98DA99EA90E94E6416BAB7CAB8D
:105760008DAB9EAB20E030E040E85FE36BA97CA905
:105770008DA99EA90E94A83F87FF0FC01BAA1CAA43
:1057800020E82DAB3FE33EAB08C089E98BAB96E741
:105790009CABE6E9EDABFEE7FEABA301920160E056
:1057A00070E080E89FE30E94AF3F64966CAF7DAFEE
:1057B0008EAF9FAF649722E43BE025963FAF2EAFBC
:1057C0002597CE01019623969FAF8EAF2397FE01BA
:1057D0007996FAABE9AB28E93CE021963FAF2EAFD2
:1057E00021972D969FAF8EAF2D97412C512C3201D2
:1057F0004FAA58AE69AE7AAE2DE2229DC001239D1C
:10580000900D1124FC01EE5BFC4FFCAFEBAF2DAD16
:105810003EAD66963FAF2EAF6697F901C080D1804E
:10582000E280F38020E030E0A901C701B6010E94C8
:10583000A83F882309F497C064962CAD3DAD4EADCA
:105840005FAD6497C701B6010E94E6414B015C0160
:10585000EDADFEAD6083718382839383EBADFCADD0
:10586000F0812696FFAF2697EBADFCADF18128962F
:10587000FFAF2897EBADFCADF2812A96FFAF2A97D8
:10588000EBADFCAD13819B01AC012196EEADFFADFC
:105890002197608D718D828D938D0E94AF3F6B013A
:1058A0007C01E894F7F8A701960126966FAD26973C
:1058B00028967FAD28972A968FAD2A97912F0E9420
:1058C000A83F87FD0AC02696CFAE26972896DFAE62
:1058D00028972A96EFAE2A971F2D26968FAD2697EA
:1058E00028969FAD28972A96AFAD2A97B12FEBAD9A
:1058F000FCAD80839183A283B383A501940121969B
:10590000EEADFFAD219764857585868597850E94EC
:10591000AF3F6B017C01E894F7F8A70196016BA9F2
:105920007CA98DA99EA90E94A83F87FD04C0CBAA8F
:10593000DCAAEDAAFEAA2596EEADFFAD2597208143
:10594000318142815381C501B4010E94E6419B012E
:10595000AC016FA978AD89AD9AAD0E94CE3E6FAB18
:1059600078AF89AF9AAF2DAD3EAD2C5F3F4F3EAFC4
:105970002DAF2596EEADFFAD259721913191419147
:1059800051912596FFAFEEAF25976696EEADFFAD30
:10599000669760817181828193810E94CE3E2D96AF
:1059A000EEADFFAD2D9761937193819391932D96F9
:1059B000FFAFEEAF2D979B01AC010E94E6419B012A
:1059C000AC01C301B2010E94CF3E2B013C012196E4
:1059D0002EAD3FAD21972C5F3F4F21963FAF2EAFAD
:1059E00021978DAD9EADE9A9FAA98E179F0709F001
:1059F0000ECF80912003081729F06096FFAD6097C5
:105A0000FF2369F08DE2829DF001839DF00D11244A
:105A1000EF5DFC4F118A128A138A148A14C02FEE8C
:105A20003FEF4FE75FE36FA978AD89AD9AAD0E9474
:105A3000AB4118166CF48DE2829DF001839DF00D50
:105A40001124EF5DFC4F118E128E138E148EC4C084
:105A50002FEE3FEF4FE75FEB6FA978AD89AD9AADC1
:105A60000E94A83F87FF11C08DE2829DF001839DB7
:105A7000F00D1124EF5DFC4F89E996E7A6E9BEE73A
:105A8000818F928FA38FB48FA7C0C301B2010E94F0
:105A900073422B013C014E012DE0820E911C89E9DD
:105AA000B82E06E716E99EE7A92E2396EEADFFADC8
:105AB0002397C190D190E190F1902396FFAFEEAF84
:105AC000239720E030E0A901C701B6010E94A83F5A
:105AD000882311F12F96EEADFFAD2F97208D318DDC
