:10000000FEC4000010C500000EC500000CC50000B5
:100010000AC5000008C5000006C5000004C50000B0
:1000200002C500000C94EB12FEC400000C94FE39D3
:10003000FAC40000F8C40000F6C40000F4C40000D4
:10004000F2C400000C94B330EEC40000ECC4000015
:10005000EAC40000E8C40000E6C400000C94CA3200
:10006000E2C400000C947B2A0C943C2ADCC40000FF
:10007000DAC40000D8C40000D6C40000D4C4000014
:10008000D2C40000D0C40000CEC400000C94CB2E1B
:10009000CAC40000C8C40000C6C40000C4C4000034
:1000A000C2C40000C0C40000BEC40000BCC4000044
:1000B000BAC40000B8C40000B6C40000F6C4000012
:1000C000B2C40000B0C40000AEC40000ACC4000064
:1000D000AAC40000A8C40000A6C40000A4C4000074
:1000E000A2C400000C0A64126412160A230A300A21
:1000F0003D0A6412410A64124F0A6412590A630AE3
:10010000940A6412641264126D0A7A0A870AD8107B
:10011000E9101611E9101A112D11201126114211A2
:10012000501166118911BA11CC11E011F2114E254E
:100130005125552558255B255E25612564256725B4
:100140006A256D25702573257625822582258225D1
:10015000822582257C2579257F25C225C525C825B0
:10016000CB25CE25D125D425D725DA25732D792D7C
:100170007C2D7F2D832D8B2D952D3A2E3A2E3A2EC8
:100180009D2DA02DA92DB22D3A2E3A2E3A2E3A2E83
:100190003A2E3A2EBA2DC42DD02DD82DDB2DE42D9C
:1001A000ED2DF32D3A2E3A2EFC2D052E3A2E3A2E19
:1001B0003A2E3A2E3A2E3A2E3A2E3A2E3A2E3A2EFF
:1001C0003A2E3A2E3A2E3A2E3A2E3A2E3A2E3A2EEF
:1001D0000E2E084AD73B3BCE016E84BCBFFDC12F1B
:1001E0003D6C74319ABD56833DDA3D00C77F11BE28
:1001F000D9E4BB4C3E916BAAAABE000000803F052B
:10020000A84CCDB2D44EB93836A9020C50B991865B
:1002100088083CA6AAAA2ABE000000803F007D0DE7
:100220000A002C5072623A002C4C696D3A004374FB
:100230006C3A007B53773A005D0D0A005B4F7665A0
:100240007243757272656E743A003E0D0A002C4955
:100250003A007C00310030007C002C50696E3A007E
:100260002C52583A002C4275663A002C002C5750FC
:100270006F733A002C002C4D506F733A003C536C56
:10028000656570003C486F6C64003C446F6F7200A1
:100290003C446F6F72003C436865636B003C416C8B
:1002A00061726D003C486F6D65003C486F6C640086
:1002B0003C52756E003C49646C65005D0D0A003A65
:1002C0004354524C005B312E322E352E32303136B3
:1002D000303831353A000D0A003D00244E005D0DE6
:1002E0000A00205300204600205400204D370020F3
:1002F0004D3800204D3900204D3500204D34002070
:100300004D3300204D3200204D3100204D30002073
:10031000473934002047393300204739310020471E
:100320003930002047323000204732310020473139
:100330003900204731380020473137002047004737
:1003400033382E00473830004733004732004731FA
:10035000004730005B005D0D0A005B544C4F3A00D3
:100360005D0D0A002C005B4739323A005D0D0A0032
:100370002C003A003330003238005B47005D0D0A34
:10038000003A002C005B5052423A00290D0A00202E
:100390006D61782074726176656C2C206D6D002023
:1003A000616363656C2C206D6D2F7365635E320035
:1003B000206D617820726174652C206D6D2F6D69E0
:1003C0006E002C20737465702F6D6D007A007900BB
:1003D00078002028003D00240020285370696E64B6
:1003E0006C652049206D6178290D0A002435303D67
:1003F00000202872706D206D696E290D0A0020287A
:1004000072706D206D6178290D0A2433313D002012
:1004100028686F6D696E672070756C6C2D6F6666ED
:100420002C206D6D290D0A2433303D002028686F83
:100430006D696E67206465626F756E63652C206DF3
:10044000736563290D0A2432373D002028686F6DDB
:10045000696E67207365656B2C206D6D2F6D696EFD
:10046000290D0A2432363D002028686F6D696E67B9
:1004700020666565642C206D6D2F6D696E290D0AEF
:100480002432353D00290D0A2432343D00202868ED
:100490006F6D696E672064697220696E766572742B
:1004A000206D61736B3A002028686F6D696E67205C
:1004B0006379636C652C20626F6F6C290D0A24329E
:1004C000333D00202868617264206C696D69747323
:1004D0002C20626F6F6C290D0A2432323D002028D7
:1004E000736F6674206C696D6974732C20626F6F12
:1004F0006C290D0A2432313D0020287265706F721C
:100500007420696E636865732C20626F6F6C290DAF
:100510000A2432303D00202861726320746F6C65BC
:1005200072616E63652C206D6D290D0A2431333D97
:100530000020286A756E6374696F6E206465766941
:100540006174696F6E2C206D6D290D0A2431323D66
:1005500000290D0A2431313D00202873746174751F
:1005600073207265706F7274206D61736B3A002036
:100570002870726F62652070696E20696E76657290
:10058000742C20626F6F6C290D0A2431303D0020DD
:10059000286C696D69742070696E7320696E766568
:1005A00072742C20626F6F6C290D0A24363D002076
:1005B000287374657020656E61626C6520696E7663
:1005C0006572742C20626F6F6C290D0A24353D0012
:1005D000290D0A24343D00202864697220706F724E
:1005E0007420696E76657274206D61736B3A0029B0
:1005F0000D0A24333D0020287374657020706F72DB
:100600007420696E76657274206D61736B3A002098
:1006100028737465702069646C652064656C617909
:100620002C206D736563290D0A24323D0020287348
:100630007465702070756C73652C20757365632903
:100640000D0A24313D0024303D0024242028766901
:100650006577204772626C2073657474696E677386
:10066000290D0A24232028766965772023207061CC
:1006700072616D6574657273290D0A2447202876AE
:100680006965772070617273657220737461746537
:10069000290D0A2449202876696577206275696CDE
:1006A0006420696E666F290D0A244E2028766965DC
:1006B00077207374617274757020626C6F636B73F2
:1006C000290D0A24783D76616C7565202873617662
:1006D00065204772626C2073657474696E67290DBA
:1006E0000A244E783D6C696E65202873617665201A
:1006F0007374617274757020626C6F636B290D0A7C
:1007000024432028636865636B2067636F646520FA
:100710006D6F6465290D0A245820286B696C6C2064
:10072000616C61726D206C6F636B290D0A24482027
:100730002872756E20686F6D696E67206379636CCF
:1007400065290D0A7E20286379636C6520737461C6
:100750007274290D0A2120286665656420686F6C13
:1007600064290D0A3F202863757272656E742073C8
:100770007461747573290D0A6374726C2D78202866
:100780007265736574204772626C290D0A000D0A48
:100790006743617276696E20312E322E35205B27D9
:1007A000242720666F722068656C705D0D0A005DFD
:1007B0000D0A00536C656570204D6F6465005265CD
:1007C00073746F72696E672064656661756C7473AB
:1007D0000050676D20456E6400436865636B20447C
:1007E0006F6F720044697361626C656400456E618D
:1007F000626C65640043617574696F6E3A20556E72
:100800006C6F636B656400272448277C2724582776
:1008100020746F20756E6C6F636B00526573657426
:1008200020746F20636F6E74696E7565005B000DD8
:100830000A00486F6D696E67206661696C005072CE
:100840006F6265206661696C0041626F727420643A
:100850007572696E67206379636C6500536F6674A7
:10086000206C696D69740048617264206C696D69FF
:100870007400414C41524D3A20000D0A00496E76F9
:10088000616C69642067636F64652049443A005570
:100890006E646566696E6564206665656420726174
:1008A000746500556E737570706F72746564206343
:1008B0006F6D6D616E64004D6F64616C2067726F67
:1008C00075702076696F6C6174696F6E004C696E2B
:1008D00065206C656E67746820657863656564651E
:1008E0006400436865636B20446F6F7200537465E6
:1008F000702072617465203E2033306B487A004C62
:10090000696E65206F766572666C6F7700486F6DF3
:10091000696E67206E6F7420656E61626C6564003D
:10092000416C61726D206C6F636B004E6F74206957
:10093000646C6500454550524F4D207265616420DE
:100940006661696C2E205573696E67206465666107
:10095000756C74730056616C7565203C203320758E
:100960007365630053657474696E672064697361AD
:10097000626C65640056616C7565203C20300049EE
:100980006E76616C69642073746174656D656E74F4
:1009900000426164206E756D62657220666F726DD3
:1009A000617400457870656374656420636F6D6D74
:1009B000616E64206C6574746572006572726F722A
:1009C0003A20006F6B0D0A00205D0D0A0020536C69
:1009D000656570204665617475726520005B5361C2
:1009E0006665747920446F6F725D0D0A005B536118
:1009F0006665747920446F6F725D0D0A00001124E2
:100A00001FBECFEFD1E2DEBFCDBF00E00CBF2DE0B7
:100A1000A0E0B2E001C01D92AA34B207E1F70E9443
:100A20004E150C94BC41ECCAFC0111821282138257
:100A30001482158210820895FC014283148260831F
:100A40000895FC011182428381E084838FEF8083CB
:100A500065830895FC0190818181981719F12281A5
:100A6000211102C091831BC03381323018F0315004
:100A7000338318C03481891740F48F5F8183332317
:100A800069F08F3F59F4858108C0815081833323F9
:100A900029F09581981710F08FEF8083238381E0F0
:100AA00090E0089580E090E008951F920F920FB6B5
:100AB0000F9211240BB60F920F931F932F933F9316
:100AC0004F935F936F937F938F939F93AF93BF9356
:100AD000EF93FF9382E192E0BDDF892B39F08091A3
:100AE000130290E09093A9008093A8008CE092E01C
:100AF000B1DF892B39F080910D0290E09093AB002B
:100B00008093AA0086E092E0A5DF892B39F08091DE
:100B1000070290E09093AD008093AC0080E092E0FB
:100B200099DF20910102892B89F0211109C0809160
:100B300002018F7B809302018091B0008F7C04C002
:100B40008091B0008F7C80628093B0002093B400CD
:100B50008091240290912502181619064CF40197F1
:100B60009093250280932402892B11F40E94123A5B
:100B700020911802211151C080911D0290911E02F6
:100B8000181619060CF049C08091510B803409F4F5
:100B900044C0409178000091790020911B0230916F
:100BA0001C02AFE3B0E00E94A341640F711D811DE0
:100BB000911D10E020E030E0322F212F102F002770
:100BC000600F711F821F931F56E09695879577954A
:100BD00067955A95D1F770931C0260931B02209180
:100BE000190230911A022617370798F48CE392E025
:100BF0000E947B2060911B0270911C0280E090E0BB
:100C00000E94382188E392E00E947B2080E20E94CB
:100C1000773C8AE08093180203C021502093180289
:100C2000FF91EF91BF91AF919F918F917F916F91C4
:100C30005F914F913F912F911F910F910F900BBE9C
:100C40000F900FBE0F901F90189586B186958695D0
:100C500086959FE18927089581E090E09093200296
:100C600080931F0287B1877087B988B1886F88B970
:100C70008091010188608093010180910101806170
:100C80008093010180910101806280930101DDDF89
:100C900090E090931E0280931D020E949D3C8BEA7F
:100CA0008093A0008091A100887F82608093A10042
:100CB0001092A9001092A8001092AD001092AC0002
:100CC00083EA8093900080919100887F8260809376
:100CD00091001092AB001092AA0010922001109285
:100CE000210180912101886080932101809121015F
:100CF00084608093210188E790E09093290180939C
:100D000028018091730082608093730080911D029E
:100D100090911E021816190674F484EA80937A00E2
:100D200080EC80937C0080917A00806480937A00CC
:100D30008AE08093180282E192E076DE8CE092E015
:100D400073DE86E092E070DE80E092E06DDE93E09C
:100D500090931402109216028FEF809312029093D8
:100D60000E021092100280930C0281E090E00C942D
:100D7000453D28E088E190E00FB6F894A89580936F
:100D800060000FBE20936000FFCFCF93DF9383E31B
:100D900092E00E947B208EE292E00E947B20C6E0DF
:100DA000D1E0888186700E94C92088E292E00E948A
:100DB0007B2083B180770E94C92082E292E00E946A
:100DC0007B20888188700E94C9208EE192E0DF91AB
:100DD000CF910C947B20A598E5E0F1E080818D7F98
:100DE000808308959D9AE4E0F1E0808182608083B1
:100DF000F2CF9091500B91110DC0823011F4A59A51
:100E00000895813031F4809105018260809305015D
:100E10000895E1CF0895CF93DF931F92CDB7DEB74A
:100E20009091510B923041F089830E942A2589814B
:100E30000F90DF91CF91DDCF0F90DF91CF9108958B
:100E4000F999FECF92BD81BD81E08FBB80B5089539
:100E5000F894F999FECF92BD81BD81E08FBB40B57A
:100E60004627842F992787FD9095262F30E08223EF
:100E70009323892B39F06F3F19F060BD84E006C0E1
:100E800084E104C0442321F060BD84E28FBBF99A61
:100E9000789408959F92AF92BF92CF92DF92EF9293
:100EA000FF920F931F93CF93DF938C017A016B0115
:100EB000C40ED51EEB01912C5C01A61AB70ACE0117
:100EC0008A0D9B1DCC15DD0589F0911009C0692D97
:100ED000772767FD7095272F221F2227221F01C029
:100EE00021E06991922E960EB3DFE9CF692DC801FA
:100EF0008E0D9F1DDF91CF911F910F91FF90EF906D
:100F0000DF90CF90BF90AF909F90A2CF9F92AF9273
:100F1000BF92CF92DF92EF92FF920F931F93CF93E6
:100F2000DF938B017A016C01C40ED51EEC01912C6C
:100F30005B01A81AB90AC5018C0F9D1FCC15DD05F0
:100F400089F07EDF911009C0292D332727FD3095C8
:100F5000232F221F2227221F01C021E0922E980E4C
:100F60008993E9CFC8018E0D9F1D6ADF21E030E033
:100F7000981611F020E030E0C901DF91CF911F9168
:100F80000F91FF90EF90DF90CF90BF90AF909F9028
:100F900008958FE3E8EDFAE0DF011D928A95E9F705
:100FA0006BEF7AE080E00E94A12C811103C087E002
:100FB0000C943925089565E57BE08FEE9AE00C945A
:100FC0005E3C2F923F924F925F926F927F928F92F0
:100FD0009F92AF92BF92CF92DF92EF92FF920F93C8
:100FE0001F93CF93DF93CDB7DEB7AB970FB6F894CF
:100FF000DEBF0FBECDBF9F8F8E8F89E3E7E1FBE0A1
:10100000DF011D928A95E9F78AE0E8EDFAE0A8E1B0
:10101000BBE001900D928A95E1F71D8E212C312CB9
:10102000A12CB12C19A2512C18A266246394712C06
:1010300008E0402E9924939485E0882E8D8DEE8DC6
:10104000FF8DE80FF11D0081002309F490C29FEB92
:10105000900F9A3110F00C9456128F5F8D8FAE0165
:10106000475E5F4FBE01635E7F4F8E8D9F8D0E94F6
:10107000F719882311F40C945812C98CDA8CEB8C74
:10108000FC8CC701B6010E9450410E94B83E162F49
:1010900070E080E090E00E94E63E9B01AC01C70159
:1010A000B6010E946A3D20E030E048EC52E40E9424
:1010B00082400E94E5400E94B83E073421F00D3482
:1010C00009F450C197C1183209F432C1E8F414315F
:1010D00060F4113108F0D7C0143009F45AC008F494
:1010E0008EC01A30D9F10C9464121C31B9F128F475
:1010F000163108F4F7C00C9464121E3179F11632DF
:1011000009F47DC00C9464121D3309F40BC1A8F4DA
:10111000153309F461C040F41B3209F4ECC01133FB
:1011200009F4E9C00C9464121C3310F00C9464129E
:10113000165310931E0B89E000C11C3540F41A357C
:1011400008F0B0C0103509F49BC00C9464121C3533
:1011500029F01F3508F4BDC00C94641261157105A7
:1011600031F4B8A1B1110C945A12E1E0E8A31C319A
:1011700099F038F4143069F01A3009F0DBC082E0DD
:101180002CC0153349F11C3559F11E3109F0D2C07C
:1011900013C09092170BCEC06115710549F06A30EB
:1011A000710511F00C94641224E02093170B09C010
:1011B000F3E0F093170B05C06115710521F48092DF
:1011C000170B80E0BFC06A30710511F00C946412F7
:1011D00036E03093170BF5CF87E08093170BAAC04A
:1011E0006115710549F06A30710511F00C946412B3
:1011F00099E09093170BE5CF4092170BE2CFA8A18F
:10120000A1110C945A12B2E0B8A3123089F028F45C
:10121000112359F0113081F08FC0163281F0103552
:1012200079F1133009F088C007C01092180B84C000
:10123000E8A1E093180B80C01093180B7DC06E31AD
:101240007105B1F048F46431710511F00C94641229
:10125000F4E0F093180B12C06832710561F062334C
:10126000710511F00C94641237E03093180B06C02E
:101270008092180B03C026E02093180B81E062C017
:101280004092180B59C0123129F0133139F01092E5
:101290001C0B02C090921C0B82E04FC082E0809336
:1012A0001C0B4BC06115710549F41A3519F41092E5
:1012B0001B0B02C090921B0B83E044C06A30710587
:1012C00011F00C9464121A3511F40C94641284E039
:1012D00039C01D3519F49092190B02C01092190BE8
:1012E00085E02BC0143119F490921A0B02C01092B1
:1012F0001A0B86E022C088A181110C945A12113376
:1013000031F410921D0B88E093E098A31BC06A3063
:10131000710511F00C94641290921D0B88E0A3E00B
:10132000A8A310C0672B11F00C9464128AE00AC0C5
:1013300087E003C080E001C081E0672B19F087E1FE
:101340000C947712F30102C0EE0FFF1F8A95E2F7AB
:10135000CF019F012A213B21232B09F448C085E1BD
:101360000C947712672B59F7163018F4133058F095
:1013700017C0173010F40C9464121A3000F11E31AB
:1013800059F00C946412123039F01E3129F0111109
:1013900025C090921F0B22C082E080931F0B1EC0BD
:1013A000143029F0153039F09092210B06C082E0FC
:1013B0008093210B02C01092210B8CE010C01830DA
:1013C00029F0193039F09092200B06C082E080930A
:1013D000200B02C01092200B8DE001C08BE0930126
:1013E00002C0220F331F8A95E2F7C901B3CFA82AA2
:1013F000B92A24CE802F992787FD9095A92FB92F40
:10140000FC01E654F109E531F10510F00C94641289
:10141000EE58FF4F0C949D41C092220BD092230BAB
:10142000E092240BF092250B80E07FC0C092260B47
:10143000D092270BE092280BF092290B39A1316052
:1014400039A381E072C0C0922A0BD0922B0BE0929C
:101450002C0BF0922D0B89A1826089A382E065C0DC
:10146000C0922E0BD0922F0BE092300BF092310BEA
:1014700099A1946099A383E058C01093320B84E043
:1014800054C0C701B6010E94B33E6093330B709302
:10149000340B8093350B9093360B85E046C0C09299
:1014A000370BD092380BE092390BF0923A0B86E072
:1014B0003CC0C0923B0BD0923C0BE0923D0BF092B3
:1014C0003E0B87E032C0C0923F0BD092400BE092BF
:1014D000410BF092420B88E028C0C092440BD0929E
:1014E000450BE092460BF092470BA52DA1605A2EBA
:1014F0008AE01BC0C092480BD092490BE0924A0B85
:10150000F0924B0BB52DB2605B2E8BE00EC0C092FB
:101510004C0BD0924D0BE0924E0BF0924F0BE52D01
:10152000E4605E2E8CE001C089E08301082E02C0D9
:10153000000F111F0A94E2F7980122213321232B77
:1015400009F0BAC721E633E002C0359527958A95A0
:10155000E2F720FF09C020E030E0A901C701B60191
:101560000E94443E87FDAAC7202A312A67CD552014
:1015700029F038A1311102C082E088A325FE0EC0F7
:101580008091330B9091340BA091350BB091360BB9
:1015900080389649A849B1050CF092C78091190B83
:1015A000813031F4F8A1F230A1F520FE93C731C0AB
:1015B0008091D90A81112DC020FE1BC080911A0B89
:1015C000813039F523E333E34BEC51E46091220B96
:1015D0007091230B8091240B9091250B0E948240E7
:1015E0006093220B7093230B8093240B9093250B15
:1015F00010C08091E60A9091E70AA091E80AB091A4
:10160000E90A8093220B9093230BA093240BB093B1
:10161000250B30FC10C08091E20A9091E30AA09162
:10162000E40AB091E50A80933F0B9093400BA0939E
:10163000410BB093420B8091170B813031F426FCA3
:1016400002C08CE154C7E89426F880911C0B8823D3
:1016500041F0813061F019A682E088A791E09FA354
:101660000BC022E029A731E038A71FA205C0A1E0E6
:10167000A9A718A6B2E0BFA380911A0B813021F070
:10168000E8A1E33091F52AC0B4E4EB2EBBE0FB2ED9
:1016900000E010E0C52CD12CC601002E02C09595AB
:1016A00087950A94E2F780FF10C023E333E34BEC05
:1016B00051E4D7016D917D918D919C910E94824062
:1016C000F70160837183828393830F5F1F4FF4E080
:1016D000EF0EF11C03301105F9F6D2CF80911D0BEE
:1016E000813019F424E05212EDC68CE0EBEFFAE001
:1016F000DE011D9601900D928A95E1F7B1FC09C0BB
:101700003091170B3E8F3230B9F0383009F4B0C049
:1017100015C180911E0B873010F08DE1E8C69091C5
:10172000DE0A981769F3BE01635F7F4F0E94A12C08
:10173000882309F4D9C6E4CF511002C08AE1D7C684
:10174000C10180759927892B09F47BCF6091370BF4
:101750007091380B8091390B90913A0B0E94504157
:101760000E94B83E6730C8F68091320B843129F070
:10177000823009F0A9C627FCA7C68FEA2822662373
:1017800019F061506E8F03C090911E0B9E8FBE01A9
:101790006F5F7F4F8E8D0E94A12C882309F4A4C611
:1017A0004090320B6090130B7090140B8090150BCF
:1017B0009090160BDE0111967D01F4E4AF2EFBE054
:1017C000BF2EAFEECA2EAAE0DA2E00E010E0E52D23
:1017D000F0E0FEA3EDA38DA19EA1002E02C0959581
:1017E00087950A94E2F780FF33C0F4E14F1226C0D8
:1017F000D60158962D913D914D915C915B976D91DD
:101800007D918D919C910E946A3DF50120813181ED
:10181000428153810E946A3DD7016D937D938D93E0
:101820009C9313970230A1F4A40193010E946A3D96
:10183000F70160837183828393830AC0F5018081FD
:101840009181A281B381F70180839183A283B383C5
:101850000F5F1F4FF4E0EF0EF11C24E0A20EB11C4D
:1018600034E0C30ED11C0330110509F0B4CF33C1ED
:10187000552009F463CF6090130B7090140B809087
:10188000150B9090160B04E41BE0EFEECE2EEAE071
:10189000DE2E5E018DE0A80EB11CE12CF12CA52DF1
:1018A000B0E0BF8FAE8F8E8D9F8D0E2C02C09595B0
:1018B00087950A94E2F780FF26C0F50120813181E7
:1018C00042815381D6016D917D918D919C910E94B1
:1018D0006A3DF80120813181428153810E946A3D35
:1018E000D8016D937D938D939C931397B2E0EB1287
:1018F00014C0A40193010E946A3DF80160837183C2
:10190000828393830AC0F601808D918DA28DB38D61
:10191000F80180839183A283B383FFEFEF1AFF0A5C
:101920000C5F1F4F24E0C20ED11C34E0A30EB11C8B
:1019300083E0E816F10409F0B6CFCCC098A193304B
:1019400079F4AE8DA53009F48BC0A73009F4BDC081
:10195000A33009F0BFC0BE016F5F7F4F86E084C037
:10196000552079F340901B0B6090130B7090140B73
:101970008090150B9090160B7FEEC72E7AE0D72E35
:1019800004E41BE05E01BDE0AB0EB11CE12CF12CC8
:10199000E52DF0E0FEA3EDA38DA19EA10E2C02C0CB
:1019A000959587950A94E2F780FD0BC0F60180813A
:1019B0009181A281B381F80180839183A283B38353
:1019C0003EC0FE8DF730D9F1411028C0D60158969F
:1019D0002D913D914D915C915B97F50160817181F5
:1019E000828193810E946B3DD8012D913D914D9153
:1019F0005C910E946B3DF8016083718382839383C5
:101A0000F2E0EF121CC0A40193010E946B3DD801CB
:101A10006D937D938D939C93139711C0F601208154
:101A2000318142815381D8016D917D918D919C913D
:101A30000E946B3DF8016083718382839383FFEF83
:101A4000EF1AFF0A24E0C20ED11C0C5F1F4F34E0D6
:101A5000A30EB11C83E0E816F10409F09DCF71CF0D
:101A6000BE016F5F7F4F87E00E94A12C882309F49D
:101A70003BC5511003C01E8E18A22DC020E030E0DF
:101A800080E090E0452D50E0BA01082E02C0759527
:101A900067950A94E2F760FD11C0F901E852F54F2D
:101AA000C788D08CE18CF28CE1E0F0E0EC0FFD1FF8
:101AB000E20FF31FC082D182E282F38201962C5F93
:101AC0003F4F8330910501F705C08091180B82309C
:101AD00008F0FCC41E8E1091180B183041F45520EC
:101AE00009F4B3C198A1913009F0F2C48BC2A8A146
:101AF000A23009F0AAC11123D9F020E030E0A901F9
:101B00006091220B7091230B8091240B9091250BF7
:101B10000E94443E882309F4DDC4143028F41230B6
:101B200058F4113029F06EC2183008F44DC16AC261
:101B3000511068C218A28CC1552009F4FFCDFFA135
:101B4000EF2FF0E0FEA3EDA338A5232F30E03BA755
:101B50002AA781E090E03C0108A402C0660C771C33
:101B60000A94E2F70FA002C0880F991F0A94E2F7C7
:101B7000682A792A852D90E086219721892B09F4FE
:101B8000ABC4CF01880F991F880F991FFC01E95E34
:101B9000F44FDC01A852B54F57962D913D914D91D0
:101BA0005C915A9765A576A587A590A90E946A3D84
:101BB0006B017C018AA59BA5880F991F880F991F2F
:101BC000FC01E95EF44FDC01A852B54F57962D9108
:101BD0003D914D915C915A9765A576A587A590A9F1
:101BE0000E946A3D4B015C0127FE40C0E89427F843
:101BF0002091440B3091450B4091460B5091470B7F
:101C00006091EF0A7091F00A8091F10A9091F20AC6
:101C10000E94443E811120C12091480B3091490B14
:101C200040914A0B50914B0B6091F30A7091F40A6A
:101C30008091F50A9091F60A0E94443E81110CC1F0
:101C400020914C0B30914D0B40914E0B50914F0B0E
:101C50006091F70A7091F80A8091F90A9091FA0A56
:101C60000E94443E8111F8C081E241C4F9A14F2E87
:101C7000512C64207520672809F430C421EF2222FA
:101C800080911A0B813009F45AC00AA51BA5000FD8
:101C9000111F000F111F055E144FD8011B962D91C7
:101CA0003D914D915C911E97C501B4010E946A3D22
:101CB0002B013C01ADA0BEA0AA0CBB1CAA0CBB1CF6
:101CC000F501E55EF44F5F01238534854585568532
:101CD000C701B6010E946A3DA30192010E94E41A65
:101CE0006B017C01D8011B962D913D914D915C912A
:101CF0001E97F50163857485858596850E94E41A93
:101D00004B015C0160933B0B70933C0B80933D0B4C
:101D100090933E0B9B01AC01C701B6010E946A3D46
:101D20006B017C01E894F7F82AE037ED43EA5BE3C6
:101D3000C701B6010E94474018164CF163C186E204
:101D4000682E8BE0782E00E010E0C201002E02C069
:101D5000959587950A94E2F780FF10C023E333E35B
:101D60004BEC51E4D3016D917D918D919C910E943A
:101D70008240F30160837183828393830F5F1F4FDF
:101D8000F4E06F0E711C03301105F9F67ECF20E0F0
:101D900030E040E05FE3C701B6010E9447401816FB
:101DA0000CF462CF2FE632E143E85AE3C501B401F7
:101DB0000E9482409B01AC01C701B6010E944740CE
:101DC00018160CF451CF1EC1552009F4B7CC209140
:101DD000440B3091450B4091460B5091470B60915D
:101DE000EF0A7091F00A8091F10A9091F20A0E9434
:101DF000443E811107C12091480B3091490B40911D
:101E00004A0B50914B0B6091F30A7091F40A809148
:101E1000F50A9091F60A0E94443E8111F3C0209188
:101E20004C0B30914D0B40914E0B50914F0B6091EC
:101E3000F70A7091F80A8091F90A9091FA0A0E94C3
:101E4000443E882309F410CFDDC028A12111DAC057
:101E5000C1018E7D9C7FD9C080911A0B8130B1F475
:101E600023E333E34BEC51E460913B0B70913C0B6B
:101E700080913D0B90913E0B0E94824060933B0B02
:101E800070933C0B80933D0B90933E0B40903B0B2B
:101E900050903C0B60903D0B70903E0B20E030E08A
:101EA00040E850E4C301B2010E948240A3019201C4
:101EB0000E9482402B013C01A7019601C701B60197
:101EC0000E9482409B01AC01C301B2010E946A3DA5
:101ED0002B013C01A5019401C501B4010E9482407F
:101EE0009B01AC01C301B2010E946A3D2B013C0180
:101EF00020E030E0A9010E94443E87FDF7C2C30103
:101F0000B2010E940F412B013C01A5019401C701C0
:101F1000B6010E94E41A9B01AC01C301B2019058C2
:101F20000E944B3E2B013C018091180B833021F421
:101F300077FA709477F8709480913B0B90913C0BFA
:101F4000A0913D0BB0913E0B89A39AA3ABA3BCA378
:101F500020E030E0A901BC01CD010E94443E87FF92
:101F600011C077FA709477F8709489A19AA1ABA107
:101F7000BCA1B05880933B0B90933C0BA0933D0BBE
:101F8000B0933E0B0DA11EA1000F111F000F111FDA
:101F9000055E144FA3019201C501B4010E94824065
:101FA0009B01AC01C701B6010E946A3D20E030E010
:101FB00040E05FE30E948240D8011B966D937D93C1
:101FC0008D939C931E970AA51BA5000F111F000F50
:101FD000111F055E144FA3019201C701B6010E94B3
:101FE00082409B01AC01C501B4010E946B3D20E021
:101FF00030E040E05FE30E948240F801638774872D
:1020000085879687C1018E7D907E892B09F068C2F5
:102010008091330B9091340BA091350BB091360B1E
:102020008093EB0A9093EC0AA093ED0AB093EE0A2A
:102030008091190B8093D90A8091220B9091230BE8
:10204000A091240BB091250B8093E60A9093E70AA8
:10205000A093E80AB093E90AC0903F0BD090400BE0
:10206000E090410BF090420BA70196016091E20ACB
:102070007091E30A8091E40A9091E50A0E94443E3F
:102080008823C1F08091E10A882321F0B701A601DD
:102090000E943D3080913F0B9091400BA091410BED
:1020A000B091420B8093E20A9093E30AA093E40A72
:1020B000B093E50A8091430B8093EA0A8091210B4B
:1020C0009091E10A981771F04091E20A5091E30A69
:1020D0006091E40A7091E50A0E943D308091210BE5
:1020E0008093E10A8091200B9091E00A981731F0DB
:1020F0000E940B078091200B8093E00A8091170BC0
:10210000813051F46091370B7091380B8091390B0D
:1021100090913A0B0E94C71880911C0B8093DC0AA7
:1021200080911A0B8093DA0A38A13330F9F4809148
:102130001D0B8093DD0A813089F480914C0B9091C6
:102140004D0BA0914E0BB0914F0B8093130B9093BE
:10215000140BA093150BB093160B08C01092130B21
:102160001092140B1092150B1092160B80911E0BEF
:102170009091DE0A981759F08093DE0A8CE0FE01F8
:102180003D96ABEFBAE001900D928A95E1F7809110
:102190001B0B8093DB0A8091170B90E0FC013297B8
:1021A000E830F10508F059C0E957FF4F0C949D4104
:1021B000BE016F5F7F4F8E8D0E94DE2A8091DE0A06
:1021C0009E8D89134AC08CE0FE013196ABEFBAE0D8
:1021D00028C0A8A1AA2381F0E090EB0AF090EC0AB5
:1021E0000091ED0A1091EE0A20E040E050E060E836
:1021F0007FEB84E49BE08FD4E090EB0AF090EC0A54
:102200000091ED0A1091EE0A20E040E050E060E815
:102210007FEBCE0101967FD48CE0FE013196AFEECC
:10222000BAE001900D928A95E1F717C06FEE7AE05F
:1022300086E003C06FEE7AE087E00E94DE2A0DC0E0
:102240008CE0E4E4FBE0A7E0BBE0EBCF8CE0E7E070
:10225000FBE0DF011D928A95E9F78091180B8093CE
:10226000D80A883009F4DFC0B8A1B23009F0DBC069
:1022700090E08830910508F0CDC0FC01E157FF4F98
:102280000C949D41E090EB0AF090EC0A0091ED0A6D
:102290001091EE0A20E040E050E060E87FEB12C0D1
:1022A000E090EB0AF090EC0A0091ED0A1091EE0A32
:1022B0004091E60A5091E70A6091E80A7091E90AB4
:1022C0002091D90A84E49BE026D4A4C0C090E60AF9
:1022D000D090E70AE090E80AF090E90A00913B0B01
:1022E00010913C0B20913D0B30913E0B8091EE0AFA
:1022F0008F938091ED0A8F938091EC0A8F93809158
:10230000EB0A8F9381E08F93E9A5EF93F8A5FF93F4
:1023100021C0C090E60AD090E70AE090E80AF09069
:10232000E90A00913B0B10913C0B20913D0B309141
:102330003E0B8091EE0A8F938091ED0A8F938091EE
:10234000EC0A8F938091EB0A8F931F9289A58F934C
:1023500098A59F938FA0A090D90A46E25BE064E421
:102360007BE08FEE9AE028D40FB6F894DEBF0FBE64
:10237000CDBF50C0A090EB0AB090EC0AC090ED0A1F
:10238000D090EE0A4091E60A5091E70A6091E80A7F
:102390007091E90AE12C12C0A090EB0AB090EC0A0F
:1023A000C090ED0AD090EE0A4091E60A5091E70AFB
:1023B0006091E80A7091E90AEE24E39400E025C0F8
:1023C000A090EB0AB090EC0AC090ED0AD090EE0A13
:1023D0004091E60A5091E70A6091E80A7091E90A93
:1023E000E12C12C0A090EB0AB090EC0AC090ED0A6C
:1023F000D090EE0A4091E60A5091E70A6091E80A0F
:102400007091E90AEE24E39401E02091D90A84E472
:102410009BE0EFD68CE0E4E4FBE0AFEEBAE00190A5
:102420000D928A95E1F780911F0B8093DF0A882334
:1024300009F458C00E942A259091DF0A8091510B1F
:10244000913041F4823079F188E00E94773C0E941B
:10245000712329C091E09093D80A1092DC0A10925F
:10246000DB0A1092D90A1092DE0A1092E10A109249
:10247000E00A8230A9F0BE01635F7F4F80E00E94D6
:10248000A12C882389F18CE0FE013D96ABEFBAE0E8
:1024900001900D928A95E1F70E946D2F0E94EB0644
:1024A00087E00E94B2251092DF0A1CC081E01FC0A5
:1024B00082E01DC088E11BC089E119C084E017C01B
:1024C0008BE115C085E213C084E111C08EE10FC01D
:1024D0008FE10DC086E10BC080E209C083E207C036
:1024E00084E205C080E003C087E001C082E2AB96D1
:1024F0000FB6F894DEBF0FBECDBFDF91CF911F9115
:102500000F91FF90EF90DF90CF90BF90AF909F9092
:102510008F907F906F905F904F903F902F90089595
:10252000EBE6F0E080818F788083E8E6F0E0808160
:102530008E7F8083089584B18F7884B985B1806758
:1025400085B98091350D83FF0BC080916B0080674A
:1025500080936B008091680081608093680008958B
:10256000DFCFCF92DF92FF920F931F93CF93DF9332
:102570001F92CDB7DEB793B190778091350D86FD70
:1025800002C080E798279923D9F0C12CD12CF12CD7
:1025900001E010E08C2D99830E94792E9981892386
:1025A00039F098010C2C01C0220F0A94EAF7F22AA4
:1025B0008FEFC81AD80AE3E0CE16D10459F701C04C
:1025C000F12C8F2D0F90DF91CF911F910F91FF90E4
:1025D000DF90CF9008951F920F920FB60F921124A3
:1025E0000BB60F922F933F934F935F936F937F930D
:1025F0008F939F93AF93BF93EF93FF938091510B72
:10260000813041F080912102811104C0D2D683E053
:102610000E948A3CFF91EF91BF91AF919F918F9162
:102620007F916F915F914F913F912F910F900BBED2
:102630000F900FBE0F901F9018952F923F924F92C0
:102640005F926F927F928F929F92AF92BF92CF9242
:10265000DF92EF92FF920F931F93CF93DF93CDB74B
:10266000DEB767970FB6F894DEBF0FBECDBF482E1A
:102670008091500B81119CC124E1A22E2DE0B22E3D
:102680009E01235F3F4F190100E010E0C12CD12CC7
:102690007601642C712C802F0E94652ED1018D93C0
:1026A0001D01C301002E02C0959587950A94E2F79B
:1026B00080FF1AC02DEC3CEC4CE85FEBF50160812B
:1026C0007181828193810E948240688B572E4C01D8
:1026D000262F372FAC01C701B6010E9447401816BC
:1026E0001CF0C888D52C74010F5F1F4FF4E0AF0EAB
:1026F000B11C0330110579F680903B0D90903C0D94
:10270000A0903D0DB0903E0D24E0288B55245394AD
:1027100065E57BE0CE0101960E945E3C2090360D7F
:10272000312CFE01319685E59BE09F8B8E8B80E0FE
:1027300090E000E010E0B701A60170589301082E68
:1027400002C0359527950A94E2F720FF28C00F5F55
:10275000AE89BF891D921D921D921C921397910103
:10276000082E02C0359527950A94E2F720FF03C092
:10277000552019F007C0552029F0C082D182E2828D
:10278000F38204C040835183628373832DE030E081
:102790002C0F3D1F280F391FD9012C91122B0196A8
:1027A00034962E893F892C5F3F4F3F8B2E8B833091
:1027B000910521F6602F70E080E090E00E94E43EF9
:1027C0000E940F419B01AC01C501B4010E948240EF
:1027D000AB01BC0110936E0B4A8B5B8B6C8B7D8BBA
:1027E0000E942E20CC24CA94DC2C760100E020E04C
:1027F0004A895B896C897D89CE0101960E94851C7E
:102800000E942B340E9464305520E1F0AADEFE01C4
:102810003D9620E030E090E06191462F412359F051
:10282000AC01022E02C0559547950A94E2F740FF8D
:1028300002C0609516232F5F3F4F2330310561F7AB
:1028400010936E0B0E942B3480912202847389F0C6
:1028500080912202807321F0ACD50E947123A8C020
:102860005110A1C07EDE8421B9F784E00E94803C33
:1028700004C0812F807E09F0C7CF0E941A33E5D7AC
:1028800080913F0D9091400D94D631E05326C9F0D0
:1028900020E030E040E251E46091410D7091420D42
:1028A0008091430D9091440D0E9482406B017C0108
:1028B0008090370D9090380DA090390DB0903A0D62
:1028C00010C0C090410DD090420DE090430DF090AB
:1028D000440D80903B0D90903C0DA0903D0DB0902C
:1028E0003E0D88898150888B811112CF8091360DE1
:1028F000A82FB0E0B98BA88BC090410DD090420DAD
:10290000E090430DF090440D1601270157FA5094C2
:1029100057F8509400EF1CE085E5882E8BE0982E48
:10292000A12CB12CC3010A2C02C0959587950A945D
:10293000E2F780FF29C0888999890A2C02C0959501
:1029400087950A94E2F7F80180FF0EC024A135A113
:1029500046A157A1C701B6010E946B3DD8012D9138
:102960003D914D915C9106C020813181428153811E
:10297000C201B1010E9482400E945240D4016D9375
:102980007D938D939C931397BFEFAB1ABB0AE4E042
:102990008E0E911C0C5F1F4FF3E0AF16B10411F6C1
:1029A0000E942E2005C08091220282FF5ECF54CF6C
:1029B00067960FB6F894DEBF0FBECDBFDF91CF9103
:1029C0001F910F91FF90EF90DF90CF90BF90AF904D
:1029D0009F908F907F906F905F904F903F902F903F
:1029E0000895BF92CF92DF92EF92FF920F931F93C1
:1029F000CF93DF938C01C4E1DDE0BB24B394F801F5
:102A0000C190D190E190F1908F0120E030E0A901D8
:102A1000C701B6010E94474018164CF02881398141
:102A20004A815B81C701B6010E94443E87FDB09296
:102A3000530B8091530B882309F18091510B803106
:102A400079F0B7D485E00E948A3CDF91CF911F9145
:102A50000F91FF90EF90DF90CF90BF900C94712377
:102A600088E00E94773C0E9471238091500B811175
:102A70000BC08091510B8111F6CFE3CF2496FDE07E
:102A8000C032DF0709F0BBCFDF91CF911F910F91CB
:102A9000FF90EF90DF90CF90BF9008950E940A2A98
:102AA0000E94462E0E942C060E9444330E94D83970
:102AB0008FE1E0E5FBE0DF011D928A95E9F781E017
:102AC0008093500B78948091350D84FF03C081E092
:102AD0008093510B0E94C92A0E94C9070E94592F56
:102AE0000E94F20628DD0E942A220E94B92EADD64D
:102AF0000E941A330E942E200E94DB071092500B76
:102B000010922202109221021092520B1092530B3B
:102B10000E94B224DFCF8F929F92BF92CF92DF921A
:102B2000EF92FF920F931F93CF93DF9300D01F92EA
:102B3000CDB7DEB74C01B22E670178018091350D1B
:102B400085FF0AC0C40149835A836B837C8349DFB4
:102B50007C816B815A8149818091510B8230E1F0F7
:102B600049835A836B837C830E9471238091500B2D
:102B7000811112C0C2D649815A816B817C81882320
:102B800039F00E94552249815A816B817C81E8CFBE
:102B900000E02B2DC401B9D60F900F900F900F902D
:102BA000DF91CF911F910F91FF90EF90DF90CF9029
:102BB000BF909F908F9008952F923F924F925F9277
:102BC0006F927F928F929F92AF92BF92CF92DF923D
:102BD000EF92FF920F931F93CF93DF93CDB7DEB7A2
:102BE000E7970FB6F894DEBF0FBECDBF9A8B898BE7
:102BF0001B013A0109871A872B873C87CB8ADC8A1D
:102C0000ED8AFE8AA98E24E0829E20011124840D83
:102C1000951D9B8F8A8FCA01840D951D9D8F8C8F6A
:102C2000DC018D909D90AD90BC90EA8DFB8D208154
:102C3000318142815381C501B4010E946B3D6E8F89
:102C40007F8F88A399A32E960FAD2E97F4E00F9F48
:102C50008001112429893A89200F311F3BA32AA31F
:102C6000C301800F911F9DA38CA3DC01CD90DD904B
:102C7000ED90FC90F9012081318142815381C7019F
:102C8000B6010E946B3D6EA37FA388A799A7D501CB
:102C9000C401B0588D839E83AF83B887D701C60126
:102CA000B05889839A83AB83BC83F101E40DF51D91
:102CB0002E8D3F8D48A159A16081718182819381C0
:102CC0000E946A3D6B017C01F101E00FF11F2EA112
:102CD0003FA148A559A560817181828193810E949D
:102CE0006A3D4B015C01A70196016D817E818F8158
:102CF00098850E9482402B013C01A50194016981C5
:102D00007A818B819C810E9482409B01AC01C3012E
:102D1000B2010E946B3D2B013C01A50194016D8124
:102D20007E818F8198850E9482404B015C01A701C2
:102D3000960169817A818B819C810E9482409B01EE
:102D4000AC01C501B4010E946A3DA30192010E9439
:102D5000DE3D6B017C0160968FAD6097882399F012
:102D60002DEB37E346E055EBC701B6010E94474023
:102D700087FD1DC02BED3FE049EC50E4C701B601D3
:102D80000E946A3D12C02DEB37E346E055E3C701D0
:102D9000B6010E94443E181654F02BED3FE049EC7A
:102DA00050E4C701B6010E946B3D6B017C0180902D
:102DB000290D90902A0DA0902B0DB0902C0D2985F7
:102DC0003A854B855C85CA01B9010E946B3DA5011E
:102DD00094010E946A3D9B01AC01C501B4010E94AF
:102DE00082400E940F414B015C0120E030E040E056
:102DF0005FE3C701B6010E94824029853A854B8571
:102E00005C850E9482409F77A50194010E944B3E01
:102E10000E94213F0E94B83E7BA76AA7DB01AB2B33
:102E200009F48FC14B01A12CB12CB98DBB2381F0CA
:102E3000C501B4010E94E43E9B01AC016B897C8911
:102E40008D899E890E9482406B8B7C8B8D8B9E8BA3
:102E5000C501B4010E94E43E4B015C019B01AC0141
:102E6000C701B6010E944B3E2B013C012F968FAD4E
:102E70002F97E4E08E9FC001112429893A89280FF9
:102E8000391F388F2F8BF101E80FF91FD9012D91D0
:102E90003D914D915C9160817181828193810E940D
:102EA0006A3DA50194010E944B3E6CAB7DAB8EAB9D
:102EB0009FABA3019201C301B2010E9482409B011A
:102EC000AC0160E070E080E090E40E946A3D6B013C
:102ED0007C012BEA3AEA4AE25EE3C301B2010E94B6
:102EE00082404B015C0120E030E040E850E4C70143
:102EF000B6010E946B3D9B01AC01C501B4010E946B
:102F000082406CA77DA78EA79FA720E030E040E01D
:102F10005FE3C701B6010E94824068AB79AB8AAB20
:102F20009BAB1D86E1E0F0E0FA87E98729853A85C9
:102F30008AA59BA52817390709F403C1FD85FC3034
:102F400008F04AC028A939A94AA95BA969817A81F0
:102F50008B819C810E9482406B017C012CA53DA548
:102F60004EA55FA56D817E818F8198850E948240EC
:102F7000A70196010E946B3DB62EA72E982E892E92
:102F800028A939A94AA95BA96D817E818F8198857D
:102F90000E9482406B017C012CA53DA54EA55FA53A
:102FA00069817A818B819C810E9482409B01AC0166
:102FB000C701B6010E946A3D6D837E838F83988727
:102FC0002D852F5F2D878B2D9A2DA92DB82D8983C7
:102FD0009A83AB83BC836BC0A985BA85BD0180E0B1
:102FE00090E00E94E43EA30192010E9482406B01A6
:102FF0007C010E94483E69837A838B839C83C7014E
:10300000B6010E9405414B015C01EC8DFD8DC08035
:10301000D180E280F380F7FAF094F7F8F094ACA155
:10302000BDA18D919D910D90BC91A02D8D879E8706
:10303000AF87B88B29813A814B815C81C701B6018A
:103040000E9482406D837E838F839887A5019401BF
:103050006D857E858F8598890E9482409B01AC0199
:103060006D817E818F8198850E946B3D6D837E830B
:103070008F839887A5019401C701B6010E94824001
:103080006B017C0129813A814B815C816D857E8554
:103090008F8598890E9482409B01AC01C701B601CF
:1030A0000E946A3D69837A838B839C831D862D8170
:1030B0003E814F8158856E8D7F8D88A199A10E9498
:1030C0006B3DEA8DFB8D60837183828393832981BD
:1030D0003A814B815C816EA17FA188A599A50E9450
:1030E0006B3DAAA1BBA16D937D938D939C93139788
:1030F0002CA93DA94EA95FA9EF89F88D6081718146
:10310000828193810E946B3DAF89B88D6D937D93D1
:103110008D939C9313976496ECACFDAC0EAD1FADF4
:103120006497298D4B895C896D897E8989899A8903
:10313000F2DC8091500B811111C0E985FA8531963E
:10314000F3CE6496ECACFDAC0EAD1FAD6497298D4B
:103150004B895C896D897E89C101DDDCE7960FB6FC
:10316000F894DEBF0FBECDBFDF91CF911F910F91BD
:10317000FF90EF90DF90CF90BF90AF909F908F9097
:103180007F906F905F904F903F902F900895CF93D6
:10319000DF9300D01F92CDB7DEB72091510B2230C4
:1031A00091F069837A838B839C830E942A2540E077
:1031B00069817A818B819C810F900F900F900F9085
:1031C000DF91CF91C6C10F900F900F900F90DF91BC
:1031D000CF910895A5D984E030DA83E02EDA0E94F9
:1031E00071238091500B811103C00E94DB07A3C99A
:1031F00008956F927F929F92AF92BF92CF92DF928B
:10320000EF92FF920F931F93CF93DF9300D01F9203
:103210001F92CDB7DEB73C019E2C8091510B8230BE
:1032200009F473C02D8349835A836B837C830E9486
:103230002A2510926D0B802F0E9418220E943622A0
:103240002D8149815A816B817C81882351F080E1F5
:103250000E948A3C0E9471237C816B815A81498142
:103260002D818091500B811150C086017501C301E1
:1032700052DC81E08093230282E00E94773C0E942E
:1032800071238091500B811140C08091510B8111AD
:10329000F6CF80912302813081F4992051F08CE0A7
:1032A000E5E5FBE0A1E6BBE001900D928A95E1F730
:1032B00007C080E10E948A3C03C081E080936D0BCF
:1032C000109223020E9471238091500B81111DC026
:1032D0000E941A33BAD2C2D665E57BE0C3010E94D0
:1032E0005E3C0F900F900F900F900F90DF91CF9159
:1032F0001F910F91FF90EF90DF90CF90BF90AF9014
:103300009F907F906F900C9439270F900F900F90A3
:103310000F900F90DF91CF911F910F91FF90EF9041
:10332000DF90CF90BF90AF909F907F906F90089567
:10333000CF92DF92EF92FF920F932091500B2111C9
:1033400032C03EEFC32EDD24DA94ED2CFD2C01E0DB
:10335000DCD29091540B8823E1F0892F8D7F886017
:103360008093540B0E948E330E942B340E94643051
:103370000E945C228091500B811115C08091540BEA
:1033800083FDF6CF0F91FF90EF90DF90CF900C94DC
:10339000D033977F9093540B0F91FF90EF90DF9075
:1033A000CF900C945C220F91FF90EF90DF90CF9024
:1033B00008958091220284FD19C080E10E94773C2B
:1033C0000E946D2F0E94EB069091510B892F8871FE
:1033D00021F48091540B8C7049F0983011F480E204
:1033E00001C088E00E948A3C0C94893008956F9255
:1033F0007F928F929F92AF92BF92CF92DF92EF9285
:10340000FF920F931F93CF93DF937C018B016A018F
:10341000FB018081F701E80FF11D2081EF012D32C2
:1034200029F4229621816624639407C02B3211F07F
:10343000219602C022962181612CA12CB12C712CE5
:1034400060E070E0CB01FE0130ED932E920E29E09A
:103450002915C8F0B39428E02B1588F0A1107A94B0
:10346000A5E0B0E09B01AC010E94B241660F771F5E
:10347000881F991F690D711D811D911D0BC0A11021
:1034800009C0739407C02EEF921207C0A11005C0A7
:10349000AA24A39421962081D6CFBB2009F449C049
:1034A0000E94E43E4B015C0120E030E0A9010E9453
:1034B000443E882361F18FEF78166CF42AE037EDF3
:1034C00043E25CE3C501B4010E9482404B015C0110
:1034D00073947394F0CF78120BC02DEC3CEC4CEC51
:1034E0005DE3C501B4010E9482404B015C010FC045
:1034F000772069F020E030E040E251E4C501B401FA
:103500000E9482404B015C017A9417149CF3662060
:1035100021F0B7FAB094B7F8B094F60180829182A6
:10352000A282B382CE19DF09C150F801C08381E0C5
:1035300001C080E0DF91CF911F910F91FF90EF903C
:10354000DF90CF90BF90AF909F908F907F906F90C3
:1035500008950F931F93CF93C42F20E030E040EAEB
:1035600051E40E9482400E94313E0E94B83E8B018D
:1035700001151105D1F08091500B811116C0C111B8
:1035800003C00E94712305C097D78091520B81FD23
:103590000CC02FEF80E792E0215080409040E1F78F
:1035A00000C0000001501109E3CFCF911F910F918E
:1035B0000895009741F0EFE9FFE03197F1F700C07F
:1035C00000000197F6CF08958F929F92AF92BF921D
:1035D000CF92DF92EF92FF9269017A019B01AC01D9
:1035E0000E9482404B015C01A7019601C701B60110
:1035F0000E9482409B01AC01C501B4010E946B3D59
:10360000FF90EF90DF90CF90BF90AF909F908F9002
:103610000C940F414F925F926F927F928F929F9284
:10362000AF92BF92CF92DF92EF92FF920F931F93D0
:10363000CF93DF9310914402111101C014E2115095
:1036400000914202101709F4EFC08DE2189FE001CB
:103650001124CA5BDD4F8D889E88AF88B88C69A124
:103660007AA18BA19CA19B01AC010E946B3D2DA175
:103670003EA14FA158A50E9482406B017C019B0195
:10368000AC01B401C5010E94443E87FF02C0640141
:103690007501A601B701498B5A8B6B8B7C8B11117D
:1036A00001C014E277247A94710E701619F02DE29D
:1036B000622E27C080914502081351C00E946A33D0
:1036C0004EC0679C800111240A5B1D4F711002C01F
:1036D00094E2792E7A9480914502781202C00E9479
:1036E0006A33F801C588D688E788F08CA70196016F
:1036F00061897289838994890E94443E811106C040
:10370000E801809142027812DCCF29C0F80161A162
:1037100072A183A194A19B01AC010E946B3DF801B1
:1037200025A136A147A150A50E94824029893A8946
:103730004B895C890E946B3D4B015C01A70196019E
:103740000E94443EF80187FF05C0818A928AA38ABD
:10375000B48AD6CFC18AD28AE38AF48AD1CF609064
:103760004202FDE26F9E800111240A5B1D4F772407
:103770007394760C84E2781201C0712C509044024C
:103780008DE2482E751409F44DC0479CE0011124C8
:10379000CA5BDD4FF80181889288A388B488C98804
:1037A000DA88EB88FC88A7019601C501B4010E9464
:1037B000443E87FF23C0F80161A172A183A194A1B7
:1037C0009B01AC010E946B3DF80125A136A147A1E8
:1037D00050A50E9482409B01AC01C501B4010E942A
:1037E0006B3D4B015C01A70196010E94443E87FF9F
:1037F00005C0898A9A8AAB8ABC8A672C2D893E8942
:103800004F89588D69897A898B899C890E94443EA9
:10381000811101C0672C7394F4E27F1201C0712CF6
:103820008E01B0CF60924202DF91CF911F910F9134
:10383000FF90EF90DF90CF90BF90AF909F908F90D0
:103840007F906F905F904F9008958CE1E6E2F2E0F8
:10385000DF011D928A95E9F7109245021092440209
:1038600081E08093430210924202089590914502B4
:1038700080914402891769F081E0890F843209F44C
:1038800080E020914202921302C080934202809312
:1038900045020895809144022DE2829FC0011124C7
:1038A0008A5B9D4F0895809145029091440298173C
:1038B00039F02DE2829FC00111248A5B9D4F08954B
:1038C00080E090E00895E0914502EF5FE43209F472
:1038D000E0E080914402E81761F08DE2E89FF0019A
:1038E0001124EA5BFD4F61897289838994890C9464
:1038F0000F4160E070E0CB01089581E02091450226
:1039000090914302291380E008952F923F924F92A5
:103910005F926F927F928F929F92AF92BF92CF925F
:10392000DF92EF92FF920F931F93CF93DF93CDB768
:10393000DEB7CC54D1090FB6F894DEBF0FBECDBFB1
:103940004DAB5EAB6FAB78AF722E24960FAF249762
:1039500020914402EDE22E9FA00111244A5B5D4FAD
:103960005CAB4BABFA01158616861786108A15A23A
:1039700016A217A210A6108249E956E766E97EE76B
:1039800041A352A363A374A3C1A6D2A6E3A6F4A63F
:103990002CE0002319F0E5E5FBE002C0E6E2F2E0EE
:1039A000DE01599601900D922A95E1F77C0100EF16
:1039B0001CE05E0125E2A20EB11CAE01475E5F4F26
:1039C0005AAF49AFCBA8DCA8CE010D964C01612CB3
:1039D000F70161917191819191917F01F8012081AD
:1039E0003181428153810E9482400E945240F50100
:1039F00061937193819391935F01E9ADFAAD219148
:103A0000319141915191FAAFE9AF621B730B840B75
:103A1000950B9B01AC0197FF07C022273327A90113
:103A2000261B370B480B590BF60121833283438346
:103A30005483EBA9FCA92584368447845088221539
:103A400033054405550510F4A2019101EBA9FCA929
:103A5000258736874787508B0E94E63EF8012081F4
:103A60003181428153810E944B3E1B012C01F401A4
:103A700061937193819391934F0120E030E0A9010C
:103A80000E94443E87FF10C0EBA9FCA99081862DBF
:103A90002D969FAF2D970E946F2E2D969FAD2D973F
:103AA000892BEBA9FCA98083A2019101C201B1017C
:103AB0000E948240EBA9FCA925A136A147A150A5EF
:103AC0000E946B3DEBA9FCA965A376A387A390A7F1
:103AD00063940C5F1F4FF4E0CF0ED11C23E0621201
:103AE00077CF0E940F416B017C01EBA9FCA965A374
:103AF00076A387A390A785859685A785B089892B0E
:103B00008A2B8B2B09F48DC220E030E0A9016DA92E
:103B10007EA98FA998AD0E94443E87FD21C07720E1
:103B200061F0A70196016DA97EA98FA998AD0E94A9
:103B300082406DAB7EAB8FAB98AF20E030E040E8C9
:103B40005FE36DA97EA98FA998AD0E94443E87FFCF
:103B50000FC01DAA1EAA50E85FAB8FE388AF08C054
:103B6000F9E9FDAB26E72EAB36E93FAB4EE748AFB0
:103B7000A701960160E070E080E89FE30E944B3E61
:103B80002A966CAF7DAF8EAF9FAF2A97E2E3F2E04B
:103B90002396FFAFEEAF23972CEF3CE021963FAF8B
:103BA0002EAF2197AE01475E5F4F5AAB49ABCE01B6
:103BB000019626969FAF8EAF2697FE013D96FAAFEF
:103BC000E9AF412C512C32014BAE5CAE6DAE7EAEF6
:103BD00029AD3AAD2C963FAF2EAF2C97F901C0809E
:103BE000D180E280F38020E030E0A901C701B60176
:103BF0000E94443E882309F47AC02A962CAD3DAD3C
:103C00004EAD5FAD2A97C701B6010E9482404B01BD
:103C10005C01E9ADFAAD6083718382839383EBA984
:103C2000FCA911A102A133A024A09B01AC01219603
:103C3000EEADFFAD219764857585868597850E94D9
:103C40004B3E6B017C01E894F7F8A7019601612FC8
:103C5000702F832D922D0E94443E87FD04C01C2DA1
:103C60000D2D3E2C2F2C812F902FA32DB22DEBA9A3
:103C7000FCA981A392A3A3A3B4A3A50194012196B7
:103C8000EEADFFAD219760817181828193810E94A9
:103C90004B3E6B017C01E894F7F8A70196016DA9F2
:103CA0007EA98FA998AD0E94443E87FF04C0CDA88D
:103CB000DEA8EFA8F8AC2396EEADFFAD23972081E8
:103CC000318142815381C501B4010E9482409B0130
:103CD000AC016BAD7CAD8DAD9EAD0E946A3D6BAF0E
:103CE0007CAF8DAF9EAFCDAADEAAEFAAF8AE29AD0C
:103CF0003AAD2C5F3F4F3AAF29AF2396EEADFFAD03
:103D0000239721913191419151912396FFAFEEAFCD
:103D100023972C96EEADFFAD2C9760817181828147
:103D200093810E946A3D2696EEADFFAD2697619382
:103D30007193819391932696FFAFEEAF26979B01E7
:103D4000AC010E9482409B01AC01C301B2010E9400
:103D50006B3D2B013C0121962EAD3FAD21972C5F91
:103D60003F4F21963FAF2EAF219749AD5AAD89A95C
:103D70009AA94817590709F02BCF909144028091D6
:103D80004502981729F024969FAD2497992339F07E
:103D9000EBA9FCA9118A128A138A148A0EC02FEE8D
:103DA0003FEF4FE75FE36BAD7CAD8DAD9EAD0E9405
:103DB000474018163CF4EBA9FCA9118E128E138E05
:103DC000148EB1C02FEE3FEF4FE75FEB6BAD7CADD4
:103DD0008DAD9EAD0E94443E87FF0BC089E996E7FA
:103DE000A6E9BEE7EBA9FCA9818F928FA38FB48FC0
:103DF0009AC0C301B2010E940F414B015C0138E03F
:103E0000432E3DE0532E9E01235F3F4F3AAB29AB3B
:103E1000AE014F5F5F4F1A0149E9742E06E716E9BC
:103E20005EE7652EF101C190D190E190F1901F0104
:103E300020E030E0A901C701B6010E94443E88237A
:103E4000F9F0F2012081318142815381C501B40131
:103E50000E948240A70196010E944B3E6B017C01AB
:103E6000E894F7F8A7019601672D702F812F962D02
:103E70000E94443E87FD04C07C2C0D2D1E2D6F2C0E
:103E8000F4E04F0E511C29A93AA92216330651F627
:103E90002BAD3CAD4DAD5EAD60E070E080E89FE3E2
:103EA0000E946A3D20E030E040E05FE30E948240F3
:103EB0000E940F416B017C012091250D3091260D50
:103EC0004091270D5091280D672D702F812F962D31
:103ED0000E948240A70196010E9482404B015C0132
:103EE000A701960160E070E080E89FE30E946A3DD0
:103EF0009B01AC01C501B4010E944B3E7B018C01CA
:103F000020E030E0A9010E94443E87FF04C0E12C7C
:103F1000F12C00E010E0A701B801EBA9FCA9418F4A
:103F2000528F638F748F2DA93EA94FA958AD6DA9EB
:103F30007EA98FA998AD0E948240162F072FF82ED8
:103F4000E92E862F902FAF2DBE2DEBA9FCA9858FD2
:103F5000968FA78FB0A3A18CB28CC38CD48C6090A9
:103F60003E0270903F028090400290904102930187
:103F7000A401612F702F8F2D9E2D0E94443E87FD3E
:103F80000BC09301A401B501C6010E94443E87FD08
:103F900011C0530164010EC0212F302F4F2D5E2D13
:103FA000B501C6010E94443E87FD04C0A12EB02E7B
:103FB000CF2CDE2CC501D601EBA9FCA9858B968BF5
:103FC000A78BB08F2496FFAD2497F1112CC08CE005
:103FD000FE013D96A2E3B2E001900D928A95E1F7D1
:103FE000812F902FAF2DBE2D80933E0290933F02E4
:103FF000A0934002B09341028CE0FE01B596A6E288
:10400000B2E001900D928A95E1F78091430280938E
:1040100044028F5F843209F480E080934302FADA2D
:1040200002C080E001C081E0C45BDF4F0FB6F894AE
:10403000DEBF0FBECDBFDF91CF911F910F91FF90DB
:10404000EF90DF90CF90BF90AF909F908F907F9038
:104050006F905F904F903F902F9008958091550BF7
:104060009091560BA091570BB091580B809326025C
:1040700090932702A0932802B09329028091590BB4
:1040800090915A0BA0915B0BB0915C0B80932A022C
:1040900090932B02A0932C02B0932D0280915D0B84
:1040A00090915E0BA0915F0BB091600B80932E02FC
:1040B00090932F02A0933002B09331020895809123
:1040C000440290914502891708F48C5D891B08957C
:1040D0000E946A3380914502809342029BCACF932B
:1040E000DF93EC018991882319F00E94202AFACFEE
:1040F000DF91CF910895CF93DF93FC018491EF017D
:104100002196882321F00E94202AFE01F7CFDF911B
:10411000CF910895EF92FF920F931F93CF93DF9368
:104120001F92CDB7DEB7262FEDB6FEB66DB77EB7C0
:10413000641B71090FB6F8947EBF0FBE6DBF0DB73B
:104140001EB70F5F1F4F302FF8019E2F931B941740
:1041500028F4622F0E946F419193F7CF442361F0BE
:10416000F801E40FF11D31978081805D49830E9441
:10417000202A49814150F2CF0FB6F894FEBE0FBEFF
:10418000EDBE0F90DF91CF911F910F91FF90EF90B7
:10419000089548E062E0BECF8A3020F0843620F4F3
:1041A00042E003C041E001C043E06AE0B3CFBF9208
:1041B000CF92DF92EF92FF920F931F93CF93DF93F3
:1041C000CDB7DEB72A970FB6F894DEBF0FBECDBFCE
:1041D000611571058105910591F480E32A960FB66A
:1041E000F894DEBF0FBECDBFDF91CF911F910F912D
:1041F000FF90EF90DF90CF90BF900C94202A20E0AA
:104200003AE0C32ED12CE12CF12CBB24B394B20E96
:1042100001E010E00C0F1D1F020F111DA7019601F8
:104220000E947B41F8016083B901CA0161157105E3
:104230008105910511F02B2DE8CFBB2049F0FE013F
:10424000EB0DF11D8081805D0E94202ABA94F5CF8C
:104250002A960FB6F894DEBF0FBECDBFDF91CF9187
:104260001F910F91FF90EF90DF90CF90BF90089536
:10427000CF92DF92EF92FF926B017C0197FF0AC011
:104280008DE20E94202A66277727CB016C197D09D1
:104290008E099F09FF90EF90DF90CF9088CF8F928B
:1042A0009F92AF92BF92CF92DF92EF92FF920F93C5
:1042B0001F93CF93DF93CDB7DEB72A970FB6F8944D
:1042C000DEBF0FBECDBF6B017C01142F20E030E0BC
:1042D000A9010E94443E87FF07C08DE20E94202A68
:1042E000F7FAF094F7F8F094012F023060F020E034
:1042F00030E048EC52E4C701B6010E9482406B01F5
:104300007C010250F2CF10FF0AC020E030E040E212
:1043100051E4C701B6010E9482406B017C0120E09C
:1043200030E040E05FE3C701B6010E946B3D0E94B0
:10433000B33EE1E0F0E0EC0FFD1FE10FF11D2EE2D6
:104340002083D12C5AE0852E912CA12CB12C611503
:10435000710581059105A9F0D11201C0D394EE2415
:10436000E394F12CEC0EFD1EED0CF11CA501940163
:104370000E947B41605DF7016083B901CA01D3945B
:10438000E6CF80E3D11648F4E1E0F0E0EC0FFD1F4A
:10439000ED0DF11D8083D394F5CF8D2DD1120BC07F
:1043A000D394D3948F5FE1E0F0E0EC0FFD1FE80FB2
:1043B000F11D80E38083DD2041F0FE01ED0DF11D54
:1043C00080810E94202ADA94F6CF2A960FB6F894BC
:1043D000DEBF0FBECDBFDF91CF911F910F91FF9038
:1043E000EF90DF90CF90BF90AF909F908F90089507
:1043F0002091350D20FF08C02BE832E441E25DE357
:104400000E94824044E001C043E049CF2091350D35
:1044100020FF08C02BE832E441E25DE30E948240C5
:1044200041E001C040E03BCF43E039CF40E037CF2F
:1044300010926F0B9091350D97FD03C098E090930B
:104440006F0B882331F080916F0B98E08927809360
:104450006F0B0895E7E0F1E08081877F8083E8E0DB
:10446000F1E080818860808380E0E2CF8091060166
:10447000887090916F0B8927089580912302813075
:1044800099F4F4DF882381F0109223028CE0E5E5B3
:10449000FBE0A1E6BBE001900D928A95E1F78091E7
:1044A00022028064809322020895FDD9892B19F09D
:1044B00082E00C94773C0895CF93DF93C091210262
:1044C000CC2329F181E08093510BC1FD0FC0C2FFC5
:1044D00002C082E00BC0C3FF02C083E007C0C4FF7C
:1044E00002C084E003C0C5FF02C085E014D3C0FD54
:1044F00004C08FEF0E94933C0AC081E033D380E177
:104500000E94803C8091220284FFFCCFF2CFC091B8
:104510002202CC2309F4DAC0C4FF04C081E08093F6
:10452000500BDCC0C0FF04C021D681E00E94803C5B
:104530008C2F887E09F46AC08091510B982F93705C
:1045400009F061C0DC2FD072803169F40E946A33B7
:1045500084E08093540BDD2331F040E060E080E0A4
:1045600092E00E941C058091510B811106C091E0E0
:104570009093520B92E09093540BC6FF0AC0803187
:1045800019F484E08093510B8091520B80648093E6
:10459000520BC3FF07C08091510B807C19F480E25D
:1045A0008093510BDD2351F186E0DCD28091510BD9
:1045B0008034C1F48091520B83FF14C08091540B5E
:1045C00083FF0AC00E946A338CE08093540B809171
:1045D000520B8E7F8093520B8091520B837E8260B0
:1045E0008093520B8091520B80628093520B80918A
:1045F000510B803819F080E48093510BC7FF03C042
:1046000080E88093510B88EE0E94803CC1FF3FC040
:104610008C2F8876C9F58091510B803471F480918C
:10462000520B85FD0AC084FF03C01092510B05C0D8
:1046300082FF03C088608093520B8091510B8823C6
:1046400031F0847209F18091520B80FF1DC01092ED
:10465000540B29D9892B71F08091520B86FD0AC029
:104660001092520B80E18093510B0E942B340E94D8
:10467000643004C01092520B1092510B43E06FEF64
:1046800082E192E00E941C0582E00E94803CC2FF11
:104690001DC08091510B807E91F08091530B811150
:1046A0000EC016DD9091540B92FF05C08091520B05
:1046B00081608093520B937F9093540B04C01092AF
:1046C000520B1092510B84E00E94803C8091510B60
:1046D0008C7F21F0DF91CF910C942B34DF91CF911F
:1046E00008958F929F92AF92BF92CF92DF92EF92F6
:1046F000FF921F93CF93DF93CDB7DEB768970FB6C6
:10470000F894DEBF0FBECDBFD7DE8091520B882359
:1047100009F416C1C12CD12C90EAE92E90E4F92EAF
:104720001CE08091520B882309F40AC19091500B30
:10473000911106C19091510B292F207C09F4FCC0E6
:1047400080FFFAC082FD7DC065E57BE0CE01019669
:104750000E945E3C8091520B81FD21C0FE0131968A
:10476000DE011D96812F01900D928A95E1F72D892A
:104770003E894F89588DC701B6010E946B3D6B0180
:104780007C0120E030E040EA50EC0E94443E87FD8E
:1047900006C0C12CD12C80EAE82E80ECF82E809146
:1047A000350D84FF43C089849A84AB84BC8420E0A7
:1047B00030E040EA50ECC501B4010E94443E87FF5E
:1047C00035C0A7019601C501B4010E94443E87FF90
:1047D0000CC0C986DA86EB86FC8640E050E06AEFC2
:1047E00073E4CE0101960E9498190E946D2F0E94D9
:1047F000EB0620E030E040EA50EC69857A858B8555
:104800009C850E94443E87FF15C080E090E0A0EAAE
:10481000B0EC89879A87AB87BC8740E050E060E8BE
:104820007FEBCE0101960E94981904C00E946D2F63
:104830000E94EB068091520B8D7F84608093520B17
:104840007BC09034A9F40E94373A811111C0809145
:10485000520B85FF08C041E050E068E270E082E161
:1048600092E00E9421058091520B8F7D8093520B24
:104870008091520B83FF60C08091350D84FF18C07A
:1048800020E030E040EA50EC69857A858B859C8594
:104890000E94443E181664F0C986DA86EB86FC86D0
:1048A00040E050E060E87FEBCE0101960E9498194D
:1048B0008091E10A8823A9F09091520B91FD11C0DB
:1048C0004091E20A5091E30A6091E40A7091E50A8E
:1048D0000E948B2F41E060E070E080E89FE30E943F
:1048E000A91A8091E00A882369F09091520B91FDFA
:1048F00009C00E94F90641E060E070E080E89FE3B3
:104900000E94A91A8091350D84FF0CC08091520B32
:1049100081FD08C040E050E06AEF73E4CE010D96DF
:104920000E9498198091520B81FD06C0806180938E
:10493000520B82E00E94773C0E94DC2EBDDDF1CE5E
:1049400068960FB6F894DEBF0FBECDBFDF91CF9152
:104950001F91FF90EF90DF90CF90BF90AF909F900E
:104960008F900895CF93DF932CD18091510B81309C
:1049700019F482E0F7D02CC01092510B0E94373A04
:10498000882331F080912202806280932202A9DE86
:104990008AE998E00E943A3A1BC08D3059F0CC2346
:1049A00081F1893209F4CD7F95D58F3F09F446C056
:1049B0008A3099F796DE8091500B811148C0ED2F17
:1049C000F0E0E656F74F1082C0FF05C08BE051D0F3
:1049D000D0E0C0E0E9CF80919A088823C1F3843207
:1049E00029F48AE998E00E94593AF1CF8091510B5D
:1049F000813011F489E0EBCF8AE998E00E94E10769
:104A0000E6CF813288F28F3279F2883289F08B33A7
:104A100089F0DF3F89F02D2F30E0DF5F9FE9980FAD
:104A2000F901E656F74F9A3108F480528083BCCFE3
:104A3000C2E0BACFC4E0B8CFC1E0B6CF36DD51DEB8
:104A40008091500B811103C00E94DC2EADCFDF910D
:104A5000CF9108952ADD45DE8091500B811108C069
:104A60000E94531C892BB9F78091510B803199F327
:104A70000895CF93C82F811103C083EC99E049C0FA
:104A80008BEB99E038DB4C2F50E0FA013197E6319F
:104A9000F105C0F5E956FF4F0C949D4183EA99E07A
:104AA00002C081E999E027DB32C08FE799E0FBCFB4
:104AB00085E799E0F8CF84E699E0F5CF85E599E0C0
:104AC000F2CF84E399E0EFCF8BE299E0ECCF80E284
:104AD00099E0E9CF8DE099E0E6CF8FEF98E0E3CF62
:104AE0008DEE98E0E0CF82EE98E0DDCF8DEC98E09F
:104AF000DACF87EB98E0D7CF83EA98E0D4CF8FE87E
:104B000098E0D1CF8DE798E0F6DA8C2F45DB8AE785
:104B100098E0CF91F0CACF93C82F82E798E0EBDA04
:104B2000C33091F03CF4C13061F0C23099F48CE5AF
:104B300098E00FC0C43059F0C53061F482E398E0CA
:104B400008C087E698E005C089E498E002C08EE3DB
:104B500098E0D1DA8FE298E0CEDA84EF91E0CF915D
:104B60000C94D91ACF93C82F8DE298E0C4DA8C2F19
:104B700090E0FC013197E930F105F8F4E355FF4F7F
:104B80000C949D418BE198E017C087E098E014C039
:104B900085EF97E011C08DEE97E00EC084EE97E0B0
:104BA0000BC089ED97E008C081ED97E005C08EEB62
:104BB00097E002C083EB97E09EDA8FEA97E0CF910F
:104BC0009ACA8EE897E097CA8AE496E094CAFF9260
:104BD0000F931F93CF93DF9386E496E08CDA809156
:104BE000200DDADA8DE296E086DA8091230DD4DAB0
:104BF0008FE096E080DA8091210DCEDA86EF95E0A5
:104C00007ADA8091210DC5DA8FEE95E074DA809121
:104C1000220DC2DA87ED95E06EDA8091220DB9DAC5
:104C200080ED95E068DA8091350D82FB882780F968
:104C3000B3DA8FEA95E05FDA8091350D86FB88273D
:104C400080F9AADA8FE895E056DA8091350D881F51
:104C50008827881FA1DA8FE695E04DDA8091240D30
:104C60009BDA89E595E047DA8091240D92DA81E5B7
:104C700095E041DA6091250D7091260D8091270D08
:104C80009091280DD1DB81E395E035DA6091290D13
:104C900070912A0D80912B0D90912C0DC5DB86E132
:104CA00095E029DA8091350D817076DA89EF94E00C
:104CB00022DA8091350D85FB882780F96DDA8EED3B
:104CC00094E019DA8091350D83FB882780F964DA46
:104CD00083EC94E010DA8091350D829581705CDA76
:104CE00087EA94E008DA8091360D56DA8DE894E090
:104CF00002DA8091360D4DDA85E894E0FCD96091B6
:104D0000370D7091380D8091390D90913A0D8CDBF3
:104D100088E694E0F0D960913B0D70913C0D809154
:104D20003D0D90913E0D80DB8BE494E0E4D98091C1
:104D30003F0D32DA8CE294E0DED96091410D709142
:104D4000420D8091430D9091440D6EDB8FE094E015
:104D5000D2D960912D0D70912E0D80912F0D9091D3
:104D6000300D64DB8EEF93E0C6D96091310D709108
:104D7000320D8091330D9091340D58DB81EF93E02B
:104D8000BAD98CEE93E0B7D96091450D7091460D7C
:104D90008091470D9091480D42E081DA89ED93E0D2
:104DA000AAD984E6F82E10E0C0EFDCE000E087ED41
:104DB00093E0A1D9802F8F0DEFD985ED93E09BD99A
:104DC000123071F01330B9F0113029F06881798117
:104DD0008A819B8117C06C857D858E859F8512C0D9
:104DE00020E030E041E655E4688D798D8A8D9B8D19
:104DF0000E944B3E07C08CA19DA1AEA1BFA1BC01EA
:104E0000CD01905811DB82ED93E075D9013029F086
:104E1000023031F080ED93E005C08EEC93E002C0EB
:104E20008CEC93E068D9123051F0133059F0113006
:104E300019F082EC93E008C080EB93E005C08FE9A5
:104E400093E002C08FE893E056D98BE893E053D902
:104E50000F5F2496033009F0AACF8AE0F80E1F5F97
:104E60008CE8F812A1CFDF91CF911F910F91FF90A5
:104E70000895CF9385E893E03ED9C0E06C2F81E69A
:104E80009BE00E94463CB4DAC23019F083E893E01C
:104E900032D9CF5FC33091F781E893E02CD980916C
:104EA0006D0B7AD98DE793E0CF9125C9EF92FF92F0
:104EB0000F931F93CF93DF93CDB7DEB72C970FB629
:104EC000F894DEBF0FBECDBFF12CBE016F5F7F4FE8
:104ED0008F2D37D5811103C087E0CBDD5CC08AE719
:104EE00093E009D986E0F81631F0E7E0FE1207C03A
:104EF00084E793E002C087E793E0FDD803C086E330
:104F00008F0D4AD982E793E0F6D88E010F5F1F4FCD
:104F1000E12CF80161917191819191918F0168DA91
:104F2000F2E0EF1619F080E793E002C08CE693E020
:104F3000E2D8E39483E0E812ECCFF394E8E0FE12C9
:104F4000C4CF86E693E0D7D807E01BE0F12CF80148
:104F500061917191819191918F014ADAF2E0FF168E
:104F600019F084E693E002C080E693E0C4D8F3949D
:104F700083E0F812ECCF8AE593E0BDD86091130B83
:104F80007091140B8091150B9091160B31DA86E518
:104F900093E0B1D86EDF2C960FB6F894DEBF0FBE4B
:104FA000CDBFDF91CF911F910F91FF90EF900895AA
:104FB00084E593E0A0D88091D80A823091F038F44B
:104FC000882361F08130A1F48EE493E00CC083303B
:104FD00061F0883069F484E493E005C081E593E0F2
:104FE00002C08BE493E087D80AC088E493E0FBCF4B
:104FF0008FE393E080D88091D80A8250CDD88CE39B
:1050000093E079D88091DE0A8A5CC6D88091DC0A68
:10501000813049F028F0823049F48DE293E005C0F8
:1050200087E393E002C082E393E065D88091DA0AD7
:10503000811103C088E293E002C083E293E05BD871
:105040008091DB0A811103C08EE193E002C089E107
:1050500093E051D88091D90A813019F484E193E02A
:1050600002C08FE093E047D88091DF0A813049F099
:1050700028F0823049F483E093E005C08BE093E0B0
:1050800002C087E093E037D88091E10A813031F0A7
:1050900040F0823049F48BEF92E005C08FEF92E050
:1050A00002C087EF92E027D88091E00A813049F072
:1050B00028F0823049F48FEE92E005C083EF92E051
:1050C00002C08BEE92E017D888EE92E014D880915F
:1050D000EA0A62D885EE92E00ED86091E60A7091F5
:1050E000E70A8091E80A9091E90A90D982EE92E06D
:1050F00002D86091E20A7091E30A8091E40A9091EB
:10510000E50A94D98EED92E00C947B201F93CF9307
:10511000DF93182FEB018BED92E00E947B20812F13
:105120003BD889ED92E00E947B20CE010E946F2047
:1051300086ED92E0DF91CF911F910C947B20CF936D
:10514000DF93EC0185EC92E00E947B20CE010E946F
:105150006F208FEB92E00E947B2080911D021CD873
:105160008BEB92E0DF91CF910C947B20BF92CF929A
:10517000DF92EF92FF920F931F93CF93DF93CDB700
:10518000DEB768970FB6F894DEBF0FBECDBF8CE0D8
:10519000E5E5FBE0DE011D9601900D928A95E1F7B1
:1051A0008091510B8830F9F040F48130F9F090F0A3
:1051B0008230F9F0843089F02FC0803289F018F401
:1051C000803159F029C08034B9F0803829F58DE755
:1051D00092E020C085EB92E01DC080EB92E01AC007
:1051E0008AEA92E017C084EA92E014C08DE992E066
:1051F00011C086E992E00EC08091520B82FD03C07F
:1052000080E992E007C085FF03C08AE892E002C00F
:1052100084E892E00E947B208091240D837039F015
:10522000BE01635F7F4FCE0101960E945E3C80917C
:10523000240D80FD05C08091240D81FF69C01CC034
:1052400086E792E00E947B2069817A818B819C8134
:10525000CFD884E792E00E947B206D817E818F8190
:105260009885C6D884E792E00E947B2069857A857C
:105270008B859C85BDD8DFCF8DE692E00E947B2098
:105280009BEFE92E9AE0F92E8E010F5F1F4FB12C94
:105290006801F70161917191819191917F01208560
:1052A0003185428553850E946B3D9B01AC01F8011D
:1052B00060817181828193810E946A3DF8016083DF
:1052C000718382839383F2E0BF120FC02091130B8E
:1052D0003091140B4091150B5091160B0E946A3DB2
:1052E000F80160837183828393830C5F1F4FF60103
:1052F00060817181828193817BD8F2E0BF1621F0B9
:105300008BE692E00E947B20B39423E0B212C0CFE0
:105310008091240D82FF08C085E692E00E947B20E8
:105320000E945F200E94CC208091240D83FF07C043
:1053300080E692E00E947B2067D00E94CC20809182
:10534000240D807771F18AE592E00E947B208091A4
:10535000240D84FF06C00E94B11243E062E00E9467
:105360008A2088E592E00E947B208091240D85FFB1
:105370000AC07CD8882319F086E592E002C084E553
:1053800092E00E947B2082E592E00E947B20809147
:10539000240D86FF06C00E94ED3944E062E00E94C1
:1053A0008A208091240D87FF1BC08EE492E00E942A
:1053B0007B2060911B0270911C0280E090E00E94B3
:1053C000E43E2AE037ED43E250E40E94824020E0D0
:1053D00030EC4FE754E40E944B3E42E00E944F21E4
:1053E0008AE492E00E947B2068960FB6F894DEBFB4
:1053F0000FBECDBFDF91CF911F910F91FF90EF9026
:10540000DF90CF90BF90089590919C0980919D0965
:10541000891B0895E0ECF0E0808182608083109227
:10542000C50080E18093C400E1ECF0E08081806100
:1054300080838081886080838081806880830895F4
:10544000E0919B0991E09E0F903809F490E0209143
:105450009A09921305C02091220224FFF8CF0895E3
:10546000F0E0E059F44F808390939B098091C10054
:1054700080628093C10008951F920F920FB60F9221
:1054800011240BB60F928F939F93EF93FF9380910C
:105490009A09E82FF0E0E059F44F90819093C6000C
:1054A0008F5F803809F480E080939A0990919B097E
:1054B000891305C08091C1008F7D8093C100FF9149
:1054C000EF919F918F910F900BBE0F900FBE0F9099
:1054D0001F90189590919C0980919D09891749F01A
:1054E000E92FF0E0E051F44F80819F5F90939C0999
:1054F00008958FEF08951F920F920FB60F92112407
:105500000BB60F922F933F934F935F936F937F93BD
:105510008F939F93AF93BF93EF93FF938091C600B8
:105520008F3369F030F4883181F0813289F488E07A
:1055300009C0803431F08E3759F482E003C081E035
:1055400001C080E20E94773C11C00E94D9190EC0B0
:10555000E0919D0991E09E0F20919C09921731F0F6
:10556000F0E0E051F44F808390939D09FF91EF911B
:10557000BF91AF919F918F917F916F915F914F916B
:105580003F912F910F900BBE0F900FBE0F901F9069
:10559000189580919D0980939C09089521E5829F2B
:1055A000C001112440E550E09D5F0C944A0740E59E
:1055B00050E0BC018EEA93E00C944A072DE0829FF4
:1055C000C00111244CE050E09E5F0C944A076BE050
:1055D00080E090E00E94280749E550E060EF7CE021
:1055E00081E090E00C944A07AF92BF92CF92DF9295
:1055F000EF92FF920F931F93CF93DF93CDB7DEB758
:105600002C970FB6F894DEBF0FBECDBF182F80FFCA
:10561000FFC08AE08093200D8FEF8093230D1092BE
:10562000210D1092220D23E02093240D8AE097EDA6
:10563000A3EABCE38093250D9093260DA093270D3C
:10564000B093280D8FE692E1A3E0BBE38093290D90
:1056500090932A0DA0932B0DB0932C0D80E090E831
:10566000ABE3B6E480932D0D90932E0DA0932F0DF8
:10567000B093300D1092310D1092320D1092330D07
:105680001092340D2093360D80E090E0A6E9B2E44C
:105690008093370D9093380DA093390DB0933A0D48
:1056A00080E090E8ABEBB4E480933B0D90933C0D2D
:1056B000A0933D0DB0933E0D8AEF90E09093400D86
:1056C00080933F0D80E090E0A0E8B0E48093410D2E
:1056D0009093420DA093430DB093440D80E18093CD
:1056E000350D8BE297ECA1EBB2E48093F00C909334
:1056F000F10CA093F20CB093F30C8093F40C909304
:10570000F50CA093F60CB093F70C8EE492EFACEB93
:10571000B3E48093F80C9093F90CA093FA0CB09337
:10572000FB0C40E050E46CE975E44093FC0C5093B2
:10573000FD0C6093FE0C7093FF0C4093000D509392
:10574000010D6093020D7093030D80E090E0A8E4DA
:10575000B4E48093040D9093050DA093060DB093CF
:10576000070D40E05AEB6BED79E44093080D509340
:10577000090D60930A0D70930B0D40930C0D50931F
:105780000D0D60930E0D70930F0D80E090EFA2E56C
:10579000B8E48093100D9093110DA093120DB09367
:1057A000130D80E090E0A6E9B3EC8093140D909384
:1057B000150DA093160DB093170D83E393E3ABE49F
:1057C000B3EC8093180D9093190DA0931A0DB0931C
:1057D0001B0D80E090E0A0EAB2EC80931C0D90934A
:1057E0001D0DA0931E0DB0931F0D8DEC9CECACE82D
:1057F000BFE38093450D9093460DA093470DB09362
:10580000480D81E090E090931A0280931902DFDE48
:1058100011FF43C0CE0101965C018CE0F5011192AD
:105820008A95E9F700E0B501802FC8DE0F5F0830E8
:10583000D1F780E090E4ADE8B3EC89839A83AB8341
:10584000BC8380E090E8A7E4B3EC8D839E83AF83B4
:10585000B887C12CD12C80E8E82E8FEBF82EC986B2
:10586000DA86EB86FC86B50186E0A8DE80E090E073
:10587000A6E1B3EC89839A83AB83BC8380E090E09C
:10588000A0E2B1EC8D839E83AF83B887C986DA86A8
:10589000EB86FC86B50187E091DE12FF0AC060E06E
:1058A00080E093E00E94280760E081E593E00E9499
:1058B000280713FF05C060E08EEA93E00E942807E6
:1058C0002C960FB6F894DEBF0FBECDBFDF91CF91FF
:1058D0001F910F91FF90EF90DF90CF90BF90AF900E
:1058E00008951F93CF93DF93182FEB0181E5189F45
:1058F000B00111247D5F40E550E0CE010E94860793
:10590000892B31F41882BE01812F48DE80E001C06E
:1059100081E0DF91CF911F910895CF93DF93EC0148
:1059200040E550E06EEA73E00E948607892B29F477
:105930001882CE013CDE80E001C081E0DF91CF9192
:1059400008951F93CF93DF93182FEB018DE0189FDD
:10595000B00111247E5F4CE050E0CE010E9486072A
:10596000892B51F48CE0FE0111928A95E9F7BE0172
:10597000812F24DE80E001C081E0DF91CF911F9173
:10598000089580E090E00E9420078B3059F449E5AB
:1059900050E061E070E080EF9CE00E94860721E02B
:1059A000892B09F420E0822F0895CF92DF92EF92A5
:1059B000FF92CF93DF93C82F6A017B0120E030E094
:1059C000A901C701B6010E94443E87FD4FC1C436FC
:1059D00008F478C0C45680E0C33008F06AC0D0E054
:1059E000823009F43EC0833009F454C0FE01EE0F4A
:1059F000FF1FEE0FFF1F8130D1F0E450F34F2081E5
:105A0000318142815381C701B6010E94824020E06A
:105A10003AEB4BED59E40E94474018160CF428C1AC
:105A2000CC0FDD1FCC0FDD1FC051D34F3DC0E05167
:105A3000F34F2081318142815381C701B6010E9419
:105A4000824020E03AEB4BED59E40E9447401816A3
:105A50000CF40EC1CC0FDD1FCC0FDD1FC450D34F93
:105A600023C0CC0FDD1FCC0FDD1FC85FD24F20E05D
:105A700030E040E752E4C701B6010E94824020E0D6
:105A800030E040E752E40E948240688379838A8351
:105A90009B83E9C0CC0FDD1FCC0FDD1FCC5ED24F46
:105AA000F7FAF094F7F8F094C882D982EA82FB8280
:105AB000DAC08F5FCA3008F4DDC0843009F4DAC080
:105AC000CA508ACFC701B6010E9450410E94B83E19
:105AD0008C2F90E08333910508F0CCC0FC01EA5490
