:1000000091C40000A3C40000A1C400009FC400006C
:100010009DC400009BC4000099C4000097C4000068
:1000200095C400000C94471191C400000C94B9359C
:100030008DC400008BC4000089C4000087C4000088
:1000400085C400000C94712C81C400007FC40000A2
:100050007DC400007BC4000079C400000C948D2E88
:1000600075C400000C9450270C940E276FC4000038
:100070006DC400006BC4000069C4000067C40000C8
:1000800065C4000063C4000061C400005FC40000D8
:100090005DC400005BC4000059C4000057C40000E8
:1000A00055C4000053C4000051C400004FC40000F8
:1000B0004DC400004BC4000049C40000E5C400006A
:1000C00045C4000043C4000041C400003FC4000018
:1000D0003DC400003BC4000039C4000037C4000028
:1000E00035C40000E208C010C010EC08F908060989
:1000F0001309C0101709C0102509C0102F093909AC
:100100006A09C010C010C010430950095D09890F69
:100110009A0FB70F9A0FBB0FCE0FC10FC70FE30F88
:10012000E90FF70F0E1031103B10471051107D22D0
:100130008022842287228A228D2290229322962254
:1001400099229C22AB229F22AB22AB22AB22AB2274
:10015000AB22AB22A522A222A822EB22EE22F12280
:10016000F422F722FA22FD2200231C2A222A252A21
:10017000282A2C2A342A3E2ABB2ABB2ABB2A462AF2
:10018000492A522A5B2ABB2ABB2ABB2ABB2ABB2A82
:10019000BB2A632A6D2A792A812A842A8D2A962AE3
:1001A0009C2ABB2ABB2AA52AAE2A084AD73B3BCEAB
:1001B000016E84BCBFFDC12F3D6C74319ABD568366
:1001C0003DDA3D00C77F11BED9E4BB4C3E916BAA1E
:1001D000AABE000000803F05A84CCDB2D44EB9386D
:1001E00036A9020C50B9918688083CA6AAAA2ABE54
:1001F000000000803F007D0D0A002C5072623A0022
:100200002C4C696D3A0043746C3A007B53773A008A
:100210003E0D0A007C00300031007C002C50696EDD
:100220003A002C52583A002C4275663A002C002CA9
:1002300057506F733A002C002C4D506F733A003CAE
:10024000446F6F72003C436865636B003C416C61B6
:10025000726D003C486F6D65003C486F6C64003CFB
:1002600052756E003C49646C65005D0D0A005B319F
:100270002E312E352E32303135313231363A000DB5
:100280000A003D00244E005D0D0A00205300204668
:1002900000205400204D3800204D3900204D3500FD
:1002A000204D3400204D3300204D3200204D3100D0
:1002B000204D300020473934002047393300204793
:1002C0003931002047393000204732300020473292
:1002D000310020473139002047313800204731377D
:1002E000002047004733382E00473830004733009E
:1002F0004732004731004730005B005D0D0A005B6C
:10030000544C4F3A005D0D0A002C005B4739323ADD
:10031000005D0D0A002C003A003330003238005BDB
:1003200047005D0D0A003A002C005B5052423A0033
:10033000290D0A00206D61782074726176656C2C3D
:10034000206D6D0020616363656C2C206D6D2F73D3
:1003500065635E3200206D617820726174652C20C7
:100360006D6D2F6D696E002C20737465702F6D6D2F
:10037000007A00790078002028003D002400202821
:1003800072706D206D696E290D0A00202872706DE3
:10039000206D6178290D0A2433313D002028686FD3
:1003A0006D696E672070756C6C2D6F66662C206DA4
:1003B0006D290D0A2433303D002028686F6D696E69
:1003C00067206465626F756E63652C206D7365636D
:1003D000290D0A2432373D002028686F6D696E6749
:1003E000207365656B2C206D6D2F6D696E290D0A6C
:1003F0002432363D002028686F6D696E672066657F
:1004000065642C206D6D2F6D696E290D0A243235BF
:100410003D00290D0A2432343D002028686F6D69A3
:100420006E672064697220696E76657274206D61F2
:10043000736B3A002028686F6D696E67206379637B
:100440006C652C20626F6F6C290D0A2432333D00DD
:10045000202868617264206C696D6974732C206255
:100460006F6F6C290D0A2432323D002028736F66AD
:1004700074206C696D6974732C20626F6F6C290D28
:100480000A2432313D0020287265706F7274206931
:100490006E636865732C20626F6F6C290D0A2432BD
:1004A000303D00202861726320746F6C6572616E4C
:1004B00063652C206D6D290D0A2431333D00202801
:1004C0006A756E6374696F6E2064657669617469BC
:1004D0006F6E2C206D6D290D0A2431323D00290DDF
:1004E0000A2431313D0020287374617475732072C1
:1004F00065706F7274206D61736B3A0020287072A2
:100500006F62652070696E20696E766572742C204A
:10051000626F6F6C290D0A2431303D0020286C6910
:100520006D69742070696E7320696E766572742CC3
:1005300020626F6F6C290D0A24363D0020287374E9
:10054000657020656E61626C6520696E7665727497
:100550002C20626F6F6C290D0A24353D00290D0A8D
:1005600024343D00202864697220706F7274206901
:100570006E76657274206D61736B3A00290D0A24E2
:10058000333D0020287374657020706F7274206989
:100590006E76657274206D61736B3A0020287374F7
:1005A00065702069646C652064656C61792C206DD0
:1005B000736563290D0A24323D0020287374657029
:1005C0002070756C73652C2075736563290D0A2482
:1005D000313D0024303D00242420287669657720B1
:1005E0004772626C2073657474696E6773290D0AB3
:1005F0002423202876696577202320706172616D3D
:100600006574657273290D0A244720287669657719
:1006100020706172736572207374617465290D0AAC
:100620002449202876696577206275696C642069A1
:100630006E666F290D0A244E20287669657720732F
:1006400074617274757020626C6F636B73290D0A2C
:1006500024783D76616C7565202873617665204746
:1006600072626C2073657474696E67290D0A244E7A
:10067000783D6C696E6520287361766520737461BE
:100680007274757020626C6F636B290D0A244320AD
:1006900028636865636B2067636F6465206D6F64B2
:1006A00065290D0A245820286B696C6C20616C61E7
:1006B000726D206C6F636B290D0A244820287275B7
:1006C0006E20686F6D696E67206379636C65290DB4
:1006D0000A7E20286379636C6520737461727429C3
:1006E0000D0A2120286665656420686F6C64290DF9
:1006F0000A3F202863757272656E7420737461748A
:100700007573290D0A6374726C2D782028726573D5
:100710006574204772626C290D0A000D0A674361F7
:100720007276696E20312E312E35205B27242720EA
:10073000666F722068656C705D0D0A005D0D0A00C1
:10074000526573746F72696E672064656661756C5B
:1007500074730050676D20456E6400436865636B79
:1007600020446F6F720044697361626C6564004578
:100770006E61626C65640043617574696F6E3A20E6
:10078000556E6C6F636B656400272448277C2724B3
:10079000582720746F20756E6C6F636B0052657301
:1007A000657420746F20636F6E74696E7565005B8D
:1007B000000D0A00486F6D696E67206661696C0004
:1007C00050726F6265206661696C0041626F72747D
:1007D00020647572696E67206379636C6500536F7E
:1007E0006674206C696D69740048617264206C697C
:1007F0006D697400414C41524D3A20000D0A004988
:100800006E76616C69642067636F64652049443A61
:1008100000556E646566696E656420666565642072
:100820007261746500556E737570706F7274656473
:1008300020636F6D6D616E64004D6F64616C206745
:10084000726F75702076696F6C6174696F6E0043AA
:100850006865636B20446F6F72004C696E65206F32
:10086000766572666C6F7700486F6D696E67206E93
:100870006F7420656E61626C656400416C61726DBD
:10088000206C6F636B004E6F742069646C6500456B
:100890004550524F4D2072656164206661696C2E2F
:1008A000205573696E672064656661756C747300AA
:1008B00056616C7565203C20332075736563005369
:1008C000657474696E672064697361626C65640045
:1008D00056616C7565203C203000496E76616C690C
:1008E000642073746174656D656E74004261642088
:1008F0006E756D62657220666F726D617400457809
:1009000070656374656420636F6D6D616E64206CE7
:100910006574746572006572726F723A20006F6B55
:100920000D0A000011241FBECFEFD1E2DEBFCDBF04
:1009300000E00CBF27E0A0E0B2E001C01D92AD3F97
:10094000B207E1F70E94AF130C94FD3C59CBFC01B8
:100950001182128213821482158210820895E1E0BE
:10096000F1E08081886080838081806180838081E4
:10097000806280830E9403388BEA8093A000E1EAC2
:10098000F0E08081887F826080831092A9001092BD
:10099000A8001092AD001092AC0083EA8093900002
:1009A000E1E9F0E08081887F826080831092AB0073
:1009B0001092AA0010922001E1E2F1E01082808101
:1009C0008860808380818460808388E790E0909352
:1009D000290180932801E3E7F0E080818260808331
:1009E00082E192E0B4DF8CE092E0B1DF86E092E059
:1009F000AEDF80E092E0ABDF93E0909314021092C0
:100A000016028FEF8093120290930E021092100242
:100A100080930C020895FC01428314826083089540
:100A2000FC011182428381E084838FEF80836583A0
:100A30000895FC0190818181981719F1228121117B
:100A400002C091831BC03381323018F031503383A0
:100A500018C03481891740F48F5F8183332369F094
:100A60008F3F59F4858108C081508183332329F059
:100A70009581981710F08FEF8083238381E090E0B9
:100A8000089580E090E008951F920F920FB60F92A4
:100A900011240BB60F922F933F934F935F936F9355
:100AA0007F938F939F93AF93BF93EF93FF9382E1D5
:100AB00092E0BFDF892B39F08091130290E0909390
:100AC000A9008093A8008CE092E0B3DF892B39F075
:100AD00080910D0290E09093AB008093AA0086E095
:100AE00092E0A7DF892B39F08091070290E0909384
:100AF000AD008093AC0080E092E09BDF892B21F079
:100B0000809101028093B4008091180290911902A3
:100B1000181619064CF40197909319028093180245
:100B2000892B11F40E94CD35FF91EF91BF91AF91C8
:100B30009F918F917F916F915F914F913F912F91F5
:100B40000F900BBE0F900FBE0F901F90189528E0CE
:100B500088E190E00FB6F894A895809360000FBEEE
:100B600020936000FFCFCF93DF938BE092E00E9451
:100B7000241E86E092E00E94241EC6E0D1E0888117
:100B800086700E94721E80E092E00E94241E83B153
:100B900080770E94721E8AEF91E00E94241E888155
:100BA00088700E94721E86EF91E0DF91CF910C94C5
:100BB000241EA59808959D9AFCCF9091C606911188
:100BC00005C0823011F4A59A0895F3CF0895CF930C
:100BD000DF931F92CDB7DEB79091C706923041F0F8
:100BE00089830E945A2289810F90DF91CF91E5CFAE
:100BF0000F90DF91CF910895F999FECF92BD81BDFD
:100C000081E08FBB80B50895F894F999FECF92BD2D
:100C100081BD81E08FBB40B54627842F992787FD92
:100C20009095262F30E082239323892B39F06F3F54
:100C300019F060BD84E006C084E104C0442321F0C3
:100C400060BD84E28FBBF99A789408959F92AF9229
:100C5000BF92CF92DF92EF92FF920F931F93CF93A9
:100C6000DF938C017A016B01C40ED51EEB01912C30
:100C70005C01A61AB70ACE018A0D9B1DCC15DD05B5
:100C800089F0911009C0692D772767FD7095272F8E
:100C9000221F2227221F01C021E06991922E960E69
:100CA000B3DFE9CF692DC8018E0D9F1DDF91CF9174
:100CB0001F910F91FF90EF90DF90CF90BF90AF907A
:100CC0009F90A2CF9F92AF92BF92CF92DF92EF926E
:100CD000FF920F931F93CF93DF938B017A016C01E7
:100CE000C40ED51EEC01912C5B01A81AB90AC501EE
:100CF0008C0F9D1FCC15DD0589F07EDF911009C09A
:100D0000292D332727FD3095232F221F2227221F2D
:100D100001C021E0922E980E8993E9CFC8018E0D73
:100D20009F1D6ADF21E030E0981611F020E030E0EE
:100D3000C901DF91CF911F910F91FF90EF90DF904C
:100D4000CF90BF90AF909F9008958FE3EEE4F6E0D0
:100D5000DF011D928A95E9F761E776E080E00E9465
:100D60007D29811103C087E00C94682208956CEC02
:100D700076E085E696E00C94EA372F923F924F9208
:100D80005F926F927F928F929F92AF92BF92CF921B
:100D9000DF92EF92FF920F931F93CF93DF93CDB724
:100DA000DEB7AB970FB6F894DEBF0FBECDBF98A3EA
:100DB0008F8F89E3EDE8F6E0DF011D928A95E9F770
:100DC0008AE0EEE4F6E0AEE8B6E001900D928A9596
:100DD000E1F71D8E212C312CA12CB12C19A2512C04
:100DE0001E8E66246394712C08E0402E99249394FF
:100DF00085E0882E8D8DEF8DF8A1E80FF11D008123
:100E0000002309F48AC29FEB900F9A3110F00C94E2
:100E1000B2108F5F8D8FAE01475E5F4FBE01635E84
:100E20007F4F8F8D98A10E944C18882311F40C9449
:100E3000B410C98CDA8CEB8CFC8CC701B6010E9413
:100E4000913C0E94F939162F70E080E090E00E94FA
:100E5000273A9B01AC01C701B6010E94AB3820E0E4
:100E600030E048EC52E40E94C33B0E94263C0E94C2
:100E7000F939073421F00D3409F450C192C1183208
:100E800009F432C1E8F4143160F4113108F0D7C02C
:100E9000143009F45AC008F48EC01A30D9F10C94F9
:100EA000C0101C31B9F128F4163108F4F7C00C94C5
:100EB000C0101E3179F1163209F47DC00C94C010B7
:100EC0001D3309F40BC1A8F4153309F461C040F4D3
:100ED0001B3209F4ECC0113309F4E9C00C94C010C2
:100EE0001C3310F00C94C01016531093940689E034
:100EF00000C11C3540F41A3508F0B0C0103509F4B3
:100F00009BC00C94C0101C3529F01F3508F4BDC0DF
:100F10000C94C0106115710531F4BE8DB1110C94A3
:100F2000B610E1E0EE8F1C3199F038F4143069F01E
:100F30001A3009F0DBC082E02CC0153349F11C35B2
:100F400059F11E3109F0D2C013C090928D06CEC067
:100F50006115710549F06A30710511F00C94C010EB
:100F600024E020938D0609C0F3E0F0938D0605C0C0
:100F70006115710521F480928D0680E0BFC06A3052
:100F8000710511F00C94C01036E030938D06F5CF4A
:100F900087E080938D06AAC06115710549F06A301B
:100FA000710511F00C94C01099E090938D06E5CF77
:100FB00040928D06E2CFAE8DA1110C94B610B2E036
:100FC000BE8F123089F028F4112359F0113081F0CE
:100FD0008FC0163281F0103579F1133009F088C0D6
:100FE00007C010928E0684C0EE8DE0938E0680C0FE
:100FF00010938E067DC06E317105B1F048F46431F6
:10100000710511F00C94C010F4E0F0938E0612C03C
:101010006832710561F06233710511F00C94C010F3
:1010200037E030938E0606C080928E0603C026E01D
:1010300020938E0681E062C040928E0659C0123124
:1010400029F0133139F01092920602C09092920664
:1010500082E04FC082E0809392064BC0611571051B
:1010600049F41A3519F41092910602C09092910633
:1010700083E044C06A30710511F00C94C0101A3539
:1010800011F40C94C01084E039C01D3519F490920D
:101090008F0602C010928F0685E02BC0143119F420
:1010A0009092900602C01092900686E022C08E8D2B
:1010B00081110C94B610113331F41092930688E02C
:1010C00093E09E8F1BC06A30710511F00C94C01024
:1010D0009092930688E0A3E0AE8F10C0672B11F0CA
:1010E0000C94C0108AE00AC087E003C080E001C011
:1010F00081E0672B19F087E10C94D310F30102C053
:10110000EE0FFF1F8A95E2F7CF019F012A213B21B5
:10111000232B09F443C085E10C94D310672B59F7B6
:10112000163018F4133058F017C0183010F40C941F
:10113000C0101A3000F11E3159F00C94C01012305A
:1011400039F01E3129F0111120C0909295061DC072
:1011500082E08093950619C0143029F0153039F0DB
:101160009092970606C082E08093970602C0109284
:1011700097068CE00BC0193021F082E08093960630
:1011800002C0109296068DE001C08BE0930102C070
:10119000220F331F8A95E2F7C901B8CFA82AB92ACE
:1011A00029CE802F992787FD9095A92FB92FFC0173
:1011B000E654F109E531F10508F0E2C7EE58FF4FBA
:1011C0000C94DE3CC0929806D0929906E0929A0662
:1011D000F0929B0680E07FC0C0929C06D0929D0654
:1011E000E0929E06F0929F0639A1316039A381E01A
:1011F00072C0C092A006D092A106E092A206F09220
:10120000A30689A1826089A382E065C0C092A4067A
:10121000D092A506E092A606F092A70699A1946046
:1012200099A383E058C01093A80684E054C0C70176
:10123000B6010E94F4396093A9067093AA068093C0
:10124000AB069093AC0685E046C0C092AD06D09246
:10125000AE06E092AF06F092B00686E03CC0C092C7
:10126000B106D092B206E092B306F092B40687E0DF
:1012700032C0C092B506D092B606E092B706F092A0
:10128000B80688E028C0C092BA06D092BB06E092A9
:10129000BC06F092BD06A52DA1605A2E8AE01BC0A7
:1012A000C092BE06D092BF06E092C006F092C10680
:1012B000B52DB2605B2E8BE00EC0C092C206D092FC
:1012C000C306E092C406F092C506E52DE4605E2EEA
:1012D0008CE001C089E08301082E02C0000F111FBD
:1012E0000A94E2F7980122213321232B09F040C709
:1012F00021E633E002C0359527958A95E2F720FF75
:1013000009C020E030E0A901C701B6010E9485397B
:1013100087FD30C7202A312A6DCD552029F03E8D1A
:10132000311102C082E08E8F25FE0EC08091A90689
:101330009091AA06A091AB06B091AC068038964970
:10134000A849B1050CF018C780918F06813031F49F
:10135000FE8DF230A1F520FE19C731C080914F06F5
:1013600081112DC020FE1BC080919006813039F57F
:1013700023E333E34BEC51E46091980670919906B6
:1013800080919A0690919B060E94C33B60939806B9
:101390007093990680939A0690939B0610C0809153
:1013A0005C0690915D06A0915E06B0915F06809309
:1013B000980690939906A0939A06B0939B0630FCEA
:1013C00010C08091580690915906A0915A06B0918C
:1013D0005B068093B5069093B606A093B706B093CC
:1013E000B80680918D06813031F426FC02C08CE174
:1013F000DAC6E89426F880919206882341F081307D
:1014000061F019A682E088A791E09FA30BC022E0BB
:1014100029A731E038A71FA205C0A1E0A9A718A6F7
:10142000B2E0BFA380919006813021F0EE8DE330D1
:1014300091F52AC0BAEBEB2EB6E0FB2E00E010E0EF
:10144000C52CD12CC601002E02C0959587950A9413
:10145000E2F780FF10C023E333E34BEC51E4D70104
:101460006D917D918D919C910E94C33BF7016083AA
:101470007183828393830F5F1F4FF4E0EF0EF11CA3
:1014800003301105F9F6D2CF80919306813019F41B
:1014900024E0521273C68CE0E1E7F6E0DE011D960F
:1014A00001900D928A95E1F7B1FC09C030918D064B
:1014B0003F8F3230B9F0383009F4B0C015C1809197
:1014C0009406873010F08DE16EC6909154069817FF
:1014D00069F3BE01635F7F4F0E947D29882309F471
:1014E0005FC6E4CF511002C08AE15DC6C1018075BC
:1014F0009927892B09F47BCF6091AD067091AE06D8
:101500008091AF069091B0060E94913C0E94F939FB
:101510006730C8F68091A806843129F0823009F03E
:101520002FC627FC2DC68FEA2822662319F06150AA
:101530006F8F03C0909194069F8FBE016F5F7F4FA6
:101540008F8D0E947D29882309F42AC64090A80621
:101550006090890670908A0680908B0690908C0629
:10156000DE0111967D01FAEBCF2EF6E0DF2EA5E627
:10157000AA2EA6E0BA2E00E010E0E52DF0E0FEA3D2
:10158000EDA38DA19EA1002E02C0959587950A948A
:10159000E2F780FF33C0F4E14F1226C0D501589620
:1015A0002D913D914D915C915B976D917D918D91C8
:1015B0009C910E94AB38F601208131814281538198
:1015C0000E94AB38D7016D937D938D939C931397B5
:1015D0000230A1F4A40193010E94AB38F7016083AB
:1015E0007183828393830AC0F60180819181A281F5
:1015F000B381F70180839183A283B3830F5F1F4F71
:10160000F4E0EF0EF11C24E0C20ED11C34E0A30E76
:10161000B11C0330110509F0B4CF0FC1552009F4F6
:1016200063CF6090890670908A0680908B069090B8
:101630008C060AEB16E0E5E6CE2EE6E0DE2E5E0135
:101640008DE0A80EB11CE12CF12CA52DB0E0B8A3C3
:10165000AF8F8F8D98A10E2C02C0959587950A9417
:10166000E2F780FF26C0F50120813181428153815C
:10167000D6016D917D918D919C910E94AB38F801BE
:1016800020813181428153810E94AB38D8016D9312
:101690007D938D939C931397B2E0EB1214C0A40139
:1016A00093010E94AB38F801608371838283938336
:1016B0000AC0F601808D918DA28DB38DF8018083D3
:1016C0009183A283B383FFEFEF1AFF0A0C5F1F4FD2
:1016D00024E0C20ED11C34E0A30EB11C83E0E81656
:1016E000F10409F0B6CFA8C09E8D933059F4AF8DA8
:1016F000A53009F48FC0A73009F499C0A33009F0D0
:101700009BC080C0552099F3409091068090890637
:1017100090908A06A0908B06B0908C0675E6C72E36
:1017200076E0D72E0AEB16E03E01BDE06B0E711C91
:10173000E12CF12CE52DF0E0FEA3EDA38DA19EA1FF
:101740000E2C02C0959587950A94E2F780FD0BC098
:10175000F60180819181A281B381F8018083918318
:10176000A283B3833EC0FF8DF730D9F1411028C06A
:10177000D60158962D913D914D915C915B97F30167
:1017800060817181828193810E94AC38D8012D9152
:101790003D914D915C910E94AC38F801608371835A
:1017A00082839383F2E0EF121CC0A50194010E9492
:1017B000AC38D8016D937D938D939C93139711C092
:1017C000F6012081318142815381D8016D917D9153
:1017D0008D919C910E94AC38F80160837183828363
:1017E0009383FFEFEF1AFF0A24E0C20ED11C0C5FB7
:1017F0001F4F34E0630E711C83E0E816F10409F01A
:101800009DCF75CF511001C01E8EBE016F5F7F4FFF
:1018100086E007C0511001C01E8EBE016F5F7F4F72
:1018200087E00E947D29882309F4BAC405C080910D
:101830008E06823008F0A6C41F8E10918E061830D6
:1018400041F4552009F4B3C19E8D913009F09CC438
:101850008BC2AE8DA23009F0AAC11123D9F020E0CD
:1018600030E0A901609198067091990680919A06DE
:1018700090919B060E948539882309F487C414300F
:1018800028F4123058F4113029F06EC2183008F4E0
:101890004DC16AC2511068C21E8E8CC1552009F418
:1018A00023CEFFA1EF2FF0E0FEA3EDA338A5232F59
:1018B00030E03BA72AA781E090E03C0108A402C0E9
:1018C000660C771C0A94E2F70FA002C0880F991FDC
:1018D0000A94E2F7682A792A852D90E086219721DB
:1018E000892B09F455C4CF01880F991F880F991FC0
:1018F000FC01E357F94FDC01A25BB94F57962D91DC
:101900003D914D915C915A9765A576A587A590A9C3
:101910000E94AB386B017C018AA59BA5880F991F9B
:10192000880F991FFC01E357F94FDC01A25BB94F07
:1019300057962D913D914D915C915A9765A576A54D
:1019400087A590A90E94AB384B015C0127FE40C0DF
:10195000E89427F82091BA063091BB064091BC0666
:101960005091BD066091650670916606809167068C
:10197000909168060E948539811120C12091BE0690
:101980003091BF064091C0065091C1066091690632
:1019900070916A0680916B0690916C060E94853961
:1019A00081110CC12091C2063091C3064091C4063A
:1019B0005091C50660916D0670916E0680916F061C
:1019C000909170060E9485398111F8C081E2EBC3C5
:1019D000F9A14F2E512C64207520672809F4DAC331
:1019E00021EF222280919006813009F45AC00AA585
:1019F0001BA5000F111F000F111F0F56194FD80103
:101A00001B962D913D914D915C911E97C501B4019E
:101A10000E94AB382B013C01ADA0BEA0AA0CBB1CA0
:101A2000AA0CBB1CF501EF56F94F5F0123853485E5
:101A300045855685C701B6010E94AB38A3019201C6
:101A40000E9438196B017C01D8011B962D913D91A4
:101A50004D915C911E97F50163857485858596850A
:101A60000E9438194B015C016093B1067093B20675
:101A70008093B3069093B4069B01AC01C701B601F5
:101A80000E94AB386B017C01E894F7F82AE037ED4F
:101A900043EA5BE3C701B6010E94883B18164CF18C
:101AA00063C18CE9682E86E0782E00E010E0C20168
:101AB000002E02C0959587950A94E2F780FF10C02A
:101AC00023E333E34BEC51E4D3016D917D918D9190
:101AD0009C910E94C33BF301608371838283938353
:101AE0000F5F1F4FF4E06F0E711C03301105F9F604
:101AF0007ECF20E030E040E05FE3C701B6010E9406
:101B0000883B18160CF462CF2FE632E143E85AE323
:101B1000C501B4010E94C33B9B01AC01C701B601E2
:101B20000E94883B18160CF451CF1EC1552009F4B1
:101B3000DBCC2091BA063091BB064091BC06509197
:101B4000BD0660916506709166068091670690916A
:101B500068060E948539811107C12091BE06309127
:101B6000BF064091C0065091C10660916906709110
:101B70006A0680916B0690916C060E9485398111EE
:101B8000F3C02091C2063091C3064091C406509123
:101B9000C50660916D0670916E0680916F069091FA
:101BA00070060E948539882309F410CFDDC02E8D80
:101BB0002111DAC0C1018E7D9C7FD9C08091900631
:101BC0008130B1F423E333E34BEC51E46091B1068F
:101BD0007091B2068091B3069091B4060E94C33B07
:101BE0006093B1067093B2068093B3069093B406E7
:101BF0004090B1065090B2066090B3067090B40663
:101C000020E030E040E850E4C301B2010E94C33B51
:101C1000A30192010E94C33B2B013C01A701960145
:101C2000C701B6010E94C33B9B01AC01C301B201D5
:101C30000E94AB382B013C01A5019401C501B40100
:101C40000E94C33B9B01AC01C301B2010E94AB38AF
:101C50002B013C0120E030E0A9010E94853987FD7D
:101C6000A1C2C301B2010E94503C2B013C01A5015D
:101C70009401C701B6010E9438199B01AC01C30150
:101C8000B20190580E948C392B013C0180918E0644
:101C9000833021F477FA709477F870948091B106CC
:101CA0009091B206A091B306B091B40689A39AA30D
:101CB000ABA3BCA320E030E0A901BC01CD010E9490
:101CC000853987FF11C077FA709477F8709489A1ED
:101CD0009AA1ABA1BCA1B0588093B1069093B20673
:101CE000A093B306B093B4060DA11EA1000F111F5F
:101CF000000F111F0F56194FA3019201C501B40126
:101D00000E94C33B9B01AC01C701B6010E94AB38E6
:101D100020E030E040E05FE30E94C33BD8011B9627
:101D20006D937D938D939C931E970AA51BA5000F21
:101D3000111F000F111F0F56194FA3019201C70168
:101D4000B6010E94C33B9B01AC01C501B4010E94D6
:101D5000AC3820E030E040E05FE30E94C33BF80194
:101D60006387748785879687C1018E7D907E892BD6
:101D700009F012C28091A9069091AA06A091AB0623
:101D8000B091AC068093610690936206A0936306BF
:101D9000B093640680918F0680934F0680919806D9
:101DA00090919906A0919A06B0919B0680935C064B
:101DB00090935D06A0935E06B0935F06C090B50653
:101DC000D090B606E090B706F090B806A70196014D
:101DD000609158067091590680915A0690915B0661
:101DE0000E9485398823C1F080915706882321F00D
:101DF000B701A6010E94062C8091B5069091B60607
:101E0000A091B706B091B8068093580690935906F2
:101E1000A0935A06B0935B068091B9068093600642
:101E20008091970690915706981771F04091580647
:101E30005091590660915A0670915B060E94062CDB
:101E4000809197068093570680919606909156064A
:101E5000981731F00E94E705809196068093560608
:101E600080918D06813049F46091AD067091AE0687
:101E70008091AF069091B006EDD780919206809345
:101E8000520680919006809350063E8D3330F9F4CF
:101E90008091930680935306813089F48091C20625
:101EA0009091C306A091C406B091C506809389069F
:101EB00090938A06A0938B06B0938C0608C010926C
:101EC000890610928A0610928B0610928C068091D9
:101ED000940690915406981759F0809354068CE01C
:101EE000FE013D96A1E7B6E001900D928A95E1F7DB
:101EF000809191068093510680918D0690E0FC01BF
:101F00003297E830F10508F049C0E957FF4F0C94CB
:101F1000DE3CBE016F5F7F4F8F8D0E94CC2780918A
:101F200054069F8D89133AC08CE0FE013196A1E7DB
:101F3000B6E018C0AE8DAA2341F020E040E050E0AA
:101F400060E87FEB8AEB96E043D420E040E050E08D
:101F500060E87FEBCE0101963BD48CE0FE01319628
:101F6000A5E6B6E001900D928A95E1F717C065E607
:101F700076E086E003C065E676E087E00E94CC2745
:101F80000DC08CE0EAEBF6E0ADE7B6E0EBCF8CE01D
:101F9000EDE7F6E0DF011D928A95E9F780918E0664
:101FA00080934E06883009F495C0BE8DB23009F09A
:101FB00091C090E08830910508F083C0FC01E157A2
:101FC000FF4F0C94DE3C20E040E050E060E87FEB07
:101FD0000AC040915C0650915D0660915E0670916A
:101FE0005F0620914F068AEB96E0F2D36AC0C0905C
:101FF0005C06D0905D06E0905E06F0905F06009172
:10200000B1061091B2062091B3063091B40681E07A
:102010008F93E9A5EF93F8A5FF9315C0C0905C06D8
:10202000D0905D06E0905E06F0905F060091B106EC
:102030001091B2062091B3063091B4061F9289A583
:102040008F9398A59F938FA0A0904F064CE956E0E0
:102050006AEB76E085E696E000D40F900F900F9043
:1020600030C040915C0650915D0660915E067091B3
:102070005F06E12C0AC040915C0650915D066091BC
:102080005E0670915F06EE24E39400E015C0409177
:102090005C0650915D0660915E0670915F06E12CD2
:1020A0000AC040915C0650915D0660915E06709199
:1020B0005F06EE24E39401E020914F068AEB96E060
:1020C000FDD68CE0EAEBF6E0A5E6B6E001900D92D5
:1020D0008A95E1F78091950680935506882309F447
:1020E0005DC00E945A22909155068091C70691309A
:1020F00069F48230A1F19FB7F8948091CA06886094
:102100008093CA069FBF0E94A52029C091E09093AA
:102110004E06109252061092510610924F061092DF
:10212000540610925706109256068230A9F0BE014E
:10213000635F7F4F80E00E947D29882389F18CE0D6
:10214000FE013D96A1E7B6E001900D928A95E1F778
:102150000E94602B0E94D90587E00E94DB2210922A
:1021600055061CC081E01FC082E01DC088E11BC075
:1021700089E119C084E017C08BE115C085E213C066
:1021800084E111C08EE10FC08FE10DC086E10BC06C
:1021900080E209C083E207C084E205C080E003C09A
:1021A00087E001C082E2AB960FB6F894DEBF0FBEA7
:1021B000CDBFDF91CF911F910F91FF90EF90DF90F6
:1021C000CF90BF90AF909F908F907F906F905F90D7
:1021D0004F903F902F900895EBE6F0E080818F784C
:1021E0008083E8E6F0E080818E7F8083089584B16B
:1021F0008F7884B985B1806785B98091ED0783FFB9
:102200000BC080916B00806780936B0080916800A9
:102210008160809368000895DFCFCF92DF92FF92B4
:102220000F931F93CF93DF931F92CDB7DEB793B178
:1022300090778091ED0786FD02C080E7982799236B
:10224000D9F0C12CD12CF12C01E010E08C2D998318
:102250000E94E52A9981892339F098010C2C01C04C
:10226000220F0A94EAF7F22A8FEFC81AD80AE3E09D
:10227000CE16D10459F701C0F12C8F2D0F90DF91AC
:10228000CF911F910F91FF90DF90CF9008951F92F3
:102290000F920FB60F9211240BB60F922F933F930C
:1022A0004F935F936F937F938F939F93AF93BF935E
:1022B000EF93FF938091C706813069F08091CB0640
:1022C000811109C0BDD69FB7F8948091CB06836079
:1022D0008093CB069FBFFF91EF91BF91AF919F91EC
:1022E0008F917F916F915F914F913F912F910F90BF
:1022F0000BBE0F900FBE0F901F9018952F923F921C
:102300004F925F926F927F928F929F92AF92BF9205
:10231000CF92DF92EF92FF920F931F93CF93DF93B1
:10232000CDB7DEB767970FB6F894DEBF0FBECDBF4F
:10233000482E8091C60681119DC19CECA92E97E084
:10234000B92E9E01235F3F4F190100E010E0C12C20
:10235000D12C7601642C712C802F0E94D12AD101BE
:102360008D931D01C301002E02C0959587950A9497
:10237000E2F780FF1AC02DEC3CEC4CE85FEBF50176
:1023800060817181828193810E94C33B688B572E4B
:102390004C01262F372FAC01C701B6010E94883BA4
:1023A00018161CF0C888D52C74010F5F1F4FF4E07D
:1023B000AF0EB11C0330110579F68090F3079090B1
:1023C000F407A090F507B090F60724E0288B552479
:1023D00053946CEC76E0CE0101960E94EA3720908F
:1023E000EE07312CFE0131968CEC96E09F8B8E8BA4
:1023F00080E090E000E010E0B701A6017058930182
:10240000082E02C0359527950A94E2F720FF28C0D0
:102410000F5FAE89BF891D921D921D921C9213976A
:102420009101082E02C0359527950A94E2F720FF06
:1024300003C0552019F007C0552029F0C082D18271
:10244000E282F38204C040835183628373832DE070
:1024500030E02C0F3D1F280F391FD9012C91122B72
:10246000019634962E893F892C5F3F4F3F8B2E8BF0
:102470008330910521F6602F70E080E090E00E94AB
:10248000253A0E94503C9B01AC01C501B4010E9459
:10249000C33BAB01BC011093D8064A8B5B8B6C8BA2
:1024A0007D8B0E94D71D00E020E04A895B896C8902
:1024B0007D89CE0101960E94D91A0E94EE2F0E94BA
:1024C0002D2C5520E1F0A9DEFE013D9620E030E004
:1024D00090E06191462F412359F0AC01022E02C0D9
:1024E000559547950A94E2F740FF02C06095162380
:1024F0002F5F3F4F2330310561F71093D8060E94BC
:10250000EE2F8091CA068473B1F08091CA06807361
:1025100021F096D50E94A520ADC05110A6C07DDE49
:102520008421B9F79FB7F8948091CA068B7F809376
:10253000CA069FBF04C0812F807E09F0C2CF0E94CF
:10254000DD2ED7D78091F7079091F80786D631E036
:102550005326C9F020E030E040E251E46091F907F1
:102560007091FA078091FB079091FC070E94C33B92
:102570006B017C018090EF079090F007A090F1072D
:10258000B090F20710C0C090F907D090FA07E09021
:10259000FB07F090FC078090F3079090F407A09061
:1025A000F507B090F60788898150888B811111CF8B
:1025B0008091EE07A82FB0E0B98BA88BC090F907E7
:1025C000D090FA07E090FB07F090FC071601270176
:1025D00057FA509457F8509408EA17E08CEC882E7C
:1025E00086E0982EA12CB12CC3010A2C02C095952F
:1025F00087950A94E2F780FF29C0888999890A2C77
:1026000002C0959587950A94E2F7F80180FF0EC005
:1026100024A135A146A157A1C701B6010E94AC383B
:10262000D8012D913D914D915C9106C02081318161
:1026300042815381C201B1010E94C33B0E94933B7E
:10264000D4016D937D938D939C931397BFEFAB1A39
:10265000BB0AE4E08E0E911C0C5F1F4FF3E0AF1637
:10266000B10411F60E94D71D05C08091CA0682FFF1
:1026700059CF4FCF67960FB6F894DEBF0FBECDBFD0
:10268000DF91CF911F910F91FF90EF90DF90CF904E
:10269000BF90AF909F908F907F906F905F904F9082
:1026A0003F902F900895CF92DF92EF92FF920F9379
:1026B0001F93CF93DF938C01CCECD7E0F801C1904E
:1026C000D190E190F1908F0120E030E0A901C701A5
:1026D000B6010E94883B181654F02991399149910E
:1026E0005991C701B6010E94853987FF2AC08091A0
:1026F000C706883099F0A4D49FB7F8948091CB0690
:1027000085608093CB069FBFDF91CF911F910F9182
:10271000FF90EF90DF90CF900C94A5209FB7F89496
:102720008091CA0688608093CA069FBF0E94A52038
:102730008091C60681110AC08091C7068111F6CF2B
:10274000DACFF7E0C83DDF0709F0B8CFDF91CF91CE
:102750001F910F91FF90EF90DF90CF9008950E940E
:10276000DC260E94C72A0E94AF040E94072F0E9405
:10277000933581E2E6ECF6E0DF011D928A95E9F7F8
:1027800081E08093C60678948091ED0784FF03C0B2
:1027900081E08093C7060E94B7270E94A5060E9489
:1027A0004C2B0E94DB0523DD0E94481FA2D60E940D
:1027B000DD2E0E94D71D0E94B7061092C606109209
:1027C000CA061092CB061092C8060E94E421E3CFFD
:1027D000EF92FF920F931F93CF93DF9300D01F923E
:1027E000CDB7DEB77C01122F8091ED0785FF0AC0BF
:1027F000C70149835A836B837C8355DF7C816B815E
:102800005A8149818091C7068230E1F049835A8319
:102810006B837C830E94A5208091C606811112C023
:10282000C0D649815A816B817C81882339F00E940E
:10283000841F49815A816B817C81E8CF00E0212F80
:10284000C701B7D60F900F900F900F90DF91CF91E7
:102850001F910F91FF90EF9008952F923F924F920A
:102860005F926F927F928F929F92AF92BF92CF9220
:10287000DF92EF92FF920F931F93CF93DF93CDB729
:10288000DEB7E7970FB6F894DEBF0FBECDBF9C8BC7
:102890008B8B1B013A0109871A872B873C87AF8AEC
:1028A0002E961FAD2E972F962FAD2F97298B6096C2
:1028B0003FAD60973D8B84E0889EA00111245A8330
:1028C0004983AB89BC89A40FB51FB98FA88F460D6A
:1028D000571D5B8F4A8FFA0180809180A280B38060
:1028E0002D913D914D915C91C501B4010E94AC3890
:1028F0006C8F7D8F8E8F9F8FF4E01F9F800111243E
:102900002B893C89200F311F39A328A3A301400F35
:10291000511F5BA34AA3DA014D905D906D907C90AE
:10292000F9012081318142815381C301B2010E94AA
:10293000AC386CA37DA38EA39FA3A501940150582E
:102940002D873E874F87588BD301C201B0588D83A6
:102950009E83AF83B887E981FA81E20DF31D2C8D48
:102960003D8D4E8D5F8D60817181828193810E944A
:10297000AB382B013C01F101E00FF11F2CA13DA16F
:102980004EA15FA160817181828193810E94AB38E9
:102990004B015C01A30192016D857E858F8598892D
:1029A0000E94C33B69837A838B839C83A501940136
:1029B0006D817E818F8198850E94C33B9B01AC0114
:1029C00069817A818B819C810E94AC3869837A838A
:1029D0008B839C83A50194016D857E858F85988965
:1029E0000E94C33B4B015C01A30192016D817E817A
:1029F0008F8198850E94C33B9B01AC01C501B40146
:102A00000E94AB3829813A814B815C810E941F3939
:102A10002B013C019D89992399F02DEB37E346E08A
:102A200055EBC301B2010E94883B87FD1DC02BED11
:102A30003FE049EC50E4C301B2010E94AB3812C040
:102A40002DEB37E346E055E3C301B2010E9485391F
:102A5000181654F02BED3FE049EC50E4C301B201ED
:102A60000E94AC382B013C018090E1079090E20776
:102A7000A090E307B090E40729853A854B855C85F3
:102A8000CA01B9010E94AC38A50194010E94AB387B
:102A90009B01AC01C501B4010E94C33B0E94503CA4
:102AA0004B015C0120E030E040E05FE3C301B20194
:102AB0000E94C33B29853A854B855C850E94C33BB8
:102AC0009F77A50194010E948C390E94623A0E946E
:102AD000F9397E8B6D8BDB01AB2B09F485C14B0182
:102AE000A12CB12CBF89BB2361F0C501B4010E94A8
:102AF000253A9B01AC01C701B6010E94C33B6B01A3
:102B00007C01C501B4010E94253A4B015C019B0187
:102B1000AC01C301B2010E948C3969877A878B8727
:102B20009C87F989E4E0FE9FC00111242B893C8930
:102B3000280F391F3A8B298BF101E80FF91FD901B2
:102B40002D913D914D915C91608171818281938144
:102B50000E94AB38A50194010E948C396CAB7DAB0F
:102B60008EAB9FAB29853A854B855C85CA01B9013F
:102B70000E94C33B9B01AC0160E070E080E090E408
:102B80000E94AB384B015C012BEA3AEA4AE25EE371
:102B900069857A858B859C850E94C33B2B013C010E
:102BA00020E030E040E850E4C501B4010E94AC38B8
:102BB0009B01AC01C301B2010E94C33B68A779A786
:102BC0008AA79BA720E030E040E05FE3C501B401A5
:102BD0000E94C33B6CA77DA78EA79FA7198201E027
:102BE00010E0ED89FE890E171F0709F4FDC0B981B9
:102BF000BC3008F04AC02CA53DA54EA55FA56D814F
:102C00007E818F8198850E94C33B4B015C0128A582
:102C100039A54AA55BA56D857E858F8598890E941B
:102C2000C33BA50194010E94AC38B62EA72E982E66
:102C3000892E2CA53DA54EA55FA56D857E858F852A
:102C400098890E94C33B2B013C0128A539A54AA5C0
:102C50005BA56D817E818F8198850E94C33B9B011E
:102C6000AC01C301B2010E94AB386D877E878F87AC
:102C7000988BE981EF5FE9838B2D9A2DA92DB82DD3
:102C80008D839E83AF83B8876EC0B80180E090E0EB
:102C90000E94253A29853A854B855C850E94C33B75
:102CA0004B015C010E9489396D837E838F839887F5
:102CB000C501B4010E94463C4B015C01EA8DFB8DCD
:102CC00080819181A281B3819C01AD0150582983FB
:102CD0003A834B835C83AAA1BBA18D919D910D90FA
:102CE000BC91A02D88AB99ABAAABBBAB2D813E812B
:102CF0004F81588569817A818B819C810E94C33B79
:102D00002B013C01A501940168A979A98AA99BA975
:102D10000E94C33B9B01AC01C301B2010E94AC38CD
:102D20006D877E878F87988BA501940169817A8151
:102D30008B819C810E94C33B4B015C012D813E81B4
:102D40004F81588568A979A98AA99BA90E94C33B8C
:102D50009B01AC01C501B4010E94AB386D837E8339
:102D60008F83988719822D853E854F8558896C8D74
:102D70007D8D8E8D9F8D0E94AC38E88DF98D60839E
:102D80007183828393832D813E814F8158856CA10D
:102D90007DA18EA19FA10E94AC38A8A1B9A16D937D
:102DA0007D938D939C9313972CA93DA94EA95FA960
:102DB000E989FA8960817181828193810E94AC38AE
:102DC000A989BA896D937D938D939C9313972F89CD
:102DD000B701A6018B899C89FBDC8091C606811115
:102DE00020C00F5F1F4FFDCE2F89B701A601C10183
:102DF000E7960FB6F894DEBF0FBECDBFDF91CF913F
:102E00001F910F91FF90EF90DF90CF90BF90AF9008
:102E10009F908F907F906F905F904F903F902F90FA
:102E2000D7CCE7960FB6F894DEBF0FBECDBFDF91CB
:102E3000CF911F910F91FF90EF90DF90CF90BF90B7
:102E4000AF909F908F907F906F905F904F903F904A
:102E50002F900895CF93DF9300D01F92CDB7DEB7A8
:102E60002091C706223091F069837A838B839C83FB
:102E70000E945A2240E069817A818B819C810F9067
:102E80000F900F900F90DF91CF91B8C10F900F90DE
:102E90000F900F90DF91CF9108959ED984E02EDAA4
:102EA00081E02CDA82E02ADA0E94A5208091C60611
:102EB000811103C00E94B7069AC90895CF92DF928C
:102EC000EF920F93CF93DF9300D01F921F92CDB755
:102ED000DEB76C018091C706823009F47CC02D8377
:102EE00049835A836B837C830E945A221092E606A0
:102EF000802FD9D7EAD72D8149815A816B817C8176
:102F00008823A1F09FB7F8948091CB0680618093CD
:102F1000CB069FBF2D8349835A836B837C830E949A
:102F2000A5207C816B815A8149812D818091C606C3
:102F3000811151C0C6014CDC81E08093D9069FB756
:102F4000F8948091CA0682608093CA069FBF0E944F
:102F5000A5208091C60681113EC08091C7068111CF
:102F6000F6CF8091D9068130A9F4EE2051F08CE0A3
:102F7000ECECF6E0AAEDB6E001900D928A95E1F74F
:102F80000CC09FB7F8948091CB0680618093CB06EC
:102F90009FBF03C081E08093E6061092D9060E948D
:102FA000A5208091C606811116C00E94DD2EA1D2F7
:102FB000FED56CEC76E0C6010E94EA370F900F90C8
:102FC0000F900F900F90DF91CF910F91EF90DF90C6
:102FD000CF900C944F240F900F900F900F900F9064
:102FE000DF91CF910F91EF90DF90CF9008950F93E5
:102FF0002091C606211122C001E0DBD29091C906C2
:103000008823B9F0892F8D7F88608093C9060E943C
:10301000512F0E94EE2F0E942D2C7FD78091C60643
:1030200081110CC08091C90683FDF7CF0F910C94DC
:10303000932F977F9093C9060F916FC70F910895B3
:103040008091CA0684FD27C09FB7F8948091CA0674
:1030500080618093CA069FBF0E94602B0E94D905A1
:103060009091C706892F8C7021F48091C9068C70CD
:1030700091F0943031F49FB7F8948091CB06806240
:1030800005C09FB7F8948091CB0688608093CB06EB
:103090009FBF0C94472C08956F927F928F929F92BE
:1030A000AF92BF92CF92DF92EF92FF920F931F9356
:1030B000CF93DF937C018B016A01FB018081F701D3
:1030C000E80FF11D2081EF012D3229F42296218194
:1030D0006624639407C02B3211F0219602C0229619
:1030E0002181612CA12CB12C712C60E070E0CB010E
:1030F000FE0130ED932E920E29E02915C8F0B3940D
:1031000028E02B1588F0A1107A94A5E0B0E09B018F
:10311000AC010E94E43C660F771F881F991F690D60
:10312000711D811D911D0BC0A11009C0739407C0B2
:103130002EEF921207C0A11005C0AA24A3942196D5
:103140002081D6CFBB2009F449C00E94253A4B010B
:103150005C0120E030E0A9010E948539882361F1FB
:103160008FEF78166CF42AE037ED43E25CE3C5019B
:10317000B4010E94C33B4B015C0173947394F0CF84
:1031800078120BC02DEC3CEC4CEC5DE3C501B401B6
:103190000E94C33B4B015C010FC0772069F020E027
:1031A00030E040E251E4C501B4010E94C33B4B0151
:1031B0005C017A9417149CF3662021F0B7FAB0945E
:1031C000B7F8B094F60180829182A282B382CE19C0
:1031D000DF09C150F801C08381E001C080E0DF91C8
:1031E000CF911F910F91FF90EF90DF90CF90BF9004
:1031F000AF909F908F907F906F9008950F931F9343
:10320000CF93C42F20E030E040EA51E40E94C33B5A
:103210000E9472390E94F9398B0101151105C9F01C
:103220008091C606811115C0C11102C08ED705C09C
:1032300074D68091C80681FD0CC02FEF80E792E024
:10324000215080409040E1F700C00000015011097A
:10325000E4CFCF911F910F910895009741F0EFE9CE
:10326000FFE03197F1F700C000000197F6CF089515
:103270008F929F92AF92BF92CF92DF92EF92FF9286
:1032800069017A019B01AC010E94C33B4B015C01C7
:10329000A7019601C701B6010E94C33B9B01AC0187
:1032A000C501B4010E94AC38FF90EF90DF90CF9041
:1032B000BF90AF909F908F900C94503C4F925F9234
:1032C0006F927F928F929F92AF92BF92CF92DF9236
:1032D000EF92FF920F931F93CF93DF9310913802D9
:1032E000111101C012E1115000913602101709F4BA
:1032F000EFC089E2189FE0011124C65CDD4F8D8884
:103300009E88AF88B88C69A17AA18BA19CA19B01F2
:10331000AC010E94AC382DA13EA14FA158A50E943E
:10332000C33B6B017C019B01AC01B401C5010E9450
:10333000853987FF02C064017501A601B701498B79
:103340005A8B6B8B7C8B111101C012E177247A941C
:10335000710E701619F029E2622E27C08091390291
:10336000081351C00E942D2F4EC0679C800111246C
:10337000065C1D4F711002C092E1792E7A94809103
:103380003902781202C00E942D2FF801C588D68814
:10339000E788F08CA70196016189728983899489F5
:1033A0000E948539811106C0E801809136027812A9
:1033B000DCCF29C0F80161A172A183A194A19B0176
:1033C000AC010E94AC38F80125A136A147A150A557
:1033D0000E94C33B29893A894B895C890E94AC3899
:1033E0004B015C01A70196010E948539F80187FF16
:1033F00005C0818A928AA38AB48AD6CFC18AD28A2A
:10340000E38AF48AD1CF60903602F9E26F9E8001A0
:103410001124065C1D4F77247394760C82E1781298
:1034200001C0712C5090380289E2482E751409F4BD
:103430004DC0479CE0011124C65CDD4FF801818836
:103440009288A388B488C988DA88EB88FC88A701A9
:103450009601C501B4010E94853987FF23C0F80198
:1034600061A172A183A194A19B01AC010E94AC381F
:10347000F80125A136A147A150A50E94C33B9B019D
:10348000AC01C501B4010E94AC384B015C01A7013D
:1034900096010E94853987FF05C0898A9A8AAB8A7E
:1034A000BC8A672C2D893E894F89588D69897A8914
:1034B0008B899C890E948539811101C0672C739486
:1034C000F2E17F1201C0712C8E01B0CF6092360202
:1034D000DF91CF911F910F91FF90EF90DF90CF90F0
:1034E000BF90AF909F908F907F906F905F904F9024
:1034F00008958CE1EAE1F2E0DF011D928A95E9F797
:10350000109239021092380281E0809337021092B3
:10351000360208959091390280913802891769F036
:1035200081E0890F823109F480E020913602921304
:1035300002C0809336028093390208958091380248
:1035400029E2829FC0011124865C9D4F08958091DD
:10355000390290913802981739F029E2829FC00110
:103560001124865C9D4F089580E090E00895E091DD
:103570003902EF5FE23109F4E0E080913802E817A8
:1035800061F089E2E89FF0011124E65CFD4F61895A
:103590007289838994890C94503C60E070E0CB017F
:1035A000089581E02091390290913702291380E03B
:1035B00008952F923F924F925F926F927F928F92D7
:1035C0009F92AF92BF92CF92DF92EF92FF920F93B2
:1035D0001F93CF93DF93CDB7DEB7E9970FB6F8947B
:1035E000DEBF0FBECDBF142F5FA368A779A7922EB1
:1035F00008AB2091380239E2239F10011124F10118
:10360000E65CFD4F1F01158616861786108A15A2E7
:1036100016A217A210A6108249E956E766E97EE7CE
:1036200041A352A363A374A32CE0002319F0ECEC94
:10363000F6E002C0EAE1F2E0DE011D9601900D9293
:103640002A95E1F76C0148EAE42E47E0F42E9E014A
:10365000275E3F4F3FA72EA7CE010D969DA78CA7B3
:103660005101FE013196FBA7EAA700E0F601619146
:103670007191819191916F01F70120813181428196
:1036800053810E94C33B0E94933BEEA5FFA561932B
:10369000719381939193FFA7EEA7ECA5FDA54190AF
:1036A000519061907190FDA7ECA764197509860986
:1036B00097092B013C0197FF07C044245524320190
:1036C000461A570A680A790AF501418252826382D2
:1036D0007482F10125853685478550894216530647
:1036E0006406750610F429013A01F10145865686F3
:1036F0006786708A0E94273AF701208131814281D2
:1037000053810E948C392B013C01EAA5FBA56193F2
:10371000719381939193FBA7EAA720E030E0A90180
:103720000E94853987FF08C0F1018080802F0E94A8
:10373000DB2A8829F1018083A3019201C301B20130
:103740000E94C33BF10125A136A147A150A50E94CB
:10375000AC38F10165A376A387A390A70F5FF4E0CF
:10376000EF0EF11C24E0A20EB11C033009F07ECF55
:103770000E94503C6B017C01F10165A376A387A3F5
:1037800090A785859685A785B089892B8A2B8B2B59
:1037900009F4F1C120E030E0A901612F7FA188A5E3
:1037A00099A50E94853987FD21C0992061F0A70164
:1037B0009601612F7FA188A599A50E94C33B162F72
:1037C0007FA388A799A720E030E040E85FE3612F5E
:1037D0007FA188A599A50E94853987FF0EC010E0BA
:1037E0001FA280E888A79FE399A707C019E9F6E719
:1037F000FFA326E928A73EE739A7A701960160E0C5
:1038000070E080E89FE30E948C396EAB7FAB88AF9D
:1038100099AFE6E2F2E0FFA7EEA724EB37E03DA781
:103820002CA7CE010D969EA38DA3FE013196FBA77A
:10383000EAA7C12CD12C7601EAA5FBA58080918056
:10384000A280B38020E030E0A901C501B4010E944C
:103850008539882309F481C02EA93FA948AD59AD07
:10386000C501B4010E94C33B4B015C01EAA5FBA565
:1038700060837183828393839B01AC0160E070E07D
:1038800080E89FE30E948C392B013C01E89477F893
:10389000ECA5FDA52081318142815381C301B20194
:1038A0000E94C33B69AB7AAB8BAB9CAB9B01AC0179
:1038B000612F7FA188A599A50E94853987FF07C040
:1038C00019ABFFA1FAAB28A52BAB39A53CABF10195
:1038D000F1A1FFA3F101F2A1F8A7F101F3A1F9A76A
:1038E000F101F4A1FDABECA5FDA524853585468548
:1038F0005785C301B2010E94C33B3B018C019B0170
:10390000AC016FA178A589A59DA90E94853987FF83
:1039100004C06FA078A409A51DA9C301D801F101B5
:1039200081A392A3A3A3B4A3EEA5FFA52081318117
:1039300042815381C501B4010E94C33B9B01AC018C
:10394000C701B6010E94AB386B017C0119A9FAA925
:10395000FFA32BA928A73CA939A78AA59BA5049654
:103960009BA78AA7EEA5FFA53496FFA7EEA72CA5D7
:103970003DA52C5F3F4F3DA72CA7EDA1FEA18E17C3
:103980009F0709F059CF909138028091390298171A
:1039900019F0F8A9FF2331F0F101118A128A138A74
:1039A000148A0BC024EA30E74DE75FE3C701B60194
:1039B0000E94883B181634F4F101118E128E138E7A
:1039C000148E5FC024EA30E74DE75FEBC701B60114
:1039D0000E94883B181644F034EAC32E30E7D32EF9
:1039E0003DE7E32E3FEBF32EA701960160E070E088
:1039F00080E89FE30E94AB3820E030E040E05FE3E6
:103A00000E94C33B0E94503C6B017C012091DD076A
:103A10003091DE074091DF075091E007F10161A18D
:103A200072A183A194A10E94C33BA70196010E94A9
:103A3000C33B4B015C01A701960160E070E080E8A8
:103A40009FE30E94AB389B01AC01C501B4010E9409
:103A50008C39D62EE72EF82E092F20E030E0A90170
:103A60000E94853987FF04C0D12CE12CF12C00E0A5
:103A70004D2D5E2D6F2D702FF101418F528F638F71
:103A8000748F212F3FA148A559A5612F7FA188A53B
:103A900099A50E94C33B162F072FF82EE92E862FDB
:103AA000902FAF2DBE2DF101858F968FA78FB0A3DC
:103AB000A18CB28CC38CD48C609032027090330293
:103AC00080903402909035029301A401612F702FF1
:103AD0008F2D9E2D0E94853987FD0BC09301A40177
:103AE000B501C6010E94853987FD11C053016401EB
:103AF0000EC0212F302F4F2D5E2DB501C6010E9423
:103B0000853987FD04C0A12EB02ECF2CDE2CC50137
:103B1000D601F101858B968BA78BB08FF8A9F11197
:103B20002CC08CE0FE013196A6E2B2E001900D922D
:103B30008A95E1F7812F902FAF2DBE2D8093320211
:103B400090933302A0933402B09335028CE0FE01CF
:103B50007996AAE1B2E001900D928A95E1F7809101
:103B60003702809338028F5F823109F480E08093BE
:103B70003702A4DB02C080E001C081E0E9960FB605
:103B8000F894DEBF0FBECDBFDF91CF911F910F9193
:103B9000FF90EF90DF90CF90BF90AF909F908F906D
:103BA0007F906F905F904F903F902F9008958091FD
:103BB000CC069091CD06A091CE06B091CF06809311
:103BC0001A0290931B02A0931C02B0931D028091D5
:103BD000D0069091D106A091D206B091D3068093E1
:103BE0001E0290931F02A0932002B09321028091A5
:103BF000D4069091D506A091D606B091D7068093B1
:103C0000220290932302A0932402B09325020895E8
:103C10008091380290913902891708F48E5E891BD1
:103C200008950E942D2F809139028093360246CB51
:103C3000CF93DF93EC018991882319F00E94F2263B
:103C4000FACFDF91CF910895CF93DF93FC01849158
:103C5000EF012196882321F00E94F226FE01F7CF82
:103C6000DF91CF910895EF92FF920F931F93CF931F
:103C7000DF931F92CDB7DEB7262FEDB6FEB66DB738
:103C80007EB7641B71090FB6F8947EBF0FBE6DBF7F
:103C90000DB71EB70F5F1F4F302FF8019E2F931BDC
:103CA000941728F4622F0E94B03C9193F7CF4423DD
:103CB00061F0F801E40FF11D31978081805D498347
:103CC0000E94F22649814150F2CF0FB6F894FEBE11
:103CD0000FBEEDBE0F90DF91CF911F910F91FF901E
:103CE000EF90089548E062E0BECF8A3020F084363D
:103CF00020F442E003C041E001C043E06AE0B3CFFA
:103D00008F929F92AF92BF92CF92DF92EF92FF92EB
:103D10000F931F93CF93DF93CDB7DEB72A970FB6DC
:103D2000F894DEBF0FBECDBF6B017C01142F20E0E5
:103D300030E0A9010E94853987FF07C08DE20E940B
:103D4000F226F7FAF094F7F8F094012F023060F0C1
:103D500020E030E048EC52E4C701B6010E94C33BCA
:103D60006B017C010250F2CF10FF0AC020E030E06E
:103D700040E251E4C701B6010E94C33B6B017C01E4
:103D800020E030E040E05FE3C701B6010E94AC38BC
:103D90000E94F439E1E0F0E0EC0FFD1FE10FF11DAE
:103DA0002EE22083D12C5AE0852E912CA12CB12C0F
:103DB0006115710581059105A9F0D11201C0D39457
:103DC000EE24E394F12CEC0EFD1EED0CF11CA5018C
:103DD00094010E94BC3C605DF7016083B901CA0197
:103DE000D394E6CF80E3D11648F4E1E0F0E0EC0FA5
:103DF000FD1FED0DF11D8083D394F5CF8D2DD112D4
:103E00000BC0D394D3948F5FE1E0F0E0EC0FFD1F83
:103E1000E80FF11D80E38083DD2039F0FE01ED0D18
:103E2000F11D8081DFD7DA94F7CF2A960FB6F89488
:103E3000DEBF0FBECDBFDF91CF911F910F91FF90DD
:103E4000EF90DF90CF90BF90AF909F908F900895AC
:103E50002091ED0720FF08C02BE832E441E25DE34A
:103E60000E94C33B44E001C043E04ACF2091ED07EC
:103E700020FF08C02BE832E441E25DE30E94C33B2F
:103E800041E001C040E03CCF43E03ACF40E038CFD2
:103E9000E7E0F1E08081877F8083E8E0F1E08081E6
:103EA0008860808308951092E7069091ED0797FD52
:103EB00003C098E09093E706882331F08091E706ED
:103EC00098E089278093E70608958091060188701D
:103ED0009091E706892708958091D906813099F459
:103EE000F4DF882381F01092D9068CE0ECECF6E048
:103EF000AAEDB6E001900D928A95E1F78091CA068D
:103F000080648093CA0608959FB7F894EAECF6E0BF
:103F10008081826080839FBF0895CF93DF93C0919B
:103F2000CB06CC2371F181E08093C706C1FD0FC0A1
:103F3000C2FF02C082E00BC0C3FF02C083E007C023
:103F4000C4FF02C084E003C0C5FF02C085E00CD3FB
:103F5000C0FD08C08FB7F8949091CB061092CB06A5
:103F60008FBF0FC081E027D39FB7F8948091CA0616
:103F70008F7E8093CA069FBF8091CA0684FFFCCFC4
:103F8000E9CFC091CA06CC2309F4D4C0C4FF04C051
:103F900081E08093C606D6C0C0FF09C0EAD59FB7AE
:103FA000F8948091CA068E7F8093CA069FBFDC2F4B
:103FB000D87609F45BC08091C706882359F0982F02
:103FC0009C7709F44BC0883029F40E942D2F84E09F
:103FD0008093C9068091C706811106C091E0909335
:103FE000C80692E09093C906C6FF0AC0883019F44B
:103FF00080E48093C7068091C80680648093C806D9
:10400000C3FF07C08091C706803219F080E180931A
:10401000C706C5FF23C086E0CED28091C80688724D
:104020008832A1F48091C90683FF0AC00E942D2F17
:104030008CE08093C9068091C8068E7F8093C80665
:104040008091C806837E82608093C8068091C806EE
:1040500080628093C80680E28093C7069FB7F89479
:104060008091CA0687798093CA069FBFC1FF42C06C
:10407000D11138C08091C706882331F0807591F145
:104080008091C80680FF2EC08091C806982F947238
:10409000943239F484FD02C0886001C08F7D809322
:1040A000C8068091C80685FD1DC01092C9064FDA6A
:1040B000892B71F08091C80686FD0AC01092C8064F
:1040C00088E08093C7060E94EE2F0E942D2C04C02A
:1040D0001092C8061092C70643E06FEF82E192E0AB
:1040E0000E940B059FB7F8948091CA068D7F80933C
:1040F000CA069FBFC2FF1EC08091C706807371F0C1
:1041000090DD9091C90692FF05C08091C80681603C
:104110008093C806937F9093C90604C01092C80686
:104120001092C7069FB7F8948091CA068B7F809340
:10413000CA069FBF8091C7068C7721F0DF91CF918F
:104140000C94EE2FDF91CF9108958F929F92AF92B2
:10415000BF92CF92DF92EF92FF920F931F93CF9374
:10416000DF93CDB7DEB768970FB6F894DEBF0FBE0A
:10417000CDBFD3DE8091C806882309F412C1C12CBB
:10418000D12C90EAE92E90E4F92E10E10CE0809118
:10419000C806882309F405C19091C606911101C192
:1041A000982F9172913209F0FAC082FD7DC06CECBB
:1041B00076E0CE0101960E94EA378091C80681FD23
:1041C00021C0FE013196DE011D96802F01900D92D7
:1041D0008A95E1F72D893E894F89588DC701B6012F
:1041E0000E94AC386B017C0120E030E040EA50ECEA
:1041F0000E94853987FD06C0C12CD12C80EAE82EAB
:1042000080ECF82E8091ED0784FF43C089849A8466
:10421000AB84BC8420E030E040EA50ECC501B4013E
:104220000E94853987FF35C0A7019601C501B401F9
:104230000E94853987FF0CC0C986DA86EB86FC862A
:1042400040E050E06AEF73E4CE0101960E94F71758
:104250000E94602B0E94D90520E030E040EA50EC3B
:1042600069857A858B859C850E94853987FF15C075
:1042700080E090E0A0EAB0EC89879A87AB87BC87A2
:1042800040E050E060E87FEBCE0101960E94F71716
:1042900004C00E94602B0E94D9058091C8068D7FC2
:1042A00084608093C8067BC08091C706803271F419
:1042B0000E94EC3581110AC01093C70641E050E01E
:1042C00068E270E082E192E00E9410058091C806E9
:1042D00083FF65C08091ED0784FF18C020E030E0C7
:1042E00040EA50EC69857A858B859C850E948539EA
:1042F000181664F0C986DA86EB86FC8640E050E04A
:1043000060E87FEBCE0101960E94F7178091570677
:104310008823A9F09091C80691FD11C040915806DC
:104320005091590660915A0670915B060E94722B5B
:1043300041E060E070E080E89FE30E94FE18809119
:104340005606882369F09091C80691FD09C00E9425
:10435000DD0541E060E070E080E89FE30E94FE1828
:104360008091ED0784FF0CC08091C80681FD08C0D4
:1043700040E050E06AEF73E4CE010D960E94F7171B
:104380008091C80681FD0BC080618093C8069FB7ED
:10439000F8948091CA0682608093CA069FBFBDDDF3
:1043A000F6CE68960FB6F894DEBF0FBECDBFDF9194
:1043B000CF911F910F91FF90EF90DF90CF90BF9022
:1043C000AF909F908F900895CF93DF9320D18091ED
:1043D000C706813019F482E0EED02CC01092C706D7
:1043E0000E94EC35882331F08091CA068062809368
:1043F000CA06ABDE8CE195E00E94EF351BC08D3024
:1044000059F0CC2381F1893209F4CD7F35D58F3F26
:1044100009F446C08A3099F798DE8091C60681116A
:1044200046C0ED2FF0E0E45EFA4F1082C0FF05C0F9
:104430008BE04ED0D0E0C0E0E9CF80911C0588230E
:10444000C1F3843229F48CE195E00E940E36F1CF5D
:104450008091C706813011F489E0EBCF8CE195E0C3
:104460000E94BD06E6CF813288F28F3279F288321F
:1044700089F08B3389F0DF3488F42D2F30E0DF5F53
:104480009FE9980FF901E45EFA4F9A3108F48052DF
:104490008083BCCFC2E0BACFC4E0B8CFC1E0B6CF12
:1044A00033DD53DE8091C606882309F4AFCFDF9158
:1044B000CF91089529DD49DE8091C606811107C09C
:1044C00046D8892BC1F78091C7068830A1F308959B
:1044D000CF93C82F811103C08EE199E043C086E1DC
:1044E00099E0B2DB4C2F50E0FA013197E631F1054B
:1044F00090F5E956FF4F0C94DE3C8EEF98E002C039
:104500008CEE98E0A1DB2CC08AED98E0FBCF80ED2B
:1045100098E0F8CF8FEB98E0F5CF80EB98E0F2CF02
:104520008FE898E0EFCF86E898E0ECCF8BE798E053
:10453000E9CF88E698E0E6CF8AE598E0E3CF8FE41C
:1045400098E0E0CF89E398E0DDCF85E298E0DACF2C
:1045500081E198E0D7CF8FEF97E076DB8C2FC5DB3A
:104560008CEF97E0CF9170CBCF93C82F84EF97E07B
:104570006BDBC33091F03CF4C13061F0C23099F490
:104580008EED97E00FC0C43059F0C53061F484EB74
:1045900097E008C089EE97E005C08BEC97E002C079
:1045A00080EC97E051DB81EB97E04EDB84EF91E00C
:1045B000CF910C942D19CF93C82F8FEA97E044DB4D
:1045C0008C2F90E0FC013197E830F105E0F4E355E1
:1045D000FF4F0C94DE3C8DE997E014C089E897E02A
:1045E00011C087E797E00EC08FE697E00BC086E624
:1045F00097E008C08BE597E005C083E597E002C02F
:1046000080E497E021DB8CE397E0CF911DCB8BE139
:1046100097E01ACB87ED95E017CBFF920F931F938E
:10462000CF93DF9383ED95E00FDB8091D8075DDBBF
:104630008AEB95E009DB8091DB0757DB8CE995E09D
:1046400003DB8091D90751DB83E895E0FDDA8091A7
:10465000D90748DB8CE795E0F7DA8091DA0745DB8C
:1046600084E695E0F1DA8091DA073CDB8DE595E0B0
:10467000EBDA8091ED0782FB882780F936DB8CE34B
:1046800095E0E2DA8091ED0786FB882780F92DDB43
:104690008CE195E0D9DA8091ED07881F8827881F83
:1046A00024DB8CEF94E0D0DA8091DC071EDB86EE11
:1046B00094E0CADA8091DC0715DB8EED94E0C4DA71
:1046C0006091DD077091DE078091DF079091E00730
:1046D000DBDB8EEB94E0B8DA6091E1077091E207E2
:1046E0008091E3079091E407CFDB83EA94E0ACDAB2
:1046F0008091ED078170F9DA86E894E0A5DA80917F
:10470000ED0785FB882780F9F0DA8BE694E09CDAE8
:104710008091ED0783FB882780F9E7DA80E594E054
:1047200093DA8091ED0782958170DFDA84E394E07B
:104730008BDA8091EE07D9DA8AE194E085DA80910C
:10474000EE07D0DA82E194E07FDA6091EF077091B2
:10475000F0078091F1079091F20796DB85EF93E0E7
:1047600073DA6091F3077091F4078091F5079091E7
:10477000F6078ADB88ED93E067DA8091F707B5DA10
:1047800089EB93E061DA6091F9077091FA07809103
:10479000FB079091FC0778DB8CE993E055DA609198
:1047A000E5077091E6078091E7079091E8076EDBD7
:1047B0008BE893E049DA6091E9077091EA0780910C
:1047C000EB079091EC0762DB8EE793E03DDA84E63D
:1047D000F82E10E0C8EAD7E000E08CE793E034DA86
:1047E000802F8F0D82DA8AE793E02EDA123071F093
:1047F0001330B9F0113029F0688179818A819B8169
:1048000017C06C857D858E859F8512C020E030E0C5
:1048100041E655E4688D798D8A8D9B8D0E948C3997
:1048200007C08CA19DA1AEA1BFA1BC01CD01905834
:104830002BDB87E793E008DA013029F0023031F012
:1048400085E793E005C083E793E002C081E793E04A
:10485000FBD9123051F0133059F0113019F087E6BE
:1048600093E008C085E593E005C084E493E002C0CE
:1048700084E393E0E9D980E393E0E6D90F5F2496DF
:10488000033009F0AACF8AE0F80E1F5F8CE8F81217
:10489000A1CFDF91CF911F910F91FF900895CF93FA
:1048A0008AE293E0D1D9C0E06C2F8AED96E00E94B5
:1048B000D237CEDAC23019F088E293E0C5D9CF5FA3
:1048C000C33091F786E293E0BFD98091E6060DDA16
:1048D00082E293E0CF91B8C9EF92FF920F931F93BA
:1048E000CF93DF93CDB7DEB72C970FB6F894DEBF2A
:1048F0000FBECDBFF12CBE016F5F7F4F8F2DFDD45A
:10490000811103C087E0E4DD5CC08FE193E09CD9B6
:1049100086E0F81631F0E7E0FE1207C089E193E087
:1049200002C08CE193E090D903C086E38F0DDDD9FE
:1049300087E193E089D98E010F5F1F4FE12CF801C9
:1049400061917191819191918F0182DAF2E0EF167C
:1049500019F085E193E002C081E193E075D9E39419
:1049600083E0E812ECCFF394E8E0FE12C4CF8BE0D2
:1049700093E06AD90DE716E0F12CF801619171918D
:10498000819191918F0164DAF2E0FF1619F089E0CC
:1049900093E002C085E093E057D9F39483E0F812E6
:1049A000ECCF8FEF92E050D96091890670918A0622
:1049B00080918B0690918C064BDA8BEF92E044D974
:1049C0006EDF2C960FB6F894DEBF0FBECDBFDF9121
:1049D000CF911F910F91FF90EF90089589EF92E092
:1049E00033D980914E06823091F038F4882361F0FB
:1049F0008130A1F483EF92E00CC0833061F0883005
:104A000069F489EE92E005C086EF92E002C080EF83
:104A100092E01AD90AC08DEE92E0FBCF84EE92E0CC
:104A200013D980914E06865060D981EE92E00CD960
:104A3000809154068A5C59D980915206813049F0A0
:104A400028F0823049F482ED92E005C08CED92E0CE
:104A500002C087ED92E0F8D880915006811103C022
:104A60008DEC92E002C088EC92E0EED88091510685
:104A7000811103C083EC92E002C08EEB92E0E4D897
:104A800080914F06813019F489EB92E002C084EBEB
:104A900092E0DAD880915506813049F028F08230D2
:104AA00049F488EA92E005C080EB92E002C08CEA0B
:104AB00092E0CAD880915706813031F040F08230C0
:104AC00049F480EA92E005C084EA92E002C08CE9F1
:104AD00092E0BAD880915606882329F0823031F4CA
:104AE00084E992E002C088E992E0AED881E992E0E0
:104AF000ABD880916006F9D88EE892E0A5D8609195
:104B00005C0670915D0680915E0690915F06AED95D
:104B10008BE892E099D8609158067091590680917F
:104B20005A0690915B06B2D987E892E08DC81F9330
:104B3000CF93DF93182FEB0184E892E085D8812F83
:104B4000D4D882E892E080D8CE0172D88FE792E084
:104B5000DF91CF911F9178C8CF93DF93EC018EE660
:104B600092E072D8CE0164D88AE692E0DF91CF91CC
:104B70006BC8BF92CF92DF92EF92FF920F931F9379
:104B8000CF93DF93CDB7DEB768970FB6F894DEBF4B
:104B90000FBECDBF8CE0ECECF6E0DE011D9601907F
:104BA0000D928A95E1F78091C7068430E9F040F4D0
:104BB0008130E9F080F0823001F585E492E01CC09C
:104BC000803179F018F4883049F017C0803291F0C4
:104BD000803421F012C084E692E00EC08FE592E0AE
:104BE0000BC089E592E008C083E592E005C08CE443
:104BF00092E002C08FE392E027D88091DC078370B7
:104C000039F0BE01635F7F4FCE0101960E94EA3703
:104C10008091DC0780FD05C08091DC0781FF66C0C4
:104C200019C088E392E010D869817A818B819C81D8
:104C30000FD986E392E008D86D817E818F819885B7
:104C400007D986E392E000D869857A858B859C85B3
:104C5000FFD8E2CF8FE292E00E94241E91E7E92E76
:104C600096E0F92E8E010F5F1F4FB12C6801F701FE
:104C700061917191819191917F012085318542856A
:104C800053850E94AC389B01AC01F80160817181B1
:104C9000828193810E94AB38F801608371838283A3
:104CA0009383F2E0BF120FC02091890630918A06EB
:104CB00040918B0650918C060E94AB38F8016083BE
:104CC0007183828393830C5F1F4FF6016081718132
:104CD00082819381BDD8F2E0BF1621F08DE292E08F
:104CE0000E94241EB39423E0B212C0CF8091DC074F
:104CF00082FF08C087E292E00E94241E0E94081EE4
:104D00000E94751E8091DC0783FF07C082E292E05B
:104D10000E94241E48D00E94751E8091DC07807777
:104D200071F18CE192E00E94241E8091DC0784FFE7
:104D300006C00E940D1143E062E00E94331E8AE12A
:104D400092E00E94241E8091DC0785FF0AC0BDD836
:104D5000882319F088E192E002C086E192E00E9487
:104D6000241E84E192E00E94241E8091DC0786FFCD
:104D700006C00E94A83544E062E00E94331E80E134
:104D800092E00E94241E68960FB6F894DEBF0FBE14
:104D9000CDBFDF91CF911F910F91FF90EF90DF90EA
:104DA000CF90BF90089590916E0580916F058917FF
:104DB00008F48058891B0895E0ECF0E0808182605F
:104DC00080831092C50080E18093C400E1ECF0E0A4
:104DD0008081806180838081886080838081806819
:104DE00080830895E0916D0591E09E0F903409F461
:104DF00090E020916C05921305C02091CA0624FF13
:104E0000F8CF0895F0E0E851F94F808390936D0555
:104E10008091C10080628093C10008951F920F921B
:104E20000FB60F9211240BB60F928F939F93EF93AF
:104E3000FF9380916C05E82FF0E0E851F94F9081E5
:104E40009093C6008F5F803409F480E080936C05F6
:104E500090916D05891305C08091C1008F7D80936D
:104E6000C100FF91EF919F918F910F900BBE0F901A
:104E70000FBE0F901F90189590916E0580916F0551
:104E8000891761F0E92FF0E0E85DF84F80819F5FBE
:104E9000903809F490E090936E0508958FEF08958F
:104EA0001F920F920FB60F9211240BB60F922F93F1
:104EB0003F934F935F936F937F938F939F93AF93A2
:104EC000BF93EF93FF938091C6008132E9F038F4ED
:104ED000883131F1893139F50E94A70535C0803418
:104EE000C9F08E3741F08F33F1F49FB7F894809179
:104EF000CA06816005C09FB7F8948091CA06826097
:104F00008093CA069FBF20C09FB7F8948091CA06BD
:104F10008860F6CF9FB7F8948091CA068062F0CF80
:104F20000E94201811C0E0916F0591E09E0F90380B
:104F300009F490E020916E05921731F0F0E0E85D01
:104F4000F84F808390936F05FF91EF91BF91AF91E0
:104F50009F918F917F916F915F914F913F912F9191
:104F60000F900BBE0F900FBE0F901F901895809161
:104F70006F0580936E05089521E5829FC00111247D
:104F800040E550E09D5F0C94260640E550E0BC01F2
:104F90008EEA93E00C9426062DE0829FC001112436
:104FA0004CE050E09E5F0C9426066AE080E090E0C2
:104FB0000E94040645E550E068EA77E081E090E071
:104FC0000C942606AF92BF92CF92DF92EF92FF929F
:104FD0000F931F93CF93DF93CDB7DEB72C970FB608
:104FE000F894DEBF0FBECDBF182F80FFEDC08AE062
:104FF0008093D8078FEF8093DB071092D907109228
:10500000DA0723E02093DC078AE097EDA3EABCE30C
:105010008093DD079093DE07A093DF07B093E0074E
:105020008FE692E1A3E0BBE38093E1079093E20770
:10503000A093E307B093E40780E090E8ABE3B6E425
:105040008093E5079093E607A093E707B093E807FE
:105050001092E9071092EA071092EB071092EC0702
:105060002093EE0780E090E0A8ECB1E48093EF0796
:105070009093F007A093F107B093F20780E090E8D7
:10508000ABEBB4E48093F3079093F407A093F50798
:10509000B093F6078AEF90E09093F8078093F707B4
:1050A00080E090E0A0E8BFE38093F9079093FA07CF
:1050B000A093FB07B093FC0780E18093ED078BE2A0
:1050C00097ECA1EBB2E48093A8079093A907A09373
:1050D000AA07B093AB078093AC079093AD07A0935A
:1050E000AE07B093AF078EE492EFACEBB3E48093DE
:1050F000B0079093B107A093B207B093B30740E015
:1051000050E46CE975E44093B4075093B50760939D
:10511000B6077093B7074093B8075093B9076093E9
:10512000BA077093BB0780E090E0A8E4B4E48093F2
:10513000BC079093BD07A093BE07B093BF0740E0A4
:105140005AEB6BED79E44093C0075093C10760932D
:10515000C2077093C3074093C4075093C507609379
:10516000C6077093C70780E090EFA2E5B8E480938C
:10517000C8079093C907A093CA07B093CB0780E0F4
:1051800090E0A6E9B3EC8093CC079093CD07A09371
:10519000CE07B093CF0783E393E3ABE4B3EC809304
:1051A000D0079093D107A093D207B093D30780E0A4
:1051B00090E0A0EAB2EC8093D4079093D507A09337
:1051C000D607B093D707F1DE11FF43C0CE01019699
:1051D0005C018CE0F50111928A95E9F700E0B501D8
:1051E000802FDADE0F5F0830D1F780E090E4ADE881
:1051F000B3EC89839A83AB83BC8380E090E8A7E417
:10520000B3EC8D839E83AF83B887C12CD12C80E80B
:10521000E82E8FEBF82EC986DA86EB86FC86B50180
:1052200086E0BADE80E090E0A6E1B3EC89839A8361
:10523000AB83BC8380E090E0A0E2B1EC8D839E83E1
:10524000AF83B887C986DA86EB86FC86B50187E02E
:10525000A3DE12FF0AC060E080E093E00E94040633
:1052600060E081E593E00E94040613FF05C060E062
:105270008EEA93E00E9404062C960FB6F894DEBFE7
:105280000FBECDBFDF91CF911F910F91FF90EF9097
:10529000DF90CF90BF90AF9008951F93CF93DF938F
:1052A000182FEB0181E5189FB00111247D5F40E5C7
:1052B00050E0CE010E946206892B31F41882BE01B3
:1052C000812F5ADE80E001C081E0DF91CF911F91F4
:1052D0000895CF93DF93EC0140E550E06EEA73E070
:1052E0000E946206892B29F41882CE014EDE80E0EE
:1052F00001C081E0DF91CF9108951F93CF93DF9399
:10530000182FEB018DE0189FB00111247E5F4CE057
:1053100050E0CE010E946206892B51F48CE0FE0120
:1053200011928A95E9F7BE01812F36DE80E001C037
:1053300081E0DF91CF911F91089580E090E00E947D
:10534000FC058A3059F445E550E061E070E088EAF8
:1053500097E00E94620621E0892B09F420E0822F69
:105360000895CF92DF92EF92FF92CF93DF93C82FF1
:105370006A017B0120E030E0A901C701B6010E946B
:10538000853987FDF6C0C43608F445C02CE92C0FDA
:1053900080E02330B8F530E0823079F0F901EE0F8B
:1053A000FF1FEE0FFF1F833011F1813019F0E85518
:1053B000F84F23C0EC54F84F20C0E901CC0FDD1F9B
:1053C000CC0FDD1FC054D84F20E030E040E752E45E
:1053D000C701B6010E94C33B20E030E040E752E441
:1053E0000E94C33B688379838A839B83BFC0E45355
:1053F000F84FF7FAF094F7F8F094C082D182E28285
:10540000F382B4C08F5F2A3008F4B5C0843009F449
:10541000B2C02A50BECFC701B6010E94913C0E9483
:10542000F9398C2F90E08032910508F0A4C0FC017E
:10543000EB54FF4F0C94DE3C633008F49EC0609345
:10544000D80794C06093DB0791C06093D90702C06E
:105450006093DA0778D48AC08091ED07662311F053
:10546000846007C08B7F05C08091ED07662321F023
:1054700080648093ED077AC08F7BFBCF8091ED072E
:10548000662311F08068F5CF8F77F3CF6093DC0748
:105490006DC0C092DD07D092DE07E092DF07F09288
:1054A000E00764C0C092E107D092E207E092E30710
:1054B000F092E4075BC08091ED07662311F08160F4
:1054C000D8CF8E7FD6CF8091ED07662321F084FF61
:1054D00056C08062CECF8F7DCCCF8091ED07662302
:1054E00011F0886001C0877F8093ED070E94F7105C
:1054F0003DC08091ED07662311F08061BACF8F7CAB
:10550000B8CF6093EE0732C0C092EF07D092F00799
:10551000E092F107F092F20729C0C092F307D0920F
:10552000F407E092F507F092F60720C070E0709360
:10553000F8076093F7071AC0C092F907D092FA07EC
:10554000E092FB07F092FC0711C0C092E507D092F1
:10555000E607E092E707F092E80708C0C092E90783
:10556000D092EA07E092EB07F092EC071EDD80E0B4
:1055700007C084E005C083E003C086E001C08AE084
:10558000DF91CF91FF90EF90DF90CF900895D5DE1F
:10559000811106C087E00E9468228FEF13DD3DC8AD
:1055A0000895882321F0813021F480E4089580E279
:1055B000089580E80895882321F0813021F488E05F
:1055C000089584E0089580E10895882321F08130D2
:1055D00021F480E2089580E1089580E4089584B183
:1055E000807F84B984B1876084B98DE58CBD81E00A
:1055F0008DBD08958EBD0DB407FEFDCF8EB5089507
:105600008F929F92AF92BF92CF92DF92EF92FF92D2
:105610000F931F93CF93DF936B017C01EA01988175
:1056200001E010E001C0000F2A95EAF7802F809575
:10563000892388832FE0E222FF248E2DDBDF882E52
:10564000912CA12CB12CBA2CA92C982C88248D2D0E
:10565000D1DF882ABA2CA92C982C88248C2DCADF5B
:10566000A5019401282BCA01B9012881202B288388
:1056700024E096958795779567952A95D1F7DF91E0
:10568000CF911F910F91FF90EF90DF90CF90BF903F
:10569000AF909F908F900895E1E0F1E08081806469
:1056A000808383E28093B000E1EBF0E08081887F2B
:1056B0008260808340E060E080E092E00C940B0523
:1056C00043E060E080E092E00E940B0545E060E08E
:1056D00086E092E00E940B0545E06FEF8CE092E0DF
:1056E0000C940B058F929F92AF92BF92CF92DF9254
:1056F000EF92FF920F931F93CF93DF936A017B0189
:1057000081110DC0DF91CF911F910F91FF90EF900C
:10571000DF90CF90BF90AF909F908F90D1CFA0900F
:10572000E507B090E6070091E7071091E807809041
:10573000E9079090EA07D091EB07C091EC0794013C
:105740004D2F5C2FB501C8010E94853918160CF049
:105750003FC09501A801B601C7010E94883B1816F9
:1057600014F46501780194014D2F5C2FB601C70137
:105770000E94853987FF03C06401ED2EFC2E940141
:105780004D2F5C2FB601C7010E94AB386B017C0125
:1057900094014D2F5C2FB501C8010E94AB389B01CD
:1057A000AC0160E070E08FE793E40E948C399B01CC
:1057B000AC01C701B6010E94C33B20E030E040E0ED
:1057C0005FE30E94AC380E94623A0E94F93901C03E
:1057D0006FEF42E080E092E00E940B0544E06FEF43
:1057E00086E092E00E940B0544E064E68CE092E0E3
:1057F000DF91CF911F910F91FF90EF90DF90CF90AD
:10580000BF90AF909F908F900C940B05CF93DF9338
:1058100000D01F921F92CDB7DEB79091C70692308D
:10582000A1F04A835B836C837D8389830E945A2223
:105830004A815B816C817D8189810F900F900F90EF
:105840000F900F90DF91CF914DCF0F900F900F9051
:105850000F900F90DF91CF910895E2E0F1E0808109
:105860008F7780838091AD058093C1058091AE05CF
:105870008093C0058091D807880F845081958093CC
:10588000BF05EFE6F0E0808182608083089580911B
:105890006F008D7F80936F0080918100887F816091
:1058A000809381001092AC058091DB078F3F21F43B
:1058B0009091CB06992339F09091C706943019F056
:1058C00090E00E942D198091C706813021F48091CB
:1058D0000201806803C0809102018F7780930201EA
:1058E00008951F920F920FB60F9211240BB60F92CC
:1058F0002F933F934F935F936F937F938F939F93D8
:10590000AF93BF93CF93DF93EF93FF938091AC0559
:105910008111EEC192B18091C1058C71937E892B6A
:1059200082B982B18F719091C005892B82B9809123
:10593000BF0586BD82E085BD81E08093AC0578948B
:105940008091D3059091D405892B09F0A3C0809153
:10595000B1059091B005981709F492C0E091B10596
:1059600086E0E89FF0011124EB52FA4FF093D40542
:10597000E093D3058381948190938900809388007C
:10598000808191819093CF058093CE05A2818091F3
:10599000D0058A1771F1A093D00581E1A89FD001AD
:1059A0001124A750BA4FB093D205A093D1051D96EC
:1059B0008D919D910D90BC91A02DB695A795979531
:1059C00087958093BA059093BB05A093BC05B093CF
:1059D000BD058093B6059093B705A093B805B09325
:1059E000B9058093B2059093B305A093B405B09325
:1059F000B505C091D105D091D2058091AD059881B2
:105A000089278093C105258189819A81AB81BC81D9
:105A1000022E04C0B695A795979587950A94D2F75C
:105A20008093C2059093C305A093C405B093C505A8
:105A30008D819E81AF81B885022E04C0B695A79551
:105A4000979587950A94D2F78093C6059093C705DA
:105A5000A093C805B093C90589859A85AB85BC8597
:105A600004C0B695A795979587952A95D2F7809308
:105A7000CA059093CB05A093CC05B093CD050AC081
:105A800006DF9FB7F8948091CA0684608093CA06A7
:105A90009FBF2EC10E946C1F1092C0058091C2054D
:105AA0009091C305A091C405B091C5054091B20580
:105AB0005091B3056091B4057091B505840F951FA1
:105AC000A61FB71F8093B2059093B305A093B405AA
:105AD000B093B505E091D105F091D2054585568585
