:10000000FBC400000DC500000BC5000009C50000C1
:1000100007C5000005C5000003C5000001C50000BC
:10002000FFC400000C94E812FBC400000C94FB39E0
:10003000F7C40000F5C40000F3C40000F1C40000E0
:10004000EFC400000C94B030EBC40000E9C4000021
:10005000E7C40000E5C40000E3C400000C94C7320C
:10006000DFC400000C94782A0C94392AD9C400000B
:10007000D7C40000D5C40000D3C40000D1C4000020
:10008000CFC40000CDC40000CBC400000C94C82E27
:10009000C7C40000C5C40000C3C40000C1C4000040
:1000A000BFC40000BDC40000BBC40000B9C4000050
:1000B000B7C40000B5C40000B3C40000F3C400001E
:1000C000AFC40000ADC40000ABC40000A9C4000070
:1000D000A7C40000A5C40000A3C40000A1C4000080
:1000E0009FC40000090A61126112130A200A2D0A36
:1000F0003A0A61123E0A61124C0A6112560A600AFB
:10010000910A6112611261126A0A770A840AD51093
:10011000E6101311E61017112A111D1123113F11BA
:100120004D1163118611B711C911DD11EF114B2566
:100130004E255225552558255B255E2561256425CC
:1001400067256A256D25702573257F257F257F25E9
:100150007F257F25792576257C25BF25C225C525C8
:10016000C825CB25CE25D125D425D725702D762D94
:10017000792D7C2D802D882D922D372E372E372EE0
:100180009A2D9D2DA62DAF2D372E372E372E372E9B
:10019000372E372EB72DC12DCD2DD52DD82DE12DB4
:1001A000EA2DF02D372E372EF92D022E372E372E31
:1001B000372E372E372E372E372E372E372E372E17
:1001C000372E372E372E372E372E372E372E372E07
:1001D0000B2E084AD73B3BCE016E84BCBFFDC12F1E
:1001E0003D6C74319ABD56833DDA3D00C77F11BE28
:1001F000D9E4BB4C3E916BAAAABE000000803F052B
:10020000A84CCDB2D44EB93836A9020C50B991865B
:1002100088083CA6AAAA2ABE000000803F007D0DE7
:100220000A002C5072623A002C4C696D3A004374FB
:100230006C3A007B53773A005D0D0A005B4F7665A0
:100240007243757272656E743A003E0D0A002C4955
:100250003A007C00310030007C002C50696E3A007E
:100260002C52583A002C4275663A002C002C5750FC
:100270006F733A002C002C4D506F733A003C536C56
:10028000656570003C486F6C64003C446F6F7200A1
:100290003C446F6F72003C436865636B003C416C8B
:1002A00061726D003C486F6D65003C486F6C640086
:1002B0003C52756E003C49646C65005D0D0A003A65
:1002C0004354524C005B312E322E332E32303136B5
:1002D000303831363A000D0A003D00244E005D0DE5
:1002E0000A00205300204600205400204D370020F3
:1002F0004D3800204D3900204D3500204D34002070
:100300004D3300204D3200204D3100204D30002073
:10031000473934002047393300204739310020471E
:100320003930002047323000204732310020473139
:100330003900204731380020473137002047004737
:1003400033382E00473830004733004732004731FA
:10035000004730005B005D0D0A005B544C4F3A00D3
:100360005D0D0A002C005B4739323A005D0D0A0032
:100370002C003A003330003238005B47005D0D0A34
:10038000003A002C005B5052423A00290D0A00202E
:100390006D61782074726176656C2C206D6D002023
:1003A000616363656C2C206D6D2F7365635E320035
:1003B000206D617820726174652C206D6D2F6D69E0
:1003C0006E002C20737465702F6D6D007A007900BB
:1003D00078002028003D00240020285370696E64B6
:1003E0006C652049206D6178290D0A002435303D67
:1003F00000202872706D206D696E290D0A0020287A
:1004000072706D206D6178290D0A2433313D002012
:1004100028686F6D696E672070756C6C2D6F6666ED
:100420002C206D6D290D0A2433303D002028686F83
:100430006D696E67206465626F756E63652C206DF3
:10044000736563290D0A2432373D002028686F6DDB
:10045000696E67207365656B2C206D6D2F6D696EFD
:10046000290D0A2432363D002028686F6D696E67B9
:1004700020666565642C206D6D2F6D696E290D0AEF
:100480002432353D00290D0A2432343D00202868ED
:100490006F6D696E672064697220696E766572742B
:1004A000206D61736B3A002028686F6D696E67205C
:1004B0006379636C652C20626F6F6C290D0A24329E
:1004C000333D00202868617264206C696D69747323
:1004D0002C20626F6F6C290D0A2432323D002028D7
:1004E000736F6674206C696D6974732C20626F6F12
:1004F0006C290D0A2432313D0020287265706F721C
:100500007420696E636865732C20626F6F6C290DAF
:100510000A2432303D00202861726320746F6C65BC
:1005200072616E63652C206D6D290D0A2431333D97
:100530000020286A756E6374696F6E206465766941
:100540006174696F6E2C206D6D290D0A2431323D66
:1005500000290D0A2431313D00202873746174751F
:1005600073207265706F7274206D61736B3A002036
:100570002870726F62652070696E20696E76657290
:10058000742C20626F6F6C290D0A2431303D0020DD
:10059000286C696D69742070696E7320696E766568
:1005A00072742C20626F6F6C290D0A24363D002076
:1005B000287374657020656E61626C6520696E7663
:1005C0006572742C20626F6F6C290D0A24353D0012
:1005D000290D0A24343D00202864697220706F724E
:1005E0007420696E76657274206D61736B3A0029B0
:1005F0000D0A24333D0020287374657020706F72DB
:100600007420696E76657274206D61736B3A002098
:1006100028737465702069646C652064656C617909
:100620002C206D736563290D0A24323D0020287348
:100630007465702070756C73652C20757365632903
:100640000D0A24313D0024303D0024242028766901
:100650006577204772626C2073657474696E677386
:10066000290D0A24232028766965772023207061CC
:1006700072616D6574657273290D0A2447202876AE
:100680006965772070617273657220737461746537
:10069000290D0A2449202876696577206275696CDE
:1006A0006420696E666F290D0A244E2028766965DC
:1006B00077207374617274757020626C6F636B73F2
:1006C000290D0A24783D76616C7565202873617662
:1006D00065204772626C2073657474696E67290DBA
:1006E0000A244E783D6C696E65202873617665201A
:1006F0007374617274757020626C6F636B290D0A7C
:1007000024432028636865636B2067636F646520FA
:100710006D6F6465290D0A245820286B696C6C2064
:10072000616C61726D206C6F636B290D0A24482027
:100730002872756E20686F6D696E67206379636CCF
:1007400065290D0A7E20286379636C6520737461C6
:100750007274290D0A2120286665656420686F6C13
:1007600064290D0A3F202863757272656E742073C8
:100770007461747573290D0A6374726C2D78202866
:100780007265736574204772626C290D0A000D0A48
:100790006743617276696E20312E322E33205B27DB
:1007A000242720666F722068656C705D0D0A005DFD
:1007B0000D0A00536C656570204D6F6465005265CD
:1007C00073746F72696E672064656661756C7473AB
:1007D0000050676D20456E6400436865636B20447C
:1007E0006F6F720044697361626C656400456E618D
:1007F000626C65640043617574696F6E3A20556E72
:100800006C6F636B656400272448277C2724582776
:1008100020746F20756E6C6F636B00526573657426
:1008200020746F20636F6E74696E7565005B000DD8
:100830000A00486F6D696E67206661696C005072CE
:100840006F6265206661696C0041626F727420643A
:100850007572696E67206379636C6500536F6674A7
:10086000206C696D69740048617264206C696D69FF
:100870007400414C41524D3A20000D0A00496E76F9
:10088000616C69642067636F64652049443A005570
:100890006E646566696E6564206665656420726174
:1008A000746500556E737570706F72746564206343
:1008B0006F6D6D616E64004D6F64616C2067726F67
:1008C00075702076696F6C6174696F6E004C696E2B
:1008D00065206C656E67746820657863656564651E
:1008E0006400436865636B20446F6F7200537465E6
:1008F000702072617465203E2033306B487A004C62
:10090000696E65206F766572666C6F7700486F6DF3
:10091000696E67206E6F7420656E61626C6564003D
:10092000416C61726D206C6F636B004E6F74206957
:10093000646C6500454550524F4D207265616420DE
:100940006661696C2E205573696E67206465666107
:10095000756C74730056616C7565203C203320758E
:100960007365630053657474696E672064697361AD
:10097000626C65640056616C7565203C20300049EE
:100980006E76616C69642073746174656D656E74F4
:1009900000426164206E756D62657220666F726DD3
:1009A000617400457870656374656420636F6D6D74
:1009B000616E64206C6574746572006572726F722A
:1009C0003A20006F6B0D0A00205D0D0A0020536C69
:1009D000656570204665617475726520005B4645EB
:1009E000454420484F4C445D0D0A005B446F204451
:1009F0006F6F725D0D0A000011241FBECFEFD1E2B0
:100A0000DEBFCDBF00E00CBF2DE0A0E0B2E001C032
:100A10001D92AA34B207E1F70E944B150C94B9411C
:100A2000EFCAFC0111821282138214821582108295
:100A30000895FC014283148260830895FC011182B1
:100A4000428381E084838FEF808365830895FC0176
:100A500090818181981719F12281211102C091831F
:100A60001BC03381323018F03150338318C03481C9
:100A7000891740F48F5F8183332369F08F3F59F4E6
:100A8000858108C081508183332329F0958198178F
:100A900010F08FEF8083238381E090E0089580E061
:100AA00090E008951F920F920FB60F9211240BB68B
:100AB0000F920F931F932F933F934F935F936F93D7
:100AC0007F938F939F93AF93BF93EF93FF9382E1B5
:100AD00092E0BDDF892B39F08091130290E0909372
:100AE000A9008093A8008CE092E0B1DF892B39F057
:100AF00080910D0290E09093AB008093AA0086E075
:100B000092E0A5DF892B39F08091070290E0909365
:100B1000AD008093AC0080E092E099DF209101026B
:100B2000892B89F0211109C0809102018F7B80936C
:100B300002018091B0008F7C04C08091B0008F7C56
:100B400080628093B0002093B40080912402909141
:100B50002502181619064CF40197909325028093EC
:100B60002402892B11F40E940F3A209118022111BE
:100B700051C080911D0290911E02181619060CF0AA
:100B800049C08091510B803409F444C040917800F1
:100B90000091790020911B0230911C02AFE3B0E07C
:100BA0000E94A041640F711D811D911D10E020E085
:100BB00030E0322F212F102F0027600F711F821F6E
:100BC000931F56E096958795779567955A95D1F737
:100BD00070931C0260931B022091190230911A023B
:100BE0002617370798F48CE392E00E9478206091F2
:100BF0001B0270911C0280E090E00E94352188E386
:100C000092E00E94782080E20E94743C8AE0809307
:100C1000180203C0215020931802FF91EF91BF9159
:100C2000AF919F918F917F916F915F914F913F9184
:100C30002F911F910F910F900BBE0F900FBE0F9031
:100C40001F90189586B18695869586959FE1892790
:100C5000089581E090E09093200280931F0287B175
:100C6000877087B988B1886F88B9809101018860E1
:100C70008093010180910101806180930101809145
:100C80000101806280930101DDDF90E090931E02FC
:100C900080931D020E949A3C8BEA8093A000809171
:100CA000A100887F82608093A1001092A900109219
:100CB000A8001092AD001092AC0083EA80939000DF
:100CC00080919100887F8260809391001092AB00A8
:100CD0001092AA001092200110922101809121010E
:100CE000886080932101809121018460809321019B
:100CF00088E790E090932901809328018091730008
:100D000082608093730080911D0290911E021816DC
:100D1000190674F484EA80937A0080EC80937C0056
:100D200080917A00806480937A008AE08093180230
:100D300082E192E076DE8CE092E073DE86E092E083
:100D400070DE80E092E06DDE93E0909314021092EA
:100D500016028FEF8093120290930E0210921002EF
:100D600080930C0281E090E00C94423D28E088E101
:100D700090E00FB6F894A895809360000FBE209382
:100D80006000FFCFCF93DF9383E392E00E9478204F
:100D90008EE292E00E947820C6E0D1E088818670E1
:100DA0000E94C62088E292E00E94782083B180777A
:100DB0000E94C62082E292E00E947820888188709A
:100DC0000E94C6208EE192E0DF91CF910C947820B2
:100DD000A598E5E0F1E080818D7F808308959D9A5C
:100DE000E4E0F1E0808182608083F2CF9091500B4B
:100DF00091110DC0823011F4A59A0895813031F41B
:100E0000809105018260809305010895E1CF0895E6
:100E1000CF93DF931F92CDB7DEB79091510B9230F5
:100E200041F089830E94272589810F90DF91CF911E
:100E3000DDCF0F90DF91CF910895F999FECF92BD4C
:100E400081BD81E08FBB80B50895F894F999FECFFC
:100E500092BD81BD81E08FBB40B54627842F992785
:100E600087FD9095262F30E082239323892B39F03C
:100E70006F3F19F060BD84E006C084E104C04423E4
:100E800021F060BD84E28FBBF99A789408959F9217
:100E9000AF92BF92CF92DF92EF92FF920F931F9388
:100EA000CF93DF938C017A016B01C40ED51EEB0149
:100EB000912C5C01A61AB70ACE018A0D9B1DCC1598
:100EC000DD0589F0911009C0692D772767FD7095C0
:100ED000272F221F2227221F01C021E06991922E75
:100EE000960EB3DFE9CF692DC8018E0D9F1DDF91EE
:100EF000CF911F910F91FF90EF90DF90CF90BF9017
:100F0000AF909F90A2CF9F92AF92BF92CF92DF926D
:100F1000EF92FF920F931F93CF93DF938B017A0190
:100F20006C01C40ED51EEC01912C5B01A81AB90A04
:100F3000C5018C0F9D1FCC15DD0589F07EDF91105A
:100F400009C0292D332727FD3095232F221F222763
:100F5000221F01C021E0922E980E8993E9CFC8018B
:100F60008E0D9F1D6ADF21E030E0981611F020E021
:100F700030E0C901DF91CF911F910F91FF90EF9069
:100F8000DF90CF90BF90AF909F9008958FE3E8EDF2
:100F9000FAE0DF011D928A95E9F76BEF7AE080E0D5
:100FA0000E949E2C811103C087E00C943625089581
:100FB00065E57BE08FEE9AE00C945B3C2F923F92CC
:100FC0004F925F926F927F928F929F92AF92BF9259
:100FD000CF92DF92EF92FF920F931F93CF93DF9305
:100FE000CDB7DEB7AB970FB6F894DEBF0FBECDBF5F
:100FF0009F8F8E8F89E3E7E1FBE0DF011D928A95E9
:10100000E9F78AE0E8EDFAE0A8E1BBE001900D9293
:101010008A95E1F71D8E212C312CA12CB12C19A21F
:10102000512C18A266246394712C08E0402E992458
:10103000939485E0882E8D8DEE8DFF8DE80FF11D48
:101040000081002309F490C29FEB900F9A3110F0B9
:101050000C9453128F5F8D8FAE01475E5F4FBE01C0
:10106000635E7F4F8E8D9F8D0E94F419882311F44B
:101070000C945512C98CDA8CEB8CFC8CC701B60130
:101080000E944D410E94B53E162F70E080E090E036
:101090000E94E33E9B01AC01C701B6010E94673D7F
:1010A00020E030E048EC52E40E947F400E94E240A1
:1010B0000E94B53E073421F00D3409F450C197C1A8
:1010C000183209F432C1E8F4143160F4113108F037
:1010D000D7C0143009F45AC008F48EC01A30D9F1C0
:1010E0000C9461121C31B9F128F4163108F4F7C0E0
:1010F0000C9461121E3179F1163209F47DC00C9402
:1011000061121D3309F40BC1A8F4153309F461C051
:1011100040F41B3209F4ECC0113309F4E9C00C941B
:1011200061121C3310F00C946112165310931E0BB5
:1011300089E000C11C3540F41A3508F0B0C0103504
:1011400009F49BC00C9461121C3529F01F3508F47A
:10115000BDC00C9461126115710531F4B8A1B111D3
:101160000C945712E1E0E8A31C3199F038F41430E4
:1011700069F01A3009F0DBC082E02CC0153349F168
:101180001C3559F11E3109F0D2C013C09092170BD3
:10119000CEC06115710549F06A30710511F00C94EB
:1011A000611224E02093170B09C0F3E0F093170BB2
:1011B00005C06115710521F48092170B80E0BFC056
:1011C0006A30710511F00C94611236E03093170B00
:1011D000F5CF87E08093170BAAC06115710549F020
:1011E0006A30710511F00C94611299E09093170B1D
:1011F000E5CF4092170BE2CFA8A1A1110C94571292
:10120000B2E0B8A3123089F028F4112359F011305C
:1012100081F08FC0163281F0103579F1133009F06A
:1012200088C007C01092180B84C0E8A1E093180B87
:1012300080C01093180B7DC06E317105B1F048F479
:101240006431710511F00C946112F4E0F093180B05
:1012500012C06832710561F06233710511F00C94AF
:10126000611237E03093180B06C08092180B03C050
:1012700026E02093180B81E062C04092180B59C001
:10128000123129F0133139F010921C0B02C09092E8
:101290001C0B82E04FC082E080931C0B4BC0611599
:1012A000710549F41A3519F410921B0B02C0909283
:1012B0001B0B83E044C06A30710511F00C9461127D
:1012C0001A3511F40C94611284E039C01D3519F4FB
:1012D0009092190B02C01092190B85E02BC01431AB
:1012E00019F490921A0B02C010921A0B86E022C0D9
:1012F00088A181110C945712113331F410921D0BF7
:1013000088E093E098A31BC06A30710511F00C943B
:10131000611290921D0B88E0A3E0A8A310C0672B78
:1013200011F00C9461128AE00AC087E003C080E0EB
:1013300001C081E0672B19F087E10C947412F3016E
:1013400002C0EE0FFF1F8A95E2F7CF019F012A210D
:101350003B21232B09F448C085E10C947412672BC0
:1013600059F7163018F4133058F017C0173010F42E
:101370000C9461121A3000F11E3159F00C94611274
:10138000123039F01E3129F0111125C090921F0B37
:1013900022C082E080931F0B1EC0143029F015304C
:1013A00039F09092210B06C082E08093210B02C09D
:1013B0001092210B8CE010C0183029F0193039F050
:1013C0009092200B06C082E08093200B02C0109206
:1013D000200B8DE001C08BE0930102C0220F331F70
:1013E0008A95E2F7C901B3CFA82AB92A24CE802F63
:1013F000992787FD9095A92FB92FFC01E654F10993
:10140000E531F10510F00C946112EE58FF4F0C9489
:101410009A41C092220BD092230BE092240BF092BF
:10142000250B80E07FC0C092260BD092270BE09264
:10143000280BF092290B39A1316039A381E072C0E9
:10144000C0922A0BD0922B0BE0922C0BF0922D0B1A
:1014500089A1826089A382E065C0C0922E0BD092E0
:101460002F0BE092300BF092310B99A1946099A36D
:1014700083E058C01093320B84E054C0C701B6011A
:101480000E94B03E6093330B7093340B8093350B06
:101490009093360B85E046C0C092370BD092380B44
:1014A000E092390BF0923A0B86E03CC0C0923B0BC5
:1014B000D0923C0BE0923D0BF0923E0B87E032C0A5
:1014C000C0923F0BD092400BE092410BF092420B46
:1014D00088E028C0C092440BD092450BE092460BA6
:1014E000F092470BA52DA1605A2E8AE01BC0C09236
:1014F000480BD092490BE0924A0BF0924B0BB52D62
:10150000B2605B2E8BE00EC0C0924C0BD0924D0BA4
:10151000E0924E0BF0924F0BE52DE4605E2E8CE0D6
:1015200001C089E08301082E02C0000F111F0A9438
:10153000E2F7980122213321232B09F0BAC721E6D3
:1015400033E002C0359527958A95E2F720FF09C060
:1015500020E030E0A901C701B6010E94413E87FDAD
:10156000AAC7202A312A67CD552029F038A1311188
:1015700002C082E088A325FE0EC08091330B9091BB
:10158000340BA091350BB091360B80389649A849A1
:10159000B1050CF092C78091190B813031F4F8A19C
:1015A000F230A1F520FE93C731C08091D90A811194
:1015B0002DC020FE1BC080911A0B813039F523E32A
:1015C00033E34BEC51E46091220B7091230B80913B
:1015D000240B9091250B0E947F406093220B709307
:1015E000230B8093240B9093250B10C08091E60A67
:1015F0009091E70AA091E80AB091E90A8093220B42
:101600009093230BA093240BB093250B30FC10C0B8
:101610008091E20A9091E30AA091E40AB091E50A70
:1016200080933F0B9093400BA093410BB093420BE0
:101630008091170B813031F426FC02C08CE154C735
:10164000E89426F880911C0B882341F0813061F0EA
:1016500019A682E088A791E09FA30BC022E029A7EA
:1016600031E038A71FA205C0A1E0A9A718A6B2E0E3
:10167000BFA380911A0B813021F0E8A1E33091F5EE
:101680002AC0B4E4EB2EBBE0FB2E00E010E0C52C3A
:10169000D12CC601002E02C0959587950A94E2F7D9
:1016A00080FF10C023E333E34BEC51E4D7016D918D
:1016B0007D918D919C910E947F40F70160837183A1
:1016C000828393830F5F1F4FF4E0EF0EF11C033012
:1016D0001105F9F6D2CF80911D0B813019F424E069
:1016E0005212EDC68CE0EBEFFAE0DE011D960190A0
:1016F0000D928A95E1F7B1FC09C03091170B3E8F2E
:101700003230B9F0383009F4B0C015C180911E0BE9
:10171000873010F08DE1E8C69091DE0A981769F3E2
:10172000BE01635F7F4F0E949E2C882309F4D9C6B7
:10173000E4CF511002C08AE1D7C6C1018075992754
:10174000892B09F47BCF6091370B7091380B809116
:10175000390B90913A0B0E944D410E94B53E673083
:10176000C8F68091320B843129F0823009F0A9C685
:1017700027FCA7C68FEA2822662319F061506E8FD6
:1017800003C090911E0B9E8FBE016F5F7F4F8E8DA9
:101790000E949E2C882309F4A4C64090320B6090CE
:1017A000130B7090140B8090150B9090160BDE01AC
:1017B00011967D01F4E4AF2EFBE0BF2EAFEECA2EF2
:1017C000AAE0DA2E00E010E0E52DF0E0FEA3EDA3A4
:1017D0008DA19EA1002E02C0959587950A94E2F7EF
:1017E00080FF33C0F4E14F1226C0D60158962D91E8
:1017F0003D914D915C915B976D917D918D919C9107
:101800000E94673DF50120813181428153810E9410
:10181000673DD7016D937D938D939C931397023011
:10182000A1F4A40193010E94673DF70160837183D5
:10183000828393830AC0F50180819181A281B38163
:10184000F70180839183A283B3830F5F1F4FF4E07E
:10185000EF0EF11C24E0A20EB11C34E0C30ED11C2B
:101860000330110509F0B4CF33C1552009F463CF1B
:101870006090130B7090140B8090150B9090160BCA
:1018800004E41BE0EFEECE2EEAE0DE2E5E018DE0FA
:10189000A80EB11CE12CF12CA52DB0E0BF8FAE8FAE
:1018A0008E8D9F8D0E2C02C0959587950A94E2F738
:1018B00080FF26C0F5012081318142815381D6010C
:1018C0006D917D918D919C910E94673DF8012081E1
:1018D0003181428153810E94673DD8016D937D9390
:1018E0008D939C931397B2E0EB1214C0A401930163
:1018F0000E94673DF80160837183828393830AC0ED
:10190000F601808D918DA28DB38DF8018083918336
:10191000A283B383FFEFEF1AFF0A0C5F1F4F24E08F
:10192000C20ED11C34E0A30EB11C83E0E816F10412
:1019300009F0B6CFCCC098A1933079F4AE8DA53024
:1019400009F48BC0A73009F4BDC0A33009F0BFC0B3
:10195000BE016F5F7F4F86E084C0552079F34090D1
:101960001B0B6090130B7090140B8090150B9090D4
:10197000160B7FEEC72E7AE0D72E04E41BE05E0143
:10198000BDE0AB0EB11CE12CF12CE52DF0E0FEA387
:10199000EDA38DA19EA10E2C02C0959587950A946A
:1019A000E2F780FD0BC0F60180819181A281B381B5
:1019B000F80180839183A283B3833EC0FE8DF7300C
:1019C000D9F1411028C0D60158962D913D914D91E5
:1019D0005C915B97F50160817181828193810E94A6
:1019E000683DD8012D913D914D915C910E94683DDB
:1019F000F8016083718382839383F2E0EF121CC04D
:101A0000A40193010E94683DD8016D937D938D934D
:101A10009C93139711C0F60120813181428153813B
:101A2000D8016D917D918D919C910E94683DF80146
:101A30006083718382839383FFEFEF1AFF0A24E0B0
:101A4000C20ED11C0C5F1F4F34E0A30EB11C83E00B
:101A5000E816F10409F09DCF71CFBE016F5F7F4F93
:101A600087E00E949E2C882309F43BC5511003C0D7
:101A70001E8E18A22DC020E030E080E090E0452DC1
:101A800050E0BA01082E02C0759567950A94E2F7F6
:101A900060FD11C0F901E852F54FC788D08CE18C88
:101AA000F28CE1E0F0E0EC0FFD1FE20FF31FC082CB
:101AB000D182E282F38201962C5F3F4F8330910501
:101AC00001F705C08091180B823008F0FCC41E8E0F
:101AD0001091180B183041F4552009F4B3C198A1A6
:101AE000913009F0F2C48BC2A8A1A23009F0AAC1BA
:101AF0001123D9F020E030E0A9016091220B709110
:101B0000230B8091240B9091250B0E94413E88234A
:101B100009F4DDC4143028F4123058F4113029F0DF
:101B20006EC2183008F44DC16AC2511068C218A2C2
:101B30008CC1552009F4FFCDFFA1EF2FF0E0FEA3EB
:101B4000EDA338A5232F30E03BA72AA781E090E042
:101B50003C0108A402C0660C771C0A94E2F70FA0AF
:101B600002C0880F991F0A94E2F7682A792A852D06
:101B700090E086219721892B09F4ABC4CF01880F0F
:101B8000991F880F991FFC01E95EF44FDC01A852F0
:101B9000B54F57962D913D914D915C915A9765A502
:101BA00076A587A590A90E94673D6B017C018AA557
:101BB0009BA5880F991F880F991FFC01E95EF44FC0
:101BC000DC01A852B54F57962D913D914D915C91F6
:101BD0005A9765A576A587A590A90E94673D4B01F8
:101BE0005C0127FE40C0E89427F82091440B309117
:101BF000450B4091460B5091470B6091EF0A709155
:101C0000F00A8091F10A9091F20A0E94413E8111FE
:101C100020C12091480B3091490B40914A0B5091C3
:101C20004B0B6091F30A7091F40A8091F50A909140
:101C3000F60A0E94413E81110CC120914C0B30915B
:101C40004D0B40914E0B50914F0B6091F70A7091E4
:101C5000F80A8091F90A9091FA0A0E94413E811196
:101C6000F8C081E241C4F9A14F2E512C64207520A7
:101C7000672809F430C421EF222280911A0B8130A9
:101C800009F45AC00AA51BA5000F111F000F111F50
:101C9000055E144FD8011B962D913D914D915C919D
:101CA0001E97C501B4010E94673D2B013C01ADA008
:101CB000BEA0AA0CBB1CAA0CBB1CF501E55EF44F30
:101CC0005F012385348545855685C701B6010E948D
:101CD000673DA30192010E94E11A6B017C01D801CA
:101CE0001B962D913D914D915C911E97F501638559
:101CF0007485858596850E94E11A4B015C0160938D
:101D00003B0B70933C0B80933D0B90933E0B9B01E0
:101D1000AC01C701B6010E94673D6B017C01E894EC
:101D2000F7F82AE037ED43EA5BE3C701B6010E940A
:101D3000444018164CF163C186E2682E8BE0782E81
:101D400000E010E0C201002E02C0959587950A942C
:101D5000E2F780FF10C023E333E34BEC51E4D301FF
:101D60006D917D918D919C910E947F40F3016083E4
:101D70007183828393830F5F1F4FF4E06F0E711C9A
:101D800003301105F9F67ECF20E030E040E05FE35C
:101D9000C701B6010E94444018160CF462CF2FE62A
:101DA00032E143E85AE3C501B4010E947F409B0140
:101DB000AC01C701B6010E94444018160CF451CF83
:101DC0001EC1552009F4B7CC2091440B3091450B2E
:101DD0004091460B5091470B6091EF0A7091F00AC9
:101DE0008091F10A9091F20A0E94413E811107C14F
:101DF0002091480B3091490B40914A0B50914B0B6D
:101E00006091F30A7091F40A8091F50A9091F60AB4
:101E10000E94413E8111F3C020914C0B30914D0B3B
:101E200040914E0B50914F0B6091F70A7091F80A58
:101E30008091F90A9091FA0A0E94413E882309F4A0
:101E400010CFDDC028A12111DAC0C1018E7D9C7F99
:101E5000D9C080911A0B8130B1F423E333E34BEC0A
:101E600051E460913B0B70913C0B80913D0B909144
:101E70003E0B0E947F4060933B0B70933C0B809322
:101E80003D0B90933E0B40903B0B50903C0B609071
:101E90003D0B70903E0B20E030E040E850E4C30181
:101EA000B2010E947F40A30192010E947F402B015A
:101EB0003C01A7019601C701B6010E947F409B012A
:101EC000AC01C301B2010E94673D2B013C01A50199
:101ED0009401C501B4010E947F409B01AC01C30184
:101EE000B2010E94673D2B013C0120E030E0A901D6
:101EF0000E94413E87FDF7C2C301B2010E940C411E
:101F00002B013C01A5019401C701B6010E94E11A11
:101F10009B01AC01C301B20190580E94483E2B01C5
:101F20003C018091180B833021F477FA709477F894
:101F3000709480913B0B90913C0BA0913D0BB09124
:101F40003E0B89A39AA3ABA3BCA320E030E0A90178
:101F5000BC01CD010E94413E87FF11C077FA709409
:101F600077F8709489A19AA1ABA1BCA1B0588093D5
:101F70003B0B90933C0BA0933D0BB0933E0B0DA1FC
:101F80001EA1000F111F000F111F055E144FA301AA
:101F90009201C501B4010E947F409B01AC01C701C1
:101FA000B6010E94673D20E030E040E05FE30E9420
:101FB0007F40D8011B966D937D938D939C931E97C4
:101FC0000AA51BA5000F111F000F111F055E144F5E
:101FD000A3019201C701B6010E947F409B01AC01A1
:101FE000C501B4010E94683D20E030E040E05FE3BD
:101FF0000E947F40F8016387748785879687C101B7
:102000008E7D907E892B09F068C28091330B909170
:10201000340BA091350BB091360B8093EB0A909363
:10202000EC0AA093ED0AB093EE0A8091190B80930D
:10203000D90A8091220B9091230BA091240BB0918F
:10204000250B8093E60A9093E70AA093E80AB093E1
:10205000E90AC0903F0BD090400BE090410BF0900C
:10206000420BA70196016091E20A7091E30A809108
:10207000E40A9091E50A0E94413E8823C1F08091D4
:10208000E10A882321F0B701A6010E943A3080912D
:102090003F0B9091400BA091410BB091420B80936C
:1020A000E20A9093E30AA093E40AB093E50A8091D0
:1020B000430B8093EA0A8091210B9091E10A9817D3
:1020C00071F04091E20A5091E30A6091E40A709144
:1020D000E50A0E943A308091210B8093E10A8091B9
:1020E000200B9091E00A981731F00E940807809128
:1020F000200B8093E00A8091170B813051F460919E
:10210000370B7091380B8091390B90913A0B0E94EC
:10211000C41880911C0B8093DC0A80911A0B809369
:10212000DA0A38A13330F9F480911D0B8093DD0A6F
:10213000813089F480914C0B90914D0BA0914E0B06
:10214000B0914F0B8093130B9093140BA093150B2E
:10215000B093160B08C01092130B1092140B109230
:10216000150B1092160B80911E0B9091DE0A98179A
:1021700059F08093DE0A8CE0FE013D96ABEFBAE0A9
:1021800001900D928A95E1F780911B0B8093DB0AF9
:102190008091170B90E0FC013297E830F10508F0D0
:1021A00059C0E957FF4F0C949A41BE016F5F7F4FB2
:1021B0008E8D0E94DB2A8091DE0A9E8D89134AC093
:1021C0008CE0FE013196ABEFBAE028C0A8A1AA23AB
:1021D00081F0E090EB0AF090EC0A0091ED0A10918A
:1021E000EE0A20E040E050E060E87FEB84E49BE012
:1021F0008FD4E090EB0AF090EC0A0091ED0A109178
:10220000EE0A20E040E050E060E87FEBCE0101966E
:102210007FD48CE0FE013196AFEEBAE001900D92D2
:102220008A95E1F717C06FEE7AE086E003C06FEEA3
:102230007AE087E00E94DB2A0DC08CE0E4E4FBE05A
:10224000A7E0BBE0EBCF8CE0E7E0FBE0DF011D9215
:102250008A95E9F78091180B8093D80A883009F4A1
:10226000DFC0B8A1B23009F0DBC090E08830910542
:1022700008F0CDC0FC01E157FF4F0C949A41E0906B
:10228000EB0AF090EC0A0091ED0A1091EE0A20E0C2
:1022900040E050E060E87FEB12C0E090EB0AF09085
:1022A000EC0A0091ED0A1091EE0A4091E60A509175
:1022B000E70A6091E80A7091E90A2091D90A84E45A
:1022C0009BE026D4A4C0C090E60AD090E70AE09034
:1022D000E80AF090E90A00913B0B10913C0B209129
:1022E0003D0B30913E0B8091EE0A8F938091ED0A69
:1022F0008F938091EC0A8F938091EB0A8F9381E00A
:102300008F93E9A5EF93F8A5FF9321C0C090E60A4B
:10231000D090E70AE090E80AF090E90A00913B0BC0
:1023200010913C0B20913D0B30913E0B8091EE0AB9
:102330008F938091ED0A8F938091EC0A8F93809117
:10234000EB0A8F931F9289A58F9398A59F938FA0D7
:10235000A090D90A46E25BE064E47BE08FEE9AE06D
:1023600028D40FB6F894DEBF0FBECDBF50C0A090EA
:10237000EB0AB090EC0AC090ED0AD090EE0A4091C2
:10238000E60A5091E70A6091E80A7091E90AE12CA7
:1023900012C0A090EB0AB090EC0AC090ED0AD09069
:1023A000EE0A4091E60A5091E70A6091E80A7091BE
:1023B000E90AEE24E39400E025C0A090EB0AB09077
:1023C000EC0AC090ED0AD090EE0A4091E60A5091D6
:1023D000E70A6091E80A7091E90AE12C12C0A09026
:1023E000EB0AB090EC0AC090ED0AD090EE0A409152
:1023F000E60A5091E70A6091E80A7091E90AEE2432
:10240000E39401E02091D90A84E49BE0EFD68CE0CC
:10241000E4E4FBE0AFEEBAE001900D928A95E1F7BB
:1024200080911F0B8093DF0A882309F458C00E9413
:1024300027259091DF0A8091510B913041F4823031
:1024400079F188E00E94743C0E946E2329C091E0DB
:102450009093D80A1092DC0A1092DB0A1092D90AE3
:102460001092DE0A1092E10A1092E00A8230A9F07E
:10247000BE01635F7F4F80E00E949E2C882389F11C
:102480008CE0FE013D96ABEFBAE001900D928A958B
:10249000E1F70E946A2F0E94E80687E00E94AF25BC
:1024A0001092DF0A1CC081E01FC082E01DC088E1DD
:1024B0001BC089E119C084E017C08BE115C085E21B
:1024C00013C084E111C08EE10FC08FE10DC086E121
:1024D0000BC080E209C083E207C084E205C080E04F
:1024E00003C087E001C082E2AB960FB6F894DEBF6E
:1024F0000FBECDBFDF91CF911F910F91FF90EF9055
:10250000DF90CF90BF90AF909F908F907F906F9013
:102510005F904F903F902F900895EBE6F0E0808120
:102520008F788083E8E6F0E080818E7F8083089555
:1025300084B18F7884B985B1806785B98091350D74
:1025400083FF0BC080916B00806780936B0080914C
:1025500068008160809368000895DFCFCF92DF929A
:10256000FF920F931F93CF93DF931F92CDB7DEB7E8
:1025700093B190778091350D86FD02C080E7982752
:102580009923D9F0C12CD12CF12C01E010E08C2D35
:1025900099830E94762E9981892339F098010C2C19
:1025A00001C0220F0A94EAF7F22A8FEFC81AD80A5C
:1025B000E3E0CE16D10459F701C0F12C8F2D0F9016
:1025C000DF91CF911F910F91FF90DF90CF900895F1
:1025D0001F920F920FB60F9211240BB60F922F93EA
:1025E0003F934F935F936F937F938F939F93AF939B
:1025F000BF93EF93FF938091510B813041F0809115
:102600002102811104C0D2D683E00E94873CFF9151
:10261000EF91BF91AF919F918F917F916F915F915A
:102620004F913F912F910F900BBE0F900FBE0F90C7
:102630001F9018952F923F924F925F926F927F92C8
:102640008F929F92AF92BF92CF92DF92EF92FF92C2
:102650000F931F93CF93DF93CDB7DEB767970FB676
:10266000F894DEBF0FBECDBF482E8091500B811174
:102670009CC124E1A22E2DE0B22E9E01235F3F4F8C
:10268000190100E010E0C12CD12C7601642C712CD2
:10269000802F0E94622ED1018D931D01C301002E57
:1026A00002C0959587950A94E2F780FF1AC02DEC39
:1026B0003CEC4CE85FEBF501608171818281938194
:1026C0000E947F40688B572E4C01262F372FAC017C
:1026D000C701B6010E94444018161CF0C888D52CCA
:1026E00074010F5F1F4FF4E0AF0EB11C03301105F2
:1026F00079F680903B0D90903C0DA0903D0DB090F0
:102700003E0D24E0288B5524539465E57BE0CE01F3
:1027100001960E945B3C2090360D312CFE013196D3
:1027200085E59BE09F8B8E8B80E090E000E010E0E1
:10273000B701A60170589301082E02C03595279560
:102740000A94E2F720FF28C00F5FAE89BF891D926F
:102750001D921D921C9213979101082E02C035956F
:1027600027950A94E2F720FF03C0552019F007C00F
:10277000552029F0C082D182E282F38204C04083D6
:102780005183628373832DE030E02C0F3D1F280FAF
:10279000391FD9012C91122B019634962E893F892D
:1027A0002C5F3F4F3F8B2E8B8330910521F6602F9E
:1027B00070E080E090E00E94E13E0E940C419B01AD
:1027C000AC01C501B4010E947F40AB01BC01109374
:1027D0006E0B4A8B5B8B6C8B7D8B0E942B20CC24E9
:1027E000CA94DC2C760100E020E04A895B896C8980
:1027F0007D89CE0101960E94821C0E9428340E948D
:1028000061305520E1F0AADEFE013D9620E030E087
:1028100090E06191462F412359F0AC01022E02C095
:10282000559547950A94E2F740FF02C0609516233C
:102830002F5F3F4F2330310561F710936E0B0E94DD
:10284000283480912202847389F08091220280735F
:1028500021F0ACD50E946E23A8C05110A1C07EDE2D
:102860008421B9F784E00E947D3C04C0812F807EE2
:1028700009F0C7CF0E941733E5D780913F0D9091A3
:10288000400D94D631E05326C9F020E030E040E21C
:1028900051E46091410D7091420D8091430D9091F2
:1028A000440D0E947F406B017C018090370D909019
:1028B000380DA090390DB0903A0D10C0C090410D68
:1028C000D090420DE090430DF090440D80903B0D70
:1028D00090903C0DA0903D0DB0903E0D88898150A8
:1028E000888B811112CF8091360DA82FB0E0B98B63
:1028F000A88BC090410DD090420DE090430DF09018
:10290000440D1601270157FA509457F8509400EFE0
:102910001CE085E5882E8BE0982EA12CB12CC301FC
:102920000A2C02C0959587950A94E2F780FF29C08A
:10293000888999890A2C02C0959587950A94E2F7AF
:10294000F80180FF0EC024A135A146A157A1C701FF
:10295000B6010E94683DD8012D913D914D915C9149
:1029600006C02081318142815381C201B1010E94A0
:102970007F400E944F40D4016D937D938D939C9333
:102980001397BFEFAB1ABB0AE4E08E0E911C0C5FED
:102990001F4FF3E0AF16B10411F60E942B2005C0C3
:1029A0008091220282FF5ECF54CF67960FB6F894D3
:1029B000DEBF0FBECDBFDF91CF911F910F91FF9072
:1029C000EF90DF90CF90BF90AF909F908F907F90CF
:1029D0006F905F904F903F902F900895BF92CF924D
:1029E000DF92EF92FF920F931F93CF93DF938C01AF
:1029F000C4E1DDE0BB24B394F801C190D190E19033
:102A0000F1908F0120E030E0A901C701B6010E94DA
:102A1000444018164CF0288139814A815B81C701F6
:102A2000B6010E94413E87FDB092530B8091530B3B
:102A3000882309F18091510B803179F0B7D485E07A
:102A40000E94873CDF91CF911F910F91FF90EF90F3
:102A5000DF90CF90BF900C946E2388E00E94743C6E
:102A60000E946E238091500B81110BC08091510BFD
:102A70008111F6CFE3CF2496FDE0C032DF0709F0E5
:102A8000BBCFDF91CF911F910F91FF90EF90DF901F
:102A9000CF90BF9008950E94072A0E94432E0E9463
:102AA00029060E9441330E94D5398FE1E0E5FBE021
:102AB000DF011D928A95E9F781E08093500B7894AD
:102AC0008091350D84FF03C081E08093510B0E94FB
:102AD000C62A0E94C6070E94562F0E94EF0628DDD4
:102AE0000E9427220E94B62EADD60E9417330E9464
:102AF0002B200E94D8071092500B109222021092A5
:102B000021021092520B1092530B0E94AF24DFCF80
:102B10008F929F92BF92CF92DF92EF92FF920F938C
:102B20001F93CF93DF9300D01F92CDB7DEB74C0138
:102B3000B22E670178018091350D85FF0AC0C4016E
:102B400049835A836B837C8349DF7C816B815A8103
:102B500049818091510B8230E1F049835A836B8324
:102B60007C830E946E238091500B811112C0C2D6CB
:102B700049815A816B817C81882339F00E945222DD
:102B800049815A816B817C81E8CF00E02B2DC40103
:102B9000B9D60F900F900F900F90DF91CF911F91AA
:102BA0000F91FF90EF90DF90CF90BF909F908F900C
:102BB00008952F923F924F925F926F927F928F92E1
:102BC0009F92AF92BF92CF92DF92EF92FF920F93BC
:102BD0001F93CF93DF93CDB7DEB7E7970FB6F89487
:102BE000DEBF0FBECDBF9A8B898B1B013A010987CF
:102BF0001A872B873C87CB8ADC8AED8AFE8AA98ECE
:102C000024E0829E20011124840D951D9B8F8A8FC4
:102C1000CA01840D951D9D8F8C8FDC018D909D9038
:102C2000AD90BC90EA8DFB8D208131814281538132
:102C3000C501B4010E94683D6E8F7F8F88A399A360
:102C40002E960FAD2E97F4E00F9F80011124298955
:102C50003A89200F311F3BA32AA3C301800F911F84
:102C60009DA38CA3DC01CD90DD90ED90FC90F9014B
:102C70002081318142815381C701B6010E94683DA4
:102C80006EA37FA388A799A7D501C401B0588D83EF
:102C90009E83AF83B887D701C601B05889839A83D2
:102CA000AB83BC83F101E40DF51D2E8D3F8D48A152
:102CB00059A160817181828193810E94673D6B017E
:102CC0007C01F101E00FF11F2EA13FA148A559A5FC
:102CD00060817181828193810E94673D4B015C011B
:102CE000A70196016D817E818F8198850E947F402A
:102CF0002B013C01A501940169817A818B819C8122
:102D00000E947F409B01AC01C301B2010E94683D5B
:102D10002B013C01A50194016D817E818F819885F5
:102D20000E947F404B015C01A701960169817A8175
:102D30008B819C810E947F409B01AC01C501B40145
:102D40000E94673DA30192010E94DB3D6B017C0163
:102D500060968FAD6097882399F02DEB37E346E0BE
:102D600055EBC701B6010E94444087FD1DC02BED05
:102D70003FE049EC50E4C701B6010E94673D12C034
:102D80002DEB37E346E055E3C701B6010E94413E13
:102D9000181654F02BED3FE049EC50E4C701B601A2
:102DA0000E94683D6B017C018090290D90902A0D56
:102DB000A0902B0DB0902C0D29853A854B855C8514
:102DC000CA01B9010E94683DA50194010E94673DB6
:102DD0009B01AC01C501B4010E947F400E940C41DF
:102DE0004B015C0120E030E040E05FE3C701B60149
:102DF0000E947F4029853A854B855C850E947F40F3
:102E00009F77A50194010E94483E0E941E3F0E94A8
:102E1000B53E7BA76AA7DB01AB2B09F48FC14B0141
:102E2000A12CB12CB98DBB2381F0C501B4010E9446
:102E3000E13E9B01AC016B897C898D899E890E9452
:102E40007F406B8B7C8B8D8B9E8BC501B4010E9468
:102E5000E13E4B015C019B01AC01C701B6010E9440
:102E6000483E2B013C012F968FAD2F97E4E08E9FBB
:102E7000C001112429893A89280F391F388F2F8BD7
:102E8000F101E80FF91FD9012D913D914D915C9110
:102E900060817181828193810E94673DA5019401C7
:102EA0000E94483E6CAB7DAB8EAB9FABA301920101
:102EB000C301B2010E947F409B01AC0160E070E061
:102EC00080E090E40E94673D6B017C012BEA3AEAC6
:102ED0004AE25EE3C301B2010E947F404B015C0104
:102EE00020E030E040E850E4C701B6010E94683DB0
:102EF0009B01AC01C501B4010E947F406CA77DA776
:102F00008EA79FA720E030E040E05FE3C701B60155
:102F10000E947F4068AB79AB8AAB9BAB1D86E1E03A
:102F2000F0E0FA87E98729853A858AA59BA52817C5
:102F3000390709F403C1FD85FC3008F04AC028A90F
:102F400039A94AA95BA969817A818B819C810E94F8
:102F50007F406B017C012CA53DA54EA55FA56D8131
:102F60007E818F8198850E947F40A70196010E94F3
:102F7000683DB62EA72E982E892E28A939A94AA9D0
:102F80005BA96D817E818F8198850E947F406B0156
:102F90007C012CA53DA54EA55FA569817A818B8119
:102FA0009C810E947F409B01AC01C701B6010E9439
:102FB000673D6D837E838F8398872D852F5F2D8757
:102FC0008B2D9A2DA92DB82D89839A83AB83BC8331
:102FD0006BC0A985BA85BD0180E090E00E94E13E0A
:102FE000A30192010E947F406B017C010E94453E3B
:102FF00069837A838B839C83C701B6010E94024157
:103000004B015C01EC8DFD8DC080D180E280F380AE
:10301000F7FAF094F7F8F094ACA1BDA18D919D91D1
:103020000D90BC91A02D8D879E87AF87B88B29818D
:103030003A814B815C81C701B6010E947F406D835C
:103040007E838F839887A50194016D857E858F850A
:1030500098890E947F409B01AC016D817E818F81A8
:1030600098850E94683D6D837E838F839887A50134
:103070009401C701B6010E947F406B017C01298148
:103080003A814B815C816D857E858F8598890E9410
:103090007F409B01AC01C701B6010E94673D698377
:1030A0007A838B839C831D862D813E814F81588539
:1030B0006E8D7F8D88A199A10E94683DEA8DFB8D60
:1030C000608371838283938329813A814B815C8100
:1030D0006EA17FA188A599A50E94683DAAA1BBA168
:1030E0006D937D938D939C9313972CA93DA94EA925
:1030F0005FA9EF89F88D60817181828193810E943F
:10310000683DAF89B88D6D937D938D939C93139794
:103110006496ECACFDAC0EAD1FAD6497298D4B8968
:103120005C896D897E8989899A89F2DC8091500B4E
:10313000811111C0E985FA853196F3CE6496ECAC25
:10314000FDAC0EAD1FAD6497298D4B895C896D89EF
:103150007E89C101DDDCE7960FB6F894DEBF0FBEB5
:10316000CDBFDF91CF911F910F91FF90EF90DF9036
:10317000CF90BF90AF909F908F907F906F905F9017
:103180004F903F902F900895CF93DF9300D01F92E0
:10319000CDB7DEB72091510B223091F069837A834D
:1031A0008B839C830E94272540E069817A818B81F3
:1031B0009C810F900F900F900F90DF91CF91C6C11F
:1031C0000F900F900F900F90DF91CF910895A5D998
:1031D00084E030DA83E02EDA0E946E238091500B77
:1031E000811103C00E94D807A3C908956F927F92EE
:1031F0009F92AF92BF92CF92DF92EF92FF920F9386
:103200001F93CF93DF9300D01F921F92CDB7DEB7ED
:103210003C019E2C8091510B823009F473C02D83A8
:1032200049835A836B837C830E94272510926D0B00
:10323000802F0E9415220E9433222D8149815A81BC
:103240006B817C81882351F080E10E94873C0E9441
:103250006E237C816B815A8149812D818091500B35
:10326000811150C086017501C30152DC81E0809359
:10327000230282E00E94743C0E946E238091500BD6
:10328000811140C08091510B8111F6CF80912302B2
:10329000813081F4992051F08CE0E5E5FBE0A1E676
:1032A000BBE001900D928A95E1F707C080E10E9492
:1032B000873C03C081E080936D0B109223020E9433
:1032C0006E238091500B81111DC00E941733BAD21A
:1032D000C2D665E57BE0C3010E945B3C0F900F9076
:1032E0000F900F900F90DF91CF911F910F91FF9052
:1032F000EF90DF90CF90BF90AF909F907F906F90B6
:103300000C9436270F900F900F900F900F90DF9135
:10331000CF911F910F91FF90EF90DF90CF90BF90D2
:10332000AF909F907F906F900895CF92DF92EF9231
:10333000FF920F932091500B211132C03EEFC32E0C
:10334000DD24DA94ED2CFD2C01E0DCD29091540BBD
:103350008823E1F0892F8D7F88608093540B0E9431
:103360008B330E9428340E9461300E945922809140
:10337000500B811115C08091540B83FDF6CF0F9136
:10338000FF90EF90DF90CF900C94CD33977F909388
:10339000540B0F91FF90EF90DF90CF900C94592237
:1033A0000F91FF90EF90DF90CF90089580912202CF
:1033B00084FD19C080E10E94743C0E946A2F0E9423
:1033C000E8069091510B892F887121F48091540B5C
:1033D0008C7049F0983011F480E201C088E00E94BE
:1033E000873C0C94863008956F927F928F929F92C3
:1033F000AF92BF92CF92DF92EF92FF920F931F9303
:10340000CF93DF937C018B016A01FB018081F7017F
:10341000E80FF11D2081EF012D3229F42296218140
:103420006624639407C02B3211F0219602C02296C5
:103430002181612CA12CB12C712C60E070E0CB01BA
:10344000FE0130ED932E920E29E02915C8F0B394B9
:1034500028E02B1588F0A1107A94A5E0B0E09B013C
:10346000AC010E94AF41660F771F881F991F690D3D
:10347000711D811D911D0BC0A11009C0739407C05F
:103480002EEF921207C0A11005C0AA24A394219682
:103490002081D6CFBB2009F449C00E94E13E4B01F8
:1034A0005C0120E030E0A9010E94413E882361F1E7
:1034B0008FEF78166CF42AE037ED43E25CE3C50148
:1034C000B4010E947F404B015C0173947394F0CF70
:1034D00078120BC02DEC3CEC4CEC5DE3C501B40163
:1034E0000E947F404B015C010FC0772069F020E013
:1034F00030E040E251E4C501B4010E947F404B013D
:103500005C017A9417149CF3662021F0B7FAB0940A
:10351000B7F8B094F60180829182A282B382CE196C
:10352000DF09C150F801C08381E001C080E0DF9174
:10353000CF911F910F91FF90EF90DF90CF90BF90B0
:10354000AF909F908F907F906F9008950F931F93EF
:10355000CF93C42F20E030E040EA51E40E947F4046
:103560000E942E3E0E94B53E8B0101151105D1F03F
:103570008091500B811116C0C11103C00E946E23AF
:1035800005C097D78091520B81FD0CC02FEF80E7CB
:1035900092E0215080409040E1F700C000000150CF
:1035A0001109E3CFCF911F910F910895009741F03A
:1035B000EFE9FFE03197F1F700C000000197F6CF87
:1035C00008958F929F92AF92BF92CF92DF92EF9227
:1035D000FF9269017A019B01AC010E947F404B017F
:1035E0005C01A7019601C701B6010E947F409B01C3
:1035F000AC01C501B4010E94683DFF90EF90DF90DF
:10360000CF90BF90AF909F908F900C940C414F92B1
:103610005F926F927F928F929F92AF92BF92CF9262
:10362000DF92EF92FF920F931F93CF93DF9310914E
:103630004402111101C014E211500091420210170E
:1036400009F4EFC08DE2189FE0011124CA5BDD4F41
:103650008D889E88AF88B88C69A17AA18BA19CA126
:103660009B01AC010E94683D2DA13EA14FA158A530
:103670000E947F406B017C019B01AC01B401C5013C
:103680000E94413E87FF02C064017501A601B70197
:10369000498B5A8B6B8B7C8B111101C014E2772400
:1036A0007A94710E701619F02DE2622E27C0809167
:1036B0004502081351C00E9467334EC0679C8001C9
:1036C00011240A5B1D4F711002C094E2792E7A9486
:1036D00080914502781202C00E946733F801C588C4
:1036E000D688E788F08CA701960161897289838961
:1036F00094890E94413E811106C0E80180914202F6
:103700007812DCCF29C0F80161A172A183A194A134
:103710009B01AC010E94683DF80125A136A147A19B
:1037200050A50E947F4029893A894B895C890E9473
:10373000683D4B015C01A70196010E94413EF801E2
:1037400087FF05C0818A928AA38AB48AD6CFC18AAC
:10375000D28AE38AF48AD1CF60904202FDE26F9E62
:10376000800111240A5B1D4F77247394760C84E248
:10377000781201C0712C509044028DE2482E7514CD
:1037800009F44DC0479CE0011124CA5BDD4FF801EC
:1037900081889288A388B488C988DA88EB88FC88F5
:1037A000A7019601C501B4010E94413E87FF23C0D5
:1037B000F80161A172A183A194A19B01AC010E94B7
:1037C000683DF80125A136A147A150A50E947F4080
:1037D0009B01AC01C501B4010E94683D4B015C0135
:1037E000A70196010E94413E87FF05C0898A9A8AF7
:1037F000AB8ABC8A672C2D893E894F89588D69898F
:103800007A898B899C890E94413E811101C0672C75
:103810007394F4E27F1201C0712C8E01B0CF6092DC
:103820004202DF91CF911F910F91FF90EF90DF90B7
:10383000CF90BF90AF909F908F907F906F905F9050
:103840004F9008958CE1E6E2F2E0DF011D928A9547
:10385000E9F7109245021092440281E080934302FE
:103860001092420208959091450280914402891776
:1038700069F081E0890F843209F480E020914202EE
:10388000921302C080934202809345020895809172
:1038900044022DE2829FC00111248A5B9D4F08954E
:1038A0008091450290914402981739F02DE2829F51
:1038B000C00111248A5B9D4F089580E090E0089537
:1038C000E0914502EF5FE43209F4E0E080914402C8
:1038D000E81761F08DE2E89FF0011124EA5BFD4FEB
:1038E00061897289838994890C940C4160E070E04D
:1038F000CB01089581E02091450290914302291364
:1039000080E008952F923F924F925F926F927F9244
:103910008F929F92AF92BF92CF92DF92EF92FF92DF
:103920000F931F93CF93DF93CDB7DEB7CC54D1095C
:103930000FB6F894DEBF0FBECDBF4DAB5EAB6FAB25
:1039400078AF722E24960FAF249720914402EDE2B7
:103950002E9FA00111244A5B5D4F5CAB4BABFA017B
:10396000158616861786108A15A216A217A210A60B
:10397000108249E956E766E97EE741A352A363A3B3
:1039800074A3C1A6D2A6E3A6F4A62CE0002319F0E6
:10399000E5E5FBE002C0E6E2F2E0DE0159960190C7
:1039A0000D922A95E1F77C0100EF1CE05E0125E213
:1039B000A20EB11CAE01475E5F4F5AAF49AFCBA814
:1039C000DCA8CE010D964C01612CF701619171913B
:1039D000819191917F01F801208131814281538150
:1039E0000E947F400E944F40F50161937193819343
:1039F00091935F01E9ADFAAD2191319141915191DE
:103A0000FAAFE9AF621B730B840B950B9B01AC0102
:103A100097FF07C022273327A901261B370B480B26
:103A2000590BF6012183328343835483EBA9FCA90C
:103A3000258436844784508822153305440555056E
:103A400010F4A2019101EBA9FCA9258736874787CD
:103A5000508B0E94E33EF8012081318142815381E5
:103A60000E94483E1B012C01F401619371938193E4
:103A700091934F0120E030E0A9010E94413E87FF71
:103A800010C0EBA9FCA99081862D2D969FAF2D9794
:103A90000E946C2E2D969FAD2D97892BEBA9FCA92A
:103AA0008083A2019101C201B1010E947F40EBA974
:103AB000FCA925A136A147A150A50E94683DEBA90C
:103AC000FCA965A376A387A390A763940C5F1F4FFF
:103AD000F4E0CF0ED11C23E0621277CF0E940C419C
:103AE0006B017C01EBA9FCA965A376A387A390A732
:103AF00085859685A785B089892B8A2B8B2B09F420
:103B00008DC220E030E0A9016DA97EA98FA998ADF2
:103B10000E94413E87FD21C0772061F0A7019601F8
:103B20006DA97EA98FA998AD0E947F406DAB7EAB39
:103B30008FAB98AF20E030E040E85FE36DA97EA94D
:103B40008FA998AD0E94413E87FF0FC01DAA1EAAF3
:103B500050E85FAB8FE388AF08C0F9E9FDAB26E71B
:103B60002EAB36E93FAB4EE748AFA701960160E0C8
:103B700070E080E89FE30E94483E2A966CAF7DAFDC
:103B80008EAF9FAF2A97E2E3F2E02396FFAFEEAF4E
:103B900023972CEF3CE021963FAF2EAF2197AE014B
:103BA000475E5F4F5AAB49ABCE01019626969FAF59
:103BB0008EAF2697FE013D96FAAFE9AF412C512C0E
:103BC00032014BAE5CAE6DAE7EAE29AD3AAD2C96F9
:103BD0003FAF2EAF2C97F901C080D180E280F380F7
:103BE00020E030E0A901C701B6010E94413E8823D0
:103BF00009F47AC02A962CAD3DAD4EAD5FAD2A9743
:103C0000C701B6010E947F404B015C01E9ADFAADEE
:103C10006083718382839383EBA9FCA911A102A124
:103C200033A024A09B01AC012196EEADFFAD2197FE
:103C300064857585868597850E94483E6B017C0169
:103C4000E894F7F8A7019601612F702F832D922D2C
:103C50000E94413E87FD04C01C2D0D2D3E2C2F2CB3
:103C6000812F902FA32DB22DEBA9FCA981A392A3A4
:103C7000A3A3B4A3A50194012196EEADFFAD2197B6
:103C800060817181828193810E94483E6B017C0139
:103C9000E894F7F8A70196016DA97EA98FA998ADC0
:103CA0000E94413E87FF04C0CDA8DEA8EFA8F8AC73
:103CB0002396EEADFFAD2397208131814281538160
:103CC000C501B4010E947F409B01AC016BAD7CAD8E
:103CD0008DAD9EAD0E94673D6BAF7CAF8DAF9EAF4B
:103CE000CDAADEAAEFAAF8AE29AD3AAD2C5F3F4FC0
:103CF0003AAF29AF2396EEADFFAD239721913191D5
:103D0000419151912396FFAFEEAF23972C96EEADE4
:103D1000FFAD2C9760817181828193810E94673D04
:103D20002696EEADFFAD26976193719381939193A3
:103D30002696FFAFEEAF26979B01AC010E947F4015
:103D40009B01AC01C301B2010E94683D2B013C0103
:103D500021962EAD3FAD21972C5F3F4F21963FAF6F
:103D60002EAF219749AD5AAD89A99AA9481759078D
:103D700009F02BCF9091440280914502981729F0C9
:103D800024969FAD2497992339F0EBA9FCA9118AB9
:103D9000128A138A148A0EC02FEE3FEF4FE75FE3BB
:103DA0006BAD7CAD8DAD9EAD0E94444018163CF4C9
:103DB000EBA9FCA9118E128E138E148EB1C02FEEBA
:103DC0003FEF4FE75FEB6BAD7CAD8DAD9EAD0E94DD
:103DD000413E87FF0BC089E996E7A6E9BEE7EBA95C
:103DE000FCA9818F928FA38FB48F9AC0C301B201B7
:103DF0000E940C414B015C0138E0432E3DE0532E04
:103E00009E01235F3F4F3AAB29ABAE014F5F5F4F3F
:103E10001A0149E9742E06E716E95EE7652EF101FD
:103E2000C190D190E190F1901F0120E030E0A90114
:103E3000C701B6010E94413E8823F9F0F2012081BA
:103E4000318142815381C501B4010E947F40A701A5
:103E500096010E94483E6B017C01E894F7F8A701A7
:103E60009601672D702F812F962D0E94413E87FD70
:103E700004C07C2C0D2D1E2D6F2CF4E04F0E511C18
:103E800029A93AA92216330651F62BAD3CAD4DAD0A
:103E90005EAD60E070E080E89FE30E94673D20E057
:103EA00030E040E05FE30E947F400E940C416B01E4
:103EB0007C012091250D3091260D4091270D5091C8
:103EC000280D672D702F812F962D0E947F40A7010E
:103ED00096010E947F404B015C01A701960160E0C2
:103EE00070E080E89FE30E94673D9B01AC01C50143
:103EF000B4010E94483E7B018C0120E030E0A90122
:103F00000E94413E87FF04C0E12CF12C00E010E04C
:103F1000A701B801EBA9FCA9418F528F638F748F61
:103F20002DA93EA94FA958AD6DA97EA98FA998AD1D
:103F30000E947F40162F072FF82EE92E862F902FF4
:103F4000AF2DBE2DEBA9FCA9858F968FA78FB0A3AF
:103F5000A18CB28CC38CD48C60903E0270903F02D6
:103F600080904002909041029301A401612F702F34
:103F70008F2D9E2D0E94413E87FD0BC09301A40111
:103F8000B501C6010E94413E87FD11C05301640185
:103F90000EC0212F302F4F2D5E2DB501C6010E947E
:103FA000413E87FD04C0A12EB02ECF2CDE2CC501D2
:103FB000D601EBA9FCA9858B968BA78BB08F249695
:103FC000FFAD2497F1112CC08CE0FE013D96A2E3D9
:103FD000B2E001900D928A95E1F7812F902FAF2DDD
:103FE000BE2D80933E0290933F02A0934002B09377
:103FF00041028CE0FE01B596A6E2B2E001900D927E
:104000008A95E1F780914302809344028F5F843266
:1040100009F480E080934302FADA02C080E001C034
:1040200081E0C45BDF4F0FB6F894DEBF0FBECDBF9B
:10403000DF91CF911F910F91FF90EF90DF90CF9084
:10404000BF90AF909F908F907F906F905F904F90B8
:104050003F902F9008958091550B9091560BA09111
:10406000570BB091580B8093260290932702A09390
:104070002802B09329028091590B90915A0BA0917C
:104080005B0BB0915C0B80932A0290932B02A09360
:104090002C02B0932D0280915D0B90915E0BA0914C
:1040A0005F0BB091600B80932E0290932F02A09330
:1040B0003002B093310208958091440290914502FC
:1040C000891708F48C5D891B08950E9467338091DD
:1040D0004502809342029BCACF93DF93EC01899102
:1040E000882319F00E941D2AFACFDF91CF910895FD
:1040F000CF93DF93FC018491EF012196882321F077
:104100000E941D2AFE01F7CFDF91CF910895EF9213
:10411000FF920F931F93CF93DF931F92CDB7DEB71C
:10412000262FEDB6FEB66DB77EB7641B71090FB6CC
:10413000F8947EBF0FBE6DBF0DB71EB70F5F1F4F48
:10414000302FF8019E2F931B941728F4622F0E94A2
:104150006C419193F7CF442361F0F801E40FF11D16
:1041600031978081805D49830E941D2A4981415099
:10417000F2CF0FB6F894FEBE0FBEEDBE0F90DF91EA
:10418000CF911F910F91FF90EF90089548E062E06A
:10419000BECF8A3020F0843620F442E003C041E0F4
:1041A00001C043E06AE0B3CFBF92CF92DF92EF92BB
:1041B000FF920F931F93CF93DF93CDB7DEB72A976C
:1041C0000FB6F894DEBF0FBECDBF61157105810536
:1041D000910591F480E32A960FB6F894DEBF0FBEE6
:1041E000CDBFDF91CF911F910F91FF90EF90DF90A6
:1041F000CF90BF900C941D2A20E03AE0C32ED12C22
:10420000E12CF12CBB24B394B20E01E010E00C0FB2
:104210001D1F020F111DA70196010E947841F80190
:104220006083B901CA01611571058105910511F01D
:104230002B2DE8CFBB2049F0FE01EB0DF11D808155
:10424000805D0E941D2ABA94F5CF2A960FB6F89485
:10425000DEBF0FBECDBFDF91CF911F910F91FF90B9
:10426000EF90DF90CF90BF900895CF92DF92EF92C2
:10427000FF926B017C0197FF0AC08DE20E941D2A0C
:1042800066277727CB016C197D098E099F09FF905E
:10429000EF90DF90CF9088CF8F929F92AF92BF9296
:1042A000CF92DF92EF92FF920F931F93CF93DF9302
:1042B000CDB7DEB72A970FB6F894DEBF0FBECDBFDD
:1042C0006B017C01142F20E030E0A9010E94413EE7
:1042D00087FF07C08DE20E941D2AF7FAF094F7F8D5
:1042E000F094012F023060F020E030E048EC52E41E
:1042F000C701B6010E947F406B017C010250F2CFE2
:1043000010FF0AC020E030E040E251E4C701B601EE
:104310000E947F406B017C0120E030E040E05FE3E1
:10432000C701B6010E94683D0E94B03EE1E0F0E0A6
:10433000EC0FFD1FE10FF11D2EE22083D12C5AE07E
:10434000852E912CA12CB12C61157105810591054B
:10435000A9F0D11201C0D394EE24E394F12CEC0E19
:10436000FD1EED0CF11CA50194010E947841605DD9
:10437000F7016083B901CA01D394E6CF80E3D11677
:1043800048F4E1E0F0E0EC0FFD1FED0DF11D80833E
:10439000D394F5CF8D2DD1120BC0D394D3948F5FCE
:1043A000E1E0F0E0EC0FFD1FE80FF11D80E38083FA
:1043B000DD2041F0FE01ED0DF11D80810E941D2ADE
:1043C000DA94F6CF2A960FB6F894DEBF0FBECDBFB3
:1043D000DF91CF911F910F91FF90EF90DF90CF90E1
:1043E000BF90AF909F908F9008952091350D20FF42
:1043F00008C02BE832E441E25DE30E947F4044E0E4
:1044000001C043E049CF2091350D20FF08C02BE8C3
:1044100032E441E25DE30E947F4041E001C040E0C0
:104420003BCF43E039CF40E037CF10926F0B9091F4
:10443000350D97FD03C098E090936F0B882331F002
:1044400080916F0B98E0892780936F0B0895E7E0C8
:10445000F1E08081877F8083E8E0F1E080818860FF
:10446000808380E0E2CF80910601887090916F0B8D
:104470008927089580912302813099F4F4DF8823FD
:1044800081F0109223028CE0E5E5FBE0A1E6BBE0C1
:1044900001900D928A95E1F78091220280648093C9
:1044A00022020895FDD9892B19F082E00C94743C06
:1044B0000895CF93DF93C0912102CC2329F181E0AD
:1044C0008093510BC1FD0FC0C2FF02C082E00BC040
:1044D000C3FF02C083E007C0C4FF02C084E003C082
:1044E000C5FF02C085E014D3C0FD04C08FEF0E9459
:1044F000903C0AC081E033D380E10E947D3C8091F2
:10450000220284FFFCCFF2CFC0912202CC2309F417
:10451000DAC0C4FF04C081E08093500BDCC0C0FF50
:1045200004C021D681E00E947D3C8C2F887E09F456
:104530006AC08091510B982F937009F061C0DC2FF5
:10454000D072803169F40E94673384E08093540B09
:10455000DD2331F040E060E080E092E00E94190548
:104560008091510B811106C091E09093520B92E023
:104570009093540BC6FF0AC0803119F484E08093F5
:10458000510B8091520B80648093520BC3FF07C084
:104590008091510B807C19F480E28093510BDD23D4
:1045A00051F186E0DCD28091510B8034C1F48091CE
:1045B000520B83FF14C08091540B83FF0AC00E94EA
:1045C00067338CE08093540B8091520B8E7F8093E5
:1045D000520B8091520B837E82608093520B8091AC
:1045E000520B80628093520B8091510B803819F0EE
:1045F00080E48093510BC7FF03C080E88093510B88
:1046000088EE0E947D3CC1FF3FC08C2F8876C9F5A3
:104610008091510B803471F48091520B85FD0AC05A
:1046200084FF03C01092510B05C082FF03C0886055
:104630008093520B8091510B882331F0847209F1E1
:104640008091520B80FF1DC01092540B29D9892BE9
:1046500071F08091520B86FD0AC01092520B80E1DE
:104660008093510B0E9428340E94613004C0109244
:10467000520B1092510B43E06FEF82E192E00E94E7
:10468000190582E00E947D3CC2FF1DC08091510B44
:10469000807E91F08091530B81110EC016DD9091B8
:1046A000540B92FF05C08091520B81608093520B96
:1046B000937F9093540B04C01092520B1092510BA5
:1046C00084E00E947D3C8091510B8C7F21F0DF9132
:1046D000CF910C942834DF91CF9108958F929F92BF
:1046E000AF92BF92CF92DF92EF92FF921F93CF9340
:1046F000DF93CDB7DEB768970FB6F894DEBF0FBE75
:10470000CDBFD7DE8091520B882309F416C1C12C8E
:10471000D12C90EAE92E90E4F92E1CE08091520B06
:10472000882309F40AC19091500B911106C1909110
:10473000510B292F207C09F4FCC080FFFAC082FDB8
:104740007DC065E57BE0CE0101960E945B3C8091D7
:10475000520B81FD21C0FE013196DE011D96812F95
:1047600001900D928A95E1F72D893E894F89588DE8
:10477000C701B6010E94683D6B017C0120E030E07A
:1047800040EA50EC0E94413E87FD06C0C12CD12C6E
:1047900080EAE82E80ECF82E8091350D84FF43C02E
:1047A00089849A84AB84BC8420E030E040EA50ECF9
:1047B000C501B4010E94413E87FF35C0A7019601A3
:1047C000C501B4010E94413E87FF0CC0C986DA864C
:1047D000EB86FC8640E050E06AEF73E4CE01019680
:1047E0000E9495190E946A2F0E94E80620E030E09E
:1047F00040EA50EC69857A858B859C850E94413E14
:1048000087FF15C080E090E0A0EAB0EC89879A8726
:10481000AB87BC8740E050E060E87FEBCE010196BB
:104820000E94951904C00E946A2F0E94E806809198
:10483000520B8D7F84608093520B7BC09034A9F41F
:104840000E94343A811111C08091520B85FF08C03B
:1048500041E050E068E270E082E192E00E941E05D3
:104860008091520B8F7D8093520B8091520B83FF6E
:1048700060C08091350D84FF18C020E030E040EA30
:1048800050EC69857A858B859C850E94413E18167F
:1048900064F0C986DA86EB86FC8640E050E060E88A
:1048A0007FEBCE0101960E9495198091E10A882341
:1048B000A9F09091520B91FD11C04091E20A5091E4
:1048C000E30A6091E40A7091E50A0E94882F41E0B2
:1048D00060E070E080E89FE30E94A61A8091E00A01
:1048E000882369F09091520B91FD09C00E94F60651
:1048F00041E060E070E080E89FE30E94A61A8091AA
:10490000350D84FF0CC08091520B81FD08C040E042
:1049100050E06AEF73E4CE010D960E9495198091E4
:10492000520B81FD06C080618093520B82E00E9491
:10493000743C0E94D92EBDDDF1CE68960FB6F89476
:10494000DEBF0FBECDBFDF91CF911F91FF90EF90E3
:10495000DF90CF90BF90AF909F908F900895CF93AE
:10496000DF932CD18091510B813019F482E0F7D084
:104970002CC01092510B0E94343A882331F0809160
:104980002202806280932202A9DE8AE998E00E94D6
:10499000373A1BC08D3059F0CC2381F1893209F4AC
:1049A000CD7F95D58F3F09F446C08A3099F796DEC2
:1049B0008091500B811148C0ED2FF0E0E656F74F83
:1049C0001082C0FF05C08BE051D0D0E0C0E0E9CF3D
:1049D00080919A088823C1F3843229F48AE998E007
:1049E0000E94563AF1CF8091510B813011F489E049
:1049F000EBCF8AE998E00E94DE07E6CF813288F2A9
:104A00008F3279F2883289F08B3389F0DF3F89F079
:104A10002D2F30E0DF5F9FE9980FF901E656F74F41
:104A20009A3108F480528083BCCFC2E0BACFC4E090
:104A3000B8CFC1E0B6CF36DD51DE8091500B811189
:104A400003C00E94D92EADCFDF91CF9108952ADD0A
:104A500045DE8091500B811108C00E94501C892BAB
:104A6000B9F78091510B803199F30895CF93C82FF6
:104A7000811103C083EC99E049C08BEB99E038DBEE
:104A80004C2F50E0FA013197E631F105C0F5E956B7
:104A9000FF4F0C949A4183EA99E002C081E999E0C2
:104AA00027DB32C08FE799E0FBCF85E799E0F8CFAD
:104AB00084E699E0F5CF85E599E0F2CF84E399E0CB
:104AC000EFCF8BE299E0ECCF80E299E0E9CF8DE087
:104AD00099E0E6CF8FEF98E0E3CF8DEE98E0E0CF5E
:104AE00082EE98E0DDCF8DEC98E0DACF87EB98E0AE
:104AF000D7CF83EA98E0D4CF8FE898E0D1CF8DE785
:104B000098E0F6DA8C2F45DB8AE798E0CF91F0CA7F
:104B1000CF93C82F82E798E0EBDAC33091F03CF4F2
:104B2000C13061F0C23099F48CE598E00FC0C43018
:104B300059F0C53061F482E398E008C087E698E058
:104B400005C089E498E002C08EE398E0D1DA8FE2F4
:104B500098E0CEDA84EF91E0CF910C94D61ACF93FF
:104B6000C82F8DE298E0C4DA8C2F90E0FC013197D9
:104B7000E930F105F8F4E355FF4F0C949A418BE1CD
:104B800098E017C087E098E014C085EF97E011C067
:104B90008DEE97E00EC084EE97E00BC089ED97E0B4
:104BA00008C081ED97E005C08EEB97E002C083EB73
:104BB00097E09EDA8FEA97E0CF919ACA8EE897E065
:104BC00097CA8AE496E094CAFF920F931F93CF93FB
:104BD000DF9386E496E08CDA8091200DDADA8DE2BC
:104BE00096E086DA8091230DD4DA8FE096E080DAC1
:104BF0008091210DCEDA86EF95E07ADA8091210D51
:104C0000C5DA8FEE95E074DA8091220DC2DA87ED75
:104C100095E06EDA8091220DB9DA80ED95E068DAE0
:104C20008091350D82FB882780F9B3DA8FEA95E011
:104C30005FDA8091350D86FB882780F9AADA8FE844
:104C400095E056DA8091350D881F8827881FA1DAF4
:104C50008FE695E04DDA8091240D9BDA89E595E0A9
:104C600047DA8091240D92DA81E595E041DA60918E
:104C7000250D7091260D8091270D9091280DD1DB87
:104C800081E395E035DA6091290D70912A0D8091CC
:104C90002B0D90912C0DC5DB86E195E029DA8091F2
:104CA000350D817076DA89EF94E022DA8091350D46
:104CB00085FB882780F96DDA8EED94E019DA809112
:104CC000350D83FB882780F964DA83EC94E010DAF1
:104CD0008091350D829581705CDA87EA94E008DA7C
:104CE0008091360D56DA8DE894E002DA8091360D27
:104CF0004DDA85E894E0FCD96091370D7091380D5C
:104D00008091390D90913A0D8CDB88E694E0F0D9D2
:104D100060913B0D70913C0D80913D0D90913E0D49
:104D200080DB8BE494E0E4D980913F0D32DA8CE2B1
:104D300094E0DED96091410D7091420D8091430D58
:104D40009091440D6EDB8FE094E0D2D960912D0DEF
:104D500070912E0D80912F0D9091300D64DB8EEFB0
:104D600093E0C6D96091310D7091320D8091330D71
:104D70009091340D58DB81EF93E0BAD98CEE93E03B
:104D8000B7D96091450D7091460D8091470D909176
:104D9000480D42E081DA89ED93E0AAD984E6F82E45
:104DA00010E0C0EFDCE000E087ED93E0A1D9802FB8
:104DB0008F0DEFD985ED93E09BD9123071F0133050
:104DC000B9F0113029F0688179818A819B8117C0FF
:104DD0006C857D858E859F8512C020E030E041E6A0
:104DE00055E4688D798D8A8D9B8D0E94483E07C061
:104DF0008CA19DA1AEA1BFA1BC01CD01905811DB3A
:104E000082ED93E075D9013029F0023031F080ED68
:104E100093E005C08EEC93E002C08CEC93E068D97F
:104E2000123051F0133059F0113019F082EC93E048
:104E300008C080EB93E005C08FE993E002C08FE8E3
:104E400093E056D98BE893E053D90F5F2496033053
:104E500009F0AACF8AE0F80E1F5F8CE8F812A1CF04
:104E6000DF91CF911F910F91FF900895CF9385E827
:104E700093E03ED9C0E06C2F81E69BE00E94433C6A
:104E8000B4DAC23019F083E893E032D9CF5FC3308F
:104E900091F781E893E02CD980916D0B7AD98DE759
:104EA00093E0CF9125C9EF92FF920F931F93CF9379
:104EB000DF93CDB7DEB72C970FB6F894DEBF0FBEE9
:104EC000CDBFF12CBE016F5F7F4F8F2D37D5811184
:104ED00003C087E0CBDD5CC08AE793E009D986E0B8
:104EE000F81631F0E7E0FE1207C084E793E002C055
:104EF00087E793E0FDD803C086E38F0D4AD982E7A8
:104F000093E0F6D88E010F5F1F4FE12CF8016191FD
:104F10007191819191918F0168DAF2E0EF1619F0A9
:104F200080E793E002C08CE693E0E2D8E39483E06C
:104F3000E812ECCFF394E8E0FE12C4CF86E693E0EB
:104F4000D7D807E01BE0F12CF801619171918191B4
:104F500091918F014ADAF2E0FF1619F084E693E0AE
:104F600002C080E693E0C4D8F39483E0F812ECCF5B
:104F70008AE593E0BDD86091130B7091140B80917A
:104F8000150B9091160B31DA86E593E0B1D86EDF00
:104F90002C960FB6F894DEBF0FBECDBFDF91CF9138
:104FA0001F910F91FF90EF90089584E593E0A0D8B2
:104FB0008091D80A823091F038F4882361F08130F2
:104FC000A1F48EE493E00CC0833061F0883069F482
:104FD00084E493E005C081E593E002C08BE493E0B4
:104FE00087D80AC088E493E0FBCF8FE393E080D8B2
:104FF0008091D80A8250CDD88CE393E079D8809103
:10500000DE0A8A5CC6D88091DC0A813049F028F03B
:10501000823049F48DE293E005C087E393E002C05B
:1050200082E393E065D88091DA0A811103C088E2B7
:1050300093E002C083E293E05BD88091DB0A8111A8
:1050400003C08EE193E002C089E193E051D88091E2
:10505000D90A813019F484E193E002C08FE093E033
:1050600047D88091DF0A813049F028F0823049F436
:1050700083E093E005C08BE093E002C087E093E01B
:1050800037D88091E10A813031F040F0823049F424
:105090008BEF92E005C08FEF92E002C087EF92E0C5
:1050A00027D88091E00A813049F028F0823049F415
:1050B0008FEE92E005C083EF92E002C08BEE92E0AB
:1050C00017D888EE92E014D88091EA0A62D885EE6B
:1050D00092E00ED86091E60A7091E70A8091E80AA2
:1050E0009091E90A90D982EE92E002D86091E20AAA
:1050F0007091E30A8091E40A9091E50A94D98EEDCB
:1051000092E00C9478201F93CF93DF93182FEB013C
:105110008BED92E00E947820812F3BD889ED92E0C0
:105120000E947820CE010E946C2086ED92E0DF91F3
:10513000CF911F910C947820CF93DF93EC0185ECF5
:1051400092E00E947820CE010E946C208FEB92E0CA
:105150000E94782080911D021CD88BEB92E0DF9199
:10516000CF910C947820BF92CF92DF92EF92FF9272
:105170000F931F93CF93DF93CDB7DEB768970FB62A
:10518000F894DEBF0FBECDBF8CE0E5E5FBE0DE01AD
:105190001D9601900D928A95E1F78091510B883010
:1051A000F9F040F48130F9F090F08230F9F0843079
:1051B00089F02FC0803289F018F4803159F029C06D
:1051C0008034B9F0803829F58DE792E020C085EB76
:1051D00092E01DC080EB92E01AC08AEA92E017C00C
:1051E00084EA92E014C08DE992E011C086E992E071
:1051F0000EC08091520B82FD03C080E992E007C08F
:1052000085FF03C08AE892E002C084E892E00E9431
:1052100078208091240D837039F0BE01635F7F4F49
:10522000CE0101960E945B3C8091240D80FD05C05B
:105230008091240D81FF69C01CC086E792E00E9426
:10524000782069817A818B819C81CFD884E792E034
:105250000E9478206D817E818F819885C6D884E7F1
:1052600092E00E94782069857A858B859C85BDD8DF
:10527000DFCF8DE692E00E9478209BEFE92E9AE046
:10528000F92E8E010F5F1F4FB12C6801F70161915C
:105290007191819191917F0120853185428553855E
:1052A0000E94683D9B01AC01F8016081718182819F
:1052B00093810E94673DF8016083718382839383A9
:1052C000F2E0BF120FC02091130B3091140B4091EC
:1052D000150B5091160B0E94673DF8016083718396
:1052E000828393830C5F1F4FF601608171818281FD
:1052F00093817BD8F2E0BF1621F08BE692E00E940A
:105300007820B39423E0B212C0CF8091240D82FFA5
:1053100008C085E692E00E9478200E945C200E94EE
:10532000C9208091240D83FF07C080E692E00E948F
:10533000782067D00E94C9208091240D807771F178
:105340008AE592E00E9478208091240D84FF06C0B7
:105350000E94AE1243E062E00E94872088E592E05E
:105360000E9478208091240D85FF0AC07CD8882374
:1053700019F086E592E002C084E592E00E94782070
:1053800082E592E00E9478208091240D86FF06C07D
:105390000E94EA3944E062E00E9487208091240D57
:1053A00087FF1BC08EE492E00E94782060911B0270
:1053B00070911C0280E090E00E94E13E2AE037ED0F
:1053C00043E250E40E947F4020E030EC4FE754E499
:1053D0000E94483E42E00E944C218AE492E00E94F2
:1053E000782068960FB6F894DEBF0FBECDBFDF9170
:1053F000CF911F910F91FF90EF90DF90CF90BF90D2
:10540000089590919C0980919D09891B0895E0EC75
:10541000F0E08081826080831092C50080E18093FB
:10542000C400E1ECF0E0808180618083808188604D
:1054300080838081806880830895E0919B0991E05A
:105440009E0F903809F490E020919A09921305C0BC
:105450002091220224FFF8CF0895F0E0E059F44FA4
:10546000808390939B098091C10080628093C100EA
:1054700008951F920F920FB60F9211240BB60F9240
:105480008F939F93EF93FF9380919A09E82FF0E019
:10549000E059F44F90819093C6008F5F803809F4F3
:1054A00080E080939A0990919B09891305C08091AF
:1054B000C1008F7D8093C100FF91EF919F918F91EB
:1054C0000F900BBE0F900FBE0F901F9018959091EC
:1054D0009C0980919D09891749F0E92FF0E0E0517E
:1054E000F44F80819F5F90939C0908958FEF0895FA
:1054F0001F920F920FB60F9211240BB60F922F939B
:105500003F934F935F936F937F938F939F93AF934B
:10551000BF93EF93FF938091C6008F3369F030F40F
:10552000883181F0813289F488E009C0803431F01B
:105530008E3759F482E003C081E001C080E20E940E
:10554000743C11C00E94D6190EC0E0919D0991E0F3
:105550009E0F20919C09921731F0F0E0E051F44F3A
:10556000808390939D09FF91EF91BF91AF919F919F
:105570008F917F916F915F914F913F912F910F90FC
:105580000BBE0F900FBE0F901F90189580919D0934
:1055900080939C09089521E5829FC001112440E574
:1055A00050E09D5F0C94470740E550E0BC018EEA57
:1055B00093E00C9447072DE0829FC00111244CE03A
:1055C00050E09E5F0C9447076BE080E090E00E9403
:1055D000250749E550E060EF7CE081E090E00C9425
:1055E0004707AF92BF92CF92DF92EF92FF920F9355
:1055F0001F93CF93DF93CDB7DEB72C970FB6F894F8
:10560000DEBF0FBECDBF182F80FFFFC08AE08093A2
:10561000200D8FEF8093230D1092210D1092220DFB
:1056200023E02093240D8AE097EDA3EABCE3809366
:10563000250D9093260DA093270DB093280D8FE68E
:1056400092E1A3E0BBE38093290D90932A0DA093F0
:105650002B0DB0932C0D80E090E8ABE3B6E4809383
:105660002D0D90932E0DA0932F0DB093300D109211
:10567000310D1092320D1092330D1092340D209393
:10568000360D80E090E0A6E9B2E48093370D909368
:10569000380DA093390DB0933A0D80E090E8ABEB54
:1056A000B4E480933B0D90933C0DA0933D0DB093DB
:1056B0003E0D8AEF90E09093400D80933F0D80E087
:1056C00090E0A0E8B0E48093410D9093420DA09348
:1056D000430DB093440D80E18093350D8BE297EC40
:1056E000A1EBB2E48093F00C9093F10CA093F20C38
:1056F000B093F30C8093F40C9093F50CA093F60CFC
:10570000B093F70C8EE492EFACEBB3E48093F80C1B
:105710009093F90CA093FA0CB093FB0C40E050E48A
:105720006CE975E44093FC0C5093FD0C6093FE0C07
:105730007093FF0C4093000D5093010D6093020D88
:105740007093030D80E090E0A8E4B4E48093040D2E
:105750009093050DA093060DB093070D40E05AEB12
:105760006BED79E44093080D5093090D60930A0D99
:1057700070930B0D40930C0D50930D0D60930E0D17
:1057800070930F0D80E090EFA2E5B8E48093100DC8
:105790009093110DA093120DB093130D80E090E043
:1057A000A6E9B3EC8093140D9093150DA093160DFC
:1057B000B093170D83E393E3ABE4B3EC8093180D40
:1057C0009093190DA0931A0DB0931B0D80E090E0FB
:1057D000A0EAB2EC80931C0D90931D0DA0931E0DBA
:1057E000B0931F0D8DEC9CECACE8BFE38093450DAE
:1057F0009093460DA093470DB093480D81E090E043
:1058000090931A0280931902DFDE11FF43C0CE018C
:1058100001965C018CE0F50111928A95E9F700E0B0
:10582000B501802FC8DE0F5F0830D1F780E090E42B
:10583000ADE8B3EC89839A83AB83BC8380E090E8C6
:10584000A7E4B3EC8D839E83AF83B887C12CD12CA2
:1058500080E8E82E8FEBF82EC986DA86EB86FC8688
:10586000B50186E0A8DE80E090E0A6E1B3EC898394
:105870009A83AB83BC8380E090E0A0E2B1EC8D839F
:105880009E83AF83B887C986DA86EB86FC86B5012E
:1058900087E091DE12FF0AC060E080E093E00E94A2
:1058A000250760E081E593E00E94250713FF05C00E
:1058B00060E08EEA93E00E9425072C960FB6F894DC
:1058C000DEBF0FBECDBFDF91CF911F910F91FF9033
:1058D000EF90DF90CF90BF90AF9008951F93CF933C
:1058E000DF93182FEB0181E5189FB00111247D5F34
:1058F00040E550E0CE010E948307892B31F41882E5
:10590000BE01812F48DE80E001C081E0DF91CF91B0
:105910001F910895CF93DF93EC0140E550E06EEACC
:1059200073E00E948307892B29F41882CE013CDEA4
:1059300080E001C081E0DF91CF9108951F93CF9364
:10594000DF93182FEB018DE0189FB00111247E5FCB
:105950004CE050E0CE010E948307892B51F48CE08B
:10596000FE0111928A95E9F7BE01812F24DE80E0C5
:1059700001C081E0DF91CF911F91089580E090E018
:105980000E941D078B3059F449E550E061E070E05A
:1059900080EF9CE00E94830721E0892B09F420E03E
:1059A000822F0895CF92DF92EF92FF92CF93DF93F1
:1059B000C82F6A017B0120E030E0A901C701B601D0
:1059C0000E94413E87FD4FC1C43608F478C0C456DA
:1059D00080E0C33008F06AC0D0E0823009F43EC0F5
:1059E000833009F454C0FE01EE0FFF1FEE0FFF1FBE
:1059F0008130D1F0E450F34F2081318142815381D5
:105A0000C701B6010E947F4020E03AEB4BED59E41C
:105A10000E94444018160CF428C1CC0FDD1FCC0F97
:105A2000DD1FC051D34F3DC0E051F34F2081318184
:105A300042815381C701B6010E947F4020E03AEBCA
:105A40004BED59E40E94444018160CF40EC1CC0FE3
:105A5000DD1FCC0FDD1FC450D34F23C0CC0FDD1F83
:105A6000CC0FDD1FC85FD24F20E030E040E752E4AA
:105A7000C701B6010E947F4020E030E040E752E4D9
:105A80000E947F40688379838A839B83E9C0CC0F1F
:105A9000DD1FCC0FDD1FCC5ED24FF7FAF094F7F884
:105AA000F094C882D982EA82FB82DAC08F5FCA3062
:105AB00008F4DDC0843009F4DAC0CA508ACFC701C7
:105AC000B6010E944D410E94B53E8C2F90E0833379
:105AD000910508F0CCC0FC01EA54FF4F0C949A41A8
